:020000040800F2
:1000000000200010D5140308991B0208AD51000808
:10001000951B0208911B02088D1B020800000000BE
:10002000000000000000000000000000891B020822
:10003000851B020800000000811B020889140008CB
:100040003D1503083D1503083D1503083D1503083C
:100050003D1503083D1503086D220008992300088B
:100060005D23000821230008E5220008F939000873
:10007000E9390008D9390008C9390008B939000838
:10008000A5390008913900083D1503083D150308FE
:10009000152602083D1503083D150308A92200088E
:1000A000E15D0008415E00083D150308515E00084F
:1000B000315E0008215E0008115E00083D1503084E
:1000C0003D1503083D1503083D1503083D150308BC
:1000D0003D150308B515000839150008BD140008C2
:1000E000312200083D150308711B02083D15030865
:1000F000F15D00083D150308015E00083D15030889
:100100000000000000000000000000003D15030892
:100110003D1503083D150308F1EE0008D5EE000873
:100120007D3900086939000855390008413900084F
:100130002D3900083D1503080000000000000000F4
:100140003D1503083D1503083D1503080000000098
:10015000000000000000000000000000000000009F
:1001600000000000000000003D1503083D150308D5
:100170003D15030800000000000000000000000022
:08018000000000003D1503081A
:1001880070B4EFF31186502383F31288436B1A6817
:10019800D20720D45D686DB9446A826A944217D048
:1001A80081691144D9600ED9A21A5A60846200226A
:1001B80080F850201A6842F00102F1B21A6081F307
:1001C800118870BC704701698A1A5A608562EEE727
:1001D800012380F85030F1B281F3118870BC704768
:1001E800436A8269D154436A0169426B01338B4285
:1001F80028BF00234362002A2FD0EFF31181502338
:1002080083F31288436B1A68D2072CD470B45E68E3
:100218006EB9456A826A954217D084691444DC60D5
:100228000ED9AA1A5A608562002280F850201A68EE
:1002380042F00102C9B21A6081F3118870BC70479C
:100248000469A21A5A608662EEE7012380F85030EA
:10025800C9B281F3118870BC7047C26C136843F04F
:10026800800313607047C9B281F31188704700BFDB
:10027800026B10B462B1036CC2684469D11A013BC5
:10028800615C5DF8044B08BF13460364C8B270474D
:10029800016A4369C4685B5C0131A14228BF114609
:1002A80001625DF8044BD8B2704700BF436B13B1CD
:1002B80090F850007047836A406A181AB0FA80F0C4
:1002C80040097047416A836A99420AD3CB1A416B45
:1002D800026961B14968501E0B4483420AD2C01AB0
:1002E800704702691144CB1A416B0029F2D1501EA4
:1002F800C01A704700207047036B43B1026C5B68FB
:1003080093422FBF981AC0689B1AC0187047C269D9
:10031800036A9A422FBFD01AC0688018C01A704763
:100328000A4B30B503F1140493F900205D78072ACD
:10033800C8BF143A811804330D7313F8025C85544E
:1003480013F8012C0A76A342EED130BDFC3D030818
:1003580003682DE9F041DF691FB13B46BDE8F04174
:100368001847002A164611DD04460D460E4400E0E3
:1003780023689B68204698470028F9D0236815F819
:10038800011B1B6820469847AE42F1D1BDE8F081B9
:1003980000232322027043708370C37070471523B3
:1003A80003701623C370172383712D2343702E23E4
:1003B80003712F23C37170472DE9F041846814B18C
:1003C8002568A4882C8541F08001446840F2E9350D
:1003D80001E0002D5AD02689013D16F0020FADB27A
:1003E800F7D0217304F10C0640F2E93101E000294D
:1003F8005DD02589013915F0010F89B2F7D0317820
:100408004468A1894FF0000C4FF47A714FF6FF76DB
:100418004FF0FF0E634502D130E0B1421ED025896E
:10042800013915F0020589B2F7D084F80CE004F11F
:100438000C084FF47A7102E0B9B2B1420ED02589A6
:1004480015F0010501F1FF37F6D098F80050EDB22C
:100458000AB1157001320CF1010CDBE71C4B9C4210
:1004680004D0A3F578439C4208D10125194B03EB2E
:1004780005156B8901339BB26B816B89836813B156
:100488001A689B8893610120BDE8F08110498C426D
:1004980004D0A1F578418C42B3D101250D4901EB77
:1004A80005156989013189B269816989A9E7084D0A
:1004B800AC4203D008498C42A2D10121054C04EB7F
:1004C80001114C890134A4B24C814989446898E7E8
:1004D80000300140C87E00200038004030B48368F6
:1004E80013B11C689B882385436840F2E93401E016
:1004F800002C37D01D89013C15F0020FA4B2F7D0AB
:10050800197303F10C0540F2E93101E000294BD0E1
:100518001C89013914F0010F89B2F7D02B78436890
:1005280040F2E93101E000292DD01C89013914F08D
:10053800020F89B2F7D01A7303F10C0440F2E932C2
:1005480001E0002A41D01989013A11F0010F92B255
:10055800F7D02378836813B11A689B8893610120C8
:1005680030BC704721498B4204D0A1F578418B42B9
:10057800D6D101241E4901EB04146189013189B2E5
:1005880061816189CCE7194A934204D0A2F5784287
:100598009342DFD10121164B03EB01114B89013343
:1005A8009BB24B814B89D5E7104CA34203D011492C
:1005B8008B42B4D101210E4B03EB01114B8901335E
:1005C8009BB24B814B894368AAE708498B4203D009
:1005D800084A9342BED10122054B03EB021253890C
:1005E80001339BB253815389B4E700BF0030014007
:1005F800C87E002000380040002870B51EDB09289E
:10060800044620DD012303EB83035B00B0FBF3F218
:10061800092AF8D87BB10E4EB4FBF3F00928CCBFF9
:1006280057223022A6FB03E5024403FB1044EB08E3
:1006380001F8012BF0D100230B7070BD2D230B7036
:1006480040420131DBE7303001F8010BF3E700BF2E
:10065800CDCCCCCC884230B44FF001042ED301FB72
:1006680004F4B0FBF4F58D42F9D284B1AAB901E0E3
:10067800B0FBF4F5092DCCBF572230222A4404FBE5
:10068800150003F8012BB4FBF1F4002CF0D1002283
:100698001A7030BC7047B0FBF4F5092DCCBF372277
:1006A80030222A4404FB150003F8012BB4FBF1F4B3
:1006B800002CF0D100221A7030BC70470546002A81
:1006C800EBD1D7E703685A1C02601970704700BF66
:1006D8002DE9F047089C2578002B804689460CBFF9
:1006E8004FF0200A4FF0300A661C35B3002A29DD86
:1006F800334601E0024698B113F8011B501E002949
:10070800F8D1971E60B13D46013D51464046C84765
:100718006B1C002BF8DC257827EAE770013055B10F
:10072800041B29464046C847301916F8015B002DBE
:10073800F7D1BDE8F087BDE8F087002A04DC284639
:10074800BDE8F0870020EBE7571EDCE783684268C6
:10075800D0ED037A00EB83010133934281ED040A63
:10076800836004BF0023836000EB830393ED047A66
:10077800036870EE277A9A42C0ED037A77EEC77A5B
:10078800C0ED037A0CDA013307EE103AF8EEC76AC7
:10079800B7EE007A87EEA60A036030EE070A7047C4
:1007A80007EE102AB8EEC77A87EE870A704700BFAF
:1007B80090ED057A90ED004AD0ED066AD0ED014A39
:1007C800D0ED047A90ED035AD0ED025AA4EE007AE7
:1007D800B0EE406AB0EE470AB0EE667AA6EE247A2A
:1007E80067EEC07AA0EE457AE6EE257A80ED057AC6
:1007F800C0ED067A704700BFD0ED057A90ED013A5A
:10080800D0ED003AD0ED064A90ED024A90ED077A15
:1008180090ED035A90ED086AD0ED045AC0ED067ABF
:10082800F0EE406A27EE830AC0ED056AA3EEA60A39
:1008380080ED087AA4EE240AA5EE470AA5EEC60ABA
:1008480080ED070A704700BFD0ED007A90ED017A7D
:1008580030EE670AE7EE007AB0EE670AC0ED007A7C
:10086800704700BF704700BF0A44914214D030B4AB
:100878000139551E41F2210211F8014F082380EA7F
:10088800042004044CBF82EA40004000013B80B2CF
:10089800F7D18D42F0D130BC704700BF2DE9F04F41
:1008A800DFF81CB2DFF81CE2BBF80020DEF80060BD
:1008B800BBF90430BBF90250BBF90A80C2EB26141D
:1008C80004FB04F424135200C2EBE60203FB04F316
:1008D80005FB02F29B1303EBE223B3F5FA364FEA6A
:1008E800E37589B045F1FF373246A6FB0645CDE9E9
:1008F800024502FB07F205EB4202CDE90467029EBE
:10090800BBF90840039208FB02FC4FEAE87906FBB2
:1009180009CC3A46A8FB0689049ECBF81830E5179F
:1009280004FB02F206FB0522A4FB0667E144174418
:100938004FEA182242EA096200924FEA29220192FC
:100948003D03DDE90078340345EA16553F19BBF845
:100958000660069048EB05083C1C48F5004503EB8B
:100968008302A4FB068906FB0599803213124FEA1D
:1009780069064FEAE977079356EA07038A4600F0C3
:100988009280DDE90489BBF90E20DEF80440BBF94A
:1009980010004946C4F5801ED317DDE9024502FB65
:1009A80001F108FB0311A2FB08230B444FEA43495A
:1009B8002B46C11700FB03F304FB0133A0FB040122
:1009C800BBF90C401944E30001937346DC1700237C
:1009D800009349EAD2394FEA4248DDE9002310EB97
:1009E800080041EB0901E50712184FEACE744B41A4
:1009F80045EA5E05A41A65EB0305221945EB0503D4
:100A080012196B4199019001801841EA926159418C
:100A18008B00820043EA9073101943EB05018B00A9
:100A2800820043EA907310460019194632463B4645
:100A3800694130F077FBBBF916204C13450B45EAAA
:100A4800C14502FB04F6D31705FB0366A2FB052389
:100A58003344BBF9146002FB04F405FB034406FBB2
:100A680001FEA2FB0523F717234400FB07EE540EF3
:100A7800A6FB0067774444EAC3144FEAD648001936
:100A88004FEA636548EA473869414FEAE74918EB96
:100A98000008BBF9124049EB01094FEA182646EA5B
:100AA800096620013618069B0BB1360A1E60BAF19A
:100AB800000F02D0079BCAF8003009B0BDE8F08FDC
:100AC8004C35002080240020704700BF704700BFCD
:100AD8004FF480538382704750F8043C012280F819
:100AE8004520103803B11847704700BF70B5044659
:100AF80082B00830656A06236A463B21A847A8B138
:100B08009DF804009DF800609DF801109DF80250C2
:100B18009DF803209DF8053041EA062143EA0023A9
:100B280042EA0522E18222836383012002B070BD7C
:100B380010B490E80600047B40690223A3404B6090
:100B480013685DF8044B4FF6FE710B401360FFF716
:100B580017BB00BF70B40468037B2268022101FA46
:100B680003F31A4213D042690A49582000FB0212C3
:100B78004FF6FE7650685289C5680068296831408A
:100B88002960C168D24392B20A40C260636070BCF7
:100B9800704700BFDC5A002030B4094B1C7864B1A0
:100BA800084B002503EBC4041A6899885562D0687D
:100BB80008330143A342D160F6D130BC704700BF6F
:100BC8009C5D0020A05D002010B40268047B1168C1
:100BD8000223A340194209D00649406800240C703A
:100BE80001684FF6FE742140016053605DF8044BC4
:100BF800704700BF553A0020F0B4334C00EB80003A
:100C080004EB80046468002C5BD0304E49004FF43C
:100C18002040CDB2B060A169090444D460682C4F6B
:100C280045F08071384041F4903101434FF4204041
:100C38006160B06003E0411E002838D00846A16911
:100C48008F07F8D54FF42040A262B06002E0421E40
:100C580068B31046A2691106F9D562681C4945F0C7
:100C6800007545F480350A4015434FF4204065600F
:100C7800B06002E0421ED0B11046A2699207F9D5D1
:100C8800A362A3694FF420409B06B06005D4431EBD
:100C980068B11846A3699B06F9D52023B060E361C3
:100CA8000120F0BC7047411E08B10846B3E7094A65
:100CB800138801339BB24FF0FF31B1601380F0BC51
:100CC80070472046F0BC7047A07E0020802400209A
:100CD800009800FCAC2D0020134600200A4668212D
:100CE8008AE700BF30B50446C06C61710368A2682A
:100CF80023F00103036087B0A379009213F0040284
:100D08003DD04FF4805213F00203019244D1029374
:100D18004FF480630022039311F00103059237D149
:100D2800049308238D07694648BF04932BF02AFBD8
:100D38006079E36CA17900F00202002A15BF4FF434
:100D480040324FF480324FF40034002410F0010F89
:100D5800586808BF2246CC074CBF024320EA02026B
:100D68005A609A6809074CBF42F0080222F008024C
:100D78009A601A6842F001021A6007B030BD13F099
:100D8800020301920BD04FF4005513460295C1E7B8
:100D9800042304930C23C5E74FF40053B7E70293E9
:100DA800B8E700BF10B50446C06CA160036823F023
:100DB80001030360A37986B013F00402009141D0C7
:100DC8004FF4805213F00203019244D102934FF47E
:100DD800806362790393D1074FF00003049305936E
:100DE80045BF0423049308230C236946920748BF90
:100DF80004932BF0C7FA6079E36CA17900F0020242
:100E0800002A15BF4FF440324FF480324FF40034BB
:100E1800002410F0010F586808BF2246CC074CBFC9
:100E2800024320EA02025A609A6809074CBF42F05E
:100E3800080222F008029A601A6842F001021A6059
:100E480006B010BD13F00203019207D04FF4005111
:100E580013460291BDE74FF40053B7E70293B8E792
:100E68000023262203600270272282700122436039
:100E78000271837170472DE9F341056906460F46F3
:100E88007DBBD0F80080C8F30A0323B30023D6F84B
:100E98000080019325F06EFA042819D1214C2369AA
:100EA80043F001032361BBB2A8F8003025F062FAD1
:100EB80004282ED108F102030193019B3F0C1F80E7
:100EC80025F058FA2369042823F00103236125D06B
:100ED8006FF0010505E025F04DFA042805D04FF024
:100EE800FF35284602B0BDE8F0810E4C236943F077
:100EF80002032361C4F81480236943F0400323618B
:100F080025F038FA2369042823F002032361BDD0B1
:100F1800E5E7236923F001032361D9E73368043344
:100F28003360DEE700200240F8B504460D468E180F
:100F38000027B54201D12069F8BDE368591CE1607A
:100F4800234415F8012B1A720429F2D1A16820460E
:100F5800FFF791FFE7602061EBE700BF22F056BB87
:100F680070B582B004466946143022F0FBFAB0B17D
:100F78009DF805009DF801609DF802109DF803504A
:100F88009DF804209DF8063041EA062143EA002333
:100F980042EA0522A187E287A4F84030012002B086
:100FA80070BD00BF2DE9F04F013085B0C3B2039387
:100FB8000B4602918B4C8C4E002B00F09A8032200D
:100FC8008A4D8B4FDFF82C9221F03AFF4FF4FA7AD2
:100FD8004FF0100C4FF47A70D9F80430C3F30803BB
:100FE800002B40F0DE80EFF31183002B40F0D98016
:100FF8002968A26800BF2B689942F9D1D7F800E0A8
:1010080000FB0EF39B1AB3FBFEF300FB01314FF01C
:10101800010E0191D9F80430C3F30803002B40F006
:101028008780EFF31183002B40F082802B68A16842
:1010380000BF2A689342F9D1D7F800B000FB0BF241
:10104800521AB2FBFBF200FB0323019A9B1AB3F579
:101058007A7FDFD3BAF1010ABED1039B002B40F09F
:10106800BD804FF47A7ADFF88C9150464FF0100C1F
:10107800D9F80430C3F30803002B75D1EFF31183BB
:10108800002B71D12968A26800BF2B689942F9D159
:10109800D7F800E000FB0EF39B1AB3FBFEF300FB4E
:1010A80001314FF0010E0191D9F80430C3F3080360
:1010B80013BBEFF31183FBB92B68A16800BF2A6843
:1010C8009342F9D1D7F800B000FB0BF2521AB2FBE9
:1010D800FBF200FB0323019A9B1AB3F57A7FE3D353
:1010E800BAF1010AC4D1029B013B0293002B7FF4A1
:1010F80066AF05B0BDE8F08FEFF311888CF3128866
:10110800A1682368DB0344BFC6F800E0A1682B6828
:1011180032685FFA88F888F31188D7F800801A4493
:1011280000FB08F35B1AB3FBF8F300FB0233D2E7CA
:10113800EFF311888CF31288A1682368DB0344BF9E
:10114800C6F800E0A1682B6832685FFA88F888F36F
:101158001188D7F800801A4400FB08F35B1AB3FB28
:10116800F8F300FB023370E7EFF311828CF3128877
:10117800D4F808E02368D90303D501233360D4F8F1
:1011880008E02B683168D2B282F311883A681944B2
:1011980000FB02F3A3EB0E03B3FBF2F300FB0131F8
:1011A8007FE7EFF311828CF31288D4F808E0236804
:1011B800D90303D501233360D4F808E02B683168DC
:1011C800D2B282F311883A68194400FB02F3A3EB08
:1011D8000E03B3FBF2F300FB013118E7184627F0C2
:1011E80087FB3EE710E000E0B0810020B4810020DA
:1011F800B881002000ED00E0204B5B68C3F30803D2
:1012080030B4BBB9EFF31183A3B91D4B1D4C18685B
:10121800A16800BF1A689042F9D11B4B1C684FF4B3
:101228007A7202FB04F3591AB1FBF4F130BC02FBE9
:1012380000107047EFF31182102383F312881149CD
:101248008C680B6813F4803F104B02D001201860A3
:101258008C680B49D2B20D68186882F311880A4B62
:1012680019684FF47A72284402FB01F31B1B30BC47
:10127800B3FBF1F302FB0030704700BF00ED00E064
:10128800B481002010E000E0B8810020B081002087
:101298002DE9F84F8046FFF7AFFF254E2549DFF8C7
:1012A800A0E0254A254D844610274FF47A74012082
:1012B800DEF80430C3F30803D3B9EFF31183BBB9E5
:1012C8000B68D2F808A000BFD1F800904B45F7D1C1
:1012D800D6F800B004FB0BF9A9EB0A09B9FBFBF936
:1012E80004FB0393A3EB0C034345E1D3BDE8F88F5C
:1012F800EFF3118A87F31288D2F808B01368DB037A
:1013080044BF2860D2F808B00B68D5F800905FFA9F
:101318008AFA8AF31188D6F800A0994404FB0AF3E4
:10132800A3EB0B03B3FBFAF304FB0933DAE700BFC3
:10133800B8810020B481002010E000E0B0810020D6
:1013480000ED00E02DE9F04FDFF830C1474A484989
:10135800484E494D8046102718F1FF38C0F0848068
:10136800DCF80430C3F30803002B5CD1EFF31183DE
:10137800002B58D10B68946800BF08688342F9D1E4
:10138800D6F800904FF47A7000FB09FEAEEB040E1D
:10139800BEFBF9FE00FB03EEDCF80430C3F30803E0
:1013A8004FF47A740120FBB9EFF31183E3B90B68AA
:1013B800D2F808A000BFD1F800904B45F7D1D6F875
:1013C80000B004FB0BF9A9EB0A09B9FBFBF904FB14
:1013D8000393A3EB0E03B3F57A7FBDD2DCF8043098
:1013E800C3F30803002BDFD0EFF3118A87F31288C9
:1013F800D2F808B01368DB0344BF2860D2F808B0FD
:101408000B68D5F800905FFA8AFA8AF31188D6F843
:1014180000A0994404FB0AF3A3EB0B03B3FBFAF314
:1014280004FB0933D5E7EFF3118487F31288D2F868
:1014380008901368D80303D501232B60D2F80890CD
:101448000B682868E4B284F31188D6F800A04FF43A
:101458007A7400EB030E04FB0AF3A3EB0903B3FB56
:10146800FAF304FB0E3E97E7BDE8F08F10E000E0CA
:10147800B4810020B8810020B081002000ED00E098
:1014880030B4EFF31183102282F312880649074C17
:101498000A680748013200250A602560DBB2026845
:1014A80083F3118830BC7047B4810020B0810020DC
:1014B80010E000E01D4B70B59C68E36C226BDD69A1
:1014C800C2B1636B2BB12B0702D5E36C08221A62F9
:1014D80070BD2A06F7D5A26A616A8A421FD0511CDC
:1014E800A069A162825C2069E66C81423285EAD3F8
:1014F800A362E8E7A906E4D5E26A1AB1988C80B23B
:101508009047DEE7E1699B8C6069DBB24E1CE661BF
:101518004354E169E368994228BFE261D1E7E26C8C
:10152800136823F080031360CDE700BF8C520020BE
:101538001D4B70B55C68E36C226BDD69C2B1636BEF
:101548002BB12B0702D5E36C08221A6270BD2A065C
:10155800F7D5A26A616A8A421FD0511CA069A162AC
:10156800825C2069E66C81423285EAD3A362E8E7AF
:10157800A906E4D5E26A1AB1988C80B29047DEE7F2
:10158800E1699B8C6069DBB24E1CE6614354E169FA
:10159800E368994228BFE261D1E7E26C136823F05F
:1015A80080031360CDE700BF8C5200201D4B70B53F
:1015B8001C68E36C226BDD69C2B1636B2BB12B072E
:1015C80002D5E36C08221A6270BD2A06F7D5A26A12
:1015D800616A8A421FD0511CA069A162825C20699D
:1015E800E66C81423285EAD3A362E8E7A906E4D52E
:1015F800E26A1AB1988C80B29047DEE7E1699B8C69
:101608006069DBB24E1CE6614354E169E3689942C4
:1016180028BFE261D1E7E26C136823F0800313600E
:10162800CDE700BF8C52002003685B6A03B11847FE
:10163800704700BF03681B6A03B11847704700BFB3
:1016480003682DE9F041DF691FB13B46BDE8F04171
:101658001847002A164611DD04460D460E4400E0E0
:1016680023689B68204698470028F9D0236815F816
:10167800011B1B6820469847AE42F1D1BDE8F081B6
:1016880003689B69184700BF03685B69184700BF78
:1016980003681B69184700BF0368DB68184700BF69
:1016A80003689B68184700BF03685B68184700BF5A
:1016B80003681B68184700BF014B1868F8E700BFAC
:1016C8009C85002038B50C46097849B10546013497
:1016D8002B6828461B68984714F8011B0029F7D186
:1016E80038BD00BF054B53F8203033B11A689B88CA
:1016F800918A0B4218BF1B049361704780810020B8
:1017080010B50409013C052C17D80D4B33F81420EB
:1017180000F00F0042FA00F313F001030DD001238B
:1017280003FA00F0013810402FF04CFD054A064B33
:10173800125D104403EBC00010BD002010BD00BFB7
:10174800E05F0308EC5F0308E45D00202DE9F04F3B
:101758004A484B4B4B4C4FF090414FF0010A4FF029
:1017680002094FF004084FF0080C4FF0100E202724
:101778004026802530F8022B12F0010F03D01960A3
:10178800A3F804A0083312F0020F03D01960A3F8DD
:101798000490083312F0040F03D01960A3F80480F2
:1017A800083312F0080F03D01960A3F804C00833F7
:1017B80012F0100F03D01960A3F804E0083312F0F8
:1017C800200F02D019609F80083312F0400F02D01A
:1017D80019609E80083312F0800F02D019609D8036
:1017E800083312F4807F05D04FF4807B1960A3F88A
:1017F80004B0083312F4007F05D04FF4007B196061
:10180800A3F804B0083312F4806F05D04FF4806B4E
:101818001960A3F804B0083312F4006F05D04FF430
:10182800006B1960A3F804B0083312F4805F05D088
:101838004FF4805B1960A3F804B0083312F4005F1A
:1018480005D04FF4005B1960A3F804B0083312F414
:10185800804F05D04FF4804B1960A3F804B00833CB
:10186800D20B04D04FF4004219609A80083301F576
:101878008061A1427FF47EAFBDE8F08FE05F03088E
:10188800E45D002000180048002867D003682DE9AF
:10189800F04F03F138445C4EA40A0125345D04F08E
:1018A8001F066409022C05FA06F558D0032C00F02F
:1018B800A580012C58D08088B0FA80F4C4F11F04A8
:1018C800A4B2E50803EB850504F007042E6AA4001A
:1018D8000F27A74026EA07062E622E6A01F00307A3
:1018E800A2407C1E3243012CC1F3810CC1F30018C5
:1018F8002A62C1F341113CD9C60700F189808507E6
:1019080000F19580440700F1A380020700F1B1803F
:10191800C60600F1BF80850600F1CD80440600F1BF
:10192800DB80020600F1E980C60500F1F780850535
:1019380000F10581440500F11381020500F12181C0
:10194800C60400F12F81850400F13D81440400F1B3
:101958004B81020400F15981BDE8F08F70472B4C90
:10196800A6693543A561A6E7284C666935436561D4
:10197800A1E7002422464FF0010E4FF0030904E0CE
:101988000132102A04F10204E6D00EFA02F636EA11
:101998000005F5D1D3F808A009FA04F5ED430AEAE1
:1019A800050AC3F808A0D3F808B00CFA04FA4AEA02
:1019B8000B0AC3F808A0B3F804A01FFA8AFA2AEAA7
:1019C80006069E80B3F804A008FA02F646EA0A065C
:1019D800B6B29E801E682E401E60D3F800A007FA9B
:1019E80004F646EA0A061E60D3F80CA001FA04F6CB
:1019F80005EA0A0A46EA0A05DD60C1E7034CE6691A
:101A08003543E56157E700BF206303080010024033
:101A18001A6822F003021A601A683A431A60DA68F0
:101A280022F003020A438507DA607FF56BAF1A6874
:101A380022F00C021A601A6842EA87021A60DA6811
:101A480022F00C0242EA81024407DA607FF55DAFBA
:101A58001A6822F030021A601A6842EA07121A60FD
:101A6800DA6822F0300242EA0112DA6002077FF5F2
:101A78004FAF1A6822F0C0021A601A6842EA871249
:101A88001A60DA6822F0C00242EA8112C606DA60F9
:101A98007FF541AF1A6822F440721A601A6842EA68
:101AA80007221A60DA6822F4407242EA01228506A7
:101AB800DA607FF533AF1A6822F440621A601A6858
:101AC80042EA87221A60DA6822F4406242EA8122F6
:101AD8004406DA607FF525AF1A6822F440521A608E
:101AE8001A6842EA07321A60DA6822F4405242EA77
:101AF8000132DA6002067FF517AF1A6822F4404215
:101B08001A601A6842EA87321A60DA6822F4404298
:101B180042EA8132C605DA607FF509AF1A6822F415
:101B280040321A601A6842EA07421A60DA6822F4F8
:101B3800403242EA01428505DA607FF5FBAE1A6859
:101B480022F440221A601A6842EA87421A60DA6868
:101B580022F4402242EA81424405DA607FF5EDAE84
:101B68001A6822F440121A601A6842EA07521A6088
:101B7800DA6822F4401242EA0152DA6002057FF57F
:101B8800DFAE1A6822F440021A601A6842EA8752E5
:101B98001A60DA6822F4400242EA8152C604DA6026
:101BA8007FF5D1AE1A6822F040721A601A6842EACC
:101BB80007621A60DA6822F0407242EA016285041C
:101BC800DA607FF5C3AE1A6822F040621A601A68BC
:101BD80042EA87621A60DA6822F0406242EA816269
:101BE8004404DA607FF5B5AE1A6822F040521A60F4
:101BF8001A6842EA07721A60DA6822F0405242EA2A
:101C08000172DA6002047FF5A7AE1A6822F040423A
:101C18001A601A6842EA87771F60DA6822F0404241
:101C280042EA8171D960BDE8F08F00BF002852D028
:101C3800036803F138422DE9F04F920A504DAA5C2F
:101C480002F01F0552090124022A04FA05F443D0C0
:101C5800032A00F09080012A43D001F003077A1E7E
:101C6800012AC1F3810CC1F300188088C1F3411126
:101C78003CD9C60700F18880850700F194804407A5
:101C880000F1A280020700F1B080C60600F1BE8014
:101C9800850600F1CC80440600F1DA80020600F1E6
:101CA800E880C60500F1F680850500F10481440549
:101CB80000F11281020500F12081C60400F12E8195
:101CC800850400F13C81440400F14A81020400F1DA
:101CD8005881BDE8F08F70472A4A95692C43946172
:101CE800BBE7284A55692C435461B6E700242246CD
:101CF8004FF0010E4FF0030904E00132102A04F1FD
:101D08000204E6D00EFA02F636EA0005F5D1D3F859
:101D180008A009FA04F5ED430AEA050AC3F808A081
:101D2800D3F808B00CFA04FA4AEA0B0AC3F808A078
:101D3800B3F804A01FFA8AFA2AEA06069E80B3F8C6
:101D480004A008FA02F646EA0A06B6B29E801E68A1
:101D58002E401E60D3F800A007FA04F646EA0A06E9
:101D68001E60D3F80CA001FA04F605EA0A0A46EA4E
:101D78000A05DD60C1E7034AD5692C43D4616CE7E5
:101D880020630308001002401A6822F003021A6058
:101D98001A683A431A60DA6822F003020A43850790
:101DA800DA607FF56CAF1A6822F00C021A601A68C4
:101DB80042EA87021A60DA6822F00C0242EA8102DB
:101DC8004407DA607FF55EAF1A6822F030021A60C5
:101DD8001A6842EA07121A60DA6822F0300242EA08
:101DE8000112DA6002077FF550AF1A6822F0C002CC
:101DF8001A601A6842EA87121A60DA6822F0C0028A
:101E080042EA8112C606DA607FF542AF1A6822F408
:101E180040721A601A6842EA07221A60DA6822F4E5
:101E2800407242EA01228506DA607FF534AF1A680B
:101E380022F440621A601A6842EA87221A60DA6855
:101E480022F4406242EA81224406DA607FF526AF36
:101E58001A6822F440521A601A6842EA07321A6075
:101E6800DA6822F4405242EA0132DA6002067FF56B
:101E780018AF1A6822F440421A601A6842EA873298
:101E88001A60DA6822F4404242EA8132C605DA6012
:101E98007FF50AAF1A6822F440321A601A6842EADB
:101EA80007421A60DA6822F4403242EA01428505A4
:101EB800DA607FF5FCAE1A6822F440221A601A68CC
:101EC80042EA87421A60DA6822F4402242EA8142F2
:101ED8004405DA607FF5EEAE1A6822F440121A6003
:101EE8001A6842EA07521A60DA6822F4401242EA93
:101EF8000152DA6002057FF5E0AE1A6822F440026A
:101F08001A601A6842EA87521A60DA6822F44002B4
:101F180042EA8152C604DA607FF5D2AE1A6822F02E
:101F280040721A601A6842EA07621A60DA6822F098
:101F3800407242EA01628504DA607FF5C4AE1A682D
:101F480022F040621A601A6842EA87621A60DA6808
:101F580022F0406242EA81624404DA607FF5B6AE5C
:101F68001A6822F040521A601A6842EA07721A6028
:101F7800DA6822F0405242EA0172DA6002047FF520
:101F8800A8AE1A6822F040421A601A6842EA8777B7
:101F98001F60DA6822F0404242EA8171D960BDE8E8
:101FA800F08F00BFF0B5044690F8590083B00028C0
:101FB80040F0A480674E377B002F40D004F1140511
:101FC800A06926F05BFC94F852201A212846FEF7F7
:101FD80085FA0120FFF75CF9A06926F03DFC284648
:101FE8000623E56D6A464321A847D8B19DF80260EB
:101FF8009DF803309DF800509DF801109DF80400ED
:102008009DF8052043EA06231BB2E3875BB241EA49
:10201800052142EA00220133A187A4F8402006D016
:1020280003B0F0BDB4F93E305BB20133F8D194F996
:102038003C300133F4D1062003F01CF9F0E704F139
:102048001405A06926F01AFC80226B212846FEF7A9
:1020580045FA9620FFF776F9032268212846FEF70D
:102068003DFA9620FFF76EF903226B212846FEF70A
:1020780035FA0F20FFF70CF910226A212846FEF7DF
:102088002DFA0F20FFF704F93A466C212846FEF78F
:1020980025FA0F20FFF7FCF894F854201921284658
:1020A800FEF71CFA0F20FFF7F3F818221B21284629
:1020B800FEF714FA0F20FFF7EBF810221C21284630
:1020C800FEF70CFA0F20FFF7E3F810223721284615
:1020D800FEF704FA0F20FFF7DBF801223821284623
:1020E800FEF7FCF90F20FFF7D3F8A06926F0B4FB40
:1020F8000120FFF7CDF80123337361E7FFF700FBF9
:102108000546D8B1202300218371C171FFF78EFDE8
:102118002146114B41F8103F284621F0C3F9AB88FE
:10212800B3FA83F3C3F11F035A1C3FF443AF0122F0
:102138009A400A490B6813430B603BE70146FFF7D7
:1021480075FD2146044B41F8103F284621F0AAF9B5
:102158000122EEE780240020E10A00080004014083
:1021680010B1036882881A85704700BF10B10368F0
:1021780082889A61704700BF38B100298388026855
:1021880014BF002110218B40936170470E4B1B88B0
:1021980001463BB90D4B0E4A1B7810680BB981F00C
:1021A8000101E9E70B4B5A691AB118B91A681060AE
:1021B80058747047084A18681188084A92FBF1F267
:1021C80001210260597470478C8100208E810020A3
:1021D8009081002094810020AC81002020A107007C
:1021E80010B40A4B0A4A1C7801238340234052F852
:1021F800200029B9B3FA83F149095DF8044BBBE71C
:10220800191C18BF01215DF8044BB5E77C8100203B
:102218008081002030B1036882881B8A1A4214BF6B
:1022280001200020704700BF2DE9F0410B4E3468B3
:1022380073691C400FD0DFF828800127B4FA84F3B3
:10224800C3F11F0307FA03F558F8230003689847FA
:10225800AC437561F2D1BDE8F08100BF00040140D4
:10226800545300202DE9F0410B4E346873691C402B
:102278000FD0DFF828800127B4FA84F3C3F11F03D5
:1022880007FA03F558F8230003689847AC437561CB
:10229800F2D1BDE8F08100BF000401405453002092
:1022A8002DE9F0410B4E346873691C400FD0DFF8FC
:1022B80028800127B4FA84F3C3F11F0307FA03F552
:1022C80058F8230003689847AC437561F2D1BDE81C
:1022D800F08100BF00040140545300202DE9F04173
:1022E8000B4E346873691C400FD0DFF82880012733
:1022F800B4FA84F3C3F11F0307FA03F558F823006F
:1023080003689847AC437561F2D1BDE8F08100BF1E
:1023180000040140545300202DE9F0410B4E34686D
:1023280073691C400FD0DFF828800127B4FA84F3C2
:10233800C3F11F0307FA03F558F823000368984709
:10234800AC437561F2D1BDE8F08100BF00040140E3
:10235800545300202DE9F0410B4E346873691C403A
:102368000FD0DFF828800127B4FA84F3C3F11F03E4
:1023780007FA03F558F8230003689847AC437561DA
:10238800F2D1BDE8F08100BF0004014054530020A1
:102398002DE9F0410B4E346873691C400FD0DFF80B
:1023A80028800127B4FA84F3C3F11F0307FA03F561
:1023B80058F8230003689847AC437561F2D1BDE82B
:1023C800F08100BF0004014054530020084A094826
:1023D80008B5936943F0010393610021402231F06D
:1023E80054FC054B4FF0FF321A60C3F8032008BDB8
:1023F8000010024054530020945300202DE9F0416E
:10240800044618460D46164698462EF0C1F9276828
:10241800E6722844A07229467D6943463246204622
:10242800AC46BDE8F0416047036810B504461B6838
:102438009847236820469B689847A37B0133A3737A
:1024480010BD00BF10B5036804469B689847FF237A
:1024580001226373227310BD08B52120FFF750F9DC
:102468000C4B186018B1112200238271C37120210E
:10247800FFF7DCFB2020FFF743F9074B186018B182
:10248800112200238271C3712021BDE80840FFF7A3
:10249800CDBB00BF845200208852002008B5FFF74A
:1024A8002FF940B12C2282710022C2712021BDE88F
:1024B8000840FFF7BBBB08BDF8B505015A4C5B4B9C
:1024C800625961199A4204EB050704BF01230B7393
:1024D8000646387A25F06CFD3B7A03F01F015B094C
:1024E8000122022B02FA01F278D0032B71D0012BC2
:1024F80067D0631901361879FFF702F9F6B2074673
:1025080010B11223C671837163195879FFF7F8F86F
:1025180010B11323C671837163199879FFF7F0F826
:1025280010B11423C671837166190E21F2793846E9
:10253800FFF7AAF97079FFF7E3F8F2790E21FFF7B0
:10254800A3F9B079FFF7DCF8F2790E21FFF79CF9CF
:102558006359374A934251D0344A934259D0354A45
:10256800934240D02C44227B002A2FD10120022400
:102578009A8822F480521204120C9A80998889B29F
:1025880041F4805199801A8802F4415242F445720C
:10259800024322431A809A8822F470621204120CB1
:1025A80042F4E0629A809A8B22F400621204120CC0
:1025B80007219A8319821A8892B242F040021A803F
:1025C800F8BD1D4B996A0A439A6292E700200446B7
:1025D800CEE7194B19690A431A618AE7164BD9687D
:1025E8000A43DA6085E702F5EA32116941F40041ED
:1025F8001161116921F400411161B3E702F56042EC
:10260800D16841F48051D160D16821F48051D16002
:10261800A8E702F5EC32116941F4804111611169B2
:1026280021F4804111619DE7C87E002000380040F8
:1026380000300140003C004000100240427A02B9DC
:10264800704710B504460368406804F10A019847CA
:102658000023637210BD00BF437A5A1C0344D2B2F0
:1026680042729972037A934200D802B9704710B542
:1026780004460368406804F10A019847002363721E
:1026880010BD00BF30B40B4D002305F1140101E06B
:10269800272B0BD011F8132082424FEA430403F191
:1026A8000103F5D12C44607D30BC7047002030BC5C
:1026B800704700BFFC3D030870B5448806460D46C8
:1026C800C4F30B0422460021284631F0DEFA3369B0
:1026D800094A934209D3094A934206D22246284618
:1026E8001946BDE870402FF007B823B121462846A7
:1026F800BDE87040184770BD94AF030893B0030855
:10270800064B07498B4202D30023184670471A88A4
:10271800C2F30B029042F8D01433F3E748AB030836
:1027280094AF0308024A136823EA00001060704758
:1027380094370020F8B5174D2B78A42B28D16B7847
:10274800BE2B25D1022229464FF6FF70FEF78CF8E2
:10275800114FAC1C22884AB1A618BE4218D2052ACD
:1027680016D92146FEF780F83446F3E721460222BF
:10277800FEF77AF80222A118FEF776F80634074B1E
:10278800641B1C8041F60F53C31A58425841F8BDC8
:102798000020F8BD00F0030800000408AE2D00205A
:1027A8002DE9F04FDFF848914C4F8BB00326A7EB8B
:1027B80009071822002104A831F067FA484BCDF820
:1027C800109005971A69120604D5464A5A6002F114
:1027D80088325A6001228DF824203422DA60424B74
:1027E800424C1B88ADF800300222694604A8FEF767
:1027F8009BFB022269464FF6FF70FEF735F8DFF8BB
:10280800F4A080464FF0000B544536D30AAC00259F
:1028180024F8245D0222214604A8FEF785FB022243
:1028280021464046FEF720F840BAC043ADF80800FC
:10283800022202A904A8FEF777FB079860B106AB4D
:10284800C0F104022946184431F01FFA069904A879
:10285800FEF711FB079508909DF82430089A23B1DC
:102868001F490B6943F080030B61013E2DD0002AFC
:102878009FD1FFF75FFF50B32CE065888DF80DB04E
:10288800C5F30B05AB1DADF808302388C3F30B0265
:10289800ADF80A201B0B062202A904A88DF80C30FB
:1028A800FEF742FB062202A94046FDF7DDFF6168FC
:1028B80080462A4604A8FEF737FB616840462A4648
:1028C800FDF7D2FF143480469EE7002AD1D00520B8
:1028D80002F0D0FC0BB0BDE8F08F00BF0000040888
:1028E80000200240230167455E3E030848AB030809
:1028F80000F0030894AF03080378202B024600F188
:102908000100F9D0092BF7D02D2B2CD02B2B03BF8E
:102918005378B7EE000A0246B7EE000AA3F1300179
:10292800C8B209289FED467A10D8F2EE046A07EE7D
:10293800901AF8EEE77A12F8013FE7EE267AA3F14B
:102948003001C8B20928B0EE677AF0D92E2B4CD0E6
:1029580003F0DF03452B0BD0F7EE007A67EE276A0A
:1029680020EE260A70475378BFEE000A0246D5E7E4
:1029780010B451782D2959D02B290ABF9178501CB1
:10298800901C0024A1F13003092B53D8002303EB3A
:10299800830301EB430310F8011FA1F13002092A58
:1029A800A3F13003F3D9B3F59A7F28BF4FF49A7394
:1029B800072B42D9DFED236A1A46F7EE007A083A68
:1029C800072A67EEA67AFAD803F007032BB1F2EECE
:1029D800046A013B67EEA67AFBD124B3C7EE276AE7
:1029E8005DF8044B20EE260A70475378A3F13001B6
:1029F800C8B2092802F10102AAD8F2EE046AF0EE80
:102A0800665A07EE901AF8EEE77A12F8013F87EE59
:102A1800A66AA3F13001C8B2092866EEA56A37EEA6
:102A2800067AEED994E767EE276AD9E7901C917881
:102A38000124A7E7F7EE007ACFE7F7EE007AC5E7BB
:102A48000000000020BCBE4CB5EEC00ADFED317AB4
:102A5800F1EE10FACCBF30EE270A30EE670ADFED50
:102A68002E7A20EE270A30B5FDEEC07A87B017EE31
:102A7800904A054684EAE470002303A9A0EBE470B9
:102A880001930093029323F071FE002CACBF202326
:102A98002D2303A88DF800302DF07AFE012803A914
:102AA80024D002282DD0032805BF30236846684665
:102AB8008DF8013031F00FF968462DF069FE0338C2
:102AC800C4B222466946284631F063F900232B55E3
:102AD80028462DF05DFE2E22431C2A540DEB0401DE
:102AE800E81831F015F9284607B030BD302368469C
:102AF8008DF801308DF802308DF8033031F0EBF8A5
:102B0800DAE7302368468DF801308DF8023031F06D
:102B1800E2F8D1E76F12033A00007A442DE9F04158
:102B2800064615460846B6FBF2F43CB905FB1464A4
:102B3800124B1B5D00F8013BBDE8F081B4FBF2F7D6
:102B480067B90E4B05FB174705FB1464DA5D00F8FF
:102B5800012B1B5D00F8013BBDE8F081B7FBF2F8E3
:102B6800B8F1000F02D04046FFF7D8FF05FB1878F0
:102B7800024B13F8082000F8012BE3E7C46B0308A5
:102B880030B402681146531C036011F8024B01600F
:102B9800D31C517803609378151D05601B0443EA24
:102BA8000123D078234343EA006030BC704700BF5C
:102BB8000368591C1A46016012F8021B0260587813
:102BC80041EA0020704700BF03685A1C0260187869
:102BD800704700BF38B50446006815462EF08CFDD6
:102BE80022682A44226038BD036810B40A0E5C1CAF
:102BF80004601A7003680A0C5C1C04601A7003688D
:102C08000A0A5C1C04601A7003685A1C0260197076
:102C18005DF8044B704700BF036810B40A0A5C1CD7
:102C280004601A7003685A1C026019705DF8044B3E
:102C3800704700BF03685A1C026010B4197003681B
:102C48000A0A5C1C04601A7003680A0C5C1C0460A5
:102C58001A700368090E5A1C026019705DF8044B5B
:102C6800704700BF03685A1C026019700368090A9C
:102C78005A1C0260197070472DE9F047002488B08B
:102C880080460F461E46A14605AD531C0393117896
:102C980039B3252933D1931CCDF81090039350787C
:102CA80030284ED04FF0000AA0F13003DBB2092BD8
:102CB80042D96C2819D0642800F0938024D825289C
:102CC8001CD063D9582876D063281BD13178404668
:102CD800B847039A531C039311780436013400292A
:102CE800D7D1204608B0BDE8F087039B5A1C039251
:102CF8001B78642B7CD02AD8252B54D1252140461B
:102D08000134B847039AC0E7732833D044D97528EB
:102D18004FD106F1040E30682B4600220A21764670
:102D2800FDF798FC049A0095534639464046FDF74E
:102D3800CFFC039A0444A8E704AA03A921F0E6F803
:102D4800B7E7D31C039390784FF0010AACE7732BD5
:102D580010D05BD9752B3AD0782B96D1A3F15802B5
:102D6800B2FA82F2306852092B4610210436FDF778
:102D780071FCD7E73368049A00933946002340462C
:102D8800FDF7A6FC04360444039A7EE70028B9D16F
:102D9800204608B0BDE8F0876E28B3D1039A33689F
:102DA80004361C6071E72AD9582BD7D0632B8DD0F5
:102DB8006BE77828A6D1A0F15802B2FA82F23068FF
:102DC80052092B461021FDF745FC0436AAE706F107
:102DD800040E30682B4600220A217646FDF73AFC9D
:102DE800A0E7331D306829461E46FDF705FC99E724
:102DF800331D306829461E46FDF7FEFB92E7002B7F
:102E08007FF443AF204608B0BDE8F0876E2BC6D0EC
:102E18003BE700BF0EB400B584B005AB019053F892
:102E2800042B0649039301A8FFF726FF019B002204
:102E38001A7004B05DF804EB03B07047CD060008C3
:102E48000FB430B583B006AB0A490B4853F8042BCE
:102E5800096800680193FFF70FFF084C05462068D2
:102E6800FEF712FC0028FAD0284603B0BDE830402F
:102E780004B07047785200207C5200209C850020C6
:102E8800DFED2B7AB4EEE70AF1EE10FA4ADDDFED5A
:102E9800296A9FED297A01E0B0EE670AB4EEC70A05
:102EA800F1EE10FA70EE667AF6DC9FED247AF4EE15
:102EB800C77AF1EE10FA38D5DFED1E6A9FED207A59
:102EC80001E0F0EE407AF4EEC77AF1EE10FA37EE50
:102ED800A60AF6D4DFED1B7AB4EEE70AF1EE10FA93
:102EE80014DDDFED137A37EEC00A60EE006A9FED5D
:102EF800166A9FED167ADFED167AA6EE867A20EE30
:102F0800266AE6EE877AA6EE270A7047DFED117A81
:102F1800B4EEE70AF1EE10FA44BFDFED087A37EEB7
:102F2800C00AE2E7F0EE407ABFE7B0EE670AD1E701
:102F3800DB0F4940DB0FC940E4CB1641DB0F49C02A
:102F4800E4CB16C1DB0FC93F92E741B99730083C83
:102F580015A82ABEDB0FC9BF80EAE073A3EBE073B4
:102F68008B4205DB002801DD401A704702D170470B
:102F7800002070470844704709B909E0194690FBDA
:102F8800F1F301FB13030846002BF7D108467047FD
:102F98000146FBE7F0EEC07AB0EEE07AB4EEE77AED
:102FA800F1EE10FAB4BFB0EE676AB0EE476AB5EE5C
:102FB800406AF1EE10FA46D0B4EEE77AF1EE10FA74
:102FC8008CBFF0EE675AF0EE475AC5EE866A9FED61
:102FD8001F3A9FED1F6A9FED1F4A9FED1F5ADFEDB5
:102FE8001F3ADFED1F4ADFED1F5AA6EEC36AE6EE71
:102FF800A34AA6EE864AB7EE006AA6EE845AA6EE63
:10300800A46AE6EE855AC5EE866AB4EEE77AF1EE72
:1030180010FA48BFDFED147AF5EEC00A48BF77EE24
:10302800E66AF1EE10FA48BFDFED107AB5EEC00A95
:1030380048BF77EEE66AF1EE10FA48BFF1EE666A2D
:10304800B0EE660A7047DFED076ADEE739094E3DE4
:10305800E3B59E3E88FA163E45FE7F3F99FB243F26
:1030680069A2163EA7DFA834DB0FC93FDB0F494032
:10307800DFED317A30EE277AFDEEC76A16EE903A28
:103088002033402B02D99FED2D0A7047B4EEE70A92
:10309800F1EE10FA4DDD9FED2A6ADFED2A6A01E0B4
:1030A800B0EE677AB4EEE67AF1EE10FA77EE467A89
:1030B800F6DC9FED257AF4EEC77AF1EE10FA35D5F5
:1030C800DFED1F6A9FED217A01E0F0EE407AF4EE21
:1030D800C77AF1EE10FA37EEA60AF6D4DFED167AC3
:1030E800B4EEE70AF1EE10FA1BDCDFED197AB4EE64
:1030F800E70AF1EE10FA44BFDFED137A37EEC00AA3
:1031080060EE006A9FED136A9FED137ADFED137A84
:10311800A6EE867A20EE266AE6EE877AA6EE270ADB
:103128007047DFED0F7A37EEC00AE9E7B0EE670ABD
:10313800D4E7F0EE477ABCE7DB0FC93F0000000098
:10314800DB0FC940E4CB1641DB0F49C0E4CB16C105
:10315800DB0FC9BF92E741B99730083C15A82ABED2
:10316800DB0F4940FDEEC07A17EE903A2033402B32
:1031780051D8DFED2D7AB4EEE70AF1EE10FA50DD02
:10318800DFED2A6A9FED2A7A01E0B0EE670AB4EE15
:10319800C70AF1EE10FA70EE667AF6DC9FED257A32
:1031A800F4EEC77AF1EE10FA38D5DFED206A9FED1C
:1031B800227A01E0F0EE407AF4EEC77AF1EE10FAE6
:1031C80037EEA60AF6D4DFED1D7AB4EEE70AF1EE83
:1031D80010FA1BDCDFED1A7AB4EEE70AF1EE10FA0A
:1031E80044BFDFED147A37EEC00A60EE006A9FED47
:1031F800156A9FED157ADFED157AA6EE867A20EE30
:10320800266AE6EE877AA6EE270A7047DFED067A89
:1032180037EEC00AE9E79FED0E0A7047B0EE670A7D
:10322800D1E7F0EE407AB9E7DB0F4940DB0FC94040
:10323800E4CB1641DB0F49C0E4CB16C1DB0FC93F15
:10324800DB0FC9BF92E741B99730083C15A82ABEE1
:103258000000000010B507EE901A2DED028BB8EEB5
:10326800678ADFED217A28EE008A044628EE278A4D
:10327800B0EE480A2EF094FCF0EE408AB0EE480A10
:103288002EF0F0FBF7EE007A9FED187AF0EE675A11
:10329800E8EE875A0023A361B0EE676AC7EEA56A15
:1032A80063612362E361A8EEC76ABDEC028B77EE27
:1032B800C07AB6EE007AF8EE005A27EE877A20EE4A
:1032C800250A27EE267A26EE266A67EEA67A20EEEB
:1032D800260A84ED046AC4ED017A84ED007A84ED4F
:1032E800027A84ED030A10BD27D4D236F304353FA1
:1032F80010B44C09012250F8243001F01F0102FAE1
:1033080001F10B4340F824305DF8044B704700BFCF
:103318004B0901F01F0150F82320012303FA01F1A2
:10332800114214BF18460020704700BF2DE9F84F1E
:10333800DFF8B480DFF8B490DFF8B4A0274E01239B
:10334800042088F8003025F0ADFAD9F80000FEF71F
:1033580007FF052025F0D0F9002025F0CDF906203B
:1033680025F0CAF9002025F0C7F99AF80040042092
:1033780044F0010425F0C0F9204625F0BDF9338852
:103388008BB1174D174F002415F804B0072025F00E
:10339800B3F9584625F0B0F92A5D33883A55013417
:1033A800A4B2A342F0D8072025F0A6F9FF2025F003
:1033B800A3F99AF80040042025F09EF9204625F04C
:1033C8009BF9D9F80000FEF7D1FE022025F06AFA31
:1033D800002388F80030BDE8F88F00BFF0190020FE
:1033E8009C420020BC440020A4440020EC5700204C
:1033F800AD4400202DE9F0414A4E042025F052FA50
:103408003068FEF7ADFE484B1B78012B7BD062D3AA
:10341800022B0AD1DFF83081082388F800300D2507
:103428004FF4C373414F3B8010E0DFF81C813F4FDE
:1034380098F8003003F04003002B14BF4FF4F073EA
:103448004FF4C3733B8014BF10250D25002404F1ED
:103458001000C0B225F050F90134012025F04CF9D4
:10346800A3B2AB42F3D398F80040314D002025F0C9
:1034780043F9204625F040F92E4B1C78022025F010
:103488003BF9204625F038F92B4B1C78032025F012
:1034980033F9204625F030F9284B1C7804200443E2
:1034A80025F02AF9204625F027F93068FEF75EFE58
:1034B800022025F0F7F93A882148002130F0E5FB91
:1034C8002B7833B11F4B1B7833B300232B70BDE827
:1034D800F081BDE8F081A02025F00EF9002025F04C
:1034E8000BF900F00603022BDFF85C8007D000F030
:1034F8000500012803D1482388F8003008E0082394
:1035080088F800308BE7DFF84080482388F80030DF
:1035180010254FF4F07385E7FFF708FF00232B70A1
:10352800BDE8F081EC570020F0570020F01900208A
:1035380000000020F7570020F8570020AD44002075
:10354800BC440020A4440020F2190020B0F1FF3F41
:103558000AD0022810B403DC5DF8044BFDF74CBB1D
:1035680000205DF8044B704700207047F0B55B4BB6
:103578005B4A97B01968914200AF00F0A38059499F
:10358800594A00234FF47000C1F888003B607B6003
:10359800136843F48033136003E03B68B3F5A04F2E
:1035A80009D0136803F400337B603B6801333B6048
:1035B8007B68002BF1D04C4B1B6813F4003318BF09
:1035C80001237B607B68012B52D0464C464B474A0F
:1035D800E260474A596A11605A6A42F080725A6238
:1035E8005A6942F4FC025A610025032207F10801D6
:1035F800012341F6FF764FF09040FD60BE603A73BC
:10360800BB7328F01BFF4FF6FF7307F10801394819
:10361800BB6028F013FF07F108013748374E28F040
:103628000DFF07F10801364828F008FF07F10801E7
:10363800344828F003FF07F10801334828F0FEFE5C
:1036480007F1080028F0AEFCBB683049304AA1FBFE
:10365800031330499B0CF0204FF0070E5C370B60CA
:10366800566084F823009560C2F800E0BD46F0BDBE
:10367800294A1D4B122111605A685A605A685A60CB
:103688005A6842F480625A605A6822F47C125A607E
:103698005A6842F4E8125A601A6842F080721A6056
:1036A8001A689201FCD559680F4A21F00301596044
:1036B800596841F002015960536803F00C03082B64
:1036C800FAD182E700221A6062B6144B1B6883F3B2
:1036D8000888134B1B689847FEE700BFFC9F002033
:1036E800EFBEADDE00ED00E0001002400005FA0577
:1036F800985F002000040048000800483F190100B6
:10370800000C0048001000480014004883DE1B43EA
:1037180010E000E0B88100200020024000D8FF1F20
:1037280004D8FF1F70B50F4C0F4DC0EBC00004EB61
:103738008004686926693043686182B09209667BB3
:10374800A1600025012101A863618DF804608DF84E
:1037580005208DF806508DF8071028F03FFB02B0C1
:1037680070BD00BF7420002000100240074BC0EB62
:10377800C00030B403EB8000054C056963692B4336
:1037880063610176427630BC704700BF7420002028
:10379800001002402DE9F04F5E4C54F8204083B0F1
:1037A800002C71D0666D984691465B4B7268E26456
:1037B800A160236004F15A014FF4807304F5AD72DF
:1037C8006161A261E36023610746307E24F0F0FB6B
:1037D800F068A8B1514B00215A68904203F11C03CC
:1037E80000F0928001310C29F6D100207A1CD2B267
:1037F8000C21FFF7BBFFE36CF26822632433A36458
:10380800B068D8B1454B00215A68904203F11C03B7
:1038180078D001310C29F7D100257A1CD2B20B21BE
:103828002846FFF7A3FF2346F27E3D492846FFF7C7
:1038380079FFE36CB26862632833636494F85900D3
:10384800FDF75EFF054694F85800FDF759FF18F09C
:10385800080F824696F819B01AD0CDB118F0110F9A
:103868004FF00B0307F1010714BF4E213E21EF7102
:103878005A46AB712846FEF707F818F0010F45D0F5
:10388800236B5BB3636B4BB3204603B0BDE8F08F8B
:1038980018F0010F0CBF4FF02E084FF04E0819F02A
:1038A800020F09D045B10B227B1CAA71EB71284687
:1038B8005A464146FDF7E8FF19F0010FE0D0BAF18A
:1038C800000FDDD001370C238AF807705A464146AD
:1038D8008AF806305046FDF7D7FFD1E7337FB27E2E
:1038E8008DF804209B090021012201A88DF80530DC
:1038F8008DF806108DF8072028F070FA204603B0DE
:10390800BDE8F08FCDB288E7C8B26FE72846FEF76A
:1039180027FCB5E78C520020603E03087420002085
:10392800390B00080348D0F83C3113B100F59A7000
:1039380018477047742000200348D0F8203113B18D
:1039480000F58C7018477047742000200348D0F8A1
:1039580004310BB1FC301847704700BF74200020B9
:103968000348D0F8E8300BB1E0301847704700BF83
:10397800742000200348D0F8CC300BB1C43018476D
:10398800704700BF742000200348D0F8B0300BB156
:10399800A8301847704700BF742000200348D0F8AB
:1039A80094300BB18C301847704700BF742000204A
:1039B8000248836F0BB1703018477047742000209D
:1039C8000248C36D0BB1543018477047742000206B
:1039D8000248036C0BB13830184770477420002038
:1039E8000248436A0BB11C30184770477420002006
:1039F8000248836803B11847704700BF742000204D
:103A0800F0B53E4C059D00EB800004EB8004646833
:103A1800002C71D03A4E49004FF42040CFB2B0602C
:103A2800A169090454D46068DFF8E0E047F49031F4
:103A380000EA0E0001434FF420406160B06003E0EB
:103A4800411E002848D00846A1698907F8D54FF4D7
:103A58002040A262B06003E0421E00283CD010461D
:103A6800A2695206F8D5274A6168DFF8A0E0B0607D
:103A780042EA0342174301EA0E0217436760C3B1E3
:103A8800013BDBB201332B44A0694FF4204210F014
:103A9800040002F1FF3207D1511C26D0A06910F0B2
:103AA800040002F1FF32F7D0626A05F8012B9D424B
:103AB800EAD14FF42040B06002E0431E60B11846DE
:103AC800A3699B06F9D52023B060E3610120F0BD0E
:103AD800411E08B10846A3E70B4A138801339BB27D
:103AE8004FF0FF311380B160F0BD0749B2600B8819
:103AF80001339BB20B80F0BD2046F0BDA07E0020B4
:103B08008024002000240002AC2D0020009800FC36
:103B180070B50578012D82B01E460DD0022D02D059
:103B2800002002B070BD134641F08001324602B059
:103B3800BDE87040FCF740BC044690F90400431C03
:103B4800EED00228ECDC13460A4661790096FFF7AE
:103B580057FF02B070BD00BF70B582B06B46062239
:103B6800F721FFF7D5FF9DF801209DF804309DF857
:103B780000609DF803509DF802409DF80500074934
:103B880012011B0142EA063243EA053342EA1412E3
:103B980043EA10134A600B6002B070BD8024002015
:103BA800F0B585B002AB04460093032206231E211C
:103BB8000020FFF725FF00283CD09DF808509DF80D
:103BC80009109DF80A709DF80B209DF80C609DF86F
:103BD8000D3041EA052142EA072243EA062309B2E9
:103BE80012B21BB2144D06EE901A07EE102A07EE19
:103BF800903AF8EEE66A95ED015AD5ED035A95ED3F
:103C0800026AB8EEC77AF8EEE77A66EE856A27EEBA
:103C1800257A67EE867AFDEEE66ABDEEC77AFDEE96
:103C2800E77A16EE901A17EE102A17EE903A2180CE
:103C3800A280638005B0F0BD000000202DE9F043AC
:103C4800322083B0FDF77EFB0022104611231E218F
:103C5800FFF77CFC602301221E210020FFF776FC81
:103C68006420FDF76FFB6846FFF79AFF0024DFF832
:103C78005481254626460A27012302221E210020B8
:103C8800FFF764FC3220FDF75DFB6846FFF788FF0D
:103C9800BDF902E0BDF90410BDF900208E45734658
:103CA800A8BF0B469342A8BF134643454FF00100F7
:103CB80075440C44164479DBFDF714FD013FDBD154
:103CC8004FF001090022104612231E21FFF73EFC87
:103CD800DFF8F0800A27012302221E210020FFF7C7
:103CE80035FC3220FDF72EFB6846FFF759FFBDF97A
:103CF80002E0BDF90410BDF900208E457346A8BF47
:103D08000B469342A8BF134643454FF00100A5EB6D
:103D18000E05A4EB0104A6EB02064ADBFDF7E2FC64
:103D2800013FD8D107EE906AF8EEE76A07EE905A9D
:103D3800B8EEE77A07EE904ADFED1F5A9FED1F5A5B
:103D48001F4EF8EEE77A85EEA66A00221046702329
:103D58001E21C5EE876A85EE277AB0EEC66AF0EEB8
:103D6800E66AF0EEC77A86ED016AC6ED026AC6ED2C
:103D7800037AFFF7EBFB202301221E210020FFF727
:103D8800E5FB0023184602221E21FFF7DFFB642013
:103D9800FDF7D8FAB9F1000F04D14FF07E537360E4
:103DA800B360F360012003B0BDE8F0834FF0000971
:103DB80088E74FF00009B5E700406F4601C05E464E
:103DC8000000002001F0FFFF00B583B00020009242
:103DD8000A466821FFF714FE03B05DF804FB00BF34
:103DE8001749184B184A194810B4D1F8884044F4B8
:103DF8007004C1F888401C6844F001041C605C68C9
:103E080022405A601A6822F0847222F480321A60C2
:103E18001A6822F480221A605A6822F4FE025A6054
:103E2800DA6A22F00F02DA621A6B002410404FF0AF
:103E3800006218639C608A605DF8044B704700BF9D
:103E480000ED00E0001002400CC07FF8CCFC00FF41
:103E580038B50B4C23688BB15A68821A002A05467C
:103E680004DA0CE05A68AA1A002A07DB9A6822606A
:103E780018461A6890472368002BF3D138BD38BD1F
:103E8800F83400200123102111224170427103707F
:103E9800037170472DE9F0410B78057BDB43DFB2F6
:103EA80000F1130200F11D0302F8015F9342FBD1F8
:103EB800DFF890E000F12701002203F8012F994272
:103EC800FBD114210524002647FA04F303F001036B
:103ED800002B1E4414BF4FF019084FF00A0814F0C5
:103EE800010FF6B214BFAC464FF0000C0023CA18FD
:103EF80010FA82F20133434582F814C0F7D15A1EF2
:103F080092B20132013C8B18621C9BB201D0194657
:103F1800DAE716F0010F14BF19240A2400229918B1
:103F280010FA81F10132A2420D75F8D113449BB207
:103F38005A1C0344002192B21975AEF800200261A0
:103F4800BDE8F081E42400202DE9F04FDFF890A0CF
:103F5800BAF802300B3383B01FFA83F901F1060B6C
:103F68004FF001084FF0000C002711F801EB3E4616
:103F78004C460122A4F10B039BB2019105E00133E9
:103F88009BB2017B29759C4208D0C518002AF6D13E
:103F9800C51801339BB29C422A75F6D10319013624
:103FA800092F019983F814C0F6B20CD0092E15D048
:103FB80008FA07F313EA0E0F14BF012200220C348B
:103FC800A4B20137D6E709F1780959451FFA89F9EA
:103FD800CAD1AAF802C003B0BDE8F08F0022EEE70C
:103FE800E42400202DE9F047DFF85C80B8F80430BD
:103FF80004331FFA83FC01F109094FF0010E11F88F
:10400800017B64460026231F0EFA06F29BB23A4053
:10401800C2B1B0F80CA0C51801339BB29C4285F818
:1040280014A0F5D101360434082EA4B2EBD10CF15A
:10403800200C49451FFA8CFCE1D10023A8F8043074
:10404800BDE8F0879246E6E7E424002010B4026851
:10405800047B11680223A340194209D0064940682D
:1040680000240C7001684FF6FE7421400160536013
:104078005DF8044B704700BFE054002008B525F0F8
:1040880073FF024B024ADA60FEE700BF00ED00E072
:104098000400FA05024A034B127819781AF092BD07
:1040A800FC240020FD2400202DE9F0470569C368A1
:1040B8001D4028D00F4606464FF000484FF0000933
:1040C800B5FA85F328FA03F2D2431B3B3261154057
:1040D800042B16D8DFE803F03129211903007B6A85
:1040E800002B32D003F1FF3A1FFA8AFAC7F824905E
:1040F8003C6A34B123682046514698476468002CCE
:10410800F8D1002DDCD1BDE8F0873868716B036801
:1041180089B29847002DD3D1F5E77868B16B036869
:1041280089B29847002DCBD1EDE7B868F16B0368E9
:1041380089B29847002DC3D1E5E7F868316C036868
:1041480089B29847002DBBD1DDE7F36A1FFA83FADD
:10415800CEE700BF2DE9F04F2DED028BA0F10A0349
:1041680089B00C46E62B00F2A686DFE813F01B01A7
:10417800A406A406A406A406A406A406A406A406E7
:10418800A406A406A406A406A406A406A406A406D7
:10419800A406A406A406A406A406A406A4066D05FF
:1041A800A406A406A4069501A406A406A4068801EC
:1041B800A4064401A4062C01A4060002A406F801E2
:1041C800A406D301A406BF01A406A406A406B90147
:1041D800B201A406AB01A406A406A401A4064D04DA
:1041E800A406A406A4063A04A406A406A406A406E3
:1041F8002505A406FB00A406FF04DB04A406A40608
:10420800A406A406A406A406A406A304A40675048A
:10421800A406E105A4068C05A406D602A406A406F5
:10422800A406A40682064706A4061606E700EA02C4
:104238002D021602CA02A40693027702A406A40657
:10424800A406A4064102A406A406A406A406A4067D
:10425800A406A1038A0376033403A406A406A406CD
:1042680025030E032B040B04A406A406A406A40627
:10427800A406A406A406A406A406A406A406A406E6
:10428800A406A406A4068206A406A406A406A406F8
:10429800A406A406A406A406A406A406A406A406C6
:1042A800A406D303A406A406A406A406A406A4068A
:1042B800A406A406A406A406A406A406A406A406A6
:1042C800A406A406A406A406A406A406A406A40696
:1042D800A406A406A406A406A406A406A406A40686
:1042E800A406A406A406A406A406A406A406A40676
:1042F800A406A406A406A406A406A406A406A40666
:10430800A406A406A406A406A406A406A406A40655
:10431800A406A406A406A406A406A406A406A40645
:10432800A406A406A406A406A406A406A406A40635
:10433800A406A406A406A406A4060B02B24E33786B
:1043480053B1B24F002537F8021F2046FEF78AFC0A
:1043580033780135AB42F6DC012009B0BDEC028BA5
:10436800BDE8F08FA84E3378002BF5D0A84F002574
:10437800B846236817F81520591C21601A7098F858
:10438800011001EB810101EB810101F2EE2189B2FB
:104398002046FEF767FC33780135AB4208F1020886
:1043A800E7DCD9E79B4D28462CF0F2F90028D3DD4D
:1043B8002B460544226813F8011B501C9D422060BF
:1043C8001170F7D1C8E7944D05F14006B5F8801093
:1043D8002046FEF747FC236895F88220591C216087
:1043E8001A70236895F883200435591CB54221605A
:1043F8001A70EBD1B0E7894D0B682A7A591C2160F5
:104408001A70A98B2046FEF72DFC298B2046FEF753
:1044180029FC698B2046FEF725FC2368EA7C591C99
:1044280021601A70A98C2046FEF71CFCE98C2046F6
:10443800FEF718FC2368AA7F591C21601A702368AC
:1044480095F82020591C21601A70698C2046FEF7C7
:1044580009FC2368EA7A591C21601A70E968204629
:10446800FEF7E8FB23682A7C591C21601A70236830
:1044780095F82120591C216001201A706DE70B68FE
:10448800674A581C11782060197023685278591CA3
:10449800216001201A7060E7624D08462988FEF7FE
:1044A800E1FBA9882046FEF7DDFB20462989FEF7B7
:1044B800D9FB012051E7084608225849FEF78AFB34
:1044C80001204AE70B68584A581C917820601970F7
:1044D800DBE70B6801229918216010461A703CE747
:1044E80008460021FEF7A6FB012036E74F4D504E47
:1044F80005F1300795F902104E4B93F906208A42D0
:1045080003F1080300F0DA849E42F6D10835BD4273
:10451800F0D121E7484B03F15A0522685979501C1C
:104528002060117022681978501C20601170226870
:104538005978501C2060117022689978501C2060AE
:1045480011702268D978501C20601170226819797E
:104558000633501C9D4220601170DED1FCE60B68CA
:104568002E4A591C527D216001201A70F5E6334D00
:1045780005F1800655F8041F2046FEF75BFBAE42A6
:10458800F8D1E9E62E4D0846E989FEF76BFB20468F
:10459800A989FEF767FB0120DFE62A4D084629882E
:1045A800FEF760FB69882046FEF75CFBB5F904302E
:1045B800254AD91782FB0323C1EBA301204689B200
:1045C800FEF750FB0120C8E6204B08461988FEF785
:1045D80049FB1F4B20461988FEF744FB1D4B2268F8
:1045E8001B78511C03F00103216001201370B4E60D
:1045F800194952232268501C2060137011F8013F9A
:10460800002BF7D1A8E600BFA0490020B68C0020F7
:104618002C360020903A0020403900206C5F0020A2
:10462800C0410020B8520020B441002000580020AA
:10463800485F0020185F0020D82E00203C39002059
:1046480098410020883A002067666666FC8600204C
:10465800863A0020F43B0020883E03089C4800234B
:104668002268056803EB4301561C6D5C26601570D3
:10467800026825680A446E1C527826602A7002680F
:1046880025680A4401339278691C0A2B21602A7034
:10469800E6D161E68F4D0B682A68591C12782160B3
:1046A8001A702B6822689978531C236000231170B4
:1046B8002A6821681A4401335279481C032B206068
:1046C8000A70F5D123682A68591C127A21601A7079
:1046D80023682A68591CD27821601A7023682A68CE
:1046E800591C127921601A702B6820465989FEF7E7
:1046F800B9FA2A682368527A591C21601A702A6804
:10470800C3E6754B08461968FEF794FA734B2046C2
:104718001988FEF7A7FA01201FE60B68704A71494D
:10472800D078714A5D1C2560187023684979581C37
:10473800206019702368D278591C216001201A70F2
:104748000BE66A4B0A681B78694D511C03F002039B
:104758002160137023682A7D591C21601A7029680A
:104768002046FEF767FA69682046FEF763FA29894A
:104778002046FEF777FAE9892046FEF773FA2046C5
:10478800298AFEF76FFA0120E7E50A68594B501CA1
:1047980019782060117022685978501C20601170B7
:1047A80022689978501C206011702268DB78511CAF
:1047B800216001201370D0E54F4D0846298AFEF785
:1047C80051FA698A2046FEF74DFA2046A98AFEF773
:1047D80049FA0120C1E5DFF838E10027FEB2714649
:1047E80000232268501C206016702268501C20602C
:1047F8001370226811F8010F0133551C062B256030
:104808001070EED10137062F0EF1060EE6D13B49A6
:1048180000232268501C206017702268501C2060FA
:104828001370226811F8010F0133551C0B2B2560FA
:104838001070EED12368324A581C07212060197085
:1048480023680021581C20601970236892F8F02012
:10485800591C216001201A707FE50B68294A2049FC
:104868001078214A5D1C2560187023688978581CC7
:104878002060197023689278591C216001201A70F1
:104888006BE50A68204B21491878551C2560107083
:1048980022685878551C2560107022689B78501C37
:1048A800206013702046C988FEF7DCF9012054E522
:1048B800164D08462988FEF7D5F969882046FEF77F
:1048C800D1F92046A988FEF7CDF9012045E500BFBA
:1048D800A83A002050900020F8860020B83A00201E
:1048E8009841002094880020A8410020A886002034
:1048F800E08600200C3D0020B45A0020233A002016
:1049080040390020CC590020904100202884002004
:10491800FF3900200B68DFF82CC3591C9CF80020D5
:1049280021601A709CF80030002B3FF415ADB24E90
:10493800B24DB348B3490023226816F8017F02F14B
:10494800010EC4F800E01770226815F8017F02F123
:10495800010EC4F800E01770226810F8017F02F118
:10496800010EC4F800E01770226811F8017F02F107
:10497800010EC4F800E017709CF8002001339A4239
:10498800DADCE9E40B68A04F591C3A7821601A7008
:104998003B78002B3FF4E0AC0025EEB230462AF01D
:1049A80001FF23684278591C216030461A702AF0AA
:1049B800F9FE01892046FEF755F93B780135AB42EF
:1049C800EBDCC9E4914B9249B3F9003081FB032138
:1049D800DB17C3EBA101204689B2FEF743F901209A
:1049E800BBE40B6800255A1C0A6020461D70294646
:1049F800FEF720F929462046FEF71CF920462946ED
:104A0800FEF718F90120A8E40B68824A824D117854
:104A1800824A581C2060197011682046FEF70AF96E
:104A280023687F4A591C127A21601A702988204607
:104A3800FEF718F9A9882046FEF714F929892046B7
:104A4800FEF710F900212046FEF70CF92046002158
:104A5800FEF708F9012080E4724EF378002B00F08D
:104A680016830B680822591C21601A7023680122DA
:104A7800991821601A7023686B4D591C2A79216096
:104A88001A702368AA78591C21601A702988204650
:104A9800FEF7E8F8E9892046FEF7E4F82368F2799A
:104AA800591C21601A702368EA78591C216001207A
:104AB8001A7052E41AF06AF8FF28064600F0FA82E3
:104AC80008A9002501F8115D0DF10E008DF80E50B2
:104AD8001AF03CF808A800F8105D1AF02BF808A89E
:104AE80000F8085D1AF01AF823685A1C22601E7034
:104AF80023689DF80E20591C21601A7023689DF8C0
:104B08000F20591C21601A7023689DF81020591C29
:104B180021601A7023689DF81820591C2160012013
:104B28001A701AE40B68414E01255A1C0A601D7060
:104B38000B68B278591921601A7017F029FD23689B
:104B48003B4A3C495F1927601870B1F90010B2F967
:104B58000000FEF711FA23685A192260187031888C
:104B68002046FEF77FF82846FFF7F7BB0B68324D63
:104B780001269A190A601E701CF04AFD002840F0B0
:104B880092822E4B2268511C21601070226841F2DB
:104B9800B410511C185C216041F2781110705958FA
:104BA8002046890AFEF746F8A96A20464908FEF712
:104BB80041F80120FFF7D1BB0B68214D591C2A7918
:104BC80021601A7023686A79591C21601A70298833
:104BD8002046FEF747F82368AA79591C21601A7005
:104BE80069882046FEF73EF82368EA79591C216057
:104BF80001201A70FFF7B1BB273D0020373D002088
:104C0800573D0020473D0020998D0020A8410020F5
:104C180067666666C0410020B852002094370020BD
:104C28006C5F0020CC590020B45A0020BC860020BC
:104C38000640002008400020905400201068002002
:104C480044840020253D0020AB4D05F1500628780E
:104C580028F0B0FE2368027A591C21601A70236874
:104C68006A78591C21601A702368AA78591C216037
:104C78001A702368EA780435591CAE4221601A700C
:104C8800E5D1FFF769BB00212046FDF7EBFF0021C6
:104C98002046FDF7E7FF00212046FDF7E3FF2368E4
:104CA800964D00265A1C22601E7023682A68591CDB
:104CB80092F82C2021601A7023682A68591C92F8EF
:104CC800362021601A7023682A68591C92F8372008
:104CD80021601A7023685A1C22601E7023685A1CAF
:104CE80022601E7023685A1C22601E702B682046A2
:104CF800598FFDF7B7FF2B682046198FFDF7B2FFD4
:104D080023682A68591C92F82E2021601A7023689B
:104D18005A1C22601E702B682046598EFDF7A2FF90
:104D28002B682046998EFDF79DFF0120FFF715BBE4
:104D3800734E0B687279714D591C21601A702B687B
:104D48002046198CFDF78EFF2B682046D98BFDF77E
:104D580089FF71892046FDF785FFB1892046FDF757
:104D680081FF2B682046598CFDF77CFF2B68204675
:104D7800998CFDF777FFF1892046FDF773FF318A9B
:104D88002046FDF76FFF2A68236892F82620591CF1
:104D9800216001201A70FFF7E0BA5A4D5A4E9FED74
:104DA8005B8ADFF88C81DFED5A8A05F120070EE077
:104DB800FCEEE77ACDED017ABDF804102046043503
:104DC800FDF750FFAF4206F118063FF4C5AA717C03
:104DD8000029F3D04F4BD5ED007A1B78012BE7D192
:104DE8004D4B1B68DB0440F14881F5EE407AF1EE4B
:104DF80010FA40F0788140F2DC51DFE7474B9B8A9C
:104E0800B3F5006F00F24181B3F5806F00F269815C
:104E1800B3F5007F34BF01270227414D05F10C0689
:104E280055F8041B91FBF7F1204689B2FDF71AFFEC
:104E3800B542F5D13B4D3C4F05F10C06B5EC010AE6
:104E4800D7ED087A80EE270A2CF05EFE81B2204664
:104E5800FDF708FFB542F1D1344D05F10C0655F8C0
:104E6800041B204689B2FDF7FDFEB542F7D1FFF7D6
:104E780073BA00258146DFF8BC80DFF8BCB0059521
:104E880004950695079501214FF6FF7A04E0013550
:104E98000B2D53D018F9011F4F1C4AFA05F3F6D011
:104EA800DE07F4D5BBF800302B41D807EFD506A8AC
:104EB800FEF71EFAEBE70020FFF74FBA23685A1CEB
:104EC8002260197029882046FDF7CCFE2368EA780D
:104ED800591C21601A7023682A79591C21601A709C
:104EE8002368AA79591C21601A7023686A79591CA9
:104EF80021601A70FFF70ABBC4410020A83A0020BD
:104F0800CC590020B43F0020F45900200000404252
:104F180000E08244D85A0020F059002010490020AF
:104F280048490020E4590020F87E00205849002014
:104F3800DB9B9141B83E0308803A0020DFF860A26D
:104F480000254FF008080135C5F1200208FA02F2E1
:104F5800A5F120032AFA05F6164328FA03F31E439F
:104F6800252D06F001024FF000030BD01343EAD0C1
:104F7800E8B22BF003F80028E5D0294606A8FEF78A
:104F8800B7F9E0E77C4B1B78DA0700F19A80002537
:104F98007A4E2F4602E00135252D0DD029463046A0
:104FA800FEF7B6F90028F6D0294606A8FEF7B0F9AC
:104FB80000285DD10137EEE7714B724DB3F8501000
:104FC8002046FDF74FFE704B1988204689B2FDF741
:104FD80049FE6E4B19684B0103F02002C1F34003F0
:104FE8001343C1F3800243EA4203C1F3C00243EA18
:104FF8008203C1F3401243EAC20301F010011943CE
:105008002046FDF72FFE04A904222046FDF7E2FD05
:10501800236829785E4A581C206019701188642911
:10502800A8BF64212046FDF71DFEB9F1960F4DD0AB
:1050380000212046FDF716FE2168B7F1190348BF85
:10504800A7F11203A3F3C4034A1C226020461A46A0
:105058000B7005A9FDF7BEFD23684E4A581C1021A8
:105068002060197020461188FDF7E4FDFFF774B938
:10507800394604A8FEF73CF99CE7F4EEC87AF1EE4D
:1050880010FA54DA4FF47A7198E60827C5E60B68E7
:10509800B178414A581C2060197023681278591C4D
:1050A80021601A70E7E495F824203C4B002A36D199
:1050B800304667E523685A1C226001201E70FFF7FE
:1050C8004CB9069B43F00103069360E7236803226B
:1050D800591C21601A7023686A78591C21601A705B
:1050E800AAE7042799E6F4EEC87AF1EE10FA3FF53C
:1050F80082AEF4EEE87AFDEEE77AF1EE10FA17EEFA
:10510800901A2BD86FF4F973303903FB01F140F290
:10511800E73391FBF3F101F2DB5189B24EE659789E
:10512800022916D003290CBF042030462AE5FDEEDB
:10513800E77A40F2E73217EE903A303B02FB03F38E
:1051480088FB0312D917C1EB622101F2E93189B258
:1051580034E6042A34BF0220032013E540F2F31397
:10516800A1F5836103FB01F140F2E73391FBF3F111
:1051780001F2DD5189B221E62A850020148600203B
:1051880050000020AC3A0020AC2D00201C870020E5
:10519800B02D0020208700208C41002010680020BE
:1051A80090E33FF41C4C08B501210220FDF718F8E4
:1051B800237803F00502052A2AD003F00903092BF6
:1051C80008D000210120FDF70BF800210846FDF763
:1051D80007F8FEE7114A124B11681A680B68114C60
:1051E8004FF6FE7003400B601388206823F001031C
:1051F8001B041B0C138018B1292200238271C37170
:1052080002224E21FCF740FB2068FCF7A9FFD8E7F3
:1052180024F03CFF2378D0E780520020A02600200D
:10522800A4260020A8260020022828BF022010B4A7
:10523800084C094B207000EB8002C0EBC202074902
:105248005DF8044B013003EB4203C0B20B6008F079
:10525800E3B800BFAC3A002068360020A83A002026
:1052680008B510F031FCFDF79BFABDE8084010F0D6
:1052780013BC00BF2DE9F04F013085B0C3B20393D2
:105288008E4D8F4F8F4C904E0A2302933220DFF8B9
:1052980040921DF0D5FD4FF4FA7A4FF0100C4FF400
:1052A8007A70D9F80430C3F30803002B40F0C880A3
:1052B800EFF31183002B40F0C3802968A26800BF78
:1052C8002B689942F9D1D7F800E000FB0EF39B1A3E
:1052D800B3FBFEF300FB01314FF0010E0191D9F849
:1052E8000430C3F30803002B40F08E80EFF31183E2
:1052F800002B40F089802B68A16800BF2A68934280
:10530800F9D1D7F800B000FB0BF2521AB2FBFBF24E
:1053180000FB0323019A9B1AB3F57A7FDFD3BAF116
:10532800010ABED1039B002B40F0C4804FF47A7A67
:10533800DFF89C9150464FF0100CD9F80430C3F3B5
:105348000803002B40F09980EFF31183002B40F005
:1053580094802968A26800BF2B689942F9D1D7F8D0
:1053680000E000FB0EF39B1AB3FBFEF300FB0131D8
:105378004FF0010E0191D9F80430C3F308033BBB89
:10538800EFF3118323BB2B68A16800BF2A689342FF
:10539800F9D1D7F800B000FB0BF2521AB2FBFBF2BE
:1053A80000FB0323019A9B1AB3F57A7FE3D3BAF182
:1053B800010AC2D1029B013B02937FF467AF4349C4
:1053C800434B4448444A0860DA6005B0BDE8F08FB2
:1053D800EFF311888CF31288A1682368DB0344BFBC
:1053E800C6F800E0A1682B6832685FFA88F888F38D
:1053F8001188D7F800801A4400FB08F35B1AB3FB46
:10540800F8F300FB0233CDE7EFF311888CF3128831
:10541800A1682368DB0344BFC6F800E0A1682B68D5
:1054280032685FFA88F888F31188D7F800801A4440
:1054380000FB08F35B1AB3FBF8F300FB023369E7E0
:10544800EFF311828CF31288D4F808E02368D903AB
:1054580003D501233360D4F808E02B683168D2B251
:1054680082F311883A68194400FB02F3A3EB0E0398
:10547800B3FBF2F300FB01312EE7EFF311828CF35B
:105488001288D4F808E02368D90303D501233360D0
:10549800D4F808E02B683168D2B282F311883A68F0
:1054A800194400FB02F3A3EB0E03B3FBF2F300FB7A
:1054B80001315DE7184623F01BFA37E7B481002075
:1054C800B881002010E000E0B0810020FC9F00209F
:1054D80000ED00E0EFBEADDE0400FA0538B5434B41
:1054E8005A899989914224BF00225A81198ADA89F6
:1054F800914224BF0022DA81DA788AB3072A2FD0B2
:105508003B493C4D91F85700012400210A282C7092
:105518009C70D9713DD00C2865D0DFED377A8ABBF5
:10552800364C9FED370AA278002918BFF0EE407A72
:10553800062A04D8334901EB820191ED0F0A21793B
:1055480059B3013A032A4DD8F7EE007A87EE800A5C
:105558002CF0DAFA2388984228BF1846208038BDF4
:10556800D97921B198780428B8BF042098702048C8
:1055780090F857000A280CD00C28CED1DFED227AFB
:10558800002ACDD0072ACBD00A282CD1DFED1F7AEC
:10559800C6E70A20DFED1E7AC1E79B78154A07EEB9
:1055A800103A1178B8EEC77A27EE277A07EE901AE4
:1055B800F8EEE77A67EE877AB4EEE70AF1EE10FACA
:1055C80010DDC0EE077AFDEEE77A17EE903A102B61
:1055D800A8BF1023012BB8BF0123DBB28B4238BF11
:1055E8000B46137038BDDFED0B7A99E7CC590020D4
:1055F800F87E00208C4100206F120339B45A002035
:105608006F120338883E03080AD7A3390F506E3A41
:105618005304E9386F12833A2DE9F047A94FAA4E8F
:1056280010F052FABE421ED2DFF82883DFF8289322
:105638004446258862197DB14A450DD2052D0BD9FE
:1056480033886188C3F30B03994200F0E080144665
:1056580025886219002DEFD1716830461436FDF7A0
:105668002BF8BE42E4D3994A1378A3F11701022913
:1056780005D9974911F83300002840F0F480954B7C
:105688005A78022A40F2E980002293495A701A781F
:105698009248022A016000F2DC8002EB8201904B02
:1056A800C2EBC10203EB4203998C5A8C8D4C914298
:1056B800236001D300225A848B4B9A78042A00F085
:1056C800F38032B91A88B2F5F07F84BF4FF4F072D4
:1056D8001A80864DFFF702FF2B68854A1A40002A78
:1056E80000F0EB80D80700F1DA80590400F1D2808D
:1056F8001A0700F1C1809B0400F1C58020F002FD6B
:1057080010B97C4806F0C2FD0120FDF70BF84FF4F4
:105718000070FDF707F84FF40050FDF703F87648DE
:10572800FDF700F84FF00070FCF7FCFF4FF08060C9
:10573800FCF7F8FF2AF09AFC002130226F482EF07F
:10574800A4FA206824F0F2F86D4B256803F15001A3
:1057580002E0043399427AD01A78002AF9D19C7869
:10576800D8788442F5D26749674B0A7028461D608D
:1057780019F06CF9654B664A1E7966496648674BAD
:105788001160C825642212FB0652654C406B31F843
:10579800061C5A60002221809A60DA601A615A61F8
:1057A8009A61DA6183F8202083F8212008B110F08B
:1057B80051F85C4B9FED5C5A1B885C4A9FED5C6A14
:1057C800557B5C4C5C495D48086006EE903AF8EE03
:1057D800E66A1389C5EE265A07EE103A5389127BFA
:1057E800C4ED005A07EE903AB8EEC77A544BF8EE7B
:1057F800E77A1D725A7227EE067A67EE867ABDE856
:10580800F04783ED017AC3ED007A10F045B963796A
:105818009B077FF41CAF716894F804A03046FCF72E
:105828004BFF3388BAEB133F04D01436BE42FFF463
:10583800FFAE18E773887068AA1FC3F30B039A4278
:1058480004F10601A8BF1A462BF056FFEDE7012226
:1058580089E700221A70224B26E71F4902EB420211
:1058680001EB820113E701EBC3035B68002B7FF4B4
:1058780006AF1723137002E73248FCF753FF2B6873
:105888009B047FF53BAF3048FCF74CFF4020FCF70A
:1058980049FF33E72D48FCF745FF2B6828E72C48DC
:1058A800FCF740FF2B6820E79A8AB2F57A7FBFF4AD
:1058B80010AF4FF47A729A820BE743F001032B6022
:1058C80010E700BF94AF030848AB0308C0410020AD
:1058D800A8670308AC3A00206E49002050900020C9
:1058E80068360020A83A0020B45A002094370020D7
:1058F800096000020058002020001000B025002098
:10590800C4410020AB220020E4250020448400206C
:10591800EC8500209E410020104900200C3F00200B
:105928007031002020260020C0C9FB48E424002054
:1059380017B7D138242600201C8200203661023D8A
:10594800F8810020016000020940000209200002DD
:105958000860000202F003080000040808B510F00F
:10596800B3F8FCF71DFF10F097F8FFF755FE01207C
:10597800BDE8084007F050BD38B50C4C0C4DAC42A2
:1059880006D2616820461434FCF796FEAC42F8D380
:10599800084A094B094C1460002209491A705A70C8
:1059A80008480860BDE8384016F0CABA48AB030892
:1059B80094AF0308A83A0020AC3A002068360020CB
:1059C800509000206E49002008B5FFF7D5FF10F071
:1059D8007BF8FCF7E5FEBDE8084010F05DB800BFB5
:1059E800F0B50C292BD8DFE801F06F2A2A2A4C2AB7
:1059F8002A2A2B2A2A2A0700046AB2F80CE0978878
:105A08001668674D24F480540462036A4468C169C7
:105A180023F4005343EA0E3321F4E641A84243EA53
:105A2800073341EA062100F0B58005F50065A84274
:105A380000F0B08092684460C16102640362F0BD06
:105A4800046A96899588D2F800E0554F24F480744A
:105A58000462036A4468C16923F4007343EA0623B5
:105A680021F07301B84243EA052341EA0E017ED0D2
:105A78004C4DA8427BD092684460C161C263036206
:105A8800F0BD046A96899588D2F800E0444F24F066
:105A980010040462036A4468816923F0200321F03A
:105AA800807143EA061321F4E641B84243EA05133C
:105AB80041EA0E2148D03B4DA84245D09268446047
:105AC800816182630362F0BD046A9389B2F804E0DD
