:020000040800F2
:1000000000000110FD150408D9B003086DDC0008DC
:100010000117040801170408011704080000000074
:10002000000000000000000000000000E1B0030834
:10003000DDB0030800000000D5B003087DF2000821
:100040000117040801170408011704080117040820
:100050000117040801170408319F00085DA000087B
:1000600021A00008E59F0008A99F000851C00008D2
:1000700041C0000831C0000821C0000811C00008BC
:10008000FDBF0008E9BF00080117040801170408B4
:100090000117040801170408011704086D9F0008E0
:1000A000D9E8000849E900080117040859E90008DF
:1000B00039E9000829E9000819E9000865C90008BC
:1000C0006DC9000859C9000861C900080117040872
:1000D0000117040849940008DDF4000841F4000801
:1000E000F59E000801170408F1BB03080117040876
:1000F000E9E8000801170408F9E80008D5BF00087E
:10010000011704080117040809E900080117040889
:10011000A5F3000809F3000855250208392502084F
:10012000C1BF0008ADBF000899BF000885BF000827
:1001300071BF00080117040801170408011704081B
:1001400001170408011704080117040899AA0308F5
:100150005DBF000849BF000835BF0008011704084B
:100160004DC9000855C90008011704080117040803
:1001700001170408011704080117040801170408EF
:0801800001170408011704082F
:080188009411040001000000C5
:1001900016000800C0250020C8250020000000002F
:1001A00054060008030001005C2C0020642C002091
:1001B00000000000000000001D000100742C002061
:1001C000042D0020000000005C0600082700040049
:1001D000942C0020082D0020000000005E0600087E
:1001E000031233002F2F0020FC2E002000000000FF
:1001F0006406000825005A00482E0020A22E002088
:100200000000000000000000F6110C000C2D002082
:100210003C2E002000000000980600080A020A0098
:10022000E0300020F030002000000000A4060008AC
:100230002C00100048390020383900200000000050
:10024000A54A02082B0024007C39002058390020E0
:1002500000000000754A020801020500D83E002097
:100260005C430020000000000D6802080002050049
:10027000A0390020644300200000000000000000BE
:100280001E000400E43C00206C430020000000003D
:10029000AE06000822000C00643C002070430020E1
:1002A00000000000B20600080B201000D846002015
:1002B0001C47002000000000BE0600081F000E00C2
:1002C000904400202C47002000000000CE060008CB
:1002D00005020100784400203C4700200000000097
:1002E000DC0600081B00F40048470020C848002036
:1002F000000000001D6802082F001100AC4800201B
:10030000BC49002000000000DE06000801010400D6
:10031000104A0020DC610020000000000000000006
:10032000080209001A610020E061002000000000BE
:100330002182000806020C0090610020EC61002080
:10034000000000007992000807020200B46100205A
:10035000F861002000000000F0060008FF01010025
:10036000C8610020FC61002000000000F2060008C7
:1003700002000C009C6100200062002000000000D0
:1003800000000000F7010600146100200C6200204C
:1003900000000000F406000805000600EC620020E2
:1003A000CC64002000000000FA060008F51162008D
:1003B00084620020D464002000000000219C020818
:1003C00026000E004865002038650020000000006F
:1003D000EDE90208F90104001C6C00202C6C0020DF
:1003E000000000001182000818102C00EC6B0020A7
:1003F000306C002000000000614D0208FD01240067
:10040000C86B00205C6C002000000000A181000887
:100410000600160058680020806C002000000000D4
:10042000A9730308FB01010094670020986C002069
:100430000000000061CA0008FC010900606600209D
:100440009C6C0020000000002DCA00080A10120059
:1004500034660020A86C002000000000000700089F
:100460003400100060650020BC6C0020000000001B
:10047000457303080D00440078730020BC7300200E
:1004800000000000712C030812100C005C730020A7
:100490000074002000000000120700080C02010098
:1004A000587300200C740020000000001E07000894
:1004B000020203006C730020107400200000000092
:1004C00000000000FA010200486D002014740020B2
:1004D0000000000085CA0008FE010800286D002009
:1004E000187400200000000069CA000829005000AC
:1004F000A47B0020F87B002000000000000000002A
:1005000014000200A07B0020487C002000000000B6
:100510002007000810000300947B00204C7C002082
:10052000000000002207000828000C00887B002043
:10053000507C002000000000260700082300100067
:10054000787B00205C7C002000000000D1250208A0
:1005500019000500707B00206C7C0020000000006A
:1005600032070008F81101006C7B0020747C002029
:10057000000000003807000800010400687B00202C
:10058000787C0020000000003A07000801200800E5
:100590000085002008850020000000003E070008BC
:1005A0001A000800E48400201085002000000000EC
:1005B000460700082A006000788500201885002082
:1005C000000000001D73030815007000707E0020FD
:1005D000D885002000000000000000000E20EA0086
:1005E000CA860020E49400200000000089730308FC
:1005F00013000400F8870020D095002000000000C0
:100600005007000802010300B5860020D4950020A1
:1006100000000000BDBD020809020100289600206C
:100620008096002000000000540700080C00240001
:10063000F6950020849600200000000095BD020879
:1006400004008000BCC5002070C70020000000002E
:0406500000000000A6
:10065400C40900001901282800002003000000003C
:100664000000000000000000000000000000000086
:100674000000000000000000000000000000000076
:100684000000000000000000000000000000000066
:100694000000010000000000000000000000000055
:1006A40000004A01B400D601000000000100C800A7
:1006B400141E010064002C0128002B21231E640158
:1006C4000100000001000A012900000000000000F0
:1006D4000100000000050000000000000000000010
:1006E400000000000000000000000000013C0000C9
:1006F4003D01000000002000020001000030010064
:10070400005A0000000090012C01C80064000000A1
:10071400000100054D4B46340000010003000001B8
:1007240005000000000100000000000000000000BF
:10073400280100000400B3000000E8036400040A78
:1007440000017E05EA05B4053200000048040400F7
:010754001391
:100755000100000050010000070000000200000039
:100765000000803F0000803F0000803F0000000047
:10077500000000000102030406070809010100004A
:10078500C477040888A204080000000000000000E7
:10079500D4770408DC77040800000000012000007D
:1007A500E0770408E8770408000000000140000035
:1007B500EC770408409204080000000001200000C6
:1007C500F87704080478040800000000040000001D
:1007D5000878040854A5040800000000040000007F
:1007E5001478040834AE040800000000010000007D
:1007F50002010000685E0C00FF0000000000803F61
:100805000000803F010000000060024010600240CF
:1008150000000000000B00000000200000000000A8
:100825000000000000600240286002400000000057
:10083500060C000000002000000000000000000081
:10084500006002404060024000000000100D000002
:1008550000002000000000000000000000600240D1
:100865005860024000000000160E00000000200045
:1008750000000000000000000060024070600240BF
:1008850000000000200F0000000020000000000014
:100895000000000000600240886002400000000087
:1008A50026100000000020000000000000000000ED
:1008B50000600240A060024000000000301100000E
:1008C5000000200000000000000000000060024061
:1008D500B860024000000000362F00000000200034
:1008E50000000000000000000064024010640240A7
:1008F500000000000038000000004000000000007B
:10090500000000000064024028640240000000006E
:100915000639000000004000000000000000000053
:10092500006402404064024000000000103A0000EC
:1009350000004000000000000000000000640240CC
:100945005864024000000000163B00000000400013
:1009550000000000000000000064024070640240D6
:1009650000000000203C00000000400000000000E6
:10097500000000000064024088640240000000009E
:1009850026440000000040000000000000000000B8
:1009950000640240A06402400000000030450000F1
:1009A500000040000000000000000000006402405C
:1009B500B864024000000000364600000000400018
:1009C5000000000000000000FFFFFFFF0101000024
:1009D50000010101512B0208000000000000000089
:1009E50001000000E00100000000803F0800000059
:1009F50000FFFF000000000001AA5505010000AA44
:100A0500550B010000AA5507010000AA550902006F
:100A15000000000001000000C012AA5503009F005D
:100A250000000101FFFF00008C63040805080400B5
:100A3500000000001C6E0408746104087863040853
:100A450000000000B063040805080A00000000006B
:100A55001C6E040874610408746E0408000000002C
:100A6500000000000102030401020304060708094F
:100A750001000000149D04080000000000000000B3
:100A8500D1BD0208A086010004000000000000009E
:100A95000000000000000000000000000000000051
:100AA500000000000000000098B40408689C0408D9
:100AB50000000000896301087D00000006000000B9
:100AC5000000000000000000000000000000000021
:100AD50000000000000000000000000070A50408F0
:100AE500000000000000000081E60308E8030000A4
:100AF50003000000000000000000000000000000EE
:100B050000000000000000000000000000000000E0
:100B150078A504080000000000000000B574030873
:100B25001027000003000000000000000000000086
:100B350000000000000000000000000000000000B0
:100B45000000000010B3040800000000392F02085F
:100B55007D440108204E0000050000000000000053
:100B65000000000000000000000000000000000080
:100B75000000000000000000889E0408000000003E
:100B8500000000002DE1030810270000010000000F
:100B95000000000000000000000000000000000050
:100BA50000000000000000000000000084A504080B
:100BB5000000000000000000F9C90008E80300007B
:100BC500050000000000000000000000000000001B
:100BD5000000000000000000000000000000000010
:100BE50090A504080000000000000000F9BF0208FD
:100BF500204E00000300000000000000000000007F
:100C050000000000000000000000000000000000DF
:100C150000000000A0A5040800000000000000007E
:100C250001BE0208204E0000030000000000000085
:100C350000000000000000000000000000000000AF
:100C45000000000000000000B0A50408000000003E
:100C550000000000BDDE0308400D03000300000096
:100C6500000000000000000000000000000000007F
:100C7500000000000000000000000000C89D0408FE
:100C85000000000000000000D94003081027000004
:100C9500010000000000000000000000000000004E
:100CA500000000000000000000000000000000003F
:100CB500849C04080000000000000000D9780208A8
:100CC50010270000030000000000000000000000E5
:100CD500000000000000000000000000000000000F
:100CE50000000000C0A5040800000000000000008E
:100CF50009430108A0860100010000000000000072
:100D050000000000000000000000000000000000DE
:100D15000000000000000000749C040800000000B2
:100D2500000000002942010850C300000100000036
:100D350000000000000000000000000000000000AE
:100D4500000000000000000000000000ECA4040802
:100D55000000000000000000913D0108A8610000AE
:100D6500010000000000000000000000000000007D
:100D7500000000000000000000000000000000006E
:100D8500C8A504080000000000000000C583020893
:100D9500A086010001000000000000000000000026
:100DA500000000000000000000000000000000003E
:100DB50000000000909E04080000000000000000F4
:100DC50025140108A00F000001000000000000002C
:100DD500000000000000000000000000000000000E
:100DE5000000000000000000D4A504080000000079
:100DF50000000000EDA0020810270000010000001F
:100E050000000000000000000000000000000000DD
:100E1500000000000000000000000000F8B8040811
:100E2500000000000000000049EA02081A41000025
:100E350001000000000000000000000000000000AC
:100E4500000000000000000000000000000000009D
:100E5500F49E04080000000000000000C986020896
:100E65001027000001000000000000000000000045
:100E7500000000000000000000000000000000006D
:100E85000000000040A4040800000000000000006D
:100E9500E5D103081A410000010000000000000030
:100EA500000000000000000000000000000000003D
:100EB5000000000000000000E0A50408000000009C
:100EC500000000004D2C0308400D03000000000049
:100ED500000000000000000000000000000000000D
:100EE500000000000000000000000000E8A5040864
:100EF5000000000000000000092C0308400D03005D
:100F050000000000000000000000000000000000DC
:100F150000000000000000000000000000000000CC
:100F2500F0A50408000000000000000001C202084E
:100F3500A086010003000000000000000000000082
:100F4500000000000000000000000000000000009C
:100F5500000000000100000000000001000000008A
:100F650000000000000000000800000051620308B6
:100F7500096203085961030800000000C55E030803
:100F8500AD6003082D61030815600308000000002B
:100F950000000000B95E0308D9ED0308D5ED03088C
:100FA500D1ED0308C5ED0308C1ED0308CDED030838
:100FB500C9ED0308E5A80308D9A803082DA9030866
:100FC50041A9030875FA030861FA03084DFA0308F5
:100FD500303030302D30312D30315430303A3030E2
:100FE5003A30300009024300020100C03209040012
:100FF5000001020201000524001001052401000181
:10100500042402020524060001070582030800FFE7
:1010150009040100020A0000000705010240000062
:101025000705810240000000FF0000000000803F2E
:1010350001010100A0B004080F0000004D94030851
:101045000000000000000000640A002064B00408ED
:10105500000000000000000000000000000000008B
:1010650088A204080000000000000000F00A00202B
:1010750004000000F0AF04080D000000199B0308F0
:10108500040F0020000000001CB404080D0000003F
:10109500E99A0308F80E00200000000084B0040857
:1010A5000800000000000000EC0E00200400000015
:1010B50074B004080D0000003D9A0308E00E0020FE
:1010C5000000000008AF040803000000BDD00308BD
:1010D500C80E0020000000007CB0040803000000DA
:1010E500BDD00308B00E0020000000000CAF0408BE
:1010F50001000000000000000000000000000000EA
:10110500000000000E0000000000000000000000CC
:101115000000000064B004080000000000000000AA
:10112500000000000000000088A204080000000084
:1011350000000000F00A00200400000094AF04083D
:1011450003000000E1990308980E00200800000044
:1011550074B004080D0000003D9A0308E00E00205D
:101165000000000008AF040803000000BDD003081C
:10117500C80E0020000000007CB004080300000039
:10118500BDD00308B00E0020000000000CAF04081D
:101195000100000000000000000000000000000049
:1011A500000000000E00000000000000000000002C
:1011B500000000008CB004080000000000000000E2
:1011C500000000000000000088A2040800000000E4
:1011D50000000000F00A0020040000009CAF040895
:1011E50003000000BDD00308100F00200000000020
:1011F5000CAF040801000000000000000000000022
:1012050000000000000000000E00000000000000CB
:10121500000000000000000020700020702D72000A
:101225002D202D2D202D2D2D2D202D2D2D2D00006A
:1012350000000000000000000000000000000000A9
:101245002D202D2D202D2D2D2D202D2D2D00000077
:101255000000000000000000000000000000000089
:101265005686002088130C170100000058860020C0
:1012750088130C1700000000E0AE04080000000011
:10128500000000000000000000000000F0AE0408AF
:1012950008000000000000001C0B002004000000F6
:1012A500FCAE04080800000000000000100B002040
:1012B5000000000008AF040804000000219A03089C
:1012C50000000000000000000CAF04080100000051
:1012D5000000000000000000000000000000000009
:1012E5000E000000000000000000000000000000EB
:1012F5005486002088130C17010000005286002038
:1013050088130C170000000044AF04080F0000000C
:10131500A59403080000000000000000280B002031
:10132500F787002001000000DC6D040851860020CD
:1013350001000000E86D0408F687002002000000A7
:10134500F06D040836C70020000000000000000012
:1013550034C70020000000000000000032C7002054
:10136500000000000000000030C700200000000061
:10137500000000002EC70020000000000000000053
:101385002CC700200000000000000000C80200205B
:101395000000000000000000508600200200000050
:1013A500FC6D04084CAF04080000000000000000BC
:1013B5000000000000000000F0AE04080800000076
:1013C50000000000AC0B002004000000FCAE040887
:1013D5000800000000000000A00B00200000000035
:1013E50008AF04080400000085940308000000000D
:1013F500000000000CAF0408010000000000000020
:101405000000000000000000000000000E000000C9
:101415000000000000000000000000005CAF0408B0
:1014250000000000000000000000000000000000B7
:101435006CAF04080D000000ED9B0308E80B0020CD
:101445000400000078AF04080D000000819A03082D
:10145500DC0B00200400000084AF04080D00000030
:10146500AD9B0308D00B00200000000090AF0408DE
:1014750003000000019A0308B80B002008000000D3
:101485009CAF040803000000BDD00308100F002026
:10149500000000000CAF040801000000000000007F
:1014A5000000000000000000000000000E00000029
:1014B500000000000000000000000000A4AF0408C8
:1014C5000000000000000000000000000000000017
:1014D500ACAF040804000000499B030800000000AD
:1014E500000000000CAF040801000000000000002F
:1014F5000000000000000000000000000E000000D9
:10150500000000000000000000000000F8AF040823
:1015150000000000000000000000000000000000C6
:10152500889F04080D00000000000000480C002002
:101535000400000008B004080800000000000000D6
:101545003C0C00200400000014B004080800000052
:1015550000000000300C0020040000001CB004084E
:101565000800000000000000240C0020040000001A
:1015750024B004080800000000000000180C00203A
:10158500040000002CB00408080000000000000062
:101595000C0C00200400000034B004080800000012
:1015A50000000000000C0020040000003CB004080E
:1015B5000800000000000000F40B002004000000FB
:1015C5000CAF04080100000000000000000000004E
:1015D50000000000000000000E00000000000000F8
:1015E500000000000000000044B004080F000000E7
:1015F500959403080000000000000000540C002032
:101605004CB004080F0000000000000000000000BE
:1016150000000000CC0C002054B004080F000000AE
:101625000000000000000000000000006C0D00201C
:10163500F587002004000000086E04084C86002091
:10164500E0150C17000000004F8600200800000080
:10165500746104084E860020050000001C6E040815
:101665005CB004080F00000000000000000000004E
:1016750000000000BC0D0020040309041201000253
:1016850002020040830440570002010203010000EA
:10169500196403083963030845DC0208095F030878
:1016A500E5620308195F0308355F0308F95E03085F
:1016B500E95E0308000000000000000054B90408BA
:1016C5000F00000000000000000000000000000006
:1016D50008230020FFFFFFFFFA00000001000000C3
:1016E50001000000D8B10408E0B10408A4AF040863
:1016F50000000000000000000000000000000000E5
:10170500CEB104080400000047990308000000005A
:10171500000000000CAF04080100000000000000FC
:101725000000000000000000000000000E000000A6
:10173500000000000000000000000000EEC60020D0
:101745000100C40900000000ECC600200100C40926
:1017550000000000EAC600200100C40900000000E6
:10176500E8C600200100C40900000000E4C600200E
:101775000100C40900000000E6C600200100C409FC
:1017850000000000E2C600200100C40900000000BE
:10179500E0C600200100C4090000000066860020A4
:1017A5000100C80001000000648600203200307589
:1017B5003200000063860020055A05005E86002081
:1017C50000FF01006286002001000000940F002048
:1017D5006086002002000000306404085D86002059
:1017E50000FF01006186002001000000940F002029
:1017F5005F860020020000003064040808B2040877
:101805000F000000000000000000000000000000C4
:101815009C0F0020426200209CFF2C01000000006C
:10182500E208002005000000746E040848860020C8
:10183500E0150C1700000000E1080020080000007A
:1018450074610408E0080020050000001C6E04080F
:101855004A860020020000008C6E0408E6870020FE
:101865000100FF7F01000000E48700200200000066
:10187500986E0408BE86002003000000A86E0408C8
:10188500BD86002003000000A86E0408BC87002068
:101895000000F40101000000BA8700200000F401F7
:1018A50001000000B88700200000F40101000000DD
:1018B500B68700200000F40101000000B487002075
:1018C50000FF0100D0870020E803D0070A000000D0
:1018D500CE870020006401000A000000CF870020A9
:1018E500006401000A000000C887002000640100B0
:1018F5000A000000CD870020006401000A000000F6
:10190500CC870020006401000A000000CB8700207E
:10191500006401000A000000C787002000FF0100E5
:101925000A000000C687002000FF01000A00000031
:10193500C68600200000F40101000000C4860020D6
:101945000000F40101000000C28600200000F4013F
:1019550001000000C08600200000F4010100000025
:10196500C387002000C80100C287002000C801000D
:10197500C187002000C80100C08700200064010065
:101985000A000000BF87002000FF01000A000000D8
:10199500DB87002000C80100DA87002000C80100AD
:1019A500D987002000C80100D887002000C80100A1
:1019B500D787002000C80100D687002000C8010095
:1019C500D587002000C80100D487002000C8010089
:1019D500D387002000C8010010B2040800000000F1
:1019E50000000000000000000000000020B2040814
:1019F5000900000000000000401000200400000065
:101A050028B204080900000000000000341000207E
:101A150004000000BCB70408090000000000000035
:101A2500281000200400000038A304080900000065
:101A3500000000001C1000200400000030B2040863
:101A45000900000000000000101000200400000044
:101A550038B204080900000000000000041000204E
:101A65000400000040B20408090000000000000066
:101A7500F80F00200400000048B204080900000027
:101A850000000000EC0F0020040000000CAF04086B
:101A95000100000000000000000000000000000040
:101AA500000000000E000000000000000000000023
:101AB5000000000020B30408000000000000000042
:101AC5000000000000000000BCA40408070000009E
:101AD50000000000641000200000000030B304087E
:101AE5000800000000000000581000200000000061
:101AF5003CB3040808000000000000004C10002062
:101B0500000000000CAF0408010000000000000008
:101B15000000000000000000000000000E000000B2
:101B250000000000000000000000000044B30408AD
:101B350000000000000000000000000000000000A0
:101B450054B304080D00000000000000A0100020A0
:101B5500000000005CB304080D0000000000000058
:101B6500941000200000000064B304080700000082
:101B7500000000008C100020000000006CB3040879
:101B85000D00000000000000801000200000000093
:101B950074B304080D00000000000000741000205C
:101BA500000000007CB304080700000000000000EE
:101BB5006C100020000000000CAF040801000000BC
:101BC5000000000000000000000000000000000010
:101BD5000E000000000000000000000000000000F2
:101BE50084B30408000000000000000000000000AD
:101BF50000000000BCA404080C0000000000000068
:101C0500688600200000000098B304080C0000005E
:101C1500000000006A86002000000000A8B3040848
:101C25000C00000000000000A0860020000000005D
:101C3500B8B304080C0000000000000094860020E2
:101C450000000000CCB304080C00000000000000F8
:101C55006C86002000000000D8B304080C000000CA
:101C6500000000006E86002000000000E0B30408BC
:101C75000C0000000000000070860020000000003D
:101C8500F4B304080C000000000000007286002078
:101C950000000000FCB304080C0000000000000078
:101CA500748600200000000004B404080C00000045
:101CB50000000000768600200000000010B4040833
:101CC5000C000000000000007886002000000000E5
:101CD50000A404080C000000000000007A86002023
:101CE5000000000018B404080C000000000000000B
:101CF5007C8600200000000024B404080C000000CD
:101D0500000000007E86002000000000D0A404082A
:101D15000C0000000000000080860020000000008C
:101D250030B404080C00000000000000828600208A
:101D3500000000003CB404080C0000000000000096
:101D4500848600200000000048B404080C00000050
:101D550000000000988600200000000050B4040830
:101D65000C00000000000000968600200000000026
:101D750058B404080C00000000000000A4860020F0
:101D85000000000064B404080C000000000000001E
:101D9500A68600200000000070B404080C000000B6
:101DA50000000000AC86002000000000ECA4040840
:101DB5000C000000000000008686002000000000E6
:101DC50074B004080C000000000000008E8600209E
:101DD500000000007CB404080C00000000000000B6
:101DE500888600200000000088B404080C0000006C
:101DF500000000008A8600200000000094B404085A
:101E05000C000000000000008C860020000000008F
:101E15009CB404080C00000000000000908600201F
:101E250000000000E89C04080C0000000000000011
:101E35009A86002000000000A8B404080C000000E9
:101E4500000000009286002000000000B0A30408F6
:101E55000C00000000000000A28600200000000029
:101E6500B4B404080C000000000000009C860020AB
:101E750000000000BCB404080C00000000000000D5
:101E85009E86002000000000C4B404080C00000079
:101E950000000000A886002000000000CCB4040863
:101EA5000C00000000000000AA86002000000000D1
:101EB5000CAF040801000000000000000000000055
:101EC50000000000000000000E00000000000000FF
:101ED5000000000000000000D4B404080000000069
:101EE500000000000000000000000000E4B4040849
:101EF5000500000000000000BC8600200000000076
:101F05000CAF040801000000000000000000000004
:101F150000000000000000000E00000000000000AE
:101F25000000000000000000ECB404080000000000
:101F350000000000000000000000000088A2040866
:101F45000000000000000000D00A0020040000008E
:101F550034A304080D000000B999030800110020FE
:101F650000000000F0AF04080D000000F99303081D
:101F7500F4100020000000001CB404080D0000004F
:101F8500C5930308E81000200000000084B0040891
:101F95000800000000000000DC1000200400000024
:101FA50074B004080D000000B1930308D0100020A0
:101FB50000000000F8B4040809000000000000005B
:101FC500C41000200400000008AF0408030000004E
:101FD500BDD00308AC100020000000000CAF0408C1
:101FE50001000000000000000000000000000000EB
:101FF500000000000E0000000000000000000000CE
:102005000000000000B5040800000000000000000A
:10201500000000000000000010B504080D000000DD
:1020250000000000181100200000000018B5040889
:102035000A00000000000000FC87002000000000EE
:1020450024B504080A0000000000000004880020F0
:10205500000000002CB504080A0000000000000084
:102065000C8800200000000034B5040808000000BA
:10207500000000000C110020000000003CB5040821
:1020850004000000B99E03080000000000000000E5
:102095000CAF040801000000000000000000000073
:1020A50000000000000000000E000000000000001D
:1020B500000000000000000048B504080000000012
:1020C5000000000000000000000000005CB50408EE
:1020D5000D0000000000000030110020000000008D
:1020E5006CB5040804000000A19C03080000000072
:1020F5000000000074B504080D0000000000000099
:10210500241100200000000088B504080400000028
:102115007D9C030800000000000000000CAF0408CF
:1021250001000000000000000000000000000000A9
:10213500000000000E00000000000000000000008C
:102145000000000090B50408000000000000000039
:102155000000000000000000A4B50408070000000E
:10216500000000006C11002000000000B0B504085C
:1021750008000000000000006011002000000000C1
:10218500BCB5040808000000000000005411002040
:1021950000000000C8B504080800000000000000A9
:1021A5004811002000000000D4B504080800000014
:1021B500000000003C110020000000000CAF0408E6
:1021C5000100000000000000000000000000000009
:1021D500000000000E0000000000000000000000EC
:1021E50000000000E0B50408000000000000000049
:1021F500CB0A002000000000ECB504080B0000002D
:1022050000000000D411002000000000F4B504080F
:102215000B00000000000000C811002000000000B5
:1022250000B604080B00000000000000BC110020EF
:10223500000000000CB604080B00000000000000C0
:10224500B01100200000000018B604080B000000C3
:1022550000000000A41100200000000024B60408BE
:102265000B00000000000000981100200000000095
:102275002CB604080B000000000000008C110020A3
:102285000000000038B604080B0000000000000044
:10229500801100200000000044B60408080000007A
:1022A5000000000074110020000000000CAF0408BD
:1022B5000100000000000000000000000000000018
:1022C500000000000E0000000000000000000000FB
:1022D5000000000050B604080000000000000000E7
:1022E500000000000000000064B6040808000000BB
:1022F50000000000041200200000000070B6040871
:102305000800000000000000F81100200000000097
:102315007CB604080800000000000000EC11002055
:102325000000000088B60408080000000000000056
:10233500E0110020000000000CAF040801000000BF
:102345000000000000000000000000000000000088
:102355000E0000000000000000000000000000006A
:1023650090B604080000000000000000C80A002024
:1023750000000000A0B604080B00000000000000EB
:102385003412002000000000ACB604080B00000069
:10239500000000002812002000000000B8B6040864
:1023A50007000000000000002012002000000000CF
:1023B500C4B6040807000000000000001812002041
:1023C50000000000D0B6040807000000000000006F
:1023D50010120020000000000CAF040801000000EE
:1023E50000000000000000000000000000000000E8
:1023F5000E000000000000000000000000000000CA
:10240500DCB604080000000000000000C80A002037
:1024150000000000E8B60408070000000000000006
:102425008012002000000000F0B60408070000003C
:10243500000000007812002000000000F8B6040833
:1024450007000000000000007012002000000000DE
:1024550000B7040807000000000000006812002013
:102465000000000008B70408070000000000000095
:10247500601200200000000010B7040807000000EB
:1024850000000000581200200000000018B70408E2
:1024950007000000000000005012002000000000AE
:1024A50020B70408070000000000000048120020C3
:1024B5000000000028B70408070000000000000025
:1024C50040120020000000000CAF040801000000CD
:1024D50000000000000000000000000000000000F7
:1024E5000E000000000000000000000000000000D9
:1024F50030B704080F0000000000000079960308BB
:102505000000000088120020BA8600201700000095
:10251500B86E0408B98600200A320100B88600208A
:1025250001FA0100B486002000C80100B28600202F
:10253500E803D007010000004D4154454B463430B7
:10254500350000005C860020000301005B8600204A
:102555000003010038B704080F0000009D9503082B
:1025650079950308000000006413002044B70408AF
:102575000F000000419503080195030800000000C5
:10258500DC13002050B704080F000000D99503089C
:10259500C195030800000000901400205CB70408F2
:1025A5000F0000008F960308000000004D9C0308F3
:1025B5008817002064B704080F0000001193030872
:1025C5000000000000000000D81700206CB70408C8
:1025D5000F000000959E0308ED980308E99803088D
:1025E500B418002074B704080F000000B59603085E
:1025F5000000000000000000681900207CB70408F6
:102605000F000000599703082997030800000000F0
:10261500F419002084B704080F000000D5970308BB
:102625001D98030800000000941A0020C4870020AC
:102635000103010090B704080F000000F596030898
:10264500C996030800000000841B002098B7040801
:102655000F00000089970308C59C030800000000CF
:10266500101C0020A4B704080F0000004D980308B3
:10267500119D030800000000B01C0020BE8700204B
:1026850001030100ACB704080000000000000000D1
:102695000000000000000000B8B7040808000000B2
:1026A50000000000DC1D002000000000C0B7040889
:1026B5000700000000000000D41D002000000000FD
:1026C500D0B704080700000000000000CC1D002062
:1026D50000000000DCB7040807000000000000004F
:1026E500C41D002000000000E8B704080D0000002C
:1026F50000000000B81D002000000000F4B7040829
:1027050003000000BDD00308A01D0020000000004C
:102715000CAF0408010000000000000000000000EC
:1027250000000000000000000E0000000000000096
:102735000000000000000000FCB7040800000000D5
:102745000000000000000000000000000CB80408B4
:102755000A00000000000000607704080000000087
:1027650014B804080A00000000000000A47704085B
:10277500000000001CB804080A000000000000006A
:10278500DC8700200000000024B804080A000000CF
:1027950000000000E81D0020000000000CAF040848
:1027A5000100000000000000000000000000000023
:1027B500000000000E000000000000000000000006
:1027C500000000002CB80408000000000000000014
:1027D500000000000000000038B8040803000000F5
:1027E500BDD00308341E00200000000048B70408CF
:1027F50003000000BDD003081C1E002000000000DF
:102805003CB7040803000000BDD00308041E0020E7
:102815000000000044B804080500000000000000A6
:102825005A860020000000004CB80408070000008C
:1028350000000000FC1D00200000000058B804083E
:102845000700000000000000F41D0020000000004B
:102855000CAF0408010000000000000000000000AB
:1028650000000000000000000E0000000000000055
:10287500000000000000000064B80408000000002B
:10288500000000000000000000000000F8A404089B
:1028950003000000BDD003087C1E002000000000DE
:1028A50078B8040803000000BDD00308E408002040
:1028B5000000000080B8040803000000BDD0030834
:1028C500641E00200000000088B804080300000012
:1028D500BDD003084C1E0020000000000CAF04080A
:1028E50001000000000000000000000000000000E2
:1028F500000000000E0000000000000000000000C5
:102905000000000094B8040800000000000000006A
:102915000000000000000000A0B804080700000047
:102925005D9D03082C1F00200000000098B40408DA
:1029350003000000BDD00308141F002000000000A4
:10294500ACB8040803000000BDD00308FC1E00203D
:1029550000000000B4B8040803000000BDD003085F
:10296500E41E002000000000BCB8040807000000B9
:10297500419D0308DC1E0020000000000CB0040887
:1029850003000000BDD00308C41E002000000000A5
:10299500C8B8040803000000BDD00308AC1E002021
:1029A50000000000D4B8040803000000BDD00308EF
:1029B500941E0020000000000CAF04080100000078
:1029C5000000000000000000000000000000000002
:1029D5000E000000000000000000000000000000E4
:1029E500E0B804080F00000035960308F1950308C8
:1029F50000000000341F0020E8B804080F000000A4
:102A0500BD9803080000000000000000E81F00203A
:102A1500F4B804080F000000E5940308C9940308FE
:102A25000000000074200020FCB804080F0000001E
:102A35000000000000000000000000002821002028
:102A45000CB904080F00000095980308799D030848
:102A550000000000B421002014B9040800000000A3
:102A65000000000000000000000000006CA1040848
:102A750003000000BDD00308F02200200000000084
:102A850000B9040803000000BDD00308D8220020C7
:102A950000000000F8B8040803000000BDD00308DA
:102AA500C02200200000000020B904080300000037
:102AB500BDD00308A8220020000000002CB904089E
:102AC50003000000BDD00308902200200000000094
:102AD50034B9040802000000D5CF03080000000047
:102AE500000000003CB9040802000000D5CF03082F
:102AF500010000000000000048B9040802000000C1
:102B0500D5CF03080200000000000000000000000F
:102B15000E000000000000000000000000000000A2
:102B2500430000000000000000000000000000005D
:102B35000000000000000000000000000000000090
:102B4500430000000000000000000000000000003D
:102B55000000000000000000000000000000000070
:102B6500430000000000000000000000000000001D
:102B75000000000000000000000000000000000050
:102B850043000000000000000000000000000000FD
:102B95000000000000000000000000000000000030
:102BA50043000000000000000000000000000000DD
:102BB5000000000000000000000000000000000010
:102BC50043000000000000000000000000000000BD
:102BD50000000000000000000000000000000000F0
:102BE500430000000000000000000000000000009D
:102BF50000000000000000000000000000000000D0
:102C05006D190408AD1704080000000058BB04083E
:102C1500C9B1040813830408138304081383040843
:102C25001383040813830408138304081383040817
:102C35001383040813830408FFFFFFFFFFFFFFFF53
:102C4500FFFFFFFFFFFF000001004153434949001B
:102C5500000000000000000000000000000000006F
:102C650000000000000000000000415343494900F6
:102C7500000000000000000000000000000000004F
:102C850000000000000000000000000040250020BA
:102C9500000000000000000000000000000000002F
:102CA500000000000000000000000000000000001F
:102CB500000000000000000000000000000000000F
:102CC50000000000000000000000000000000000FF
:102CD50000000000000000000000000000000000EF
:102CE50000000000000000000000000000000000DF
:042CF50001000000DA
:1080000070B4EFF31186502383F31288436B1A6820
:10801000D20720D45D686DB9446A826A944217D051
:1080200081691144D9600ED9A21A5A608462002273
:1080300080F858201A6842F00102F1B21A6081F308
:10804000118870BC704701698A1A5A608562EEE730
:10805000012380F85830F3B283F3118870BC704765
:10806000436A8269D154436A0169426B01338B428E
:1080700028BF00234362002A2FD0EFF31182502340
:1080800083F31288436B1968C9072CD470B45E68F7
:108090006EB9456A816A8D4217D084690C44DC60F0
:1080A0000ED9691A59608562002180F85810196844
:1080B00041F00101D2B2196082F3118870BC70479F
:1080C0000469611A59608662EEE7012380F858302E
:1080D000D2B282F3118870BC7047426DD36843F00E
:1080E0008003D3607047D2B282F31188704700BF1B
:1080F000026B10B462B1836CC2684469D11A013B4F
:10810000615C5DF8044B08BF13468364C8B27047D6
:10811000016A4369C4685B5C0131A14228BF114612
:1081200001625DF8044BD8B2704700BF436B13B1D6
:1081300090F858007047836A406A181AB0FA80F0C5
:1081400040097047416A836A99420AD3CB1A416B4E
:10815000026961B14968501E0B4483420AD2C01AB9
:10816000704702691144CB1A416B0029F2D1501EAD
:10817000C01A704700207047036B43B1826C5B6884
:1081800093422FBF981AC0689B1AC0187047C269E3
:10819000036A9A422FBFD01AC0688018C01A70476D
:1081A0000A4B30B503F11C0493F900205D78072ACF
:1081B000C8BF143A811804330D7313F8025C855458
:1081C00013F8012C0A76A342EED130BDCC3E040850
:1081D00003682DE9F041DF691FB13B46BDE8F0417E
:1081E0001847002A164611DD04460D460E4400E0ED
:1081F00023689B68204698470028F9D0236815F823
:10820000011B1B6820469847AE42F1D1BDE8F081C2
:10821000002329211E22017042708370C3707047B1
:1082200010B5084B03F10C0193F900205C788454DD
:1082300002449C78D470DC78947104338B42F3D17F
:1082400010BD00BFE83E040830B4846814B1236850
:10825000A5885D83436840F2E93001E0002833D00F
:108260001D89013815F0020F80B2F7D089B29981CB
:1082700040F2E93101E0002950D01889013910F0AD
:10828000010F89B2F7D0998940F2E93101E0002964
:108290002FD01889013910F0020F89B2F7D092B2AD
:1082A0009A8140F2E93201E0002A4BD01989013A63
:1082B00011F0010F92B2F7D09B8914B12368A28804
:1082C0001A83012030BC70472C498B4208D0A1F59D
:1082D00078418B424CD001F580618B42D4D1022091
:1082E000274901EB00104189013189B2418141895F
:1082F000CAE7224A934208D0A2F57842934235D089
:1083000002F580629342D8D102211D4B03EB01118B
:108310004B8901339BB24B814B89CEE7174883428F
:1083200007D018498B4227D001F580618B42ABD131
:108330000221134800EB01114889013080B24881C5
:108340004989A1E70D498B4207D00E4A934211D0CB
:1083500002F580629342B0D10222094B03EB021274
:10836000538901339BB253815389A6E70121CCE79E
:108370000120B5E70122F0E70121DAE700300140F2
:10838000F0C7002000380040002870B51EDB092827
:10839000044620DD012303EB83035B00B0FBF3F213
:1083A000092AF8D87BB10E4EB4FBF3F00928CCBFF4
:1083B00057223022A6FB03E5024403FB1044EB08DE
:1083C00001F8012BF0D100230B7070BD2D230B7031
:1083D00040420131DBE7303001F8010BF3E700BF29
:1083E000CDCCCCCC884230B44FF001042ED301FB6D
:1083F00004F4B0FBF4F58D42F9D284B1AAB901E0DE
:10840000B0FBF4F5092DCCBF572230222A4404FBDF
:10841000150003F8012BB4FBF1F4002CF0D100227D
:108420001A7030BC7047B0FBF4F5092DCCBF372271
:1084300030222A4404FB150003F8012BB4FBF1F4AD
:10844000002CF0D100221A7030BC70470546002A7B
:10845000EBD1D7E703685A1C02601970704700BF60
:108460002DE9F047089C2578002B804689460CBFF3
:108470004FF0200A4FF0300A661C35B3002A29DD80
:10848000334601E0024698B113F8011B501E002943
:10849000F8D1971E60B13D46013D51464046C84760
:1084A0006B1C002BF8DC257827EAE770013055B10A
:1084B000041B29464046C847301916F8015B002DB9
:1084C000F7D1BDE8F087BDE8F087002A04DC284634
:1084D000BDE8F0870020EBE7571EDCE783684268C1
:1084E000D0ED037A00EB83010133934281ED040A5E
:1084F000836004BF0023836000EB830393ED047A61
:10850000036870EE277A9A42C0ED037A77EEC77A55
:10851000C0ED037A0CDA013307EE103AF8EEC76AC1
:10852000B7EE007A87EEA60A036030EE070A7047BE
:1085300007EE102AB8EEC77A87EE870A704700BFA9
:1085400090ED057A90ED004AD0ED066AD0ED014A33
:10855000D0ED047A90ED035AD0ED025AA4EE007AE1
:10856000B0EE406AB0EE470AB0EE667AA6EE247A24
:1085700067EEC07AA0EE457AE6EE257A80ED057AC0
:10858000C0ED067A704700BFD0ED057A90ED013A54
:10859000D0ED003AD0ED064A90ED024A90ED077A10
:1085A00090ED035A90ED086AD0ED045AC0ED067ABA
:1085B000F0EE406A27EE830AC0ED056AA3EEA60A34
:1085C00080ED087AA4EE240AA5EE470AA5EEC60AB5
:1085D00080ED070A704700BFD0ED007A90ED017A78
:1085E00030EE670AE7EE007AB0EE670AC0ED007A77
:1085F000704700BF704700BF0A44914214D030B4A6
:108600000139551E41F2210211F8014F082380EA79
:10861000042004044CBF82EA40004000013B80B2C9
:10862000F7D18D42F0D130BC704700BF2DE9F04F3B
:10863000DFF8F8C1DFF8F8E1BCF80A70DEF8006096
:10864000BCF80C30BCF808A03C028BB0361B4FF0D5
:108650000004CDE90034009CBCF806304FEA1765F1
:108660004FF0000767EB0507B946B046A4FB066765
:108670000024CDE90634009C002304FB0977002484
:10868000CDE90034AAFB0823CDE90223039AF30DB8
:1086900000930AFB09230393009B43EA47230093BB
:1086A000029B4FEAD31AFB150193039B4AEA436AE4
:1086B000DDE9002344464D46CDE90845069C12F508
:1086C000FA62A4FB086743F1000304FB0977CDE9D4
:1086D0000623BCF80440039BBCF802204FEAE31BCE
:1086E000230C059323040493340A44EA07643D12DF
:1086F000DDE904674FEAC23816EB0A0647EB0B07C1
:1087000018EB0408DDE906344FEA524949EB050944
:10871000B3F5FA6F74F10004B246BB463CDADDE90A
:108720000067BC00B20044EA9673B41847EB030537
:1087300022463C462B4602FB04F406FB0344A2FB04
:1087400006232344940844EA83749D105B104FEA87
:108750003202B8EB040869EB0509BAEB020A6BEBCD
:10876000030BDDE90623304C4FF0FF35A242AB414D
:108770002CDBDDE90856A5FB052305FB06F403EB1E
:108780004403D40F44EA4304DD17DDE90623121B3A
:1087900063EB0503CDE90623DEF80440A4FB0823C0
:1087A00004FB0933540D44EAC3245D15B4EB0A0AF3
:1087B00065EB0B0B4FEADA3343EA4B4300B103603E
:1087C00009B1069B0B600BB0BDE8F08F40F6AC52D0
:1087D000B4184FF0000347EB03052246A2FB022327
:1087E00004FB05F403EB4403941843EB0305A418BE
:1087F0005D414FEA850CA6004CEA947CB41A6CEB00
:108800000305DF00D6006D104FEA340447EA5277C3
:10881000921B63EB0703B8EB040869EB05091AEB3D
:10882000020A4BEB030BA4E724FAFFFF48370020B2
:10883000A42500202DE9F04FDFF81CB2DFF81CE280
:10884000BBF80020DEF80860BBF90430BBF9025029
:10885000BBF90A80C2EB261404FB04F42413520073
:10886000C2EBE60203FB04F305FB02F29B1303EBEE
:10887000E223B3F5FA364FEAE37589B045F1FF37E5
:108880003246A6FB0645CDE9024502FB07F205EBA1
:108890004202CDE90467029EBBF90840039208FB3F
:1088A00002FC4FEAE87906FB09CC3A46A8FB0689A8
:1088B000049ECBF81830E51704FB02F206FB0522F4
:1088C000A4FB0667E14417444FEA182242EA096212
:1088D00000924FEA292201923D03DDE9007834033A
:1088E00045EA16553F19BBF80660069048EB0508A7
:1088F0003C1C48F5004503EB8302A4FB068906FBFC
:108900000599803213124FEA69064FEAE977079317
:1089100056EA07038A4600F09280DDE90489BBF934
:108920000E20DEF80C40BBF910004946C4F5801E4D
:10893000D317DDE9024502FB01F108FB0311A2FB9D
:1089400008230B444FEA43492B46C11700FB03F3AE
:1089500004FB0133A0FB0401BBF90C401944E30004
:1089600001937346DC170023009349EAD2394FEA9A
:108970004248DDE9002310EB080041EB0901E5075F
:1089800012184FEACE744B4145EA5E05A41A65EB16
:108990000305221945EB050312196B41990190015A
:1089A000801841EA926159418B00820043EA90733A
:1089B000101943EB05018B00820043EA90731046C7
:1089C0000019194632463B46694138F043FCBBF971
:1089D00016204C13450B45EAC14502FB04F6D3179C
:1089E00005FB0366A2FB05233344BBF9146002FBBD
:1089F00004F405FB034406FB01FEA2FB0523F71765
:108A0000234400FB07EE540EA6FB0067774444EABC
:108A1000C3144FEAD64800194FEA636548EA47385D
:108A200069414FEAE74918EB0008BBF9124049EBEE
:108A300001094FEA182646EA096620013618069B06
:108A40000BB1360A1E60BAF1000F02D0079BCAF8BC
:108A5000003009B0BDE8F08F58370020A425002071
:108A6000704700BF704700BF2DE9F041364F374DCA
:108A7000B7F80AC02A8A3B89B7F91240B7F914E05F
:108A80006E69B7F90250B7F90E80A2EB0C0203FB36
:108A900002F3DA139644E30293FBFEF31344A3F5C7
:108AA0007A6E0EFB0EF4B7F90CC0FB6122130EFBBD
:108AB00005F5B7F9044002FB08F8ED1202FB0CF2D1
:108AC000B7F900C00EFB04F405EBE825B7F920E088
:108AD000FF88121402EB643205EB8C0505FA0EF5E3
:108AE0000232023592104CF25034A6EBA50502F585
:108AF000004244FA0EF404FB05F407FB02F2D20B29
:108B0000002CB9BFB4FBF2F252006400B4FBF2F2E5
:108B1000141204FB04F50E4E40F6DE3404FB05F49B
:108B200003EB830306FB02F524145B0004EB2544EE
:108B3000083304F6CF641B1102EB241200B102606B
:108B400001B10B60BDE8F08124370020A42500208E
:108B500043E3FFFF4FF48053838270474FF4006379
:108B6000838270474FF4006383827047BFF34F8F57
:108B70000549064BCA6802F4E0621343CB60BFF3B9
:108B80004F8F00BFFDE700BF00ED00E00400FA05D5
:108B9000F8B5057B466903681F2D29D9A5F1200486
:108BA0005F682021A1400F422A4613D01022A24024
:108BB000D960DA605A68E240D10703D5012202FA8F
:108BC00004F4DC6004463046FFF71AFA227B23687F
:108BD0001F2A20D9A2F1200008215A6881401142A1
:108BE00000D0D9600422596882400A4221D1F8BDE0
:108BF00020211C68A9400C422A460CD01022AA4011
:108C000099609A601A68EA40D207DBD5012202FA1D
:108C100005F59D60D6E7082118689140014200D013
:108C200099600421186801FA02F2024203D09A60A6
:108C3000F8BDDA60F8BDF8BD70B4037B04681F2B83
:108C400008D9203B2021626801FA03F31A421CD1A3
:108C500070BC70472021226801FA03F31A42F7D052
:108C600042691449582000FB021251685689CD68A8
:108C70000868296821F001012960828992B222EAFC
:108C800006028281A36070BC70474269094958207E
:108C900000FB021251685689CD680868296821F0E6
:108CA00001012960828992B222EA06028281E36090
:108CB00070BC70478068002030B4094B1C786CB1E0
:108CC000084A002502EBC404116893884D62888924
:108CD000083203439BB2A2428B81F5D130BC70476E
:108CE000406B0020446B002010B4037B01681F2BF5
:108CF00009D9203B20224C6802FA03F31C4214D10C
:108D00005DF8044B704720220C6802FA03F31C4202
:108D1000F6D00C4A40680024147002685DF8044BD9
:108D200022F0010202608B607047064A406800240E
:108D3000147002685DF8044B22F001020260CB60FF
:108D4000704700BF4B480020F0B5C40022189200C5
:108D5000AE498B585B689D8AADB2EEB2F7070A4404
:108D60005CD4B70732D5BFF35F8F167EF6B2012E03
:108D700000F0C780A64D1A8BBFF35F8F221801EB5E
:108D80008202167E022E00F0D580221801EB8202AC
:108D9000167E032E00F088809A8895F9186092B2AA
:108DA00042F480629A80221801EB8202127E013224
:108DB00096425BD1AA7E00266E76002A40F095800E
:108DC000204401EB800000234375F0BD77074ED4AB
:108DD00016F0400600F0C9808D4D1E8A95F918E006
:108DE000176AF6B207F80E605FFA8EFE0EF1010CFC
:108DF0004FFA8CFC177E85F818C00CF103029742DD
:108E0000664600F01C81221801EB8202127E944516
:108E1000C9D10EF1020676B22E76C4E71E887C4DCB
:108E200026F400663604360C1E801E88B6B246F460
:108E300080661E80967E00272F76002E48D06E7E9C
:108E4000002E42D0221801EB82020126127E6E769D
:108E5000022A00F0B980221801EB8202927D42F0D2
:108E600001021A82204401EB8000037EF0BD684DB0
:108E7000967E0127AF76002E73D06E7E002E7BD1BA
:108E8000221801EB8202527E002A00F0A3801A8889
:108E90002E7E92B2013642F4007276B21A802E769D
:108EA0001A88D205FCD47EE7927E002A3FF474AF84
:108EB0006A7E002A3FF470AF9A8895F9186022F410
:108EC00080621204120C9A806DE7D27DFF2AB9D01D
:108ED000221801EB8202967D06F0FE061E82D37DEB
:108EE000FF2BBFD0FF232B76BCE79A8822F4407279
:108EF00012042044120C01EB80009A800023437579
:108F0000F0BD927E424D002A3FF435AF6A7E002AC2
:108F10003FF431AF1A8822F480621204120C1A80D6
:108F2000BFF35F8F1A8B1A88AE7692B242F400724A
:108F30001A8031E7927E002A3FF427AF6A7E002A2A
:108F40003FF423AF1A8895F9186022F48062120466
:108F5000120C1A809A8822F480621204120C9A80F1
:108F600021E76A7E002A8BD091E715F0800F284D0B
:108F70003AD195F9186016E7167ED2F820E01F88DE
:108F8000022E95F9186045D927F480673F043F0CFD
:108F90001F801F8AFFB20EF806701F88D2F820E0EB
:108FA000BFB247F400771F80F2B21F8A561C76B218
:108FB000FFB20EF806709F88961CBAB276B242F4E1
:108FC00080622E769A806BE71A8892B242F4006231
:108FD0001A8040E71A8895F9186092B242F48072BC
:108FE00001271A806F765BE795F91870B7F1FF3F9C
:108FF0002CD0D669F65D1E8292F818E001377AB25D
:10900000964516462A767FF4CEAEA3E7246100206B
:10901000A4250020BFB247F400771F801F8AFFB24B
:109020000EF80670F6B21F8AD2F820E0721C52B217
:109030000336FFB276B20EF802702E7630E79A88C9
:1090400022F480621204120C9A80DCE6D77D1F8223
:109050002E76957E1DB9127E002A7FF403AF9A8882
:1090600022F480621204120C9A80FBE670B504466A
:1090700082B01430E56D06236A464321A847B0B19B
:109080009DF804009DF800609DF801109DF80250C5
:109090009DF803209DF8053041EA062143EA0023AC
:1090A00042EA0522A187E287A4F84030012002B0FD
:1090B00070BD00BF70B5044682B00830656A0623F3
:1090C0006A463B21A847A8B19DF804009DF80060BE
:1090D0009DF801109DF802509DF803209DF8053081
:1090E00041EA062143EA002342EA0522E182228383
:1090F0006383012002B070BD50F8043C012280F867
:109100004520103803B11847704700BF30B50446FA
:10911000406D61718389A26823F400531B041B0C0A
:10912000838185B0A379009213F004022ED04FF40E
:10913000805213F00203ADF804203CD1ADF80630A4
:109140004FF480630022ADF8083011F00103ADF850
:109150000C2026D1ADF80A3008238A07694648BF9B
:10916000ADF80A3025F076FAA379626D13F0080F96
:10917000938A1BD123F008031B041B0C9382938951
:109180009BB243F40053938105B030BD13F002034A
:10919000ADF8042012D04FF400551346ADF8065038
:1091A000D0E70423ADF80A300C23D6E79BB243F096
:1091B00008039382E3E74FF40053BFE7ADF80630AE
:1091C000C0E700BF10B50446406DA160838923F459
:1091D00000531B041B0C8381A37984B013F0040299
:1091E000009133D04FF4805213F00203ADF8042005
:1091F0003CD1ADF806304FF480636279ADF80830A9
:10920000D1074FF00003ADF80A30ADF80C3045BF80
:109210000423ADF80A3008230C236946920748BF9F
:10922000ADF80A3025F016FAA379626D13F0080F35
:10923000938A16D123F008031B041B0C9382938995
:109240009BB243F40053938104B010BD13F00203AA
:10925000ADF804200DD04FF400511346ADF80610C0
:10926000CBE79BB243F008039382E8E74FF4005347
:10927000BFE7ADF80630C0E7002326220360027086
:109280002722C2700122436083608271437270475B
:10929000F8B50468C4F30D0405460E4604B32F6800
:1092A00025F08CF9092840F08880454C236923F487
:1092B00040732361236943F400732361236943F0FE
:1092C000010323613E6025F079F92369092823F021
:1092D0000103236171D12B6804332B600020F8BD9A
:1092E000384B394A93422BD902F58042934226D912
:1092F00002F5804293422AD902F58042934228D94E
:1093000002F58032934226D902F50032934224D9E5
:1093100002F50032934222D902F50032934220D95D
:1093200002F5003293421ED902F5802293421CD9E5
:10933000B3F1016F1BD3052004F0D8FCFBE7082430
:1093400025F03CF9092814D04FF0FF30F8BD102467
:10935000F6E71824F4E72024F2E72824F0E7302485
:10936000EEE73824ECE74024EAE74824E8E758240D
:10937000E6E7134F3B6923F440733B613B6943F4D9
:1093800000733B613B6923F0F8033B613B6943F0A9
:1093900002031C433C613B6943F480333B6125F08D
:1093A0000DF93B6923F002033B613B69092823F077
:1093B000F8033B613FF473AFC6E76FF00100F8BDFF
:1093C000003C024000400008FF3F0008F8B504469A
:1093D0000D468E180027B54201D12069F8BDE3681B
:1093E000591CE160234415F8012B1A720429F2D1AB
:1093F000206918B9A1682046FFF74AFF2061E7609D
:10940000E9E700BF70B582B004466946143028F021
:1094100015FCB0B19DF805009DF801609DF80210A3
:109420009DF803509DF804209DF8063041EA06217E
:1094300043EA002342EA0522A187E287A4F84030EC
:10944000012002B070BD00BF38B5254B1C68236BEE
:1094500073B1636D626BCAB1998A1A88C90592B2F9
:1094600001D5D20700D438BD4FF6F7721A8038BD47
:10947000636D99891A88890692B2EBD59206E9D56F
:10948000E26ACAB1988880B29047E2E799891A885F
:109490000D0692B2E0D51006DED5A26A616A8A4254
:1094A00019D0A1692569885C98800132B2FBF5F179
:1094B00005FB1122A262CFE79B88E2696169DBB2FA
:1094C0008B54E269E068636D0132B2FBF0F100FB9E
:1094D0001122E261BEE7DA6822F08002DA60BBE7BF
:1094E000FC60002003685B6A03B11847704700BF47
:1094F00003681B6A03B11847704700BF03682DE972
:10950000F041DF691FB13B46BDE8F0411847002A32
:10951000164611DD04460D460E4400E023689B68A4
:10952000204698470028F9D0236815F8011B1B68CE
:1095300020469847AE42F1D1BDE8F08103689B69AF
:10954000184700BF03685B69184700BF03681B69C1
:10955000184700BF0368DB68184700BF03689B68B3
:10956000184700BF03685B68184700BF03681B68A3
:10957000184700BF014B1868F8E700BFB8970020F4
:1095800038B50C46097849B1054601342B682846A0
:109590001B68984714F8011B0029F7D138BD00BF9C
:1095A000064B53F820302BB11A689B8851690B4247
:1095B00001D1138370475383704700BF94D10020BB
:1095C00003682DE9F04F03F13F4404F57E04604E3B
:1095D000A40A0125345D04F01F066409032C05FA72
:1095E00006F500F0AF80042C00F0A780022C54D0C8
:1095F0008588B5FA85F0C0F11F0080B2C40803EB7E
:10960000840400F00700266A80000F27874026EABE
:1096100007062662276A01F0030602FA00F0721EAE
:109620003843012AC1F3810CC1F300182062C1F351
:10963000411137D90024224601274FF0030E03E0E1
:10964000102A04F1020426D007FA02F0A84302F11E
:109650000102F5D1D3F800C00EFA04F0C04300EACD
:109660000C0CC3F800C0D3F8008006FA04FC4CEAE6
:10967000080CC3F800C0D3F80CC000EA0C00D86096
:10968000D3F80CC001FA04F040EA0C00102AD860AC
:1096900004F10204D8D1BDE8F08F2E4C666C35433E
:1096A0006564A5E7002002464FF0010E4FF0030964
:1096B00004E00132102A00F102003CD00EFA02F759
:1096C00037EA0504F5D1D3F800A009FA00F4E44321
:1096D0000AEA040AC3F800A0D3F800B006FA00FAB8
:1096E0004AEA0B0AC3F800A0D3F808A004EA0A0A61
:1096F000C3F808A0D3F808B00CFA00FA4AEA0B0A3B
:10970000C3F808A0D3F804A02AEA07075F60D3F8DB
:1097100004A008FA02F747EA0A075F60DF683C40E6
:10972000DC60DF6801FA00F401323C43102ADC609F
:1097300000F10200C2D1BDE8F08F064C266B354324
:10974000256355E7034C266C3543256450E700BF7D
:109750002477040800380240026802F13F4303F511
:109760007E032DE9F04F9B0A544DEB5C03F01F057F
:109770005B090124032B04FA05F400F09980042B03
:1097800000F09180022B3ED001F00306731E012BE6
:10979000C1F3810CC1F300188588C1F3411137D999
:1097A0000024234601274FF0030E03E0102B04F1A1
:1097B000020426D007FA03F0A84303F10103F5D110
:1097C000D2F800C00EFA04F0C04300EA0C0CC2F854
:1097D00000C0D2F8008006FA04FC4CEA080CC2F87B
:1097E00000C0D2F80CC000EA0C00D060D2F80CC067
:1097F00001FA04F040EA0C00102BD06004F10204DE
:10980000D8D1BDE8F08F2E4B5D6C2C435C64BBE778
:10981000002003464FF0010E4FF0030904E001332E
:10982000102B00F102003CD00EFA03F737EA0504D2
:10983000F5D1D2F800A009FA00F4E4430AEA040AD8
:10984000C2F800A0D2F800B006FA00FA4AEA0B0A01
:10985000C2F800A0D2F808A004EA0A0AC2F808A0D8
:10986000D2F808B00CFA00FA4AEA0B0AC2F808A0CB
:10987000D2F804A02AEA07075760D2F804A008FA31
:1098800003F747EA0A075760D7683C40D460D768B7
:1098900001FA00F401333C43102BD46000F10200C4
:1098A000C2D1BDE8F08F064B1D6B2C431C636BE7E8
:1098B000034B1D6C2C431C6466E700BF247704082F
:1098C0000038024010B50409013C032C17D80D4B99
:1098D00033F8142000F00F0042FA00F313F00103F4
:1098E0000DD0012303FA00F00138104037F002FDDB
:1098F000054A064B125D104403EBC00010BD00206A
:1099000010BD00BF307704082C77040808D0002071
:109910002DE9F04F4A484B494B4B4C4C4FF0010A54
:109920004FF002094FF004084FF0080C4FF0100EF2
:1099300020274026802530F8022B12F0010F03D09B
:109940001960A3F804A0083312F0020F03D01960C5
:10995000A3F80490083312F0040F03D01960A3F8A1
:109960000480083312F0080F03D01960A3F804C074
:10997000083312F0100F03D01960A3F804E0083385
:1099800012F0200F02D019609F80083312F0400FB0
:1099900002D019609E80083312F0800F02D0196047
:1099A0009D80083312F4807F05D04FF4807B1960CE
:1099B000A3F804B0083312F4007F05D04FF4007B05
:1099C0001960A3F804B0083312F4806F05D04FF487
:1099D000806B1960A3F804B0083312F4006F05D04F
:1099E0004FF4006B1960A3F804B0083312F4805FE1
:1099F00005D04FF4805B1960A3F804B0083312F46B
:109A0000005F05D04FF4005B1960A3F804B0083381
:109A100012F4804F05D04FF4804B1960A3F804B0C6
:109A20000833D20B04D04FF4004219609A800833F7
:109A300001F58061A1427FF47EAFBDE8F08F00BFE9
:109A4000307704080000024008D0002000100240D7
:109A500000286AD003682DE9F04F03F13F4404F574
:109A60007E045F4EA40A0125345D04F01F066409DC
:109A7000032C05FA06F559D0042C00F0AC80022C1A
:109A800059D08588B5FA85F0C0F11F0080B2C408AE
:109A900003EB840400F00700266A80000F2787404C
:109AA00026EA07062662276A01F003068240701E36
:109AB0003A430128C1F3810CC1F300182262C1F3BB
:109AC00041113DD90024224601274FF0030E03E047
:109AD000102A04F1020426D007FA02F0A84302F18A
:109AE0000102F5D1D3F800C00EFA04F0C04300EA39
:109AF0000C0CC3F800C0D3F8008006FA04FC4CEA52
:109B0000080CC3F800C0D3F80CC000EA0C00D86001
:109B1000D3F80CC001FA04F040EA0C00102AD86017
:109B200004F10204D8D1BDE8F08F70472D4C266CAB
:109B300035432564A5E72B4C666C35436564A0E787
:109B4000002002464FF0010E4FF0030904E00132FD
:109B5000102A00F102003CD00EFA02F737EA0504A1
:109B6000F5D1D3F800A009FA00F4E4430AEA040AA4
:109B7000C3F800A0D3F800B006FA00FA4AEA0B0ACC
:109B8000C3F800A0D3F808A004EA0A0AC3F808A0A2
:109B9000D3F808B00CFA00FA4AEA0B0AC3F808A096
:109BA000D3F804A02AEA07075F60D3F804A008FAF4
:109BB00002F747EA0A075F60DF683C40DC60DF6865
:109BC00001FA00F401323C43102ADC6000F102008B
:109BD000C2D1BDE8F08F034C266B3543256350E7B7
:109BE0002477040800380240002855D0026802F1AA
:109BF0003F4303F57E032DE9F04F9B0A544DEB5C88
:109C000003F01F055B090124032B04FA05F444D07B
:109C1000042B00F09780022B44D001F00306731E42
:109C2000012BC1F3810CC1F300188588C1F34111E8
:109C30003DD90024234601274FF0030E03E0102BEB
:109C400004F1020426D007FA03F0A84303F101034C
:109C5000F5D1D2F800C00EFA04F0C04300EA0C0CB3
:109C6000C2F800C0D2F8008006FA04FC4CEA080CE6
:109C7000C2F800C0D2F80CC000EA0C00D060D2F8E4
:109C80000CC001FA04F040EA0C00102BD06004F183
:109C90000204D8D1BDE8F08F70472E4B1D6C2C43C9
:109CA0001C64BAE72B4B5D6C2C435C64B5E7002069
:109CB00003464FF0010E4FF0030904E00133102B6F
:109CC00000F102003CD00EFA03F737EA0504F5D1A3
:109CD000D2F800A009FA00F4E4430AEA040AC2F840
:109CE00000A0D2F800B006FA00FA4AEA0B0AC2F85D
:109CF00000A0D2F808A004EA0A0AC2F808A0D2F824
:109D000008B00CFA00FA4AEA0B0AC2F808A0D2F826
:109D100004A02AEA07075760D2F804A008FA03F75C
:109D200047EA0A075760D7683C40D460D76801FA11
:109D300000F401333C43102BD46000F10200C2D187
:109D4000BDE8F08F034B1D6B2C431C6365E700BF20
:109D5000247704080038024038B590F8593003B928
:109D600038BD04461846FFF7ADFD0546D0B12023A7
:109D700000218371C171FFF737FF21460F4B41F876
:109D8000103F284627F0F0FEAB88B3FA83F3C3F107
:109D90001F03012212FA03F3E2D009490A681343B0
:109DA0000B6038BD0146FFF71FFF2146034B41F80A
:109DB000103F2846BDE8384027F0D6BEF99000088D
:109DC000003C014038B5044600F11405FFF7C4FF1C
:109DD000236E80226B2128469847642005F0B0F955
:109DE000236E0722682128469847642005F0A8F9C9
:109DF000236E00226B2128469847642005F0A0F9C5
:109E0000236E01226B21284698470F2005F098F910
:109E100094F85320236E032A8CBF1A2218221B2188
:109E2000284698470F2005F08BF9236E18221C2135
:109E3000284698470F2005F083F9236E94F85220A6
:109E40001A21284698470F2005F07AF9236E94F8D6
:109E50005420192128469847642005F071F9236E93
:109E600010223721284698470F2005F069F9284627
:109E7000236E0122382198470F20BDE8384005F0B5
:109E80005FB900BF10B1036882885A83704700BF72
:109E900010B1036882881A83704700BF18B1036845
:109EA000828809B95A8370471A83704710B40A4BE5
:109EB0000A4A1C7801238340234052F8200029B924
:109EC000B3FA83F149095DF8044BE7E7191C18BFA1
:109ED00001215DF8044BE1E790D1002094D10020EE
:109EE00030B1036882881B691A4214BF0120002028
:109EF000704700BF2DE9F0410B4E346873691C4078
:109F00000FD0DFF828800127B4FA84F3C3F11F03D0
:109F100007FA03F558F8230003689847AC437561C6
:109F2000F2D1BDE8F08100BF003C0140CC6C0020C4
:109F30002DE9F0410B4E346873691C400FD0DFF8F7
:109F400028800127B4FA84F3C3F11F0307FA03F54D
:109F500058F8230003689847AC437561F2D1BDE817
:109F6000F08100BF003C0140CC6C00202DE9F041A5
:109F70000B4E346873691C400FD0DFF8288001272E
:109F8000B4FA84F3C3F11F0307FA03F558F823006A
:109F900003689847AC437561F2D1BDE8F08100BF1A
:109FA000003C0140CC6C00202DE9F0410B4E3468A0
:109FB00073691C400FD0DFF828800127B4FA84F3BE
:109FC000C3F11F0307FA03F558F823000368984705
:109FD000AC437561F2D1BDE8F08100BF003C0140A7
:109FE000CC6C00202DE9F0410B4E346873691C40A5
:109FF0000FD0DFF828800127B4FA84F3C3F11F03E0
:10A0000007FA03F558F8230003689847AC437561D5
:10A01000F2D1BDE8F08100BF003C0140CC6C0020D3
:10A020002DE9F0410B4E346873691C400FD0DFF806
:10A0300028800127B4FA84F3C3F11F0307FA03F55C
:10A0400058F8230003689847AC437561F2D1BDE826
:10A05000F08100BF003C0140CC6C00202DE9F041B4
:10A060000B4E346873691C400FD0DFF8288001273D
:10A07000B4FA84F3C3F11F0307FA03F558F8230079
:10A0800003689847AC437561F2D1BDE8F08100BF29
:10A09000003C0140CC6C0020084A094808B5536CCC
:10A0A00043F4804353640021402239F05AFE054BAB
:10A0B0004FF0FF321A60C3F8032008BD0038024099
:10A0C000CC6C00200C6D002003685B6A184700BF51
:10A0D0002DE9F041044618460D461646984636F0DE
:10A0E000EFFB2768E6722844A07229467D69434643
:10A0F00032462046AC46BDE8F0416047036810B5E3
:10A1000004461B689847236820469B689847A37BB2
:10A110000133A37310BD00BF10B5036804469B68EC
:10A120009847FF2301226373227310BD08B5FFF720
:10A13000C9FB38B12C2282710022C2712021BDE8F6
:10A14000084051E508BD00BF40F2E93300E0A3B18B
:10A150000289013B12F0020F9BB2F8D089B28181D3
:10A1600040F2E93300E043B10289013B12F0010FF4
:10A170009BB2F8D08089C0B270470C4A904209D097
:10A180000B4B984210D003F58063984201D0FF201A
:10A1900070470223074A02EB03135A89013292B235
:10A1A0005A815889C0B270470123F3E7003001405B
:10A1B00000380040F0C70020144B984224D003F52B
:10A1C0008063984220D0028822F040021204120CD0
:10A1D0000280028822F038031B041B0C59B141F4A1
:10A1E0008071002991FAA1F2B2FA82F108BF4FF012
:10A1F000FF310139C9000B439BB2038003889BB236
:10A2000043F04003038070474908DCE70038004012
:10A21000F8B5464E0446FFF79FFDF77EDFB104F127
:10A2200014054FF48071A069FFF7C6FF94F852201F
:10A230001A212846FEF708F8012004F027FF042120
:10A24000A069FFF7B9FF2046FEF710FF94F93E30F2
:10A25000013362D0F8BD04F114054FF48071A06998
:10A26000FFF7AAFF80226B212846FDF7EDFF96201D
:10A2700004F066FF032268212846FDF7E5FF9620DB
:10A2800004F05EFF03226B212846FDF7DDFF0F205F
:10A2900004F0FCFE10226A212846FDF7D5FF0F20AE
:10A2A00004F0F4FE3A466C212846FDF7CDFF0F205E
:10A2B00004F0ECFE94F8542019212846FDF7C4FF61
:10A2C0000F2004F0E3FE18221B212846FDF7BCFFF7
:10A2D0000F2004F0DBFE10221C212846FDF7B4FFFE
:10A2E0000F2004F0D3FE102237212846FDF7ACFFE3
:10A2F0000F2004F0CBFE012238212846FDF7A4FFF1
:10A300000F2004F0C3FE0421A069FFF755FF0120D0
:10A3100004F0BCFE0123F37683E794F93C3001336B
:10A3200098D10620BDE8F84003F0E0BCA425002049
:10A3300010B5802104468069FFF73EFF012004F03C
:10A34000A5FE2046FFF73EFD10226A2104F114000D
:10A35000FDF77AFF642004F0F3FEA0690421FFF703
:10A360002BFF0120BDE8104004F090BEF0B48489BA
:10A370004FF6FF764FF47A7463B300293CD00F7820
:10A38000013101E0B4421AD00589013C15F0020503
:10A39000A4B2F7D0BCB284814FF47A7402E0BCB2AC
:10A3A000B4420CD0058915F0010504F1FF37F6D051
:10A3B0008589ADB20AB115700132013BDCE7104B63
:10A3C00098420BD0A3F57843984217D003F58063E9
:10A3D000984202D00120F0BC70470225094B03EBE4
:10A3E00005156B8901339BB26B81688980B200309F
:10A3F00018BF0120F0BC7047FF27C5E70125EDE736
:10A4000000300140F0C7002070B50546806810B1EB
:10A4100004688088608341F08001686840F2E93414
:10A4200000E0E4B10689013C16F0020FA4B2F8D0B6
:10A4300089B2818140F2E93100E029B30489013910
:10A4400014F0010F89B2F8D081890021FFF78EFF47
:10A45000AB6813B11A689B881383012070BD16493D
:10A46000884208D0A1F57841884221D001F5806169
:10A470008842EAD10224114901EB041461890131B7
:10A4800089B261816189E0E70B4CA04207D00C4999
:10A4900088420FD001F580618842D6D10221074C55
:10A4A00004EB01114C890134A4B24C814989CCE7F9
:10A4B0000124E0E70121F2E700300140F0C700206D
:10A4C00000380040F8B50501684C694B62596119C4
:10A4D0009A4204EB050704BF01230B730646387A42
:10A4E00035F0D2FA3B7A03F01F015B090122032BFE
:10A4F00002FA01F26DD0042B66D0022B5CD06319F6
:10A5000001361879FFF7DEF9F6B2074610B11223CB
:10A51000C671837163195879FFF7D4F910B1132309
:10A52000C671837163199879FFF7CCF910B11423C0
:10A53000C671837166190A21F2793846FFF788FAE5
:10A540007079FFF7BFF9F2790A21FFF781FAB07944
:10A55000FFF7B8F9F2790A21FFF77AFA6359454A09
:10A56000934247D0444A934250D0414A934259D0F3
:10A57000424A934262D0424A93426BD0414A93424C
:10A580002CD02C44227BE2B901200222198801F44C
:10A59000415141F445710A4302431A809A8B22F4D7
:10A5A00000621204120C07219A8319821A8892B24F
:10A5B00042F040021A80F8BD334B596A0A435A628E
:10A5C0009DE700200246E1E72F4B19690A431A6113
:10A5D00095E72D4B196A0A431A6290E702F5644227
:10A5E0004FF40010536A43F40013536223F0E0FE6B
:10A5F0006359C6E702F584324FF48050536A43F43E
:10A600008053536223F0D4FE6359BAE702F5003257
:10A610004FF48040136A43F48043136223F0D0FE6A
:10A620006359AEE702F5FE324FF40040136A43F47B
:10A630000043136223F0C4FE6359A2E702F582329D
:10A640004FF40050536A43F40053536223F0B0FEBA
:10A65000635996E702F568424FF48010536A43F459
:10A660008013536223F0A4FE63598AE7F0C70020E9
:10A67000003C004000300140003800400034014000
:10A68000005001400054014000380240427A02B9B3
:10A69000704710B504460368406804F10A01984702
:10A6A0000023637210BD00BF437A5A1C0344D2B228
:10A6B00042729972037A934200D802B9704710B57A
:10A6C00004460368406804F10A0198470023637256
:10A6D00010BD00BF302828D0312828D0322828D0FB
:10A6E000332828D0342828D0352828D0202828D02E
:10A6F000212828D0102828D0112828D0122828D086
:10A70000132828D0142828D0152828D0162805D09A
:10A71000172808BF0F2202D0002070470E22114BCD
:10A7200003EB420393F8290070470022F7E7012268
:10A73000F5E70222F3E70322F1E70422EFE705221F
:10A74000EDE70622EBE70722E9E70822E7E709221F
:10A75000E5E70A22E3E70B22E1E70C22DFE70D221F
:10A76000DDE700BFCC3E040870B5448806460D46C0
:10A77000C4F30B0422460021284639F0F2FA33696B
:10A78000094A934209D3094A934206D222462846EF
:10A790001946BDE8704037F01BB823B12146284662
:10A7A000BDE87040184770BD540600085507000802
:10A7B000064B07498B4202D30023184670471A887C
:10A7C000C2F30B029042F8D01433F3E79001000873
:10A7D00054060008024A136823EA0000106070471C
:10A7E000F8870020F8B5174D2B78A42B28D16B786B
:10A7F000BE2B25D1022229464FF6FF70FDF7FCFE45
:10A80000114FAC1C22884AB1A618BE4218D2052AA4
:10A8100016D92146FDF7F0FE3446F3E72146022221
:10A82000FDF7EAFE0222A118FDF7E6FE0634074B0B
:10A83000641B1C8041F60F53C31A58425841F8BD9F
:10A840000020F8BD00400008008000082E2D0020E8
:10A850002DE9F04FDFF84C914D4F8BB00326A7EB5D
:10A8600009071822002104A839F07BFA494BCDF8DA
:10A87000109005971A69002A04DA474A5A6002F1D3
:10A8800088325A6001228DF82420F322DA60434B8B
:10A89000434C1B88ADF800300222694604A8FEF73D
:10A8A00095FD022269464FF6FF70FDF7A5FEDFF821
:10A8B000F8A080464FF0000B544539D30AAC002570
:10A8C00024F8245D0222214604A8FEF77FFD02221F
:10A8D00021464046FDF790FE40BAC043ADF808005F
:10A8E000022202A904A8FEF771FD079878B106AB11
:10A8F000C0F104022946184439F033FA089818B90F
:10A90000069904A8FEF7C4FC0023089007939DF85D
:10A910002430089A23B11F490B6943F000430B61AF
:10A92000013E2DD0002A9CD1FFF75CFF50B32CE0F4
:10A9300065888DF80DB0C5F30B05AB1DADF808307B
:10A940002388C3F30B02ADF80A201B0B062202A9D1
:10A9500004A88DF80C30FEF739FD062202A9404606
:10A96000FDF74AFE616880462A4604A8FEF72EFDE0
:10A97000616840462A46FDF73FFE143480469BE757
:10A98000002AD1D0052003F0B1F90BB0BDE8F08F5B
:10A9900000800008003C024023016745143F040882
:10A9A0009001000800400008540600080378202B9E
:10A9B000024600F10100F9D0092BF7D02D2B2CD045
:10A9C0002B2B03BF5378B7EE000A0246B7EE000AFE
:10A9D000A3F13001C8B209289FED467A10D8F2EEF3
:10A9E000046A07EE901AF8EEE77A12F8013FE7EEF4
:10A9F000267AA3F13001C8B20928B0EE677AF0D9FF
:10AA00002E2B4CD003F0DF03452B0BD0F7EE007A52
:10AA100067EE276A20EE260A70475378BFEE000AD9
:10AA20000246D5E710B451782D2959D02B290ABFF9
:10AA30009178501C901C0024A1F13003092B53D8AD
:10AA4000002303EB830301EB430310F8011FA1F183
:10AA50003002092AA3F13003F3D9B3F59A7F28BF56
:10AA60004FF49A73072B42D9DFED236A1A46F7EEAB
:10AA7000007A083A072A67EEA67AFAD803F00703A5
:10AA80002BB1F2EE046A013B67EEA67AFBD124B348
:10AA9000C7EE276A5DF8044B20EE260A704753780C
:10AAA000A3F13001C8B2092802F10102AAD8F2EEDE
:10AAB000046AF0EE665A07EE901AF8EEE77A12F89A
:10AAC000013F87EEA66AA3F13001C8B2092866EEFD
:10AAD000A56A37EE067AEED994E767EE276AD9E7DA
:10AAE000901C91780124A7E7F7EE007ACFE7F7EE04
:10AAF000007AC5E70000000020BCBE4CB5EEC00ADD
:10AB0000DFED317AF1EE10FACCBF30EE270A30EEED
:10AB1000670ADFED2E7A20EE270A30B5FDEEC07A07
:10AB200087B017EE904A054684EAE470002303A933
:10AB3000A0EBE47001930093029334F0CFF9002C62
:10AB4000ACBF20232D2303A88DF8003035F0B8FECC
:10AB5000012803A924D002282DD0032805BF3023C3
:10AB6000684668468DF8013039F021F9684635F0BD
:10AB7000A7FE0338C4B222466946284639F075F963
:10AB800000232B55284635F09BFE2E22431C2A54C9
:10AB90000DEB0401E81839F027F9284607B030BD5D
:10ABA000302368468DF801308DF802308DF803307F
:10ABB00039F0FDF8DAE7302368468DF801308DF87A
:10ABC000023039F0F4F8D1E76F12033A00007A440A
:10ABD0002DE9F041064615460846B6FBF2F43CB9AD
:10ABE00005FB1464124B1B5D00F8013BBDE8F081CE
:10ABF000B4FBF2F767B90E4B05FB174705FB14646E
:10AC0000DA5D00F8012B1B5D00F8013BBDE8F08127
:10AC1000B7FBF2F8B8F1000F02D04046FFF7D8FFBB
:10AC200005FB1878024B13F8082000F8012BE3E726
:10AC30003877040830B402681146531C036011F8D9
:10AC4000024B0160D31C517803609378151D056099
:10AC50001B0443EA0123D078234343EA006030BC5D
:10AC6000704700BF0368591C1A46016012F8021BA6
:10AC70000260587841EA0020704700BF03685A1C00
:10AC800002601878704700BF38B504460068154662
:10AC900036F09EFD22682A44226038BD036810B455
:10ACA0000A0E5C1C04601A7003680A0C5C1C0460C9
:10ACB0001A7003680A0A5C1C04601A7003685A1C44
:10ACC000026019705DF8044B704700BF036810B450
:10ACD0000A0A5C1C04601A7003685A1C026019702E
:10ACE0005DF8044B704700BF03685A1C026010B443
:10ACF000197003680A0A5C1C04601A7003680A0C65
:10AD00005C1C04601A700368090E5A1C02601970FA
:10AD10005DF8044B704700BF03685A1C026019704D
:10AD20000368090A5A1C0260197070472DE9F04740
:10AD3000002488B080460F461E46A14605AD531C30
:10AD40000393117839B3252933D1931CCDF8109092
:10AD50000393507830284ED04FF0000AA0F1300312
:10AD6000DBB2092B42D96C2819D0642800F09380FB
:10AD700024D825281CD063D9582876D063281BD125
:10AD800031784046B847039A531C03931178043630
:10AD900001340029D7D1204608B0BDE8F087039BD5
:10ADA0005A1C03921B78642B7CD02AD8252B54D1B3
:10ADB000252140460134B847039AC0E7732833D0B1
:10ADC00044D975284FD106F1040E30682B46002275
