:020000040800F2
:10000000F0FF0120B98D0508650D03081DD7040810
:10001000318E0508318E0508318E0508000000007C
:10002000000000000000000000000000610D030857
:100030005D0D030800000000590D0308D9170208E0
:10004000318E0508318E0508318E0508318E050880
:10005000318E0508318E0508D91F020805210208D6
:10006000C92002088D20020851200208213205080B
:100070001132050801320508F1310508DD310508A6
:10008000C9310508B5310508318E050800000000AA
:100090000000000000000000000000001520020821
:1000A000B1DC04089DE00408E1DB040821E2040857
:1000B000DDDF04081DDF040851DE0408DF3B05080E
:1000C000E53B0508D53B0508DB3B0508318E0508F7
:1000D000318E0508D5180208191802080000000022
:1000E0009D1F0208318E0508514A030800000000D8
:1000F000000000000000000000000000A131050821
:1001000000000000318E050881DD0408318E0508ED
:1001100000000000000000000000000000000000DF
:100120008D3105087931050865310508513105081B
:100130003D31050800000000000000000000000044
:10014000000000000000000000000000ED21030896
:10015000293105081531050801310508318E0508DA
:10016000CB3B0508D13B0508000000000000000063
:10017000000000000000000000000000000000007F
:1001800000000000318E05080000000000000000A3
:08019000318E0508318E0508CF
:08019800508905000100000080
:1001A0000A02010014000000EC1E0020942500202B
:1001B00000000000959D0008F821010006000000E5
:1001C00044220020A825002000000000F0080008BC
:1001D000030001000100000064220020B02500207F
:1001E00000000000000000001010010002000000EC
:1001F000B0190020B425002000000000F608000817
:1002000025201E002C010000081F0020B82500201A
:1002100000000000000000001900010005000000BF
:100220000C360020D436002000000000F80800083A
:100230001A0001000E0000006C350020DC360020A2
:1002400000000000FE080008203201000A00000043
:1002500004340020EC36002000000000AD2C010822
:100260001500100070000000E42D0020F83600207A
:1002700000000000000000002A00080060000000EC
:10028000743600206837002000000000852C01082B
:100290002C00040010000000D8370020C8370020D0
:1002A00000000000592A01082B0012002400000061
:1002B0000C380020E837002000000000292A01083F
:1002C0002920140078000000902B002030380020F6
:1002D00000000000000000002802040004000000EC
:1002E000B84D0020BC4D00200000000041A00308D4
:1002F0002702040004000000B44D0020C04D00207F
:100300000000000035A00308F62101000C000000E9
:10031000045A0020345B0020000000000C09000893
:100320001C0202001C0000008C5A0020845B00208C
:10033000000000008DA0030814000100040000006C
:10034000D8590020A05B0020000000001809000818
:10035000012001000C000000F0510020A45B0020EF
:10036000000000001C0900080EF003009E010000C0
:10037000084F0020B05B002000000000CD2C0108D9
:10038000130001000400000088570020505D002089
:10039000000000002809000801010100040000001D
:1003A000544E0020545D00200000000000000000BA
:1003B00000010100040000004C4E0020585D0020A8
:1003C000000000002C0900080201010003000000E9
:1003D000484E00205C5D002000000000F18800080D
:1003E000220201001C01000070550020605D002009
:1003F00000000000B5A303080C200600CC0000009C
:10040000CC5000207C5E002000000000B588000871
:100410000B3001001A00000004730020287B00202C
:1004200000000000300900081F3001002400000017
:10043000F0690020447B0020000000004C09000807
:100440000502010004000000F8770020687B00200E
:100450000000000070090008030101000A0000000C
:100460005C7200206C7B002000000000D5E60208D2
:1004700013020100040000007C680020787B00204B
:1004800000000000740900080D1001004000000089
:10049000287500207C7B0020000000008166030896
:1004A000040008008000000080740020BC7B002055
:1004B000000000000000000009020100010000002F
:1004C0001C7700203C7C0020000000007809000818
:1004D000020001000C000000C87C00205C7D0020B0
:1004E00000000000000000002902010040000000A0
:1004F000487C0020687D0020000000007A09000888
:1005000007020100020000001C8300203483002049
:1005100000000000BA0900081D02020006000000E9
:10052000EC82002038830020000000000000000062
:10053000060203000C000000048300204086002017
:100540000000000059A10308081203000F0000007A
:10055000F48200204C8600200000000009A003085F
:100560002700010004000000AC7D00205C86002014
:1005700000000000BC090008010201000B0000009F
:10058000A4900020DC9F002000000000F99F0308D9
:100590001B0201001000000090900020E89F002046
:1005A0000000000045A003081B1001000C00000023
:1005B0000C890020F89F0020000000007922040828
:1005C00021020100F00000008C87002004A0002020
:1005D00000000000CD0404082312010010000000F8
:1005E000948D0020F4A0002000000000C009000845
:1005F000371001002E0000000090002004A1002010
:1006000000000000D00900080E02010002000000F6
:10061000908D002034A1002000000000FE09000899
:100620001610010006000000888D002038A100206F
:1006300000000000000A00082F1001002200000046
:10064000B89F002040A1002000000000060A00081A
:100650001E00010009000000788C002064A1002029
:1006600000000000280A0008051001000600000034
:10067000688C002070A1002000000000320A0008F1
:10068000F5810100680000001C87002078A100208F
:1006900000000000494B0408232001001000000066
:1006A000348D0020E0A10020000000001D61020840
:1006B000FD0701007600000060860020F0A1002008
:1006C000000000007DFB0308261001000E00000062
:1006D00078A2002068A2002000000000E1F90308D1
:1006E0001A0201003C00000060A7002000AD0020BD
:1006F00000000000E9A40308031201003D0000000F
:10070000E8A600203CAD002000000000380A0008E8
:10071000381001000100000050A500207CAD002031
:1007200000000000760A000810020100010000002D
:10073000DCC10020D8C1002000000000780A0008B9
:10074000F90101000400000018E70020A8EF0020D4
:10075000000000004DED0108FD0101002400000033
:10076000D0E60020ACEF0020000000009FEC010864
:10077000182001003200000098E60020D0EF002091
:10078000000000006DA40308FB010100010000004F
:1007900010E5002004F00020000000001DA3030865
:1007A000FC01010009000000DCE3002008F000204B
:1007B000000000002DA30308F7010100060000005F
:1007C000D4E3002014F00020000000007A0A0008A2
:1007D000160215003F0000000CC700201CF000208E
:1007E00000000000FDA30308340001001000000019
:1007F00060E200205CF000200000000025430108BA
:10080000110201000800000038E200206CF0002016
:1008100000000000800A000812120100040000001D
:1008200030E2002074F0002000000000880A000878
:100830000A80010028000000C0DA002078F00020C3
:100840000000000005600208061001001C00000006
:1008500030C60020A0F000200000000049A30308DB
:1008600012200100110000007CD20020BCF000200A
:10087000000000008C0A0008000201000B000000CC
:10088000B8CF0020D0F000200000000000000000E1
:100890000202010003000000F4C50020DCF000208B
:1008A00000000000000000000C0201000400000035
:1008B000A4C50020E0F0002000000000E19F030834
:1008C0001F0208001000000064CF0020E4F00020A8
:1008D00000000000C59F0308FE0101001400000095
:1008E000D4C90020F4F00020000000009D9F030800
:1008F0000201F401140000050000280100007E053B
:10090000EA05B4053200E803D0070000000000004B
:10091000010000000202000003000023E80364005D
:10092000040A000114001E00480444309001000035
:10093000AE014A015E012C016401010000000100CA
:100940000A019A01001E0A000002000000000000D7
:10095000000100000005000001020300000000008B
:100960000000000000000000000000000080070000
:10097000000000000000013F000000000000000037
:100980000000000000000000000000000000000067
:100990000000000000000000000000000000000057
:1009A0000000000000000000000000000000000047
:1009B00000000000000000000000013C20030000D7
:1009C0000000000000000000000000000000000027
:1009D00020003200C800D007960014003200280022
:1009E0004C0440060005500014000F00080064008D
:1009F0000100000005000A000000F401960000005C
:100A0000C409000019000000000000000000000000
:100A100000000000000000000000000000000000D6
:100A200000000000000000000005010000000000C0
:100A30000000200003010000000000000000000092
:100A400000000000000000000000000000000000A6
:100A50000000000000000000000000000000000096
:100A60000000000000000000000000000000000086
:100A70000000000001000000000022010000000052
:100A80000000000001010101FFFFFFFF0000000165
:0D0A90000001054D4B34310000080002004C
:100A9D000000FA430000FA430000803F0000803F51
:100AAD00000000000000000000000000BD69030808
:100ABD00000000000000000000000000FFFFFFFF2D
:100ACD000000000084250020080000000000000048
:100ADD00742500200800000020000000F0260020F2
:100AED004427002001D601FFA8380020FFFFFFFF9B
:100AFD000000803F0000000000000000000000002A
:100B0D000000803F00000000000000000000000019
:100B1D0000000000000000000000000000000000C8
:100B2D0000000000000000000000803F00000000F9
:100B3D00000000000000000001000000FFFF0000A9
:100B4D00FFFFFFFF3C8006080000080205030300BD
:100B5D00000000004480060801000802050403009F
:100B6D0000000000444006080200FE0101100300D1
:100B7D00000000004C800608030014020003000072
:100B8D00000000005480060804001F020200080047
:100B9D00000000005C80060805001F02020108002D
:100BAD000000000001000000BD560208000000001A
:100BBD000000000090F20508000000000000000099
:100BCD0000000000000C06080000000000000000FE
:100BDD0000000000B80C0608000000000000000036
:100BED0000000000640C060800000000000000007A
:100BFD00617A0208A154002001010000B58C0208A1
:100C0D0000000000000000008C0D0608E98F0208AE
:100C1D000000000000000000440D06082D202D2DC1
:100C2D00202D2D2D2D202D2D2D000000000000003C
:100C3D00000000000000000000000000FFFFFFFFAB
:100C4D00858002080000000000000000900B0608DF
:100C5D0001000000FA00000001000000010000008A
:100C6D00010100000001010100000000E851002019
:100C7D000000F40101000000E65100200000F40125
:100C8D0001000000E45100200000F401010000000B
:100C9D00E25100200000F40101000000E0510020AD
:100CAD000000F40101000000DE5100200000F401FD
:100CBD0001000000DC5100200000F40101000000E3
:100CCD00A55E0208695E02080000000054F80508E0
:100CDD00CC51002005320100DA5100206400F401EE
:100CED0001000000D85100206400C409010000007B
:100CFD00CA510020E803D00701000000C8510020B0
:100D0D00E803D00701000000C6510020E803D0071A
:100D1D0001000000C45100201E00B80B01000000AE
:100D2D00D251002005000F0001000000D451002019
:100D3D0003000A0001000000C25100201E00F40152
:100D4D0001000000D651002002000000E0F8050867
:100D5D00C05100201400640001000000CE5100209D
:100D6D003200E80301000000BE5100200000C80061
:100D7D0001000000C950002000C80100C85000202B
:100D8D0000500100C7500020005A0100C55000203E
:100D9D0002000000ECF8050898880608A0880608EF
:100DAD00D67600200100C40900000000D476002092
:100DBD000100C40900000000D27600200100C40922
:100DCD0000000000D07600200100C40900000000E2
:100DDD00CC7600200100C40900000000CE76002072
:100DED000100C40900000000CA7600200100C409FA
:100DFD0000000000C87600200100C40900000000BA
:100E0D00734E002000C80100724E002000C8010082
:100E1D00704E00200000FFFF0A0000006E4E002003
:100E2D000100C800010000006C4E0020320030753A
:100E3D00320000006A4E002005820500684E002039
:100E4D0005002C0105000000664E0020055A050026
:100E5D00634E002000FF0100654E002002000000DF
:100E6D00A0040020614E002003000000181E06089B
:100E7D00624E002000FF0100644E002002000000C1
:100E8D00A0040020604E002003000000181E06087C
:100E9D00F95D0208895D020800000000F8F80508F8
:100EAD0000520020EE02CA0801000000FE51002091
:100EBD0000C8010064000000FD51002000C80100C1
:100ECD0064000000FC5100200200000004FA050837
:100EDD005A4E002080C1803E05000000584E002073
:100EED0080C1803E05000000524E002080C1803E32
:100EFD0005000000504E002080C1803E050000001E
:100F0D004B4E002000FF0100444E00206400F40110
:100F1D0001000000424E00200400000010FA0508F8
:100F2D00414E00200200000024FA0508F94E002071
:100F3D000D00000030FA0508F64E00200064010097
:100F4D00F44E0020320010270A000000F24E00205F
:100F5D000D00000030FA0508F14E00200D000000D4
:100F6D0030FA0508F04E00200200000068FA05086E
:100F7D00065200203E00000074FA050804520020BD
:100F8D000100FF7F0100000003520020020000005D
:100F9D0070FB0508FB4E00200300000080FB0508D8
:100FAD00FA4E00200300000080FB0508B65000201B
:100FBD00000A0100B45000200000E8030100000009
:100FCD00B25000200000E80301000000B0500020E6
:100FDD000000E80301000000AE5000200000E8030F
:100FED0001000000A65000200000E80301000000F1
:100FFD00AC5000200000E80301000000AA500020C2
:10100D000000E80301000000A850002000140100BA
:10101D00C45000200200000090FB0508C2500020C3
:10102D000000F40101000000C05000200000F40198
:10103D0001000000BE5000200000F401010000007E
:10104D00BC5000200000F40101000000BA50002047
:10105D000000A00F01000000B85000200000A00FFC
:10106D0001000000AB51002019640100AA510020BD
:10107D00020000009CFB0508A8510020E803D007E2
:10108D000A000000A6510020006401000A000000C3
:10109D009B510020006401009A5100200064010062
:1010AD00A2510020006401000A000000A15100209F
:1010BD00006401000A000000A0510020006401003E
:1010CD000A000000A551002000FF01000A000000E9
:1010DD00A451002000FF01000A000000A3510020D0
:1010ED0000FF01000A0000009F51002001FF0100D8
:1010FD000A0000009E51002001FF01000A000000BF
:10110D009D51002001FF01000A000000044F002046
:10111D000000F40101000000024F00200000A00FAC
:10112D0001000000004F00200000A00F0100000092
:10113D00FE4E00200000A00F01000000FC4E00201C
:10114D000000A00F01000000E954002000C80100BC
:10115D00E854002000640100E75400200064010001
:10116D00E654002000640100E554002000640100F5
:10117D00E4540020FF080100E35400200164010045
:10118D00F55C0208B95C020800000000A8FB050828
:10119D00EC54002001320100EB540020010000004E
:1011AD0018FC0508EA5400200400000020FC050886
:1011BD00E254002000640100E05400201400E80314
:1011CD0001000000DE540020E80330750A00000025
:1011DD00DD54002000C80100DC54002000C80100CF
:1011ED00DB54002000C80100DA5400200032010059
:1011FD00EE540020004B0100ED54002004000000CF
:10120D0034FC0508D9540020006401000A000000D8
:10121D00FC5400200000D00701000000F75400200E
:10122D0000C80100F654002000C80100F55400204C
:10123D0000C80100FA5400200000D0070100000092
:10124D00F454002000C80100F354002000C8010030
:10125D00F254002000C80100F85400200000D0070F
:10126D0001000000F154002000C80100F0540020DE
:10127D0000C80100EF54002000C80100AD5A02085B
:10128D00955A02080000000048FC0508ED4E0020AC
:10129D00005A0100EC4E002000C80100EA4E00206B
:1012AD00E803D0070100000000000000000000006E
:1012BD00A17A0208E4FC05084D4154454B463431F2
:1012CD00310000005F4E0020000301005E4E002043
:1012DD0000030100D15902088559020800000000E1
:1012ED0038FD050845590208FD58020800000000A8
:1012FD00D4FD05081D5A020869800208000000008F
:10130D0054FE05085C4E0020010301004D5F0208EC
:10131D00215F020800000000AC0106088158020898
:10132D0035580208000000001C020608BD5A0208CC
:10133D009998020800000000B8020608657B0208B3
:10134D00795F020800000000600306080D5B0208CB
:10135D000000000000000000E0030608E95B020841
:10136D00915B020800000000440406087D5C020841
:10137D00415C020800000000EC04060871DA020866
:10138D00315D02080000000078050608BD510020FF
:10139D0001060100555B0208215B020800000000F8
:1013AD0074060608A7D9020805820208000000008D
:1013BD00E4060608B5DA0208CD8202080000000036
:1013CD0034080608BC51002001030100655A0208CB
:1013DD00355A020800000000080906080DDB020856
:1013ED0000000000000000006C090608CD5802083E
:1013FD005180020800000000EC0906080000000002
:10140D000000000000000000780A0608615D020877
:10141D004583020800000000E80A060800000000ED
:10142D000000000000000000000D0608A477002059
:10143D009CFF2C010000000020570020E0150C1728
:10144D00000000003454002002000000380D060892
:10145D003C4E002088136F17010000003E4E002007
:10146D0088136F17000000004E720020000000006E
:10147D00000000004C720020000000000000000081
:10148D004A72002000000000000000004872002099
:10149D000000000000000000467200200000000067
:1014AD000000000044720020000000000000000059
:1014BD00340E00200000000000000000C44D00208C
:1014CD0003000000280E0608344E002088136F1705
:1014DD0001000000EE77002088136F170000000058
:1014ED00755702080000000000000000380E0608C5
:1014FD0035540020010000008C0E0608F077002006
:10150D0001000000980E0608E6770020020000009A
:10151D00A00E060800000000000000000000000002
:10152D00AC0E06085D570208000000000000000028
:10153D00480F060800000000000000000000000039
:10154D009C0F0608000000000000000000000000D5
:10155D000C100608404E0020020000004410060842
:10156D00EA770020E0150C170000000004030904C1
:10157D0012010002EF020140830456320002010203
:10158D0003010000120100020202004083044057D3
:10159D00000201020301000009026400030100C002
:1015AD0032090400000103000000092111010001AE
:1015BD002226000705830308000A080B0102020218
:1015CD0001000904010001020201000524001001BF
:1015DD000524010002042402020524060102070568
:1015ED0082030800FF09040200020A00000007053B
:1015FD00010240000007058102400000090243007E
:10160D00020100C03209040000010202010005249C
:10161D000010010524010001042402020524060026
:10162D0001070582030800FF09040100020A0000FA
:10163D00000705010240000007058102400000007F
:10164D00FF00000000FF0000000000000000AA5590
:10165D000701000001AA550501000008D011060878
:10166D00FF1FFF1F0000803F05010905A101A1001B
:10167D0005010930093109320933093509340940A9
:10168D0009381581257F750895088102C0C00000B5
:10169D0009022200010100E03209040000010301EA
:1016AD00020009211101000122260007058303080C
:1016BD00000A0000000000000102030401020304FF
:1016CD0006070809F90E0308C11503083D110308A3
:1016DD004DDF020855E402085DDF020879DF0208DC
:1016ED0025DF020815DF02080000000000000000E1
:1016FD002D202D2D202D2D2D2D202D2D2D2D00008E
:10170D00000000000000000000000000000000AA22
:10171D00550B010000AA5505010000AA550902004C
:10172D000000AA5503009F0001000000C012000038
:10173D00F87A002000000000207B0020000000004F
:10174D0021E4020815E30208191103080000000046
:10175D0011DF02085517030895E20208510E030820
:10176D000000000000000000CDDE020891E3020839
:10177D00D5E202085910030800000000E5DE02085A
:10178D00550E030869E20208B10D030800000000C0
:10179D0000000000D9DE0208FF010000F401000086
:1017AD00FF000000CC1B0608010000000000010036
:1017BD00E0017EFFFFFFFFFFFF000000FFFFFFFFC7
:1017CD0008000000E88006084CA90608000000008B
:1017DD005D890008A08601000400000000000000E3
:1017ED0000000000000000000000000000000000EC
:1017FD0000000000000000000000000000000000DC
:10180D0000000000E8800608B4A9060800000000EA
:10181D001D6C0408E8030000040000000000000037
:10182D0000000000000000000000000000000000AB
:10183D00000000000000000000000000000000009B
:10184D0000000000108006080000000000000000ED
:10185D00CD9800087D000000FF0000000000000092
:10186D00000000000000000000000000000000006B
:10187D00000000000000000000000000000000005B
:10188D000000000090840608000000000000000029
:10189D0039AD00087D000000FF00000000000000D1
:1018AD00000000000000000000000000000000002B
:1018BD00000000000000000000000000000000001B
:1018CD0000000000A49006080000000000000000C9
:1018DD00B9F100087D000000FF00000000000000CD
:1018ED0000000000000000000000000000000000EB
:1018FD0000000000000000000000000000000000DB
:10190D000000000018800608000000000000000024
:10191D00E9D00408E8030000030000000000000007
:10192D0000000000000000000000000000000000AA
:10193D00000000000000000000000000000000009A
:10194D0000000000BCA90608000000000000000017
:10195D00B9C90108102700000300000000000000B5
:10196D00000000000000000000000000000000006A
:10197D00000000000000000000000000000000005A
:10198D000000000048800608000000004526010800
:10199D0035A304085F76000005000000000000007C
:1019AD00000000000000000000000000000000002A
:1019BD00000000000000000000000000000000001A
:1019CD00000000000C84060800000000000000006C
:1019DD0085E8040810270000010000000000000049
:1019ED0000000000000000000000000000000000EA
:1019FD0000000000000000000000000000000000DA
:101A0D0000000000C8A9060800000000000000004A
:101A1D00216C0408E8030000050000000000000030
:101A2D0000000000000000000000000000000000A9
:101A3D000000000000000000000000000000000099
:101A4D0000000000D4A906080000000000000000FE
:101A5D00D19D0008204E0000030000000000000092
:101A6D000000000000000000000000000000000069
:101A7D000000000000000000000000000000000059
:101A8D0000000000E4A906080000000000000000AE
:101A9D00CD9F0008204E0000030000000000000054
:101AAD000000000000000000000000000000000029
:101ABD000000000000000000000000000000000019
:101ACD0000000000F4A9060800000000000000005E
:101ADD00E99F0408400D0300030000000000000012
:101AED0000000000000000000000000000000000E9
:101AFD0000000000000000000000000000000000D9
:101B0D0000000000E0810608000000000000000059
:101B1D00B16703081027000001000000000000005D
:101B2D0000000000000000000000000000000000A8
:101B3D000000000000000000000000000000000098
:101B4D0000000000308006080000000000000000CA
:101B5D00192E0408102700000300000000000000EB
:101B6D000000000000000000000000000000000068
:101B7D000000000000000000000000000000000058
:101B8D00000000001C80060800000000000000009E
:101B9D00659E040850C30000010000000000000015
:101BAD000000000000000000000000000000000028
:101BBD000000000000000000000000000000000018
:101BCD0000000000E08A0608000000000000000090
:101BDD00499B0408A86100000100000000000000FE
:101BED0000000000000000000000000000000000E8
:101BFD0000000000000000000000000000000000D8
:101C0D000000000004AA060800000000000000000B
:101C1D0025A20208A08601000100000000000000BE
:101C2D0000000000000000000000000000000000A7
:101C3D000000000000000000000000000000000097
:101C4D0000000000148406080000000000000000E1
:101C5D00596C0408A00F00000100000000000000F6
:101C6D000000000000000000000000000000000067
:101C7D000000000000000000000000000000000057
:101C8D000000000010AA060800000000000000007F
:101C9D001556040810270000010000000000000088
:101CAD000000000000000000000000000000000027
:101CBD000000000000000000000000000000000017
:101CCD0000000000E8810608000000000000000090
:101CDD004D4E04081A4100000100000000000000F4
:101CED0000000000000000000000000000000000E7
:101CFD0000000000000000000000000000000000D7
:101D0D00000000006C8406080000000000000000C8
:101D1D0009E7020810270000010000000000000084
:101D2D0000000000000000000000000000000000A6
:101D3D000000000000000000000000000000000096
:101D4D000000000058A90608000000000000000077
:101D5D0071AB020850C3000001000000000000003C
:101D6D000000000000000000000000000000000066
:101D7D000000000000000000000000000000000056
:101D8D00000000001CAA0608000000000000000072
:101D9D000DEF0208400D03000000000000000000E0
:101DAD000000000000000000000000000000000026
:101DBD000000000000000000000000000000000016
:101DCD000000000024AA060800000000000000002A
:101DDD00AD4A0308400D03000000000000000000A4
:101DED0000000000000000000000000000000000E6
:101DFD0000000000000000000000000000000000D6
:101E0D00000000002CAA06080000000000000000E1
:101E1D001161040850C30000030000000000000021
:101E2D0000000000000000000000000000000000A5
:101E3D000000000000000000000000000000000095
:101E4D000000000038AA0608000000000000000095
:101E5D0089EB000840420F00000000000000000068
:101E6D000000000000000000000000000000000065
:101E7D000000000000000000000000000000000055
:101E8D000000000044AA0608000000000000000049
:101E9D00F14B030850C300000000000000000000DB
:101EAD000000000000000000000000000000000025
:101EBD000000000000000000000000000000000015
:101ECD000000000001FF010001000000A00F000054
:101EDD00B80B00000102FFFF01000000685E0C005E
:101EED0002FF0000080000000000040100000000D7
:101EFD000000000210000000070000007D0000003F
:101F0D000060024010600240000000000000000070
:101F1D00000B0000000000000000000000000000A9
:101F2D000060024028600240010000000000000037
:101F3D00060C000000000000000000000000000082
:101F4D0000600240406002400200000000000000FE
:101F5D00100D000000000000000000000000000057
:101F6D0000600240586002400300000000000000C5
:101F7D00160E000000000000000000000000000030
:101F8D00006002407060024004000000000000008C
:101F9D00200F000000000000000000000000000005
:101FAD000060024088600240050000000000000053
:101FBD0026100000000000000000000000000000DE
:101FCD0000600240A060024006000000000000001A
:101FDD0030110000000000000000000000000000B3
:101FED0000600240B86002400700000000000000E1
:101FFD00362F00000000000000000000000000006F
:10200D000064024010640240000000000000000067
:10201D00003800000000000000000000000000007B
:10202D00006402402864024001000000000000002E
:10203D000639000000000000000000000000000054
:10204D0000640240406402400200000000000000F5
:10205D00103A000000000000000000000000000029
:10206D0000640240586402400300000000000000BC
:10207D00163B000000000000000000000000000002
:10208D000064024070640240040000000000000083
:10209D00203C0000000000000000000000000000D7
:1020AD00006402408864024005000000000000004A
:1020BD0026440000000000000000000000000000A9
:1020CD0000640240A0640240060000000000000011
:1020DD00304500000000000000000000000000007E
:1020ED0000640240B86402400700000000000000D8
:1020FD003646000000000000000000000000000057
:10210D0031DE02082DDE020829DE02081DDE02087E
:10211D0019DE020825DE020821DE0208A5DE02080E
:10212D0099DE020871DE020885DE02085DDE020816
:10213D0049DE020835DE02080101010048180020C1
:10214D000000000000000000000000000000000082
:10215D000000000000000000000000000000000072
:10216D000000000000000000000000000000000062
:10217D000000000000000000000000000000000052
:10218D000000000000000000000000000000000042
:10219D000000000000000000000000000000000032
:082800000000000000000000D0
:10800000104B1A68431C17D00C29A2F5FA630AD04A
:10801000212908D030B40C4B0C4D0D4C2960206048
:108020001A6030BC7047084A12689B1A002BA2BF26
:10803000064B00221A607047034B1B68A2F5FA62D8
:10804000D31AF3E780C90020A8180020848C0020F0
:10805000BC0E00202C4B1B68184483799BB107EEA3
:10806000903ADFED2A6AF8EEE77A20EEA07A67EE22
:10807000A67A27EE207AF7EE006AD7EE877A77EEB7
:10808000A67A20EE270AC378DFED206A07EE903A41
:10809000F8EEE77AB0EE007A67EEA67AF4EEC77AE9
:1080A000F1EE10FA05DD37EEC77ADFED196AE7EE7B
:1080B000267A437A9FED177A20EE070A20EE270AE8
:1080C00003B3DFED127A9FED147A06EE903A60EE7C
:1080D000A77AF8EEE60A60EEA70AF4EEC70AF1EE18
:1080E00010FA04DDDFED0D7A20EE270A7047F5EE79
:1080F000C00AF1EE10FA05D4F7EE007A77EEE00A46
:1081000080EE200A704700BF8C7A00200AD7233CFB
:10811000D7A3684100004843A4707D3F0000C842D7
:10812000174B9FED185A1B681844BFEE007A437A2C
:1081300006EE103AC378A0EE007A07EE903A837903
:10814000B8EE466A05EE903A60EE850AF7EE006AF0
:10815000F2EE044AB0EE664A20EE240AA6EE204A69
:1081600027EE057AF8EEE55AF8EEE77AE5EE876A4B
:1081700067EE807A24EE270A20EE260A704700BFB9
:108180008C7A00200AD7233C2C4BDFED2D7A1B681C
:10819000DFED2C6A184420EEA76A437A00EE903A8D
:1081A0008379F8EEE00A07EE103A60EE860AB8EE40
:1081B000C77AF4EEE60AF1EE10FA27EE277A0BDC26
:1081C000F5EEC00AF1EE10FA34D4F7EE007A77EE4D
:1081D000E00A87EEA05A01E09FED1B5AC378DFED5D
:1081E0001B5A9FED1B6A60EE006A07EE903A96EE0E
:1081F000877AF0EE476AB8EEE77A70EE007AB7EE6B
:10820000000A67EE277A36EE807A67EE877A67EEA5
:10821000857AF4EEE57AF1EE10FA88BFF0EE657A31
:10822000F4EEC67AF1EE10FAB4BFB0EE460AB0EE44
:10823000670A7047B7EE005AD0E700BF8C7A00207B
:108240000AD7233CA4707D3F0000C84200C0F94417
:1082500000C0F9C42E4BDFED2F3A1B689FED2E5A5C
:108260001844F7EE005A427AC378817902EB820211
:1082700052005B009A42B8BF1A4607EE902AF8EE09
:10828000676A07EE903AF8EEE77A07EE101A86EE84
:10829000A76AB8EEC77A36EE656A20EEA04AC6EE47
:1082A000264A27EE237A67EEA00A97EE047A37EE85
:1082B000257A27EE207A27EE247AB4EEC57AF1EEFD
:1082C00010FA09DCB5EEC07AF1EE10FA1DD435EEE5
:1082D000C77A85EE876A01E09FED106ADFED106ACC
:1082E0009FED107A67EE807A27EE860AB4EEE60AF2
:1082F000F1EE10FA88BFB0EE660AB4EEC70AF1EEEE
:1083000010FAB8BFB0EE470A7047B0EE656AE5E70D
:108310008C7A00200AD7233CA4707D3F0000C8421D
:1083200000C0F94400C0F9C41B4BDFED1C4A1B68B8
:108330009FED1B5A1844F2EE045A437A07EE903A26
:10834000837907EE103AC378F8EEE77A06EE903AB2
:1083500020EE006AB8EEC77AF8EEE66A67EEA57A14
:1083600027EE247A26EE066AE6EEE57A96EE077A9E
:10837000F4EEC57AB7EE006AF1EE10FA37EE067A3F
:10838000B8BFF0EE457A67EE877A67EEA07AE6EE40
:10839000A57A27EE800A70478C7A00200AD7233C02
:1083A00000000000D0E90920101AB0FA80F040095E
:1083B000704700BF0171704703799B070AD5436A74
:1083C0008269D154436A01690133B3FBF1F201FBC5
:1083D00012334362704700BF037913F0010317D0D3
:1083E000D0E90731C26810B45B1A541E23400BD089
:1083F00043694C1C5B5CB4FBF2F102FB114202626C
:108400005DF8044BD8B2704718465DF8044B7047CE
:1084100018467047037913F0020308D0D0E9092108
:108420000369581E531A0340DBB2C01A704718463E
:10843000704700BF037913F0010306D0D0E907317C
:10844000C268581A531E184070471846704700BF3C
:1084500010F8113C0133DBB20A2B00F8113C07D9AC
:10846000044A10F8131C002322F8113000F8113CC4
:10847000704700BF54280020F0B45D4E5D4832794B
:108480005D4B5E4DDC6B2D780132A0FB0270000964
:1084900000EB8000A2EB80001A683071914201EB82
:1084A00004005C6811D293F84520002A4ED000F5F4
:1084B0008030B0FBF5F084420BD2041B4FF48032C5
:1084C00092FBF5F2A21A9A600AE0B0FBF5F0844242
:1084D00044D34FF4803292FBF5F2121B02449A60AF
:1084E00040F68C240025A242C3E9001083F84550D1
:1084F00017D993F8402093F942108A4256B241D0DE
:10850000002093F9411083F843008A4247D00121AB
:10851000002283F8426083F8441083F84020F0BCC6
:10852000704793F844100029F9D0A2F2EF2040F2EE
:10853000DA5188421AD893F840100B2916D803EB69
:1085400081000131C26083F84010E8E7B0FBF5F02C
:108550008442BED2041BA21A9A60C1E793F8452058
:10856000002AAAD1041BA21A9A60B9E7244A002162
:1085700002F1300083F8441042F8041F8242FBD11C
:10858000F0BC7047111F0829BAD893F84310182976
:1085900026D8013183F8431093F94110B5E793F8D9
:1085A00044100029B3D0FAB11649154C0FFA82FCD9
:1085B000084601EB4C0754F8045F20F8025BB84210
:1085C000F9D10B2A07DC104801EB4C02002122F8FC
:1085D000021B9042FBD10D490A7801320A7096E7DE
:1085E00083F84160314690E794460649EBE700BFC7
:1085F000A8180020CDCCCCCCC8E400204118002025
:10860000D0E40020542800206C28002048280020B6
:1086100030B40E4D0E4B2A790E4C0132A3FB0203EF
:108620001B09E06B03EB8303A2EB83034FF6FF729E
:10863000914200F101002B71084408BF0123E0635F
:1086400008BF84F8453030BC704700BFA818002030
:10865000CDCCCCCCC8E40020BCEEC00A10EE103A61
:1086600098B2704707EE900AB8EE670A704700BFED
:108670002DE9F0413B4C94F82C30002B42D00022E5
:10868000394B3A4F1546502607E053F8181B0D603A
:1086900094F82C100132914234DD197C0029F4D079
:1086A0005868810AA1F58011522959D8DFE801F0F4
:1086B0002C46484A4C4E58585858585858585858AC
:1086C000585858585858585858585858585858582A
:1086D000585858585858585858585858585858581A
:1086E000585858585858585858585858585858580A
:1086F0005058585858585858585858585858585802
:1087000052545600BDE8F0810121EFF3118C86F33D
:108710001288D0F82480B0F814E001EB810107EB57
:10872000C10108F101084EF0010EC1F824805FFA82
:108730008CFCA0F814E08CF31188A6E70221E4E792
:108740000321E2E70421E0E70521DEE70621DCE77B
:108750000021DAE70721D8E70821D6E70921D4E785
:10876000FE21D2E7FCC500204CC6002090D200209C
:10877000034B00EB400003EBC003587C704700BF85
:108780004CC6002001207047704700BF224991F875
:108790002C30002B3ED0214A106818B10023036012
:1087A00091F82C30012B35D9906918B10023036062
:1087B00091F82C30022B2DD9106B18B100230360D7
:1087C00091F82C30032B25D9906C18B1002303604D
:1087D00091F82C30042B1DD9106E18B100230360C2
:1087E00091F82C30052B15D9906F18B10023036038
:1087F00091F82C30062B0DD9D2F8900018B1002337
:10880000036091F82C30072B04D9D2F8A8300BB1B3
:1088100000221A60704700BFFCC500204CC6002033
:10882000224991F82C30002B3ED0214A106818B113
:108830000023036091F82C30012B35D9906918B1D1
:108840000023036091F82C30022B2DD9106B18B146
:108850000023036091F82C30032B25D9906C18B1BC
:108860000023036091F82C30042B1DD9106E18B131
:108870000023036091F82C30052B15D9906F18B1A7
:108880000023036091F82C30062B0DD9D2F890000C
:1088900018B10023036091F82C30072B04D9D2F8CB
:1088A000A8300BB100221A60704700BFFCC5002041
:1088B0004CC60020DFF834C0F0B5074600F1CC0EFE
:1088C000094E3D4634460FCC644528606960AA6075
:1088D000EB60264605F11005F4D1223723882B8062
:1088E0007745EDD1F0BD00BF1CC105083CC10508AE
:1088F000034B33F8242F02809B788370704700BFAE
:108900001CC1050870B4104B1049DA88104BB1F93E
:108910000250B1F900601C780E4900FB02F2120B04
:1089200042F2107303FB02F393FBF6F32B4481FB3B
:108930000310212C4FEAE373C3EBA00002D1064BD6
:108940001A80588070BC7047A81800204C4E002038
:10895000E5C5002067666666E8C50020084B996893
:1089600069B110B41C690020642202FB04F2986013
:10897000B2FBF1F218619A815DF8044B70477047C1
:10898000A818002038B50B4B1B78093B012B00D9E8
:1089900038BD054645200C4622F0E8FC0D2022F0AB
:1089A000E5FC284622F0E2FC2046BDE8384022F0F3
:1089B00091BE00BF0252002007280AD800EB4000F9
:1089C000044B10B553F8304014B151F04FF820600B
:1089D00010BD704770E2002038B500EB4000084D34
:1089E000C4002B1993ED027AD3ED037AE7EE007AF7
:1089F000B0EE670A51F03AF82B59186038BD00BF45
:108A00004CC600202DE9F04FDFF8AC822DED028B33
:108A100098F8143083B0002B33D0974A97491368E5
:108A2000097801331360002940F01083944D954F6D
:108A300095ED007AD7ED007A934E944C336887EE2B
:108A4000270A0020F0EEC00A9847D7ED007A95ED8E
:108A5000017A84ED000A87EE270A33680120F0EEE0
:108A6000C00A9847D7ED017A95ED027A84ED010AA4
:108A700087EE270A33680220F0EEC00A984784ED9B
:108A8000020A834A92F82530012B79D198F84410D4
:108A9000002940F0C98116467E4C92F8265096F87F
:108AA000290092F82A2084F89400794896F82870D2
:108AB00096F82B6084F8B070032A88F8443021704F
:108AC000C4F8A01084F8B16084F8955084F8982018
:108AD000AFB290F8270000F030834FF0000C4FF653
:108AE000FF7384F8992084F89A00C4F8A810A4F8B9
:108AF0009670C4F8A4C0C4F8AC30002A00F03084EA
:108B0000654B1B6893F88330002B00F0D984002854
:108B100040F02C83C6F1640300EE103A022AB8EE4E
:108B2000C00A11D1DFED5D7A60EE277A17EE900A68
:108B30004FF0D6FB41EC100B51F0E2F951EC100B69
:108B40004FF01EFF00EE100A50F090FFA4F89C00BA
:108B5000002D40F008842178012388F84530504BDF
:108B600098F814001F78002840F06981FA0700F196
:108B70007E84BB0700F14985BE104FEAE70AE1E3B6
:108B8000434B1F7E98F81430002F40F09D80DFF893
:108B90002C91A8F85C7099F80020072A00F0388121
:108BA000002B40F03C81002F00F01582022FA8BF5F
:108BB0000227DFF808910197DFF804B1394EDFF89A
:108BC00004A1314F9FED388A384D5B460024B346EF
:108BD0001E4641E02A4B2B4903EB8403D1ED007A7A
:108BE00093ED007A87EE270A3B682046F0EEC00A34
:108BF0008BED000AC5ED000A9847DAF8003003EB68
:108C000044035B8A07EE903AF8EEE77AB1EE677AB2
:108C1000B4EEC07AF1EE10FA08DCF4EEC07AF1EEB0
:108C200010FA8CBFB0EE407AB0EE677A99F8003057
:108C3000A6EC017A082B06D1BDEEC00A1C4910EE45
:108C4000102A21F81420019A013494420BF1040BEC
:108C500005F1040500F36B81022CBBD1154B1B8879
:108C6000180500F1C081074B054AD3ED017A92ED5A
:108C7000027A87EE270AB7E7E0310020233100208F
:108C8000F472002098010020FC330020C83200203C
:108C900098E600206C750020247600200000A04299
:108CA00020760020403200200000000050320020DA
:108CB000E8C500202C730020A8180020E5C500207E
:108CC000183200208C7A0020022F00F05282032FED
:108CD00040F08783C94A927EC2EB421102EB8102C7
:108CE000D20092B2002B00F04C82002A00F04982A0
:108CF000C349C44B0C68B2FBF4F214B207EE904ABD
:108D00001B78A8F85C40F8EEE77AF7EE006A13F0FB
:108D1000010A86EEA77A0AD0BB4AD8ED1C6AD2EDCA
:108D2000007A77EEE67A67EE877AC8ED187A5E10F9
:108D3000F0070AD5B44AD8ED1D6AD2ED017A77EE74
:108D4000E67A67EE877AC8ED197A9F10F9070AD597
:108D5000AD4AD8ED1E6AD2ED027A77EEE67A67EE7A
:108D6000877AC8ED1A7ADD10EA070AD5A64BD8ED46
:108D70001F6AD3ED037A77EEE67A67EE877AC8ED5D
:108D80001B7ADFF8C49299F80030072B00F00C84AE
:108D9000002C46DDBAF1000F0AD098ED1C7AD8ED10
:108DA000187A994B77EE877AC8ED1C7AC3ED007A72
:108DB000F3070AD598ED1D7AD8ED197A924B77EE24
:108DC000877AC8ED1D7AC3ED017AFE070AD598EDC2
:108DD0001E7AD8ED1A7A8C4B77EE877AC8ED1E7A18
:108DE000C3ED027AEC070AD5D8ED1F7A98ED1B7A0D
:108DF000854B77EE877AC8ED1F7AC3ED037A99F831
:108E0000002098F81430072A4FF004077FF4C8AE0A
:108E10007E4AB8F85C109180002B3FF4C4AEDFF8B6
:108E2000289202230193C7E6764B794C98F81420D8
:108E30001F782178002A00F05A8198F8450017F031
:108E4000010203D0704D2D68C8F848504FEA670BF7
:108E50001BF0010F03D06C4D6D68C8F84C50BE106C
:108E6000F50703D5684DAD68C8F850504FEAE70ADA
:108E70001AF0010F03D0644DED68C8F85450002873
:108E800000F03C81634A106841F28832904240F21F
:108E900025815B4A1268002A00F021815E4A15781C
:108EA000002D00F0D5835D4A17884BF66872A7F550
:108EB0007A76964200F2CC83D8F85860002E40F0C3
:108EC0002C84002914BF4FF4FA664FF47A760644D6
:108ED000C8F858600022B04240F20181002900F039
:108EE0005584D4F8A02094ED287ADFED4D5ABA1AB3
:108EF000002AB8BF524207EE902AB8EEC77AF8EEC1
:108F0000E77AB3EE046AC7EE876A66EEA57AF4EEF6
:108F1000C67AF1EE10FA40F1398400220020C4F83C
:108F2000A4204FF6FF72C4E92A020222D7E0072BE1
:108F300008D13C4BD3ED007A344BFDEEE77A17EEC7
:108F4000902ADA802D4BDC7E002C44D01621364846
:108F500035F0B6F900283ED0344B1B8859063AD478
:108F600098F88030A34240F0B182314BD8ED217A9D
:108F7000D3ED026A2B4BDFED2F5A93ED025AD3ED5E
:108F8000004A9FED2D6A27EEC57A64EEA77AA4EE1B
:108F9000A67AE5EE267AB4EEE57AF1EE10FA88BF0D
:108FA000B0EE657AB4EEC67AF1EE10FAF4EEE57A38
:108FB000B8BFB0EE467AF1EE10FA88BFF0EE657AEF
:108FC000F4EEC67AF1EE10FAB8BFF0EE467A83ED11
:108FD000007AC3ED027A002388F8143003B0BDECA8
:108FE000028BBDE8F08F154A154B82ED028A154AB7
:108FF00093ED000A82ED028AFFE500BF98E60020AB
:109000006875002020760020F4720020E8C500205A
:109010006C75002080C90020FE880020E03200200E
:109020000000C84218320020FC5700202C7300209A
:109030009801002000C0F94400C0F9C4403200206B
:109040001436002050320020E5C50020D54BD6490B
:109050001A88D64BD648D74D09680068D5ED037AF3
:109060004C8EA3FB02329309642292FBF3F2D8F8F0
:109070001830142AA8BF1422BDEEE77AC60408EB04
:10908000430003F101034CBF660826B2934291F8F6
:109090003020C8F8183017EE104AA4BF0023C8F8D3
:1090A0001830012A84837FF4C2AC08EB4303B3F980
:1090B0001C3007EE103AB8EEC77A77EEC77AFDEEAD
:1090C000E77A17EE903A1BB2002BB8BF5B42B3426F
:1090D00000F3AD82B84B00221A60A8E40022DFF84A
:1090E000E49299F80000292800F081821F7807F0A7
:1090F00001024FEA670BBE104FEAE70A00295BD175
:10910000002A00F0678198ED127AAA4D1BF0010F3A
:1091100085ED007A00F0588198ED137A85ED017A9B
:10912000F60700F154811AF0010F03D098ED157A7B
:1091300085ED037A98F8143032E59B4A126892F86C
:109140008320002A00F09E81002284F899304FF697
:10915000FF7384F89A00C4F8A810A4F89670C4F8B5
:10916000A420C4F8AC30002800F05982A4F89C0078
:10917000EEE48C4A128802F57A7292B2002B7FF4E8
:10918000B4ADB8F85C20013A12B2002AA8F85C200D
:1091900040F32882894BDFF82C921B7803F0010AF8
:1091A0005E109F10DD10F5E51F7807F001024FEA11
:1091B000670BBE104FEAE70ADFF8089299F8003013
:1091C000272B00F0A880002A00F0B78098ED127AD3
:1091D00094F89430D4ED016AD4ED027A002B00F0BB
:1091E0002F81D4ED065A94ED073AD4ED033A94ED6D
:1091F000086A94ED044AD4ED094A94ED055A6D4D80
:1092000084ED067A65EEA77AC4ED075AE7EE267A72
:1092100084ED096AE3EE237AE6EE447AE4EEC57A59
:10922000C4ED087AC5ED007A1BF0010F00F0AC80A8
:1092300098ED137A94F89430D4ED0A6AD4ED0B7A51
:10924000002B00F00781D4ED0F5A94ED103AD4EDC5
:109250000C3A94ED116A94ED0D4AD4ED124A94ED56
:109260000E5A84ED0F7A65EEA77AC4ED105AE7EE38
:10927000267A84ED126AE3EE237AE6EE447AE4EE8F
:10928000C57AC4ED117AC5ED017AF2072CD598EDB7
:10929000147A94F89430D4ED136AD4ED147A002B38
:1092A00000F0A280D4ED185A94ED193AD4ED153A95
:1092B00094ED1A6A94ED164AD4ED1B4A94ED175AB0
:1092C00084ED187A65EEA77AC4ED195AE7EE267A8E
:1092D00084ED1B6AE3EE237AE6EE447AE4EEC57A87
:1092E000C4ED1A7AC5ED027A1AF0010F3FF422AFED
:1092F00098ED157A94F89430D4ED1C6AD4ED1D7A6B
:10930000002B7AD137EE667AE7EE276AC4ED1C6A45
:10931000C5ED036A0EE794F8B030019208EB8303C1
:1093200093ED120A50F0A2FB2549019AD4F8A0301F
:109330000880CB80002A7FF449AF1BF0010F40F07A
:1093400092800121F50722D598ED147A194D002954
:109350009FD11AF0010F85ED027A7FF4E7AEE9E6BE
:10936000002D3FF4F9AB002388F8453026F0D4FEF9
:1093700098F8141001232370104B00293FF414AF08
:1093800098F845001F785AE5F30780D401211AF0B8
:10939000010F3FF4CFAE98ED157A064D0029A9D103
:1093A000C6E600BFE032002024760020D34D6210D4
:1093B00014E70020F4720020908C0020207600201A
:1093C000E8C50020E5C5002016F00101DFD098EDCA
:1093D000147ABEE71BF0010FB4D098ED137AD64D86
:1093E0009CE6D64A92887DE437EE667AE7EE276AF5
:1093F000C4ED136AC5ED026A76E7D4ED215AD4EDC7
:10940000223A94ED1E3A94ED236A94ED1F4A94EDAE
:10941000245AD4ED204A84ED217A65EEA77AC4ED72
:10942000225AE7EE267A84ED246AE3EE237AE4EE0C
:10943000467AE4EEC57AC4ED237AC5ED037A79E67F
:1094400037EE667ABC4DE7EE276AC4ED016AC5EDDA
:10945000006AE9E637EE667AE7EE276AC4ED0A6A43
:10946000C5ED016A11E798ED137AB34DE2E698ED88
:10947000127A4FEA670BBE104FEAE70A00293FF461
:1094800044AEA5E60021C4F8A8204FF6FF730222DF
:1094900084F89A00A4F89670A4F89C00C4F8A4106C
:1094A00084F89920C4F8AC30002D3FF454AB002868
:1094B0007FF459AF012388F845302178FFF74FBB7F
:1094C000A4F89C00002D3FF446ABF0E707EE904A6D
:1094D000DFED9B6A9FED9B7A88F88040F8EEE77A93
:1094E00067EEA67A77EE876ABDEEE66A16EE103A68
:1094F0002033402B40F2B580DFED936A934BBDEEF5
:10950000E77AC3ED026A17EE103A2033402B00F2DF
:109510009C809FED8F7AF4EEC77AF1EE10FA40F35B
:109520000281DFED8C5A9FED8C6A01E0F0EE477A04
:10953000F4EEC67AF1EE10FA37EEE57AF6DCDFEDFE
:10954000877AB4EEE77AF1EE10FA40F1E980DFEDC8
:10955000815A9FED836A01E0B0EE677AB4EEC67A75
:10956000F1EE10FA77EE257AF6D49FED767AF4EEE6
:10957000C77AF1EE10FA40F3B8809FED757A77EE76
:10958000677A67EEA75A9FED775A9FED776A9FED4E
:10959000777AA5EE856A25EEA75AA5EE867AE5EEDE
:1095A000077AC8ED217AE5E4634B93ED000A50F0A9
:1095B0005DFA6F4B6F491B886F4AA1FB03139B0930
:1095C00007EE903AF8EEE77A002CFDEEE77A10808D
:1095D00017EE903A53803FF7DDAB0223948001935E
:1095E000FFF7EABADFF8A0910027FFF7D4BA604886
:1095F000614D06881F78D4F8A800D4F8A0302E80DA
:10960000EA806880AB80FFF7B1BA98ED137A4A4DD3
:10961000BE104FEAE70A00293FF480AD0AE6C6F122
:10962000640300EE103AB8EEC00AFFF78DBA8B8ED5
:109630009FED527A07EE903AF8EEE77A504B67EEDC
:10964000877AC3ED007AFFF7F2B9DFED3F7AA8E73A
:10965000002500224FF6FF70C4F8A450C4E92A2068
:109660003DE5F4EEC77AF1EE10FA5FDDDFED395A31
:109670009FED396A01E0F0EE476AF4EEC66AF1EE5A
:1096800010FA36EEE57AF6DCDFED346AB4EEE67A0F
:10969000F1EE10FA4DD5DFED2F5A9FED316A01E062
:1096A000B0EE667AB4EEC67AF1EE10FA77EE256A7D
:1096B000F6D49FED247AF4EEC76AF1EE10FA20DDBD
:1096C0009FED237A77EE666A66EEA65A9FED255ADD
:1096D0009FED256A9FED257AA5EE856A25EEA65AAF
:1096E000A5EE867AE5EE076A08E79FED267AF4EEA6
:1096F000C77AF1EE10FA44BF9FED187A77EE677AD9
:109700003FE79FED207AF4EEC76AF1EE10FA44BF0E
:109710009FED127A77EE666AD6E70122FFF7DBBB90
:10972000F0EE477A21E7B0EE677A08E7B0EE667AA6
:10973000AAE7F0EE476ABCE7F4720020F4E60020E6
:1097400035FA8E3CDB0FC93F000000009801002075
:10975000DB0F4940DB0FC940E4CB1641DB0F49C0AA
:10976000E4CB16C192E741B99730083C15A82ABE50
:10977000E0320020D34D6210E8C500206F12833A1A
:10978000908C0020DB0FC9BFE5C50020B4F8AE0007
:10979000B4F8AC60D4ED297AD4F8A82007EE107A9A
:1097A000B842B8BF3846B8EEC77ABE42A8BF3E46F8
:1097B000002902F1010777EE277A14BF4FF0140C4D
:1097C0004FF0320C6745A4F8AE00A4F8AC60C4EDCD
:1097D000297AC4F8A87029DB07EE106AF8EEC76A88
:1097E00007EE100A0193531E00EE103AB8EEC77A46
:1097F00077EEE67AB8EEC00A77EEC77A002687EEF3
:10980000800A50F033F94FF6FF72C4E92A62002251
:10981000C4F8A420C4F8A00026F07EFC0122227027
:10982000C8F8586029460222019B58E4022256E4F7
:10983000D0B1F8B50446224BA26A266A93F8885044
:10984000084621692062831A93FBF1F301FB03238D
:109850001C4AA362861B0023E6611460E38225B9DB
:10986000E36898472846F8BD704717F093FEE36811
:109870000546984717F08EFE07EE906A94ED0B7A36
:10988000E16BDFED116AE269F8EE677AD4E90C3733
:1098900077EEC77A401B0D18A7EEA67AA16B3A4463
:1098A0008142A3EB53130344A2EB571238BF014686
:1098B0002363C4E90E1584ED0B7A6263F8BD00BF23
:1098C000A818002088A20020CDCC4C3D10B55A4CE1
:1098D00094F83A37012B71D05FD3022B2ED094F835
:1098E000383094ED040A002B00F08980D4F8483217
:1098F00052489847D4F8483284ED0B0A504894ED0A
:10990000050A9847D4F8483284ED0C0A4D4894ED86
:10991000060A984784ED0D0A4B494C4A91F8893064
:109920001078B3FBF0F200FB123212F0FF0F1ABFF7
:109930000133DBB2012381F8893010BD04F13C0012
:1099400022F024FF04F5847022F020FFD4F80431C3
:10995000002BC4D1D4F8D031002BC0D1D4ED497A3A
:1099600094ED4D0A94ED4E7AD4ED4F4AD4ED166A3B
:1099700094ED1A5AD4ED1B5A94ED1C6A27EE800A16
:1099800027EE877A67EEA47AA5EE260AA6EEA57AD8
:10999000E6EE867AF6EE006A20E004F13C0022F062
:1099A000F5FED4F80431002B99D1D4ED166A94ED6C
:1099B0001A0A94ED1B7AD4ED1C7A0FE004F584703A
:1099C00022F0E4FED4F8D031002B88D1D4ED496ADE
:1099D00094ED4D0A94ED4E7AD4ED4F7A94F83830E8
:1099E00020EE260A27EE267A67EEA67A84ED040A90
:1099F00084ED057AC4ED067A002B7FF477AFD4EDC1
:109A00000B6A94ED0C7AD4ED0D7AD4ED055A94EDF1
:109A1000066A94F8283036EE800A37EE257A77EE1B
:109A2000867A013384ED0B0A84ED0C7AC4ED0D7A4D
:109A300084F8283070E700BFE8DA002034DD002029
:109A400058DD00207CDD0020A818002068030020DD
:109A5000F8B5A0F51A7423796179DB0746D594F837
:109A60004C32606C0BBB94F84F32012B3FD0002B73
:109A700041D194F84E3294F84D629E420CD9B4F81C
:109A80005622012707FA03F501332A43DDB2AE421D
:109A900092B2F7D8A4F856220123C94384F84F3272
:109AA0001940BDE8F8404CF0B1BC0268D36A5B08CD
:109AB000536294F85D32012B07D094F8513223B1F0
:109AC000B4F858320133A4F85832C94301F0010107
:109AD0004CF09CFC0023012284F84F2284F84D3284
:109AE00084F84E32A4F8563284F84C32F8BD94F81B
:109AF0004D3284F84E32002384F84F3201F00101D8
:109B0000BDE8F8404CF082BC836C006C1BB11A7A43
:109B1000012118F0DDB8012117F07CB910B54379A7
:109B200003F0200113F0010F436C04461A7AC06B56
:109B300017D000290CBF4221022118F0C9F8626C2D
:109B4000012384F85032A4F84C32517912688B40CA
:109B5000118C9BB221EA03011184118C0B431384F5
:109B600010BD00290CBF2221022118F0B1F8E6E750
:109B70000A4B1A6810B41446B4FBF1F3B3F5803FF6
:109B800007D3012CFAD96408B4FBF1F3B3F5803F95
:109B9000F7D299B25DF8044B44F060BC00C90020D4
:109BA0008160406CE4E700BF4379006CDB0748BF8D
:109BB00081F0010109B918F073B918F077B900BF45
:109BC00038B5A0F518742379990747D4D80700D47D
:109BD00038BD94F84C32002BFAD194F84D32013351
:109BE000DBB2092B84F84D3270D00A2BF0D194F8F7
:109BF0004F52B4F85632002D00F0A980990503F0B9
:109C0000010200F1AB80002A00F0A8801A46E36A46
:109C10005208002B00F0AC80D0B2216B984794F82A
:109C20004F5201220023954284F84D3284F84C2291
:109C3000CED1617984F84F321140606C4CF0E6FB74
:109C4000636C1A68597905FA01F3118C9BB221EA09
:109C500003011184118C0B43138438BD94F85122F5
:109C60006ABBD4E90950854294F8501246D0451C8D
:109C7000A369A5621B5C2069DBB285424FEA4303FE
:109C800028BFA26243F400730A200122A4F85432D0
:109C900084F8520284F8512211B161790D073FD442
:109CA0005A08A4F8542203F001012046FFF77CFF74
:109CB00094F852222379013A84F8522286E794F9E3
:109CC0005222002A63D184F851227FE794F84F3260
:109CD000002B7FF47DAF94F84E32082B3FF678AF1F
:109CE000B4F85622012000FA03F101330A43D9B235
:109CF000082992B2F7D9A4F8562238BD00297FF47A
:109D000065AF627912077FF561AFA36C206C5BB31E
:109D10001A7A17F0DDFF2046FFF700FF237955E799
:109D2000616CE06B0B684D79198CAA4021EA020244
:109D30001A841A8C92B21A84002117F06BF800234F
:109D400084F850322046FFF7DFFE23793EE743F0E8
:109D500001029B05A4F856227FF559AFB4F85A3298
:109D60000133A4F85A325CE7194617F053F8D2E7EA
:109D7000E3696169D2B2CA54E369E16894F84F5269
:109D80000133B3FBF1F201FB1233E36149E7B4F8AD
:109D9000543285E770B5B42200254FF4EB734FF4CD
:109DA000A571044641808280C380057029468020C9
:109DB00044F0C4FC4FF4E1764FF4877196224423BB
:109DC0002072657265826681A181E281238270BD05
:109DD000F8B52DED028B594B5B7A012B12D0022B7B
:109DE0007ED1574B1B681B017FD4564B1B78022B2F
:109DF00005D1554A554B5188128819805A80BDECBF
:109E0000028BF8BD524A534B9278534C33F81230C0
:109E1000524D534E9FB207EE907AB8EE678A04F126
:109E20009000B0EE480A2FF097FDE2882B7895F865
:109E300001C094F8A410A878BCEEC00A02FB03F39A
:109E400010EE102A92B203FB02F203FB07F3A6FB0B
:109E50000373A6FB027244F6FB77CCEB0C3C07EBDA
:109E6000D20207EBD303B2FBFCF2B3FBFCF3B2FB71
:109E7000F0F2B3FBF0F392B29BB2A4F88C20A4F8FA
:109E80008E3051B304F19C00B0EE480A2FF064FD0F
:109E9000E18895F800E0687895F802C0B4F88C2065
:109EA000B4F88E30BCEEC00A01FB0EF510EE101AAD
:109EB00089B201FB05F1A6FB011607EBD607C0EB43
:109EC0000030B7FBF0F7B7FBFCF7BFB2A4F898700F
:109ED0001D490A804B808F8087E7B4F89870F7E7B8
:109EE000194B00221A609A807FE7FF2029F038FA88
:109EF000F8B103780A2B16D99FED1A0A0023164CE5
:109F000004F1AC00A4F8AA302FF026FDBCEEC00A84
:109F100010EE103A9BB2A4F8A8300B4AB4F8AA107D
:109F20005180138061E7438807EE903AB8EE670AE4
:109F3000E5E7094CB4F8A830EFE700BF0473002050
:109F400014E70020E5C50020E8720020E8C50020E5
:109F5000C0C90020F4C90020A8180020484E0020E5
:109F6000CDCCCCCC00000000134B144A1B68DB04A2
:109F700010B5B2F9064006D4114B988AA042CCBF66
:109F80000020012010BD15210E4834F099F9002859
:109F9000F2D10D4B1A7B002AEED1094ADB88508A98
:109FA000C21A944205DD18448442B4BF0020012047
:109FB00010BD012010BD00BF14E70020C8760020AE
:109FC00098E60020FC5700206C350020724B1B786F
:109FD000002B45D02DE9F041704B714D9B7AD5F89F
:109FE000B440C5F8B400013B041B032B00F28F8082
:109FF000DFE803F04F023B34FFF7B6FF694BDFF8B1
:10A00000E8811F78B8F8026007F00107002800F027
:10A010008580654BDFED657A93ED000A20EE270A17
:10A020004FF024FDC5F8D860002F40F08F8006FB6C
:10A0300004F007EE900ADFED5E6A5E4BB8EEE77A59
:10A04000D5ED357AE7EE267AC3E90066BDEEE77A0C
:10A05000C5ED357A85ED347A83ED027ABDE8F0817D
:10A06000544AC2E9003393607047534B1B681B018D
:10A07000F4D5FF2029F074F918B103780A2B6DD9B3
:10A08000002003464B4AC5E93703C2E9003390601C
:10A09000E4E74A4A4A4BD27933F81260B6B2304606
:10A0A000FEF730FC07EE906AC5F8C400B8EE670A08
:10A0B00044482FF051FCBCEEC00A10EE103A98B2A2
:10A0C000FEF720FCD5F8C410D5ED2F7ADFED386A05
:10A0D000384B3D4AC5F8C00001FB04F407EE104AB6
:10A0E000B8EEC77A1860E7EE267A10785960212812
:10A0F000BDEEE77AC5ED2F7A17EE102A83ED027ACE
:10A1000085ED2E7AAAD1314B9980DA80A6E7294BCA
:10A110000022C3E900229A60BDE8F081264B1B684B
:10A12000DA067FF576AFC5F8D860002F3FF47FAF31
:10A13000B8F90020264B00FB02F083FB0023C01778
:10A14000C0EBA3100644C5F8D86070E7214A00FBB5
:10A1500000F3A2FB032300EB1310E9E71E4A1F4B99
:10A1600051881A68D0ED027ADFED1D6A1D4C4368F4
:10A1700002FB01F207EE102AF8EEE77AB8EE477A12
:10A18000A4FB0121E7EE267A03EBD103FDEEE77A8B
:10A1900017EE900A76E700BFF072002004730020EB
:10A1A000A8180020667200205455002000007A4450
:10A1B0002FE33E312073002014E70020C0C90020A7
:10A1C000F4C9002070190020E5C50020E8C5002072
:10A1D000D34D62101F85EB51F877002080C9002015
:10A1E0007D219534CDCCCCCC544E0020054B93F83A
:10A1F000252022B9187E003018BF012070470120A9
:10A20000704700BF98E600202DE9F041C44AC54BD5
:10A2100015681A7895F800C05B78C34F9FEDC37A34
:10A22000C348C44C06EE903A1FFA8CF3594209B267
:10A2300007EE902A6A78002914BF6646012601FBC2
:10A2400001FE06FB06F602FB0EFE9EFBF6FEC2F1C9
:10A250006406B64401FB0EF1F8EEE77A03EB830ED9
:10A26000F8EEE66A87FB0178CF174FEA4E01C7EB9D
:10A27000A80777EE677A01F57A7137EE667AC3F14F
:10A280000A080F44CCF1640EB8F1000FA4F8E47092
:10A290005FFA8EFEC0ED007A80ED017A40F3C28154
:10A2A000774608FB08F017FB07F702FB00F090FB6E
:10A2B000F7F09D4F304408FB00F087FB0078C7178C
:10A2C000C7EBA807C3F114000F440028A4F8E670F8
:10A2D00040F3A281774600FB00F817FB07F702FB6B
:10A2E00008F898FBF7F8904FB04400FB08F087FBA4
:10A2F0000078C717C7EBA807C3F11E000F4400285A
:10A30000A4F8E87040F38281774600FB00F817FB61
:10A3100007F702FB08F898FBF7F8834FB04400FBFF
:10A3200008F087FB0078C717C7EBA807C3F1280020
:10A330000F440028A4F8EA7040F36281774600FBDE
:10A3400000F817FB07F702FB08F898FBF7F8764FC1
:10A35000B04400FB08F087FB0078C717C7EBA807DD
:10A36000C3F132000F440028A4F8EC7040F342819E
:10A37000774600FB00F817FB07F702FB08F898FB8D
:10A38000F7F8694FB04400FB08F087FB0078C71767
:10A39000C7EBA807C3F13C000F440028A4F8EE70F7
:10A3A00040F32281774600FB00F817FB07F702FB1A
:10A3B00008F898FBF7F85C4FB04400FB08F087FB07
:10A3C0000078C717C7EBA807C3F146000F44002861
:10A3D000A4F8F07040F30281774600FB00F817FB09
:10A3E00007F702FB08F898FBF7F84F4FB04400FB63
:10A3F00008F087FB0078C717C7EBA807C3F1500028
:10A400000F440028A4F8F27040F3E280774600FB86
:10A4100000F817FB07F702FB08F898FBF7F8424F24
:10A42000B04400FB08F087FB0078C717C7EBA8070C
:10A43000C3F15A000F440028A4F8F47040F3C2801E
:10A44000774600FB00F817FB07F702FB08F898FBBC
:10A45000F7F8354FB04400FB08F087FB0078C717CA
:10A46000C7EBA807C3F164000F440028A4F8F670F6
:10A4700040F3A180F04600FB00F718FB08F802FB50
:10A4800007F797FBF8F7DFF8A080374400FB07F0E9
:10A4900088FB0087C017C0EBA700C3F16E03084418
:10A4A000002BA4F8F80003DC0CBF4FF0010EE646C9
:10A4B00003FB03F002FB00F21EFB0EFE1A4892FBA8
:10A4C000FEF2324403FB02F380FB0302DB17C3EB13
:10A4D000A2031944A4F8FA10AB78013B032B00F255
:10A4E000B880DFE803F019151102134A134B13600B
:10A4F000134A1449527E00200870042A2CD8DFE841
:10A5000002F058AE56AC29000B4A0F4B1360EFE730
:10A51000094A0E4B1360EBE7074A0D4B1360E7E760
:10A520008C7A00200C360020676666660000FA43CD
:10A5300098010020A8180020FC3300205582000854
:10A5400098E60020207600202983000889810008F1
:10A55000218100080B220A70F7EE000AB0EE600AB3
:10A56000022098473F4B5A7D012A6AD0022A5FD1C8
:10A57000FDEEC07A17EE903A17EE902A002BB8BF86
:10A58000DA1C9210C82AACBF9B18C83340F29E72E6
:10A590009342A8BF1346B3F5FA7FB8BF4FF4FA73DE
:10A5A000012284F8FC20C4F80031BDE8F0810F22BC
:10A5B000D1E70322CFE718BFE0467FF45CAF4FF04E
:10A5C000010858E718BF67467FF43BAF012738E71B
:10A5D00018BF67467FF41BAF012718E718BF67460F
:10A5E0007FF4FBAE0127F8E618BF67467FF4DBAEC9
:10A5F0000127D8E618BF67467FF4BBAE0127B8E64F
:10A6000018BF67467FF49BAE012798E618BF6746E0
:10A610007FF47BAE012778E618BF67467FF45BAE18
:10A62000012758E618BF67467FF43BAE012738E69E
:10A6300040F29E73002284F8FC20C4F80031BDE88B
:10A64000F081B3F9163084F8FC20C4F80031BDE87D
:10A65000F081054A054B13604AE708227BE7072291
:10A6600079E700BFC0DA0020FC33002055800008E5
:10A670002DE9F04FB04E3468A00583B000F1C181E0
:10A68000AE4AAF4B92F80090AE4F00221A70B9F16B
:10A69000000F00F0A3810621AB4833F011FE002823
:10A6A00000F03A8144F01004A84AA94B1268B3F9AB
:10A6B0000650019212F480533460009340F0D88029
:10A6C000A44B9B8AAB4200F3EA8044F08004A24B87
:10A6D00034601D6815F0020A10D0A04B1B78002BC7
:10A6E00000F0E0809E4A9F4B92ED087AD3ED007A0D
:10A6F000B4EEE77AF1EE10FA40F3D48024F48074DB
:10A70000BB89642B8CBF44F4006424F40064E90723
:10A7100014D5954B93F83A27012A07D0022A40F026
:10A72000A281D3F80421002A40F05281D3F8D0311D
:10A73000B3FA83F35B09002B00F04A81BAF1000FF2
:10A7400004D08A4B1B88002B40F042816A0700F13D
:10A750003A8124F48054DFF84882346008F17805A7
:10A76000434602E006339D4216D01A781C2AF9D1DE
:10A770009978DA78914202D35A79002AF2D01C21D2
:10A78000714833F09DFD20B1794B1B785B0740F198
:10A790008F8144F480643460764B93F807B0BBF14A
:10A7A000020F03D0072013F03BFFA8B1724B93F8C0
:10A7B000213023B9714B1B78980740F14C8124F468
:10A7C000802407216048346033F07AFD002800F0CF
:10A7D0003B8144F400243460694890F806E0BEF1FF
:10A7E000000F16D0674B1A780AB91B798BB1664BEC
:10A7F0001B6893F82CC0BCF1000F00F02981634B5B
:10A800000022997B01320433002900F02181944514
:10A81000F7D124F48014037C012B76D0022B6ED068
:10A8200024F480041F214848346033F049FD002897
:10A8300075D1BAF1000F78D124F40004544B346080
:10A840001B78002B38D0B9F1000F3BD0002C54D12D
:10A85000002387F80A3116F09DFED7F80C31C01A94
:10A860000028C0F2B88003B0BDE8F04F2AF0E0BA8B
:10A870001521354833F024FD00287FF421AF454BE6
:10A880001A7B002A7FF41CAF3249DA884B8A991A66
:10A89000A942BFF61AAF1344AB427FF716AF24F0BC
:10A8A000800414E71B21284833F00AFD00287FF4B8
:10A8B00025AF44F4807423E744F080743460B9F128
:10A8C000000F1AD10021204833F0FAFC80460028FE
:10A8D00000F0138197F80851002D40F0ED80009BA7
:10A8E000002B40F0CE80002C00F0F180B8F1000F7A
:10A8F00000F0D78044F0007434600223A9E7BEF171
:10A90000000F8DD08378082B8AD0234B1B78002B27
:10A9100086D044F4800485E724F01004C4E644F4AF
:10A9200000343460BAF1000F86D01C4BB3F90A3002
:10A93000002B81D11A4B39E0847A0020400200209C
:10A9400009890020A8180020FC57002014E70020E7
:10A95000C876002098E60020D06900208C350020C1
:10A960004490002090350020E8DA0020EC510020CF
:10A9700066720020F051002000900020E472002058
:10A9800030C60020043400204CE500201078002060
:10A9900048E500206C35002052E50020348D002071
:10A9A000902B00200633AB4200F0B0801A78012AC9
:10A9B000F8D19978DA78914202D35A79002AF1D005
:10A9C00044F400043AE7994B1B88002B3FF4C1AED6
:10A9D00044F48054BFE603B0BDE8F08F944A97F882
:10A9E00004311578002B47D1002D47D049469148B6
:10A9F00033F066FC002840F09A8024F008043460AC
:10AA00003CE08D4B8D4A987911684FF47A7303FBC3
:10AA100000F38B423FF634AE894B1B7883B1894BF0
:10AA20001B6893F82E1000293FF42AAE1B6B002BF5
:10AA30003FF426AE126803F6B8339342BFF420AE5B
:10AA400024F4007434601BE624F400243460C3E66C
:10AA500044F48014DFE67C4B1B7899073FF5AFAEDA
:10AA600044F48024ADE6D3F80431B3FA83F35B09F0
:10AA7000002B7FF463AEABE7002D6DD187F8045156
:10AA800009E615216B4833F01BFC10B96F4B1B7B9B
:10AA90001BB3E4B1002D3FF429AFB8F1000F7FF4F0
:10AAA0002CAF24F000743460002C3FF4D1AE24E7C6
:10AAB00024F4806434606FE624F0007323F4805340
:10AAC000009AB3FA83F56D09002ADAD16CB94446CD
:10AAD000B8F1000F7FF4BCAEE3E724F0007323F07D
:10AAE0008003002CF3D0002DD7D1002B7FF4FEAED5
:10AAF000B8F1000F7FF401AFD3E7014624F0600402
:10AB00004C48346033F0DCFB8046E3E6504B02E017
:10AB100006339D420FD01A78022AF9D19978DA7853
:10AB20009142FFF44DAF5A79002AF1D048E744F042
:10AB300008043460A2E7464A02E006329A4212D084
:10AB400011780729F9D19078D1788842FFF438AF8D
:10AB500051790029F1D033E74946364833F0B0FB4C
:10AB600000288BD149E73A4B02E0063393421BD0D1
:10AB700019780A29F9D19878D9788842FFF420AF5A
:10AB800059790029F1D01BE798F8021098F80330A2
:10AB90009942FFF415AF98F80530002B7FF410AF01
:10ABA00008F10608904504D098F800300D2BF7D135
:10ABB000EAE7252013F034FD00287FF401AF2720B9
:10ABC00013F02EFD30B1234B1B6893F86630002B39
:10ABD0007FF4F6AE019B5A0304D4BBF1020F7FF45D
:10ABE0002BAEEDE61C4B5B695B043FF5E9AE032041
:10ABF0004EF03AFE00287FF4E3AE1A204EF034FE09
:10AC000000287FF4DDAE1B204EF02EFE00287FF4DE
:10AC1000D7AE2A204EF028FE00287FF4D1AE2D209A
:10AC20004EF022FE0028D8D0CAE600BFEA5100202C
:10AC3000FE880020FC5700207CD2002080C9002024
:10AC400049E500204CE50020667200206C350020AC
:10AC5000902B0020247600201C870020314A324BA4
:10AC600010B5B2F906401B68B4F5FA6FA8BF4FF4EF
:10AC7000FA64B4F57A7FB8BF4FF47A74DB0410D469
:10AC80002A4B9B8A6420E41A00FB04F0C3F5FA63A4
:10AC900090FBF3F06428A8BF642020EAE07040B283
:10ACA00010BD1521224833F00BFBB8B9214B187B9E
:10ACB0000028E5D11D49DA884B8A9918A14225DB85
:10ACC0009B1AA342ECDD1C1B6FF06300A3F57A73A3
:10ACD00000FB04F090FBF3F040B210BD134A154B9B
:10ACE000908A1A7B241A6423C0F5FA6003FB04F4EB
:10ACF00094FBF0F49C42A8BF1C4624EAE474E0B242
:10AD000012B1404240B210BD60B210BDE01A841AC8
:10AD1000C3F5FA6364209B1A00FB04F090FBF3F088
:10AD200040B210BDC876002014E7002098E600204D
:10AD3000FC5700206C3500202DE9F04F2DED048BE1
:10AD4000AF4C85B094F83B570190002D40F07081D6
:10AD500004F20C43DFF8D4B2AA4F9FEDAB8A029302
:10AD600004F11C0904F52F7804F54B7604F5EE7A0E
:10AD700094F83830002B00F0398199ED040ADBF8A3
:10AD80000020002A00F08680A04B1878002800F0F0
:10AD9000818005EB450302EBC303117800220029F3
:10ADA00073D093ED0B7AD3ED077A93ED0A6AD3ED66
:10ADB000063AD3ED0C6A93ED084AD3ED0D4A93EDB4
:10ADC000095AD3ED055A83ED0B6A67EE277A0129FC
:10ADD000E6EE237A83ED0A0AE6EEC47AC3ED0D6A45
:10ADE000E4EEC57AE0EE257AC3ED0C7A00F0FB8044
:10ADF00093ED140A93ED107A93ED136AD3ED0F3AA5
:10AE0000D3ED156A93ED114AD3ED164A93ED125A1C
:10AE1000D3ED0E5AC3ED137A20EE070A0229A6EEEF
:10AE2000230A83ED146AA6EEC40AC3ED166AA4EEE3
:10AE3000C50AA5EEA70AF0EE407A83ED150A00F0E8
:10AE4000D28093ED1D7A93ED190A93ED1C6AD3ED30
:10AE5000183AD3ED1E6A93ED1A4A93ED1F5AD3EDBB
:10AE60001B4AD3ED175A83ED1D6A20EE070AC3ED86
:10AE70001C7AA3EE860AC3ED1F6AA4EE660AA4EE4E
:10AE8000C50AA5EEA70A83ED1E0A0132824203F12C
:10AE90006C0384D1D4F8B83208EB05009847D4F895
:10AEA000283370199847D4F8D8310AEB0500984731
:10AEB0003B68980000F1438224356C2DA9EC010A0F
:10AEC0007FF456AF0022990084F8282000F19F817A
:10AED00094F83D37E3B394F83A37012B00F0E98258
:10AEE000C0F01C83022B33D1494B1B78152B01F08A
:10AEF0006A81322B40F0AF8794ED168A94ED1A0ADE
:10AF000028EE000A4EF0B2FD94ED1B0A28EE000A6E
:10AF100007464EF0ABFD94ED498A94ED4D0A28EEBC
:10AF2000000A05464EF0A2FD94ED4E0A28EE000AF6
:10AF300006464EF09BFD00231A4666F30F0267F3A8
:10AF40000F03344965F31F4360F31F42C1E9003228
:10AF5000314B324A9B7C117823B194F83C0700288E
:10AF600000F06A822E4B93F8FC20002A40F02082E9
:10AF7000A1BB2C4A94ED077A93ED463AD4ED017AC1
:10AF8000D4ED083AD3ED474A94ED094A93ED485A77
:10AF9000D2ED005A92ED016A83ED467AFBEEEF7A2C
:10AFA00037EE037AD2ED026A1F48C3ED473A73EEDB
:10AFB000A44A34EE055AE7EE875A0168B0EE467AA5
:10AFC000A7EEA47A01310160E5EE276AC2ED005ACE
:10AFD00082ED017AC2ED026A83ED484A05B0BDEC0C
:10AFE000048BBDE8F08FB0EE670A4EE794F8283086
:10AFF000002B40F09B81B0EE480A89ED048ABEE642
:10B00000E8DA002014E70020000000002969002091
:10B01000E5C50020E8C50020C0DA002098330020F4
:10B02000A8180020B0350020AC3500204C3100209D
:10B03000DFF87483DFF874B398F80090D54FDFED34
:10B04000D68AA24604F52F760025B9F1140F94F89C
:10B050003E3700F05881B9F1060F40F08A819AED31
:10B06000040A02934EF002FDCC4B23F81500029B1C
:10B0700094F83820002A00F00D819D429AED0B8A49
:10B08000DBF8002000F01381002A00F08A80C44B16
:10B090001878002800F085804FF4587303FB0523CF
:10B0A00011780022002972D093ED0B7AD3ED077A44
:10B0B00093ED0A6AD3ED063AD3ED0C6A93ED084A94
:10B0C000D3ED0D4A93ED095AD3ED055A83ED0B6A82
:10B0D00067EE277A0129E6EE237A83ED0A8AE6EE07
:10B0E000C47AC3ED0D6AE4EEC57AE8EE257AC3EDC5
:10B0F0000C7A00F09F8093ED148A93ED107A93ED13
:10B10000136AD3ED0F3AD3ED156A93ED114AD3EDDF
:10B11000164A93ED125AD3ED0E5AC3ED137A28EE68
:10B12000078A0229A6EE238A83ED146AA6EEC48A52
:10B13000C3ED166AA4EEC58AA5EEA78AF0EE487A9A
:10B1400083ED158A76D093ED1D7A93ED198A93EDF0
:10B150001C6AD3ED183AD3ED1E6A93ED1A4A93EDAB
:10B160001F5AD3ED1B4AD3ED175A83ED1D6A28EE03
:10B17000078AC3ED1C7AA3EE868AC3ED1F6AA4EE8C
:10B18000668AA4EEC58AA5EEA78A83ED1E8A0132DF
:10B19000824203F16C0385D194F83E379D4200F062
:10B1A000A680B0EE480AD4F8B83230469847D4F8B2
:10B1B000283306F170009847D4F8D831A6F1E000A2
:10B1C000984794F83E37AB42B0EE408A3B6834D0A3
:10B1D0009B0048D498F80090B9F1030F06D1B0EE67
:10B1E000480A4EF043FC6D4B23F815000135032D42
:10B1F0008AED078A06F124060AF1040A7FF425AFD6
:10B200003B680022990084F828207FF561AE94F80D
:10B21000783494F879140133DBB2994284F87834A5
:10B2200000F0968194F81036002B3FF451AEDFF811
:10B230007881C0E1B0EE678AA9E798F80090B9F18B
:10B240003D0F03F0005300F0ED80002BC4D0B9F1A6
:10B250000F0F00F0DC85B9F1110F41F090804EF036
:10B2600005FC4E4B98800AF59063D3ED007AD4F834
:10B27000982377EE887AB0EE480AC3ED007A06F19B
:10B28000E4009047D4F89C3306F5A8709847B0EED8
:10B29000408A9FE794F82820002A3ED1B0EE688AC1
:10B2A0009D42CAED0B8ADBF800207FF4EDAE3B68CF
:10B2B000B9F13D0F03F0005300F0A2807BB1B9F16A
:10B2C0000F0F00F09785B9F1110F40F0EF85B0EE48
:10B2D000480A02924EF0CAFB304B029AD880002AEC
:10B2E0003FF45FAF2E4B187800287FF4D5AEB9F14C
:10B2F0003D0F7FF456AFB0EE480A4EF0B7FB00B2F8
:10B30000264B98804DE7D4F8D421244902EB45021E
:10B31000B2F8442021F81520AAE607EE902A9AED0B
:10B320000B7AF8EEE77A87EE278AB9E707EE903ACC
:10B3300099ED047AF8EEE77A87EE270A5DE609F2DE
:10B34000644393ED007A1749D4F8982377EE007A96
:10B350004819C3ED007A9047029AD4F89C335019EB
:10B36000984724356C2DA9EC010A7FF401AD3B68A8
:10B3700047E79D427FF47CAEB9F13D0F7FF478AE94
:10B380009AED040A02934EF071FB044B1880029B65
:10B390006EE600BF14E7002000000000E8C50020B2
:10B3A0002969002088DE0020E5C500204C310020FE
:10B3B000002940F0AB80D4ED097A8948D3F8001118
:10B3C0000278002A00F0298507EE101ADFED856A61
:10B3D000B8EEC77AF0EEE77A37EE667AB4EEE77A3F
:10B3E000F1EE10FA40F3F8860199D3F814218A1A85
:10B3F00044F620618A427FF7BCAD00220270B8E5B6
:10B40000B0EE480ACDE902234EF030FB764B00B295
:10B410005880DDE90223002B00F01085002A7FF41C
:10B4200061AF68E702934EF021FB6F4BD880029B1F
:10B43000002B7FF418AFD9E6D4ED077A94ED037AA8
:10B44000F0EEE77A00294ED19FED686AD4ED086AE4
:10B4500094F8441727EE067AF0EEE66AB4EEE77A3F
:10B46000D4ED097AF1EE10FAB4EEE67AF0EEE76A7E
:10B470004CBF01230023F1EE10FAB4EEE67A48BF88
:10B4800043F00203F1EE10FA48BF43F004030B420D
:10B4900000F0D9845649019C514B91F8FC00C1F849
:10B4A0001041002401211C70117000283FF496AD5A
:10B4B0002DE0504B1B78152B00F07F86322B7FF44C
:10B4C00047AD94ED498A94ED4D0A474D28EE000AA8
:10B4D0004EF0CCFA94ED4E0AA88028EE000A4EF009
:10B4E000C5FAE88034E5DFED446A27EE267AB4EE4B
:10B4F000E77AF1EE10FA00F305853D4B019AC3F8A7
:10B50000102193F8FC30002B3FF468AD344B00223F
:10B510001A7005B0BDEC048BBDE8F08F354B1B787D
:10B52000152B00F04486322B7FF412AD94ED168A71
:10B5300094ED1A0A2C4D28EE000A4EF097FA94ED7D
:10B540001B0A288028EE000A4EF090FA6880FFE47B
:10B55000DFF8A080294D98F80030234F84F8782434
:10B560000F2B95ED008AB7F9040094F88C6400F075
:10B57000388695ED017AD5ED027A27EE087A67EEE6
:10B58000887A2B1F03EB860C8CED067ACCED267A9D
:10B59000D5ED037A27EE888A00228CED468A6A6010
:10B5A000AA60EA60731C03F01F030C2284F88C3439
:10B5B000B88084F8102698F80070102F00F03486B8
:10B5C00094F811360026062B00F20084DFE813F011
:10B5D0002205C004D1041800E200C602EC0500BF39
:10B5E000183100200000C842E8C5002000D8F94604
:10B5F000A8180020E5C500200008ED4664DF002003
:10B60000724B1A46B2EC011A93ED033AD2ED002ABE
:10B61000D3ED094AD3ED021A93ED082AD3ED053A8A
:10B6200093ED074A93ED0B5AD3ED0D5A93ED0F6A44
:10B63000D3ED116A93ED137AD3ED157A93ED049A55
:10B64000D3ED068A93ED0A0AD3ED0C0A93ED0E8A28
:10B6500062EEA22A23EE033A64EEA44AE1EE012A46
:10B66000102FA1EEA13AE2EE024A93ED101A93EDEB
:10B67000142AD3ED121A63EEA33A24EE044A25EEFF
:10B68000055A65EEA55A26EE066A66EEA66A27EE0C
:10B69000077A67EEA77AE9EE093AE2EE027AA8EEB7
:10B6A000A84AA0EE005AE0EEA05AA8EE086AE1EE21
:10B6B000016AA1EEA17AB1EEE22AF1EEC32AB1EE5F
:10B6C000E33AF1EEC43AB1EEE44AF1EEC54AB1EE26
:10B6D000E55AF1EEC65AB1EEE66AF1EEC76AB1EE8E
:10B6E000E77A03ED1E3A43ED1D3A03ED1C4A43EDA4
:10B6F0001B4A03ED1A5A43ED195A03ED186A43ED3C
:10B70000176A03ED202A43ED1F2A03ED167AD3EDC5
:10B71000175A93ED196AD3ED1B6A93ED1D7AD3ED99
:10B720001F7A93ED1E5A93ED163AD3ED183A93ED26
:10B730001A4AD3ED1C4A65EEA55A26EE066A66EE55
:10B74000A66A27EE077A67EEA77AE3EE035AA3EE1E
:10B75000A36AE4EE046AA4EEA47AE5EE057AB1EEFB
:10B76000E55AF1EEC65AB1EEE66AF1EEC76AB1EEFD
:10B77000E77A03ED155A43ED145A03ED136A43EDCE
:10B78000126A03ED117A00F0E18594F81136013365
:10B7900084F811360E4B1A780F2A00F3ED850D2A26
:10B7A00004EB820300F2E38503F5C563C2F10D05E6
:10B7B00025F00105911CD3ED007A9FED067A02F287
:10B7C0008B130D4404EB8303002006E094E100207A
:10B7D0004CE30020000000000231D3ED006AF4EEDB
:10B7E000E67AF1EE10FA07D5F4EEC76AF1EE10FA38
:10B7F000C4BFB0EE667AD0B2D3ED017AF4EEE67A49
:10B80000F1EE10FA03F1080308DDF4EEC77AF1EE69
:10B8100010FA03DD0132B0EE677AD0B28D420A46EB
:10B82000DAD102F5C57304EB8303D3ED006A043368
:10B83000D3ED007AF4EEE76AF1EE10FA07D5B4EE34
:10B84000E77AF1EE10FA44BFB0EE677AD0B2013277
:10B85000102AEAD1002800F00C85431E012B40F38A
:10B86000C285B54D05EB8002D2ED6B7AD2ED6A6AE6
:10B87000F4EEE67AF1EE10FAA0F1020300F189800D
:10B88000012B00F08680D2ED697AF4EEE76AF1EEE2
:10B8900010FAA0F1030300F1A285012B00F09F85AF
:10B8A000D2ED686AF4EEE76AF1EE10FAA0F1040353
:10B8B0006FDC012B6DD0D2ED677AF4EEE67AF1EE13
:10B8C00010FAA0F1050300F38A85012B00F08785AB
:10B8D000D2ED666AF4EEE76AF1EE10FAA0F1060323
:10B8E00057DC012B55D0D2ED657AF4EEE67AF1EE15
:10B8F00010FAA0F1070300F37285012B00F06F85A9
:10B90000D2ED646AF4EEE76AF1EE10FAA0F10803F2
:10B910003FDC012B3DD0D2ED637AF4EEE67AF1EE16
