:020000040800F2
:1000000000200010CDF30208D1B4020829640008D2
:10001000CDB40208C9B40208C5B40208000000004B
:10002000000000000000000000000000C1B4020851
:10003000BDB4020800000000B9B402080579000848
:1000400035F4020835F4020835F4020835F40208E4
:1000500035F4020835F402088D190008B91A0008B1
:100060007D1A0008411A0008051A000831300008FE
:10007000213000081130000801300008F12F00087D
:10008000DD2F0008C92F000835F4020835F40208F6
:10009000E1B8020835F4020835F40208C91900086D
:1000A0003D7000089D70000835F40208AD7000082E
:1000B0008D7000087D7000086D70000835F402082E
:1000C00035F4020835F4020835F4020835F4020864
:1000D00035F40208897A00080D7A00089179000841
:1000E0005319000835F40208A9B4020835F40208CF
:1000F0004D70000835F402085D70000835F4020800
:1001000000000000000000000000000035F40208BC
:1001100035F4020835F40208B1ED000895ED000849
:10012000B52F0008A12F00088D2F0008792F000897
:10013000652F000835F402080000000000000000F0
:1001400035F4020835F4020835F402080000000016
:10015000000000000000000000000000000000009F
:10016000000000000000000035F4020835F4020829
:1001700035F402080000000000000000000000004C
:080180000000000035F4020844
:100188000A4B30B503F1140493F900205D78072A6F
:10019800C8BF143A811804330D7313F8025C8554F0
:1001A80013F8012C0A76A342EED130BDF01C0308E7
:1001B80003682DE9F041DF691FB13B46BDE8F04116
:1001C8001847002A164611DD04460D460E4400E085
:1001D80023689B68204698470028F9D0236815F8BB
:1001E800011B1B6820469847AE42F1D1BDE8F0815B
:1001F80000232322027043708370C3707047152355
:1002080003701623C370172383712D2343702E2385
:1002180003712F23C37170472DE9F041846814B12D
:100228002568A4882C8541F08001446840F2E935AE
:1002380001E0002D5AD02689013D16F0020FADB21B
:10024800F7D0217304F10C0640F2E93101E00029EE
:100258005DD02589013915F0010F89B2F7D03178C1
:100268004468A1894FF0000C4FF47A714FF6FF767D
:100278004FF0FF0E634502D130E0B1421ED0258910
:10028800013915F0020589B2F7D084F80CE004F1C1
:100298000C084FF47A7102E0B9B2B1420ED0258948
:1002A80015F0010501F1FF37F6D098F80050EDB2CE
:1002B8000AB1157001320CF1010CDBE71C4B9C42B2
:1002C80004D0A3F578439C4208D10125194B03EBD0
:1002D80005156B8901339BB26B816B89836813B1F8
:1002E8001A689B8893610120BDE8F08110498C420F
:1002F80004D0A1F578418C42B3D101250D4901EB19
:1003080005156989013189B269816989A9E7084DAB
:10031800AC4203D008498C42A2D10121054C04EB20
:1003280001114C890134A4B24C814989446898E789
:1003380000300140C05F00200038004030B48368BE
:1003480013B11C689B882385436840F2E93401E0B7
:10035800002C37D01D89013C15F0020FA4B2F7D04C
:10036800197303F10C0540F2E93101E000294BD083
:100378001C89013914F0010F89B2F7D02B78436832
:1003880040F2E93101E000292DD01C89013914F02F
:10039800020F89B2F7D01A7303F10C0440F2E93264
:1003A80001E0002A41D01989013A11F0010F92B2F7
:1003B800F7D02378836813B11A689B88936101206A
:1003C80030BC704721498B4204D0A1F578418B425B
:1003D800D6D101241E4901EB04146189013189B287
:1003E80061816189CCE7194A934204D0A2F5784229
:1003F8009342DFD10121164B03EB01114B890133E5
:100408009BB24B814B89D5E7104CA34203D01149CD
:100418008B42B4D101210E4B03EB01114B890133FF
:100428009BB24B814B894368AAE708498B4203D0AA
:10043800084A9342BED10122054B03EB02125389AD
:1004480001339BB253815389B4E700BF00300140A8
:10045800C05F002000380040002870B51EDB092866
:10046800044620DD012303EB83035B00B0FBF3F2BA
:10047800092AF8D87BB10E4EB4FBF3F00928CCBF9B
:1004880057223022A6FB03E5024403FB1044EB0885
:1004980001F8012BF0D100230B7070BD2D230B70D8
:1004A80040420131DBE7303001F8010BF3E700BFD0
:1004B800CDCCCCCC884230B44FF001042ED301FB14
:1004C80004F4B0FBF4F58D42F9D284B1AAB901E085
:1004D800B0FBF4F5092DCCBF572230222A4404FB87
:1004E800150003F8012BB4FBF1F4002CF0D1002225
:1004F8001A7030BC7047B0FBF4F5092DCCBF372219
:1005080030222A4404FB150003F8012BB4FBF1F454
:10051800002CF0D100221A7030BC70470546002A22
:10052800EBD1D7E703685A1C0260197070472DE9B0
:10053800F047089C2578002B804689460CBF4FF071
:10054800200A4FF0300A661C35B3002A29DD3346ED
:1005580001E0024698B113F8011B501E0029F8D19A
:10056800971E60B13D46013D51464046C8476B1C49
:10057800002BF8DC257827EAE770013055B1041B19
:1005880029464046C847301916F8015B002DF7D1B7
:10059800BDE8F087BDE8F087002A04DC2846BDE8FE
:1005A800F0870020EBE7571EDCE783684268D0ED50
:1005B800037A00EB83010133934281ED040A8360DF
:1005C80004BF0023836000EB830393ED047A036880
:1005D80070EE277A9A42C0ED037A77EEC77AC0EDBB
:1005E800037A0CDA013307EE103AF8EEC76AB7EE71
:1005F800007A87EEA60A036030EE070A704707EE16
:10060800102AB8EEC77A87EE870A704790ED057A08
:1006180090ED004AD0ED066AD0ED014AD0ED047A9B
:1006280090ED035AD0ED025AA4EE007AB0EE406A7B
:10063800B0EE470AB0EE667AA6EE247A67EEC07A84
:10064800A0EE457AE6EE257A80ED057AC0ED067AC9
:100658007047D0ED057A90ED013AD0ED003AD0ED33
:10066800064A90ED024A90ED077A90ED035A90ED14
:10067800086AD0ED045AC0ED067AF0EE406A27EE1B
:10068800830AC0ED056AA3EEA60A80ED087AA4EEF7
:10069800240AA5EE470AA5EEC60A80ED070A7047A8
:1006A800D0ED007A90ED017A30EE670AE7EE007A35
:1006B800B0EE670AC0ED007A704770470A4491426D
:1006C80014D030B40139551E41F2210211F8014FFE
:1006D800082380EA042004044CBF82EA400040005A
:1006E800013B80B2F7D18D42F0D130BC70472DE983
:1006F800F04FDFF820B2DFF820E2BBF80020DEF888
:100708000060BBF90430BBF90250BBF90A80C2EBA8
:10071800261404FB04F424135200C2EBE60203FB84
:1007280004F305FB02F29B1303EBE223B3F5FA365D
:100738004FEAE37589B045F1FF373246A6FB064517
:10074800CDE9024502FB07F205EB4202CDE9046759
:10075800029EBBF90840039208FB02FC4FEAE879C5
:1007680006FB09CC3A46A8FB0689049ECBF818304C
:10077800E51704FB02F206FB0522A4FB0667E14429
:1007880017444FEA182242EA096200924FEA2922E6
:1007980001923D03DDE90078340345EA16553F1917
:1007A800BBF80660069048EB05083C1C48F5004578
:1007B80003EB8302A4FB068906FB0599803213121A
:1007C8004FEA69064FEAE977079356EA07038A462C
:1007D80000F09280DDE90489BBF90E20DEF80440C0
:1007E800BBF910004946C4F5801ED317DDE9024560
:1007F80002FB01F108FB0311A2FB08230B444FEA9B
:1008080043492B46C11700FB03F304FB0133A0FB4C
:100818000401BBF90C401944E30001937346DC174B
:100828000023009349EAD2394FEA4248DDE9002320
:1008380010EB080041EB0901E50712184FEACE74E6
:100848004B4145EA5E05A41A65EB0305221945EB01
:10085800050312196B4199019001801841EA9261D0
:1008680059418B00820043EA9073101943EB05014C
:100878008B00820043EA90731046001919463246ED
:100888003B4669412EF0CAFBBBF916204C13450BB9
:1008980045EAC14502FB04F6D31705FB0366A2FB34
:1008A80005233344BBF9146002FB04F405FB03443D
:1008B80006FB01FEA2FB0523F717234400FB07EE06
:1008C800540EA6FB0067774444EAC3144FEAD6489F
:1008D80000194FEA636548EA473869414FEAE74932
:1008E80018EB0008BBF9124049EB01094FEA18263A
:1008F80046EA096620013618069B0BB1360A1E60C7
:10090800BAF1000F02D0079BCAF8003009B0BDE861
:10091800F08F00BF9C350020CC2300207047704723
:100928004FF480538382704750F8043C012280F8CA
:100938004520103803B11847704770B5044682B097
:100948000830656A06236A463B21A847A8B19DF886
:1009580004009DF800609DF801109DF802509DF874
:1009680003209DF8053041EA062143EA002342EAC4
:100978000522E18222836383012002B070BD70B436
:100988000468037B2268022101FA03F31A4213D098
:1009980042690A49582000FB02124FF6FE76506859
:1009A8005289C5680068296831402960C168D24306
:1009B80092B20A40C260636070BC7047104A00205F
:1009C80030B4094B1C7864B1084B002503EBC40410
:1009D8001A6899885562D06808330143A342D160E8
:1009E800F6D130BC704700BFD04C0020D44C00205A
:1009F800F0B4334C00EB800004EB80046468002CF6
:100A08005BD0304E49004FF42040CDB2B060A169B0
:100A1800090444D460682C4F45F08071384041F493
:100A2800903101434FF420406160B06003E0411E03
:100A3800002838D00846A1698F07F8D54FF4204020
:100A4800A262B06002E0421E68B31046A2691106B5
:100A5800F9D562681C4945F0007545F480350A40AF
:100A680015434FF420406560B06002E0421ED0B1EB
:100A78001046A2699207F9D5A362A3694FF42040F2
:100A88009B06B06005D4431E68B11846A3699B064F
:100A9800F9D52023B060E3610120F0BC7047411E06
:100AA80008B10846B3E7094A138801339BB24FF0EF
:100AB800FF31B1601380F0BC70472046F0BC70472E
:100AC800985F0020CC230020009800FCA82E00206E
:100AD800134600200A4668218AE730B50446C06CF0
:100AE80061710368A26823F00103036087B0A379EA
:100AF800009213F004023DD04FF4805213F0020329
:100B0800019244D102934FF480630022039311F0C1
:100B18000103059237D1049308238D07694648BF1E
:100B2800049325F05DFF6079E36CA17900F002027F
:100B3800002A15BF4FF440324FF480324FF400348E
:100B4800002410F0010F586808BF2246CC074CBF9C
:100B5800024320EA02025A609A6809074CBF42F031
:100B6800080222F008029A601A6842F001021A602C
:100B780007B030BD13F0020301920BD04FF40055BB
:100B880013460295C1E7042304930C23C5E74FF4E9
:100B98000053B7E70293B8E710B50446C06CA160EC
:100BA800036823F001030360A37986B013F00402FD
:100BB800009141D04FF4805213F00203019244D1C6
:100BC80002934FF4806362790393D1074FF00003D7
:100BD8000493059345BF0423049308230C23694613
:100BE800920748BF049325F0FBFE6079E36CA17976
:100BF80000F00202002A15BF4FF440324FF4803251
:100C08004FF40034002410F0010F586808BF224642
:100C1800CC074CBF024320EA02025A609A680907CF
:100C28004CBF42F0080222F008029A601A6842F0AB
:100C380001021A6006B010BD13F00203019207D03A
:100C48004FF4005113460291BDE74FF40053B7E744
:100C58000293B8E7002326220360027027228270DD
:100C6800012243600271837170472DE9F3410569E0
:100C780006460F467DBBD0F80080C8F30A0323B3AD
:100C88000023D6F8008001931FF00CF9042819D12D
:100C9800214C236943F001032361BBB2A8F800305B
:100CA8001FF000F904282ED108F102030193019BDB
:100CB8003F0C1F801FF0F6F82369042823F0010376
:100CC800236125D06FF0010505E01FF0EBF804283B
:100CD80005D04FF0FF35284602B0BDE8F0810E4C34
:100CE800236943F002032361C4F81480236943F0A5
:100CF800400323611FF0D6F82369042823F0020378
:100D08002361BDD0E5E7236923F001032361D9E717
:100D1800336804333360DEE700200240F8B5044648
:100D28000D468E180027B54201D12069F8BDE36849
:100D3800591CE160234415F8012B1A720429F2D1D9
:100D4800A1682046FFF791FFE7602061EBE723F0F9
:100D58003DB870B582B004466946143022F0E2FF0F
:100D6800B0B19DF805009DF801609DF802109DF84E
:100D780003509DF804209DF8063041EA062143EA15
:100D8800002342EA0522A187E287A4F84030012027
:100D980002B070BD10B490E80600047B40690223DD
:100DA800A3404B6013685DF8044B4FF6FE710B408F
:100DB800136006F0A3BE03685B6A03B11847704767
:100DC80003681B6A03B11847704703682DE9F041AF
:100DD800DF691FB13B46BDE8F0411847002A1646B7
:100DE80011DD04460D460E4400E023689B6820464A
:100DF80098470028F9D0236815F8011B1B6820467E
:100E08009847AE42F1D1BDE8F08103689B69184765
:100E180003685B69184703681B6918470368DB6840
:100E2800184703689B68184703685B681847036896
:100E38001B681847014B1868F9E700BF346A00209F
:100E480038B50C46097849B1054601342B6828465F
:100E58001B68984714F8011B0029F7D138BD064BC9
:100E680053F8203033B11A689B88918A0B4218BF17
:100E78001B049361704700BF7862002010B5040915
:100E8800013C052C17D80D4B33F8142000F00F0047
:100E980042FA00F313F001030DD0012303FA00F026
:100EA800013810402EF00AF9054A064B125D10442D
:100EB80003EBC00010BD002010BD00BF003D0308BB
:100EC8000C3D0308184D00202DE9F04F4A484B4BC4
:100ED8004B4C4FF090414FF0010A4FF002094FF090
:100EE80004084FF0080C4FF0100E202740268025EC
:100EF80030F8022B12F0010F03D01960A3F804A0F8
:100F0800083312F0020F03D01960A3F804900833D5
:100F180012F0040F03D01960A3F80480083312F00C
:100F2800080F03D01960A3F804C0083312F0100F9B
:100F380003D01960A3F804E0083312F0200F02D0A0
:100F480019609F80083312F0400F02D019609E800C
:100F5800083312F0800F02D019609D80083312F414
:100F6800807F05D04FF4807B1960A3F804B0083364
:100F780012F4007F05D04FF4007B1960A3F804B089
:100F8800083312F4806F05D04FF4806B1960A3F812
:100F980004B0083312F4006F05D04FF4006B1960E9
:100FA800A3F804B0083312F4805F05D04FF4805BD7
:100FB8001960A3F804B0083312F4005F05D04FF4A9
:100FC800005B1960A3F804B0083312F4804F05D011
:100FD8004FF4804B1960A3F804B00833D20B04D047
:100FE8004FF4004219609A80083301F58061A142EC
:100FF8007FF47EAFBDE8F08F003D0308184D002058
:1010080000180048002867D003682DE9F04F03F165
:1010180038445C4EA40A0125345D04F01F066409B7
:10102800022C05FA06F558D0032C00F0A580012CF7
:1010380058D08088B0FA80F4C4F11F04A4B2E5083F
:1010480003EB850504F007042E6AA4000F27A740C8
:1010580026EA07062E622E6A01F00307A2407C1ECC
:101068003243012CC1F3810CC1F300182A62C1F389
:1010780041113CD9C60700F18980850700F19580A8
:10108800440700F1A380020700F1B180C60600F111
:10109800BF80850600F1CD80440600F1DB800206A2
:1010A80000F1E980C60500F1F780850500F10581AA
:1010B800440500F11381020500F12181C60400F105
:1010C8002F81850400F13D81440400F14B81020425
:1010D80000F15981BDE8F08F70472B4CA669354364
:1010E800A561A6E7284C666935436561A1E7002438
:1010F80022464FF0010E4FF0030904E00132102A96
:1011080004F10204E6D00EFA02F636EA0005F5D13B
:10111800D3F808A009FA04F5ED430AEA050AC3F86A
:1011280008A0D3F808B00CFA04FA4AEA0B0AC3F884
:1011380008A0B3F804A01FFA8AFA2AEA06069E80D5
:10114800B3F804A008FA02F646EA0A06B6B29E8088
:101158001E682E401E60D3F800A007FA04F646EA7F
:101168000A061E60D3F80CA001FA04F605EA0A0A7A
:1011780046EA0A05DD60C1E7034CE6693543E561E7
:1011880057E700BF303F0308001002401A6822F0FA
:1011980003021A601A683A431A60DA6822F00302F6
:1011A8000A438507DA607FF56BAF1A6822F00C02F4
:1011B8001A601A6842EA87021A60DA6822F00C029A
:1011C80042EA81024407DA607FF55DAF1A6822F0CF
:1011D80030021A601A6842EA07121A60DA6822F0C6
:1011E800300242EA0112DA6002077FF54FAF1A684F
:1011F80022F0C0021A601A6842EA87121A60DA6896
:1012080022F0C00242EA8112C606DA607FF541AFD9
:101218001A6822F440721A601A6842EA07221A60B1
:10122800DA6822F4407242EA01228506DA607FF524
:1012380033AF1A6822F440621A601A6842EA8722B9
:101248001A60DA6822F4406242EA81224406DA60CF
:101258007FF525AF1A6822F440521A601A6842EAEC
:1012680007321A60DA6822F4405242EA0132DA6040
:1012780002067FF517AF1A6822F440421A601A680E
:1012880042EA87321A60DA6822F4404242EA81323E
:10129800C605DA607FF509AF1A6822F440321A6091
:1012A8001A6842EA07421A60DA6822F4403242EACF
:1012B80001428505DA607FF5FBAE1A6822F4402208
:1012C8001A601A6842EA87421A60DA6822F44022F1
:1012D80042EA81424405DA607FF5EDAE1A6822F4ED
:1012E80040121A601A6842EA07521A60DA6822F451
:1012F800401242EA0152DA6002057FF5DFAE1A6851
:1013080022F440021A601A6842EA87521A60DA68C0
:1013180022F4400242EA8152C604DA607FF5D1AE77
:101328001A6822F040721A601A6842EA07621A6064
:10133800DA6822F0407242EA01628504DA607FF5D9
:10134800C3AE1A6822F040621A601A6842EA8762DD
:101358001A60DA6822F0406242EA81624404DA6084
:101368007FF5B5AE1A6822F040521A601A6842EA50
:1013780007721A60DA6822F0405242EA0172DA60B3
:1013880002047FF5A7AE1A6822F040421A601A6874
:1013980042EA87771F60DA6822F0404242EA8171A8
:1013A800D960BDE8F08F002852D0036803F13842B5
:1013B8002DE9F04F920A514DAA5C02F01F0552091F
:1013C8000124022A04FA05F443D0032A00F090808D
:1013D800012A43D001F003077A1E012AC1F3810CC8
:1013E800C1F300188088C1F341113CD9C60700F148
:1013F8008980850700F19580440700F1A3800207E2
:1014080000F1B180C60600F1BF80850600F1CD80ED
:10141800440600F1DB80020600F1E980C60500F110
:10142800F780850500F10581440500F11381020567
:1014380000F12181C60400F12F81850400F13D816E
:10144800440400F14B81020400F15981BDE8F08F9A
:1014580070472B4A95692C439461BBE7284A556924
:101468002C435461B6E7002422464FF0010E4FF09A
:10147800030904E00132102A04F10204E6D00EFA4E
:1014880002F636EA0005F5D1D3F808A009FA04F502
:10149800ED430AEA050AC3F808A0D3F808B00CFA25
:1014A80004FA4AEA0B0AC3F808A0B3F804A01FFA22
:1014B8008AFA2AEA06069E80B3F804A008FA02F619
:1014C80046EA0A06B6B29E801E682E401E60D3F811
:1014D80000A007FA04F646EA0A061E60D3F80CA034
:1014E80001FA04F605EA0A0A46EA0A05DD60C1E7D8
:1014F800034AD5692C43D4616CE700BF303F030829
:10150800001002401A6822F003021A601A683A436F
:101518001A60DA6822F003020A438507DA607FF569
:101528006BAF1A6822F00C021A601A6842EA870246
:101538001A60DA6822F00C0242EA81024407DA6093
:101548007FF55DAF1A6822F030021A601A6842EA25
:1015580007121A60DA6822F0300242EA0112DA60F1
:1015680002077FF54FAF1A6822F0C0021A601A68A6
:1015780042EA87121A60DA6822F0C00242EA81124F
:10158800C606DA607FF541AF1A6822F440721A6025
:101598001A6842EA07221A60DA6822F4407242EABC
:1015A80001228506DA607FF533AF1A6822F44062BB
:1015B8001A601A6842EA87221A60DA6822F44062DE
:1015C80042EA81224406DA607FF525AF1A6822F4E0
:1015D80040521A601A6842EA07321A60DA6822F43E
:1015E800405242EA0132DA6002067FF517AF1A6804
:1015F80022F440421A601A6842EA87321A60DA68AE
:1016080022F4404242EA8132C605DA607FF509AF2A
:101618001A6822F440321A601A6842EA07421A60CD
:10162800DA6822F4403242EA01428505DA607FF541
:10163800FBAE1A6822F440221A601A6842EA87420E
:101648001A60DA6822F4402242EA81424405DA60EC
:101658007FF5EDAE1A6822F440121A601A6842EA61
:1016680007521A60DA6822F4401242EA0152DA603C
:1016780002057FF5DFAE1A6822F440021A601A6884
:1016880042EA87521A60DA6822F4400242EA81523A
:10169800C604DA607FF5D1AE1A6822F040721A608B
:1016A8001A6842EA07621A60DA6822F0407242EA6F
:1016B80001628504DA607FF5C3AE1A6822F04062E1
:1016C8001A601A6842EA87621A60DA6822F0406291
:1016D80042EA81624404DA607FF5B5AE1A6822F006
:1016E80040521A601A6842EA07721A60DA6822F0F1
:1016F800405242EA0172DA6002047FF5A7AE1A6826
:1017080022F040421A601A6842EA87771F60DA6856
:1017180022F0404242EA8171D960BDE8F08FF0B50D
:10172800044690F8590083B0002840F0A480684E21
:10173800377B002F40D004F11405A06920F052FC3B
:1017480094F852201A212846FEF7F8FD012005F0EA
:10175800DDFFA06920F034FC28460623E56D6A46C3
:101768004321A847D8B19DF802609DF803309DF841
:1017780000509DF801109DF804009DF8052043EAEB
:1017880006231BB2E3875BB241EA052142EA002245
:101798000133A187A4F8402006D003B0F0BDB4F906
:1017A8003E305BB20133F8D194F93C300133F4D1C7
:1017B800062004F0BDFEF0E704F11405A06920F04E
:1017C80011FC80226B212846FEF7B8FD962005F013
:1017D800F7FF032268212846FEF7B0FD962005F0A2
:1017E800EFFF03226B212846FEF7A8FD0F2005F026
:1017F8008DFF10226A212846FEF7A0FD0F2005F074
:1018080085FF3A466C212846FEF798FD0F2005F023
:101818007DFF94F8542019212846FEF78FFD0F20EC
:1018280005F074FF18221B212846FEF787FD0F20BC
:1018380005F06CFF10221C212846FEF77FFD0F20C3
:1018480005F064FF102237212846FEF777FD0F20A8
:1018580005F05CFF012238212846FEF76FFD0F20B6
:1018680005F054FFA06920F0ABFB012005F04EFF06
:101878000123337361E7FFF701FB0546D8B1202345
:1018880000218371C171FFF78EFD2146114B41F88C
:10189800103F284622F0E6F9AB88B3FA83F3C3F188
:1018A8001F035A1C3FF443AF01229A400A490B68B0
:1018B80013430B603BE70146FFF775FD2146054BD7
:1018C80041F8103F284622F0CDF90122EEE700BF8B
:1018D800CC230020310900080004014010B103683E
:1018E80082881A85704710B1036882889A617047A8
:1018F80038B100298388026814BF002110218B4069
:101908009361704710B40A4B0A4A1C78012383403C
:10191800234052F8200029B9B3FA83F149095DF848
:10192800044BE5E7191C18BF01215DF8044BDFE7FC
:10193800746200207862002030B1036882881B8AB4
:101948001A4214BF0120002070472DE9F0410B4EC8
:10195800346873691C400FD0DFF824800127B4FA7B
:1019680084F3C3F11F0307FA03F558F8230003684B
:101978009847AC437561F2D1BDE8F081000401409D
:10198800706300202DE9F0410B4E346873691C40E8
:101998000FD0DFF828800127B4FA84F3C3F11F03BE
:1019A80007FA03F558F8230003689847AC437561B4
:1019B800F2D1BDE8F08100BF00040140706300204F
:1019C8002DE9F0410B4E346873691C400FD0DFF8E5
:1019D80028800127B4FA84F3C3F11F0307FA03F53B
:1019E80058F8230003689847AC437561F2D1BDE805
:1019F800F08100BF00040140706300202DE9F04130
:101A08000B4E346873691C400FD0DFF8288001271B
:101A1800B4FA84F3C3F11F0307FA03F558F8230057
:101A280003689847AC437561F2D1BDE8F08100BF07
:101A380000040140706300202DE9F0410B4E34682A
:101A480073691C400FD0DFF828800127B4FA84F3AB
:101A5800C3F11F0307FA03F558F8230003689847F2
:101A6800AC437561F2D1BDE8F08100BF00040140CC
:101A7800706300202DE9F0410B4E346873691C40F7
:101A88000FD0DFF828800127B4FA84F3C3F11F03CD
:101A980007FA03F558F8230003689847AC437561C3
:101AA800F2D1BDE8F08100BF00040140706300205E
:101AB8002DE9F0410B4E346873691C400FD0DFF8F4
:101AC80028800127B4FA84F3C3F11F0307FA03F54A
:101AD80058F8230003689847AC437561F2D1BDE814
:101AE800F08100BF0004014070630020084A0948E3
:101AF80008B5936943F0010393610021402230F057
:101B08003FF8054B4FF0FF321A60C3F8032008BDB9
:101B18000010024070630020B06300202DE9F041FE
:101B2800044618460D46164698462CF0ADFD276823
:101B3800E6722844A07229467D694346324620460B
:101B4800AC46BDE8F0416047036810B504461B6821
:101B58009847236820469B689847A37B0133A37363
:101B680010BD10B5036804469B689847FF230122FF
:101B78006373227310BD08B52120FFF77FF90C4B62
:101B8800186018B1112200238271C3712021FFF758
:101B98000AFC2020FFF772F9064B186018B11122D1
:101BA80000238271C3712021BDE80840FFF7FBBB09
:101BB800844400208844002008B5FFF75FF940B14D
:101BC8002C2282710022C2712021BDE80840FFF753
:101BD800EABB08BDF8B505015A4C5B4B625961195F
:101BE8009A4204EB050704BF01230B730646387AB3
:101BF8001FF0E0FD3B7A03F01F015B090122022B75
:101C080002FA01F278D0032B71D0012B67D0631947
:101C180001361879FFF732F9F6B2074610B11223E8
:101C2800C671837163195879FFF728F910B1132326
:101C3800C671837163199879FFF720F910B11423DD
:101C4800C671837166190E21F2793846FFF7DAF901
:101C58007079FFF713F9F2790E21FFF7D3F9B0790C
:101C6800FFF70CF9F2790E21FFF7CCF96359374ADF
:101C7800934251D0344A934259D0354A934240D086
:101C88002C44227B002A2FD1012002249A8822F496
:101C980080521204120C9A80998889B241F48051BA
:101CA80099801A8802F4415242F445720243224351
:101CB8001A809A8822F470621204120C42F4E062CC
:101CC8009A809A8B22F400621204120C07219A83DC
:101CD80019821A8892B242F040021A80F8BD1D4B50
:101CE800996A0A439A6292E700200446CEE7194BA4
:101CF80019690A431A618AE7164BD9680A43DA60F8
:101D080085E702F5EA32116941F400411161116970
:101D180021F400411161B3E702F56042D16841F452
:101D28008051D160D16821F48051D160A8E702F5D3
:101D3800EC32116941F480411161116921F480414B
:101D480011619DE7C05F002000380040003001406D
:101D5800003C004000100240427A02B9704710B5BA
:101D680004460368406804F10A0198470023637237
:101D780010BD437A5A1C0344D2B242729972037A54
:101D8800934200D802B9704710B50446036840680A
:101D980004F10A0198470023637210BD30B40B4D5B
:101DA800002305F1140101E0272B0BD011F81320B3
:101DB80082424FEA430403F10103F5D12C44607DCC
:101DC80030BC7047002030BC704700BFF01C0308CF
:101DD80070B5448806460D46C4F30B04224600211C
:101DE80028462FF0CDFE3369094A934209D3094AA0
:101DF800934206D2224628461946BDE870402FF085
:101E08009ABE23B121462846BDE87040184770BDE8
:101E1800D08C0308D18D030838B5054C054DAC426C
:101E280000D338BD61682046FFF7D2FF1434F6E7C7
:101E380098880308D08C0308064B07498B4202D3C5
:101E48000023184670471A88C2F30B029042F8D054
:101E58001433F3E798880308D08C0308024A136800
:101E680023EA000010607047F0690020F8B5174DAC
:101E78002B78A42B28D16B78BE2B25D1022229469A
:101E88004FF6FF70FEF71AFC114FAC1C22884AB1BE
:101E9800A618BE4218D2052A16D92146FEF70EFC0E
:101EA8003446F3E721460222FEF708FC0222A11875
:101EB800FEF704FC0634074B641B1C8041F60F53E5
:101EC800C31A58425841F8BD0020F8BD00F0030875
:101ED80000000408AA2E00202DE9F04FDFF84891F1
:101EE8004C4F8BB00326A7EB09071822002104A842
:101EF8002FF046FE484BCDF8109005971A69120648
:101F080004D5464A5A6002F188325A6001228DF897
:101F180024203422DA60424B424C1B88ADF8003052
:101F28000222694604A8FEF7F9FE022269464FF626
:101F3800FF70FEF7C3FBDFF8F4A080464FF0000BFC
:101F4800544536D30AAC002524F8245D02222146E4
:101F580004A8FEF7E3FE022221464046FEF7AEFB48
:101F680040BAC043ADF80800022202A904A8FEF74F
:101F7800D5FE079860B106ABC0F1040229461844A3
:101F88002FF0FEFD069904A8FEF76FFE079508904E
:101F98009DF82430089A23B11F490B6943F0800348
:101FA8000B61013E2DD0002A9FD1FFF75FFF50B390
:101FB8002CE065888DF80DB0C5F30B05AB1DADF8A9
:101FC80008302388C3F30B02ADF80A201B0B062246
:101FD80002A904A88DF80C30FEF7A0FE062202A97B
:101FE8004046FEF76BFB616880462A4604A8FEF768
:101FF80095FE616840462A46FEF760FB1434804629
:102008009EE7002AD1D0052004F092FA0BB0BDE873
:10201800F08F00BF0000040800200240230167453C
:10202800521D03089888030800F00308D08C0308A1
:102038000378202B024600F10100F9D0092BF7D0D4
:102048002D2B2CD02B2B03BF5378B7EE000A02465A
:10205800B7EE000AA3F13001C8B209289FED467A0D
:1020680010D8F2EE046A07EE901AF8EEE77A12F842
:10207800013FE7EE267AA3F13001C8B20928B0EE95
:10208800677AF0D92E2B4CD003F0DF03452B0BD009
:10209800F7EE007A67EE276A20EE260A7047537833
:1020A800BFEE000A0246D5E710B451782D2959D061
:1020B8002B290ABF9178501C901C0024A1F13003F1
:1020C800092B53D8002303EB830301EB430310F8D8
:1020D800011FA1F13002092AA3F13003F3D9B3F5A6
:1020E8009A7F28BF4FF49A73072B42D9DFED236AF2
:1020F8001A46F7EE007A083A072A67EEA67AFAD85F
:1021080003F007032BB1F2EE046A013B67EEA67AEF
:10211800FBD124B3C7EE276A5DF8044B20EE260AEC
:1021280070475378A3F13001C8B2092802F10102BF
:10213800AAD8F2EE046AF0EE665A07EE901AF8EEA4
:10214800E77A12F8013F87EEA66AA3F13001C8B218
:10215800092866EEA56A37EE067AEED994E767EEA7
:10216800276AD9E7901C91780124A7E7F7EE007A4F
:10217800CFE7F7EE007AC5E70000000020BCBE4CB0
:10218800B5EEC00ADFED317AF1EE10FACCBF30EED1
:10219800270A30EE670ADFED2E7A20EE270A30B5DF
:1021A800FDEEC07A87B017EE904A054684EAE470DF
:1021B800002303A9A0EBE4700193009302931EF09F
:1021C8006DF8002CACBF20232D2303A88DF8003018
:1021D8002CF05AFA012803A924D002282DD003286C
:1021E80005BF3023684668468DF801302FF0EEFCB5
:1021F80068462CF049FA0338C4B222466946284694
:102208002FF042FD00232B5528462CF03DFA2E22B4
:10221800431C2A540DEB0401E8182FF0F4FC28465F
:1022280007B030BD302368468DF801308DF8023094
:102238008DF803302FF0CAFCDAE7302368468DF8B2
:1022480001308DF802302FF0C1FCD1E76F12033A4C
:1022580000007A442DE9F041064615460846B6FBCB
:10226800F2F43CB905FB1464124B1B5D00F8013B0A
:10227800BDE8F081B4FBF2F767B90E4B05FB1747D1
:1022880005FB1464DA5D00F8012B1B5D00F8013BC7
:10229800BDE8F081B7FBF2F8B8F1000F02D0404674
:1022A800FFF7D8FF05FB1878024B13F8082000F851
:1022B800012BE3E7C049030830B402681146531CF8
:1022C800036011F8024B0160D31C517803609378C6
:1022D800151D05601B0443EA0123D078234343EA14
:1022E800006030BC70470368591C1A46016012F838
:1022F800021B0260587841EA0020704703685A1CA4
:1023080002601878704738B50446006815462FF003
:1023180012FC22682A44226038BD036810B40A0EF1
:102328005C1C04601A7003680A0C5C1C04601A7058
:1023380003680A0A5C1C04601A7003685A1C02606D
:1023480019705DF8044B7047036810B40A0A5C1CE6
:1023580004601A7003685A1C026019705DF8044B17
:10236800704703685A1C026010B4197003680A0A9F
:102378005C1C04601A7003680A0C5C1C04601A7008
:102388000368090E5A1C026019705DF8044B704707
:1023980003685A1C026019700368090A5A1C026013
:1023A800197070472DE9F047002488B080460F4621
:1023B8001E46A14605AD531C0393117839B3252950
:1023C80033D1931CCDF810900393507830284ED019
:1023D8004FF0000AA0F13003DBB2092B42D96C2878
:1023E80019D0642800F0938024D825281CD063D9FC
:1023F800582876D063281BD131784046B847039ACD
:10240800531C03931178043601340029D7D1204690
:1024180008B0BDE8F087039B5A1C03921B78642B15
:102428007CD02AD8252B54D1252140460134B847E1
:10243800039AC0E7732833D044D975284FD106F1E1
:10244800040E30682B4600220A217646FEF732F841
:10245800049A0095534639464046FEF768F8039AB1
:102468000444A8E704AA03A922F07EF9B7E7D31C1D
:10247800039390784FF0010AACE7732B10D05BD927
:10248800752B3AD0782B96D1A3F15802B2FA82F282
:10249800306852092B4610210436FEF70BF8D7E7AF
:1024A8003368049A0093394600234046FEF73FF804
:1024B80004360444039A7EE70028B9D1204608B0C0
:1024C800BDE8F0876E28B3D1039A336804361C60E0
:1024D80071E72AD9582BD7D0632B8DD06BE7782892
:1024E800A6D1A0F15802B2FA82F2306852092B46FE
:1024F8001021FDF7DFFF0436AAE706F1040E306865
:102508002B4600220A217646FDF7D4FFA0E7331DAB
:10251800306829461E46FDF79FFF99E7331D30684E
:1025280029461E46FDF798FF92E7002B7FF443AF3C
:10253800204608B0BDE8F0876E2BC6D03BE70EB446
:1025480000B584B005AB019053F8042B06490393FA
:1025580001A8FFF727FF019B00221A7004B05DF85D
:1025680004EB03B0704700BF2D0500080FB430B569
:1025780083B006AB0A490B4853F8042B0968006876
:102588000193FFF70FFF084C05462068FEF740FC53
:102598000028FAD0284603B0BDE8304004B07047A0
:1025A800784400207C440020346A0020DFED2B7A38
:1025B800B4EEE70AF1EE10FA4ADDDFED296A9FED85
:1025C800297A01E0B0EE670AB4EEC70AF1EE10FA14
:1025D80070EE667AF6DC9FED247AF4EEC77AF1EEB7
:1025E80010FA38D5DFED1E6A9FED207A01E0F0EE93
:1025F800407AF4EEC77AF1EE10FA37EEA60AF6D46E
:10260800DFED1B7AB4EEE70AF1EE10FA14DDDFED28
:10261800137A37EEC00A60EE006A9FED166A9FEDE6
:10262800167ADFED167AA6EE867A20EE266AE6EEB0
:10263800877AA6EE270A7047DFED117AB4EEE70A2B
:10264800F1EE10FA44BFDFED087A37EEC00AE2E790
:10265800F0EE407ABFE7B0EE670AD1E7DB0F4940FA
:10266800DB0FC940E4CB1641DB0F49C0E4CB16C1F0
:10267800DB0FC93F92E741B99730083C15A82ABE3D
:10268800DB0FC9BF80EAE073A3EBE0738B4205DB85
:10269800002801DD401A704702D1704700207047BA
:1026A8000844704709B909E0194690FBF1F301FBAA
:1026B80013030846002BF7D1084670470146FBE78D
:1026C800F0EEC07AB0EEE07AB4EEE77AF1EE10FA06
:1026D800B4BFB0EE676AB0EE476AB5EE406AF1EE95
:1026E80010FA46D0B4EEE77AF1EE10FA8CBFF0EEAD
:1026F800675AF0EE475AC5EE866A9FED1F3A9FED7E
:102708001F6A9FED1F4A9FED1F5ADFED1F3ADFED4D
:102718001F4ADFED1F5AA6EEC36AE6EEA34AA6EEED
:10272800864AB7EE006AA6EE845AA6EEA46AE6EEDA
:10273800855AC5EE866AB4EEE77AF1EE10FA48BF1C
:10274800DFED147AF5EEC00A48BF77EEE66AF1EEDF
:1027580010FA48BFDFED107AB5EEC00A48BF77EE31
:10276800E66AF1EE10FA48BFF1EE666AB0EE660A64
:102778007047DFED076ADEE739094E3DE3B59E3E57
:1027880088FA163E45FE7F3F99FB243F69A2163E14
:10279800A7DFA834DB0FC93FDB0F4940DFED317AF3
:1027A80030EE277AFDEEC76A16EE903A2033402BBA
:1027B80002D99FED2D0A7047B4EEE70AF1EE10FA40
:1027C8004DDD9FED2A6ADFED2A6A01E0B0EE677AF7
:1027D800B4EEE67AF1EE10FA77EE467AF6DC9FED83
:1027E800257AF4EEC77AF1EE10FA35D5DFED1F6AD7
:1027F8009FED217A01E0F0EE407AF4EEC77AF1EE2F
:1028080010FA37EEA60AF6D4DFED167AB4EEE70A28
:10281800F1EE10FA1BDCDFED197AB4EEE70AF1EEFF
:1028280010FA44BFDFED137A37EEC00A60EE006A93
:102838009FED136A9FED137ADFED137AA6EE867A81
:1028480020EE266AE6EE877AA6EE270A7047DFEDC5
:102858000F7A37EEC00AE9E7B0EE670AD4E7F0EE80
:10286800477ABCE7DB0FC93F00000000DB0FC94017
:10287800E4CB1641DB0F49C0E4CB16C1DB0FC9BF5F
:1028880092E741B99730083C15A82ABEDB0F4940AA
:1028980010B507EE901A2DED028BB8EE678ADFEDC2
:1028A800217A28EE008A044628EE278AB0EE480AE4
:1028B8002DF0E6F8F0EE408AB0EE480A2DF042F826
:1028C800F7EE007A9FED187AF0EE675AE8EE875A2D
:1028D8000023A361B0EE676AC7EEA56A636123624D
:1028E800E361A8EEC76ABDEC028B77EEC07AB6EE5C
:1028F800007AF8EE005A27EE877A20EE250A27EEAE
:10290800267A26EE266A67EEA67A20EE260A84ED57
:10291800046AC4ED017A84ED007A84ED027A84EDCC
:10292800030A10BD27D4D236F304353F10B44C093E
:10293800012250F8243001F01F0102FA01F10B4383
:1029480040F824305DF8044B70474B0901F01F0133
:1029580050F82320012303FA01F1114214BF18464D
:10296800002070472DE9F84FDFF8B490DFF8B48005
:10297800DFF8B4A0274E0123042089F800301FF0A7
:1029880045FBD8F80000FEF7A9FF05201FF068FAFC
:1029980000201FF065FA06201FF062FA00201FF0E1
:1029A8005FFA9AF80040042044F001041FF058FA36
:1029B80020461FF055FA33888BB1174D174F002466
:1029C80015F804B007201FF04BFA58461FF048FAD4
:1029D8002A5D33883A550134A4B2A342F0D80720BF
:1029E8001FF03EFAFF201FF03BFA9AF8004004203F
:1029F8001FF036FA20461FF033FAD8F80000FEF729
:102A080072FF02201FF002FB002389F80030BDE8A6
:102A1800F88F00BF6819002004580020285A0020A9
:102A2800115A0020B8480020195A00202DE9F04119
:102A38004A4E04201FF0EAFA3068FEF74FFF484B71
:102A48001B78012B7BD062D3022B0AD1DFF83081AF
:102A5800082388F800300D254FF4C373414F3B809D
:102A680010E0DFF81C813F4F98F8003003F0400376
:102A7800002B14BF4FF4F0734FF4C3733B8014BFA3
:102A880010250D25002404F11000C0B21FF0E8F94C
:102A9800013401201FF0E4F9A3B2AB42F3D398F854
:102AA8000040314D00201FF0DBF920461FF0D8F917
:102AB8002E4B1C7802201FF0D3F920461FF0D0F9C6
:102AC8002B4B1C7803201FF0CBF920461FF0C8F9C8
:102AD800284B1C78042004431FF0C2F920461FF03D
:102AE800BFF93068FEF7FFFE02201FF08FFA3A8820
:102AF800214800212FF044F82B7833B11F4B1B7865
:102B080033B300232B70BDE8F081BDE8F081A0202D
:102B18001FF0A6F900201FF0A3F900F00603022B0E
:102B2800DFF85C8007D000F00500012803D14823B6
:102B380088F8003008E0082388F800308BE7DFF8D1
:102B48004080482388F8003010254FF4F07385E75B
:102B5800FFF708FF00232B70BDE8F081B84800207C
:102B6800BC4800206819002000000020C34800204D
:102B7800C4480020195A0020285A0020115A002061
:102B88006A190020B0F1FF3F0AD0022810B403DC14
:102B98005DF8044BFDF72CBF00205DF8044B70472F
:102BA80000207047F0B55B4B5B4A97B019689142BB
:102BB80000AF00F0A3805949594A00234FF4700030
:102BC800C1F888003B607B60136843F4803313606E
:102BD80003E03B68B3F5A04F09D0136803F4003352
:102BE8007B603B6801333B607B68002BF1D04C4B2A
:102BF8001B6813F4003318BF01237B607B68012B2B
:102C080052D0464C464B474AE260474A596A1160DF
:102C18005A6A42F080725A625A6942F4FC025A6156
:102C28000025032207F10801012341F6FF764FF042
:102C38009040FD60BE603A73BB732AF07FFB4FF68D
:102C4800FF7307F108013948BB602AF077FB07F1E9
:102C580008013748374E2AF071FB07F1080136485A
:102C68002AF06CFB07F1080134482AF067FB07F1EA
:102C7800080133482AF062FB07F108002AF06EF9D0
:102C8800BB683049304AA1FB031330499B0CF02044
:102C98004FF0070E5C370B60566084F82300956090
:102CA800C2F800E0BD46F0BD294A1D4B1221116053
:102CB8005A685A605A685A605A6842F480625A6080
:102CC8005A6822F47C125A605A6842F4E8125A6030
:102CD8001A6842F080721A601A689201FCD5596825
:102CE8000F4A21F003015960596841F00201596007
:102CF800536803F00C03082BFAD182E700221A600C
:102D080062B6144B1B6883F30888134B1B689847FB
:102D1800FEE700BFFC9F0020EFBEADDE00ED00E047
:102D2800001002400005FA05CC4E002000040048BF
:102D3800000800483F190100000C00480010004836
:102D48000014004883DE1B4310E000E0B06200205E
:102D58000020024000D8FF1F04D8FF1F70B50F4C99
:102D68000F4DC0EBC00004EB80046869266930434E
:102D7800686182B09209667BA1600025012101A8E3
:102D880063618DF804608DF805208DF806508DF884
:102D9800071023F081FE02B070BD00BF6C1900203F
:102DA80000100240074BC0EBC00030B403EB8000BA
:102DB800054C056963692B4363610176427630BC33
:102DC800704700BF6C190020001002402DE9F04F39
:102DD8005E4C54F8204083B0002C71D0666D984644
:102DE80091465B4B7268E264A160236004F15A016A
:102DF8004FF4807304F5AD726161A261E3602361F1
:102E08000746307E1EF0D6FCF068A8B1514B002171
:102E18005A68904203F11C0300F0928001310C299A
:102E2800F6D100207A1CD2B20C21FFF7BBFFE36C6D
:102E3800F26822632433A364B068D8B1454B0021FB
:102E48005A68904203F11C0378D001310C29F7D15C
:102E580000257A1CD2B20B212846FFF7A3FF234690
:102E6800F27E3D492846FFF779FFE36CB26862635A
:102E78002833636494F85900FEF700F8054694F87F
:102E88005800FDF7FBFF18F0080F824696F819B0B6
:102E98001AD0CDB118F0110F4FF00B0307F101074D
:102EA80014BF4E213E21EF715A46AB712846FEF7FA
:102EB800A9F818F0010F45D0236B5BB3636B4BB3D4
:102EC800204603B0BDE8F08F18F0010F0CBF4FF09B
:102ED8002E084FF04E0819F0020F09D045B10B2209
:102EE8007B1CAA71EB7128465A464146FEF78AF8C0
:102EF80019F0010FE0D0BAF1000FDDD001370C2333
:102F08008AF807705A4641468AF806305046FEF756
:102F180079F8D1E7337FB27E8DF804209B09002130
:102F2800012201A88DF805308DF806108DF80720CC
:102F380023F0B2FD204603B0BDE8F08FCDB288E79C
:102F4800C8B26FE72846FEF7C9FCB5E78C440020F5
:102F5800541D03086C1900209D0D00080348D0F883
:102F68003C3113B100F59A70184770476C1900206E
:102F78000348D0F8203113B100F58C70184770471A
:102F88006C1900200348D0F804310BB1FC30184705
:102F9800704700BF6C1900200348D0F8E8300BB127
:102FA800E0301847704700BF6C1900200348D0F87C
:102FB800CC300BB1C4301847704700BF6C190020E3
:102FC8000348D0F8B0300BB1A8301847704700BF9D
:102FD8006C1900200348D0F894300BB18C30184796
:102FE800704700BF6C1900200248836F0BB1703026
:102FF800184770476C1900200248C36D0BB1543054
:10300800184770476C1900200248036C0BB1383020
:10301800184770476C1900200248436A0BB11C30EE
:10302800184770476C1900200248836803B1184795
:10303800704700BF6C190020F0B53E4C059D00EBB1
:10304800800004EB80046468002C71D03A4E49007B
:103058004FF42040CFB2B060A169090454D460682D
:10306800DFF8E0E047F4903100EA0E0001434FF446
:1030780020406160B06003E0411E002848D0084647
:10308800A1698907F8D54FF42040A262B06003E037
:10309800421E00283CD01046A2695206F8D5274A9D
:1030A8006168DFF8A0E0B06042EA0342174301EA32
:1030B8000E0217436760C3B1013BDBB201332B44F7
:1030C800A0694FF4204210F0040002F1FF3207D14A
:1030D800511C26D0A06910F0040002F1FF32F7D08D
:1030E800626A05F8012B9D42EAD14FF42040B06096
:1030F80002E0431E60B11846A3699B06F9D5202358
:10310800B060E3610120F0BD411E08B10846A3E7A5
:103118000B4A138801339BB24FF0FF311380B16023
:10312800F0BD0749B2600B8801339BB20B80F0BD3C
:103138002046F0BD985F0020CC2300200024000228
:10314800A82E0020009800FC70B50578012D82B0EB
:103158001E460DD0022D02D0002002B070BD1346CD
:1031680041F08001324602B0BDE87040FDF754B826
:10317800044690F90400431CEED00228ECDC134608
:103188000A4661790096FFF757FF02B070BD70B527
:1031980082B06B460622F721FFF7D6FF9DF8012083
:1031A8009DF804309DF800609DF803509DF802409A
:1031B8009DF80500074912011B0142EA063243EA5D
:1031C800053342EA141243EA10134A600B6002B056
:1031D80070BD00BFCC230020F0B585B002AB04461B
:1031E8000093032206231E210020FFF725FF002855
:1031F8003CD09DF808509DF809109DF80A709DF87C
:103208000B209DF80C609DF80D3041EA052142EA3B
:10321800072243EA062309B212B21BB2144D06EE86
:10322800901A07EE102A07EE903AF8EEE66A95ED46
:10323800015AD5ED035A95ED026AB8EEC77AF8EE51
:10324800E77A66EE856A27EE257A67EE867AFDEEDE
:10325800E66ABDEEC77AFDEEE77A16EE901A17EE2B
:10326800102A17EE903A2180A280638005B0F0BD45
:10327800000000202DE9F043322083B004F0A0FACA
:103288000022104611231E21FFF77CFC6023012237
:103298001E210020FFF776FC642004F091FA6846AE
:1032A800FFF79AFF0024DFF85481254626460A27AF
:1032B800012302221E210020FFF764FC322004F0C3
:1032C8007FFA6846FFF788FFBDF902E0BDF90410F0
:1032D800BDF900208E457346A8BF0B469342A8BF90
:1032E800134643454FF0010075440C44164479DBFE
:1032F800FDF7B5FD013FDBD14FF001090022104673
:1033080012231E21FFF73EFCDFF8F0800A27012375
:1033180002221E210020FFF735FC322004F050FA6B
:103328006846FFF759FFBDF902E0BDF90410BDF981
:1033380000208E457346A8BF0B469342A8BF13468C
:1033480043454FF00100A5EB0E05A4EB0104A6EBE5
:1033580002064ADBFDF783FD013FD8D107EE906AEC
:10336800F8EEE76A07EE905AB8EEE77A07EE904A69
:10337800DFED1F5A9FED1F5A1F4EF8EEE77A85EED4
:10338800A66A0022104670231E21C5EE876A85EEC4
:10339800277AB0EEC66AF0EEE66AF0EEC77A86EDF6
:1033A800016AC6ED026AC6ED037AFFF7EBFB20233C
:1033B80001221E210020FFF7E5FB00231846022208
:1033C8001E21FFF7DFFB642004F0FAF9B9F1000FC2
:1033D80004D14FF07E537360B360F360012003B0F3
:1033E800BDE8F0834FF0000988E74FF00009B5E722
:1033F80000406F4601C05E460000002001F0FFFF5C
:1034080000B583B0002000920A466821FFF714FE39
:1034180003B05DF804FB1749174B184A184810B455
:10342800D1F8884044F47004C1F888401C6844F01E
:1034380001041C605C6822405A601A6822F0847299
:1034480022F480321A601A6822F480221A605A68BC
:1034580022F4FE025A60DA6A22F00F02DA621A6B6C
:10346800002410404FF0006218639C608A605DF889
:10347800044B704700ED00E0001002400CC07FF8DC
:10348800CCFC00FF2DE9F04F05462DED028BB0F97D
:10349800080008815FFA80F897B040460C469146CC
:1034A80002F09CFC40B101231A461846628117B00D
:1034B800BDEC028BBDE8F08FA8F10A03E62B00F201
:1034C800E980DFE813F0B503E700E700E700E7006D
:1034D800E700E700E700E700E700E700E700E700AC
:1034E800E700E700E700E700E700E700E700E7009C
:1034F800E700E700E700C703E700E700E700E503A8
:10350800E700E700E700F603E7001D04E700E7002F
:10351800E700E700E7005D04E7006104E7008704CF
:10352800E700E700E7008C019301E7009B01E70053
:10353800E700A401E700AC01E700E700E7007F012E
:10354800E700E700E700E700D501E700F001E70042
:1035580011023702E700E700E700E700E700E700AD
:10356800E7005B02E700B102E700DE02E70036068B
:10357800E7000306E700E700E700E70014062F0569
:10358800E7006A05CB05DD059C04B204CB04E7001F
:10359800D9041205E700E700E700E700B606E700F0
:1035A800E700E700E700E700E7008C069D060E034A
:1035B800E700E700E700E7001E032E03410351037D
:1035C800E700E700E700E700E700E700E700E700BB
:1035D800E700E700E700E700E700E700E700140678
:1035E800E700E700E700E700E700E700E700E7009B
:1035F800E700E700E700E700E7007103E700E700FE
:10360800E700E700E700E700E700E700E700E7007A
:10361800E700E700E700E700E700E700E700E7006A
:10362800E700E700E700E700E700E700E700E7005A
:10363800E700E700E700E700E700E700E700E7004A
:10364800E700E700E700E700E700E700E700E7003A
:10365800E700E700E700E700E700E700E700E7002A
:10366800E700E700E700E700E700E700E700E7001A
:10367800E700E700E700E700E700E700E700E7000A
:10368800E700E700E700E700E700E700E700E700FA
:10369800E700A903B8F1740F58D0B8F1770F47D0F5
:1036A800B8F1F50F00F0F786B8F1760F5CD06968CD
:1036B8002E68A8F121038A1B362B00F25D87DFE80C
:1036C80013F0B4065B075B075B075B075B075B07E9
:1036D8005B07D4065B075B075B075B075B075B075A
:1036E8005B075B075B075B075B075B075B075B07C2
:1036F8005B07A3065B075B075B075B075B075B076B
:103708005B075B075B075B075B075B075B075B07A1
:103718005B075B075B075B075B075B075B075B0791
:103728005B075B075B07E6055B07C4055B073F06AE
:103738002B686A689A421EBF5A1C2A601978A94ADF
:1037480008BF0021204624F019F9ACE62B686A6806
:103758009A421EBF5A1C2A601978A34A08BF002142
:10376800204624F00BF99EE62B685A1C2A601B7829
:10377800002B01F01187102B07BF9C4A92E822000A
:10378800002529462268501C206013702046FEF749
:10379800E8FD29462046FEF7E4FD954B20461968CA
:1037A800FEF7DFFD00212046FEF7F2FD002120464E
:1037B800FEF7EEFD216800204A1C012322601A460C
:1037C800087072E6236800255A1C226029462046A4
:1037D8001D70FEF7C6FD29462046FEF7C2FD0021F2
:1037E8002046FEF7BEFD01231A465EE62168012049
:1037F8000A18226003460246087056E67D4B226886
:103808009978501C2060117021685878D4E70822F4
:1038180079492046FEF777FD01231A4645E62368D5
:10382800764A774D1178774A581C206019701168CC
:103838002046FEF796FD23686F4A591C127A2160CC
:103848001A7029882046FEF7A3FDA9882046FEF7AE
:103858009FFD29892046FEF79BFD00212046FEF7A3
:1038680097FD00212046FEF793FD01231A461CE62A
:103878002368654D591C2A7921601A7023686A7972
:10388800591C21601A7029882046FEF781FD23689B
:10389800AA79591C21601A7069882046FEF778FDBC
:1038A8002168E87988E7594E3378002B3FF4FBAD5F
:1038B800574D0027A846236815F81720591C216082
:1038C8001A7098F8011001EB810101EB810101F2F6
:1038D800EE2189B22046FEF75BFD337801379F421F
:1038E80008F10208E7DBDEE523684A4D01269A194C
:1038F80022601E7022F0B4FE002841F05286464B2A
:103908002268511C21601070226841F2B410511CC9
:10391800185C216041F27811107059582046890AC4
:10392800FEF71FFDA96A20464908FEF71AFD012384
:103938001A46BAE52368394E01255A1C22601D70C3
:103948002368B278591921601A7021F0A9F8236800
:10395800334A34495F1927601870B1F90010B2F979
:103968000000FEF79FFE23685A19226018703188FC
:103978002046FEF70DFD2B462A4696E51FF0D2FAA3
:10398800FF28064601F0168616A9002501F8495DAC
:103998000DF10E008DF80E501CF0EAFD16A800F887
:1039A800485D1CF0D9FD16A800F8405D1CF0C8FD64
:1039B80023685A1C22601E7023689DF80E20591C2B
:1039C80021601A7023689DF80F20591C21601A7015
:1039D80023689DF81020591C21601A7021689DF8F1
:1039E8001800E9E64D6C02083978020834250020F1
:1039F80064250020EC690020A04E0020203500201E
:103A0800B8440020F0690020B42E0020005F002098
:103A18009C850020AC640020CC6D0020546B0020F5
:103A28001468002016680020DFF8948298F80330A4
:103A3800002B01F0A08523680822591C21601A7008
:103A480023680122991821601A7023689B4D591C1C
:103A58002A7921601A702368AA78591C21601A7083
:103A680029882046FEF794FCE9892046FEF790FC59
:103A7800236898F80720591C21601A702168E87893
:103A88009AE68F4E236872798E4D591C21601A7000
:103A98002B682046198CFEF77BFC2B682046D98BB7
:103AA800FEF776FC71892046FEF772FCB189204644
:103AB800FEF76EFC2B682046598CFEF769FC2B68D4
:103AC8002046998CFEF764FCF1892046FEF760FCDD
:103AD800318A2046FEF75CFC2B68216893F82600A3
:103AE8006AE62368764A78491078784A5D1C25602A
:103AF800187023688978581C20601970216890789C
:103B08005AE66E4D2046298AFEF742FC698A20460D
:103B1800FEF73EFCA98A2046FEF73AFC01231A4626
:103B2800C3E422686A4B501C19782060117022681F
:103B38005978501C2060117022689978501C2060B8
:103B480011702168D87837E6604B6249B3F90030C4
:103B580081FB0321DB17C3EBA10189B22046FEF7E5
:103B680017FC01231A46A0E423685B4F591C3A78D6
:103B780021601A703B78002B3FF495AC0025EEB21B
:103B880030462AF065FA23684278591C216030468D
:103B98001A702AF05DFA01892046FEF7F9FB3B7896
:103BA80001359D42EBDB7EE42368DFF850C1591CE8
:103BB8009CF8002021601A709CF80030002B3FF41C
:103BC80072AC464E464D474847490022236816F8CE
:103BD800017F03F1010EC4F800E01F70236815F897
:103BE800017F03F1010EC4F800E01F70236810F88C
:103BF800017F03F1010EC4F800E01F70236811F87B
:103C0800017F03F1010EC4F800E01F709CF800303A
:103C180001329A42DADB46E42B4D2046E989FEF769
:103C2800B7FBA9892046FEF7B3FB01231A463CE4FB
:103C38002E4D28462AF028FD00287FF734AC2B4665
:103C48000544226813F8011B501C9D422060117026
:103C5800F7D128E4264D05F15006287823F0E2FE36
:103C68002368027A591C21601A7023686A78591CE3
:103C780021601A702368AA78591C21601A70236879
:103C8800EA780435591CB54221601A70E5D10AE476
:103C9800184D20462988FEF77BFBA9882046FEF7A9
:103CA80077FB29892046FEF773FB01231A46FFF7A5
:103CB800FCBB114B22681978A3E500BFE849002036
:103CC800004900208C390020D0690020E0690020DC
:103CD8002C3A0020676666667D860020473A0020F9
:103CE800573A0020773A0020673A002078390020B8
:103CF80024350020B844002020350020453A002013
:103D0800AB4D23682A7A591C21601A70A98B20466A
:103D1800FEF73EFB298B2046FEF73AFB698B2046CF
:103D2800FEF736FB2368EA7C591C21601A70A98CBF
:103D38002046FEF72DFBE98C2046FEF729FB236879
:103D4800AA7F591C21601A70236895F82020591CF5
:103D580021601A70698C2046FEF71AFB2368EA7AFC
:103D6800591C21601A70E9682046FEF7FAFA2368A0
:103D78002A7C591C21601A70216895F821001BE5DE
:103D88008B4B2168587D17E58A4B03F15A05226849
:103D98005979501C2060117022681978501C2060D5
:103DA800117022685978501C206011702268997827
:103DB800501C206011702268D978501C2060117046
:103DC800226819790633501C9D4220601170DED19B
:103DD800FFF769BB784D794E05F1300795F9021068
:103DE800774B93F906208A4203F1080301F0FA821F
:103DF8009E42F6D10835AF42F0D1FFF754BB714B64
:103E080020461988FEF7C4FA6F4B20461988FEF73A
:103E1800BFFA6E4B20681978421C01F0010101239A
:103E280022601A460170FFF740BB694D2046298879
:103E3800FEF7AEFA69882046FEF7AAFAB5F904300B
:103E48006449DA1781FB0313C2EBA30399B2204636
:103E5800FEF79EFA01231A46FFF727BB5E4B204662
:103E68001968FEF77EFA5D4B20461988FEF790FA2E
:103E780001231A46FFF719BB594D23682A68591CB4
:103E8800127821601A702B6822689978531C236075
:103E9800002311702A6821681A4401335279481C9A
:103EA800032B20600A70F5D123682A68591C127AFE
:103EB80021601A7023682A68591CD27821601A7008
:103EC80023682A68591C127921601A702B682046C9
:103ED8005989FEF75DFA23682A68591C527A2160CD
:103EE8001A702B682168587866E43E4F00212368D1
:103EF8003A6801EB41005D1C125C25601A703A6853
:103F0800236802445D1C527825601A703B68226859
:103F1800034401319B78501C0A2920601370E6D1B4
:103F2800FFF7C1BA304B9B8AB3F5006F01F23183BA
:103F3800B3F5806F01F25683B3F5007F34BF0127D4
:103F480002272A4D05F10C0655F8041B91FBF7F1E1
:103F5800204689B2FEF71CFAAE42F5D1244D254F12
:103F680005F10C06B5EC010AD7ED087A80EE270AB0
:103F78002BF03AFD81B22046FEF70AFAAE42F1D1A3
:103F88001D4D05F10C0655F8041B204689B2FEF7B5
:103F9800FFF9B542F7D1FFF786BA184D184EDFF88A
:103FA8006880DFF868909FED178A05F120073EE0EA
:103FB800A04E0020802D0020CC4800207C4E002000
:103FC8004C4E0020946B00206E390020BC39002034
:103FD8007039002067666666906B00209C39002067
:103FE800642D00208C390020A05E0020D85E0020BF
:103FF80018490020F05F0020E85E0020F834002017
:1040080028490020000040420C4A00202449002092
:10401800FCEEE77ACDED017ABDF8041020460435B0
:10402800FEF7B6F9BD4206F118063FF43CAA717CCA
:104038000029F3D098F80030D5ED007A012BE7D1AC
:10404800D9F80030DB0441F18C82F5EE407AF1EECC
:1040580010FA41F0D08240F2DC51DFE7A74E337806
:10406800002B3FF420AAA64F002537F8021F204650
:10407800FEF78EF9337801359D42F6DBFFF713BA68
:10408800A04B22681B78A04D511C03F0020321604D
:10409800137023682A7D591C21601A7029682046EC
:1040A800FEF75FF969682046FEF75BF92989204623
:1040B800FEF76EF9E9892046FEF76AF9298A204653
:1040C800FEF766F901231A46FFF7EFB923688F4A0E
:1040D8008F49D0788F4A5D1C25601870236849790C
:1040E800581C206019702168D078FFF765BB00253F
:1040F800DFF84492DFF844B20595049506950795D4
:1041080001214FF6FF7A05E001350B2D01F088817A
:1041180019F9011F4F1C4AFA05F3F5D0DE07F3D54C
:10412800BBF800302B41D807EED506A8FEF7FEFBFA
:10413800EAE700212046FEF72BF900212046FEF78A
:1041480027F900212046FEF723F92368724D00263F
:104158005A1C22601E7023682A68591C92F82C2069
:1041680021601A7023682A68591C92F83620216049
:104178001A7023682A68591C92F8372021601A702F
:1041880023685A1C22601E7023685A1C22601E7005
:1041980023685A1C22601E702B682046598FFEF730
:1041A800F7F82B682046198FFEF7F2F823682A687B
:1041B800591C92F82E2021601A7023685A1C22601C
:1041C8001E702B682046598EFEF7E2F82B682046B1
:1041D800998EFEF7DDF801231A46FFF766B94F4DB1
:1041E80020462988FEF7D4F869882046FEF7D0F8DB
:1041F800A9882046FEF7CCF801231A46FFF755B9DF
:104208002268474B45491878551C2560107022686C
:104218005878551C2560107022689B78501C2060C7
:104228001370C9882046FEF7B3F801231A46FFF732
:104238003CB93C4952232268501C2060137011F885
:10424800013F002BF7D1FFF72EB9731C2B6037788D
:10425800FF2F01F0AF82FE2F01F0FE812846FEF706
:1042680042F895E80C009B1A002B06DD531C2B60C6
:10427800137813B90B2F41F29282242F00F288830E
:10428800294A012322F817001A46FFF70EB9731CB2
:104298002B603078032800F27B83431E234E244989
:1042A800DBB203EB430306EB430308705E78002898
:1042B8003FF4F9A8531EDBB2B34240F069830022F1
:1042C800C1F80620C1F802208A725BB1581C2B681D
:1042D80008444A1C01332B6013F8011C02F8011F23
:1042E8009042F7D1134B1B78002B3FF4DCA820F049
:1042F8001FFA01231A46FFF7D8B800BF005F002055
:10430800F6820020406B0020786B0020D0690020E6
:104318002C6D0020E06900208C39002034470020F3
:10432800C86900207C1D0308D86A0020642103089E
:1043380000650020E4440020AC1D03087639002005
:10434800731C30462B6010F8377B0DF117020133D0
:104358002B6013F8011C02F8011F8342F7D1DFF824
:10436800109299F80050002DFDD1DFF808A201261F
:10437800042089F800601DF049FEDAF80000FDF716
:10438800ADFA734B28461E701DF06AFD28461DF0D5
:1043980067FD09201DF064FD38461DF061FD06AF7C
:1043A8003D460DF14E08EE1BF6B20A201DF058FDF1
:1043B80030461DF055FD15F8016B0B201DF050FD22
:1043C80030461DF04DFD0020FCF749FDA845EAD117
:1043D80008201DF045FDA0201DF042FDA0201DF085
:1043E8003FFD00201DF03CFD10F02005F6D1DAF865
:1043F8000000FDF778FA02201DF008FE012389F875
:1044080000501A46FFF751B8731C2B6033780A2BFB
:1044180001F011812846FDF771FF2846FDF76EFF70
:104428002846FDF76BFFFFF73EB83346721C2A603B
:10443800484F13F8022B7A702B6073783B70F31C8B
:104448002B60B378BB702846FDF74DFF2B68388189
:104458001A46591C296012F8021B79712A605B7888
:10446800BB7101231A46FFF720B8731C2B60337801
:104478000A2B01F0BA80502B40F057872846FDF7E9
:1044880032FF354E30802846FDF72DFF012370801E
:104498001A46FFF70AB82B686A689A4241F0EF801B
:1044A8002E4BFF221A704FF000082D4D09F008FC22
:1044B800414620222B4885F800802DF061FB8DF8BD
:1044C80018809DF81830072B01F2AA81264F254E37
:1044D80042469DF8183003EB430307EBC3035B7CAC
:1044E800E3B19DF8183003EB430307EBC303202126
:1044F8005B699BB19DF8183003EB430307EBC303DB
:10450800586946F82200FCF74EFF2B7856F823002E
:10451800FDF7E9F92A780132D2B22A709DF81830ED
:104528000133DBB28DF818309DF81830072BD0D93D
:104538002368591C21601A70B9F1000F3EF4B3AF1B
:104548000A4BC9F8003001231A46FEF7AEBF00BF78
:104558001A5A0020446B0020783C002030240020A8
:104568003F450020D08400202849002011C20108BE
:10457800115A0020B8480020A8F10B00EF2800F2DB
:10458800078201A353F820F0B9520008994900089E
:10459800994900089949000899490008994900086B
:1045A800994900089949000899490008994900085B
:1045B800994900089949000899490008994900084B
:1045C800994900089949000899490008994900083B
:1045D800994900089949000899490008994900082B
:1045E8009949000899490008695200089949000842
:1045F8004F520008994900082D52000899490008AF
:104608009949000899490008055200089949000885
:10461800AB510008994900089949000899490008D0
:1046280099490008994900089D51000899490008CE
:10463800495100089949000851490008994900085A
:10464800994900089949000899490008AF340008B9
:1046580099490008915300089949000899490008A8
:104668004353000899490008F15200089949000885
:10467800994900089949000899490008994900088A
:10468800994900089949000899490008AD5300085C
:1046980099490008FB500008994900089949000801
:1046A800C350000899490008994900089949000829
:1046B800994900089949000899490008994900084A
:1046C8000550000899490008EF4E0008994900086C
:1046D800854E000899490008E34D000899490008EB
:1046E800BB4D0008A54F00089949000899490008E2
:1046F800994900089949000899490008994900080A
:1047080099490008994900089949000899490008F9
:1047180099490008994900089949000899490008E9
:1047280099490008994900089949000899490008D9
:1047380099490008994900089949000899490008C9
:1047480099490008994900089949000899490008B9
:1047580099490008994900089949000899490008A9
:104768009949000899490008994900089949000899
:104778009949000899490008994900089949000889
:104788009949000899490008994900089949000879
:104798009949000899490008994900089949000869
:1047A8009949000899490008994900089949000859
:1047B8009949000899490008994900089949000849
:1047C8009949000899490008994900089949000839
:1047D8009949000899490008994900089949000829
:1047E8009949000899490008994900089949000819
:1047F8009949000899490008994900089949000809
:1048080099490008994900089949000899490008F8
:1048180099490008994900089949000899490008E8
:1048280099490008994900089949000899490008D8
:104838009949000899490008634F000899490008F8
:104848008F4F0008994900089949000899490008BC
:1048580099490008994900089949000899490008A8
:104868009949000899490008994900089949000898
:104878009949000899490008994900085F4D0008BE
:104888000D4D0008D54C000899490008E34B000875
:10489800C94B0008AD4B000899490008934B000824
:1048A8002D4B0008054B0008F34A0008AF340008F8
:1048B80099490008AF4A0008994900089949000831
:1048C8008D4A00085F4A00084B4A0008234A00083E
:1048D80099490008014A0008D5490008BD4900085F
:1048E8009949000899490008994900089949000818
:1048F8009949000899490008994900089949000808
:1049080099490008994900089949000899490008F7
:104918009949000899490008A349000899490008DD
:1049280099490008AF3400089949000899490008D6
:1049380099490008994900089949000899490008C7
:1049480099490008D94A00080723B2FBF3F3C3EBDF
:10495800C301521A1CD1DBB203F1FF385FFA88F8A1
:10496800002B3EF4A0ADDFF8109308F101081746BC
:10497800731C2B60C04B96F90010002693F9022097
:104988008A4203F1080300F0D3860136062EF5D1DA
:104998004FF0FF331A46FEF788BD2846FDF7A3FC03
:1049A800B64EF0812846FDF79EFC0123B0811A46D9
:1049B800FEF77BBD2846FDF796FCB14900EB800069
:1049C800420001230A801A46FEF76FBD3246731C67
:1049D8002B60AC4B12F8021B19702A6072785A705F
:1049E800F21C2A60B2789A70321D2A60F278DA7066
:1049F80001231A46FEF759BD2846FDF774FCA24E5E
:104A080030822846FDF76FFC70822846FDF76BFC64
:104A18000123B0821A46FEF748BD3346721C2A604D
:104A28009A4A13F8021B11702B60944A737893709A
:104A3800F31C2B60924BB2789A7001231A46FEF74A
:104A480034BD934B934918684E222DF074F8012316
:104A58001A46FEF72ABD3246731C2B608E4B12F89D
:104A6800021B19702A6072785A70F21C2A60B27898
:104A78009A702846FDF737FC884A0123D0801A46E9
:104A8800FEF713BD2846FDF72EFC844E30802846DD
:104A9800FDF729FC70802846FDF725FC0123B0802E
:104AA8001A46FEF702BD7E4F3B78002B3EF4FBAC66
:104AB800DFF8108200262846FDF715FC18F0F2FAF8
:104AC8003B78A8EC010A01369E42F4DBFEF7EBBC0A
:104AD800744B1B78DB073FF55BAF01F01FFD01F05E
:104AE800F9FE01231A46FEF7E0BC2846FDF7FBFB5A
:104AF8006D4A012310801A46FEF7D7BC731C2B6041
:104B08003078060600F1FB86664B1B78DD073EF51C
:104B1800CAAC032828BF002001F0C4FC01231A46B0
:104B2800FEF7C3BC731C2B60284696F80090FDF76F
:104B3800C3FB80462846FDF7BFFB07462846FDF71E
:104B4800BBFB06462846FDF7CEFB2846FDF7CBFB08
:104B58002846FDF7D3FBB9F1000F00F0BB86B9F189
:104B6800100F7EF4A0AC514BC3F800805F600EB10B
:104B78004F4B1E604F49504B0222081F1A701EF0FF
:104B880091F901231A46FEF790BC464B1B78D807CB
:104B98003EF589AC01F0A2FC01F09CFE01231A4607
:104BA800FEF783BC3F4B1B78DA073EF57CAC4349E4
:104BB8000A78012342F004020A701A46FEF775BC0F
:104BC800384B1B78D9073EF56EAC3D4A4FF4C87197
:104BD800012311801A46FEF768BC092A7FF7D8AE70
:104BE800DFF8E4803346721CD8F800702A6013F8A6
:104BF800022B3A702B607378BB70F31C2B60B37870
:104C0800642BA8BF6423321D7B712A60F378642B60
:104C1800A8BF6423721DBB712A603379FB71B31D71
:104C28002B607379642BA8BF6423F21D3B722A6042
:104C3800B379FB7006F108032B60F3793B712846C2
:104C4800FDF751FB6A682B687881D11A00290CDDC1
:104C5800591CD8F800002960521A002A19784172A4
:104C680003DD9A1C2A605B78437027F0A9FD0123B5
:104C78001A46FEF71ABC00BFCC480020D0690020B5
:104C8800E06900202C3A0020E84900200049002073
:104C98008C390020103C0308C869002034470020E4
:104CA8007D8600200A86002040250020342500202B
:104CB8006425002038250020BE390020406B0020E4
:104CC800F885002088460020642D0020BB4B18681A
:104CD800F31C02462136991E296013F8031C117033
:104CE800591E296013F8021C51702B6013F8011C1F
:104CF80091700333B34202F10302ECD118F0A2F829
:104D0800FEF7D1BB731C2B603378AD4A002B00F043
:104D18008A85137843F00203B11C1370A94F2960E8
:104D280073783B752846FDF7C7FA38602846FDF7C3
:104D3800C3FA78602846FDF7D6FA38812846FDF789
:104D4800D2FAA149F8810A78012342F002020A70D6
:104D58001A46FEF7AABBC2F34706122E3FF618AE54
:104D6800BEB116AB0DF1160803EB46094746A9F18B
:104D780042092846FDF7B7FA27F8020FB945F8D1D6
:104D8800924B38F8022F23F8022F4745F9D1112EFC
:104D980009D88F4A7300023B13440021223223F8BA
:104DA800021F9A42FBD18B49012213460A70FEF773
:104DB8007CBB3346721C2A60874A13F8021BD170E9
:104DC8002B60864A73785371F31C2B60844BB2783E
:104DD800DA7001231A46FEF768BB2846FDF783FA06
:104DE8002846FDF780FA2846FDF77DFA2846FDF7A4
:104DF80085FA2B68714F1946581C3A68286011F8D3
:104E0800020B82F82C002960597882F83610D91CD8
:104E180029609B7882F837302846FDF76FFA2846D4
:104E2800FDF76CFA2846FDF769FA28463E68FDF753
:104E38005AFA708728463E68FDF755FA2B686A6863
:104E48003087D11A01290ADD591C3A6829601B7874
:104E580082F82E302846FDF751FA2B686A68D31A73
:104E6800032B09DD28463E68FDF73DFA7086284683
:104E78003D68FDF738FAA88638683FE7731C2B6051
:104E88004E4FDFF87481337888F8053028463E683D
:104E9800FDF729FA308428463E68FDF724FA6A6847
:104EA8002B68F083D11A072900F3CD84D11A03297E
:104EB80000F34285D21A002A05DD591C3A68296098
:104EC8001B7882F8263001F067FC19F0F9FF454B92
:104ED80038681B68002B00F0AB8417F0ADFC012389
:104EE8001A46FEF7E2BA3346721C2A60DFF80881D8
:104EF80013F8022B88F802202B603B4A7378137052
:104F0800F31C2B60394FB3783B71331D2B60F3785A
:104F1800092BA8BF09232846BB70FDF7E4F92B68C5
:104F28006A683880D11A012905DD2846FDF7DBF9C2
:104F38002B686A68F8819A4240F00C8501F02CFCD5
:104F48002B686A689A423EF4AEAA5A1C2A601B78FB
:104F5800FB7001231A46FEF7A8BA3346721C2A6072
:104F680013F8027B2B60F31C70782B60B178002F4C
:104F780000F0DC84012F7EF496AA09F023FF3B465B
:104F88003A46FEF792BA1A4E002328463360FDF7D8
:104F980093F9012330601A46FEF787BA154B1B7840
:104FA80013F001017FF4F4AC731C2B60307809F026
:104FB8004FFE01231A46FEF778BA00BF8C3900204D
:104FC800406B0020786B0020BC390020D68300207D
:104FD800D8830020FC830020D06900202C6D00209D
:104FE800E06900201C350020C4690020E849002041
:104FF800742D00200A860020004900202846FDF76D
:1050080072F9C70800F00700461C1DF08BFF013736
:10501800FF28FFB23EF447AA16A9002301F8493D2C
:105028000DF10E008DF80E301BF0A2FA9DF80E302F
:10503800BB4203D19DF80F30B34203D03146384606
:105048001DF05DFF2B686A68D21A012A7EF72BAA29
:105058005A1C16A82A6000221E7800F8482D1BF05A
:105068007BFA9DF81030B3420AD0BA4B1B683BB1AB
:105078009A79B24204D31B681B690BB13046984732
:105088002B6816A85A1C2A6000221D7800F8402DAB
:105098001BF056FA9DF81830AB423EF404AAAD4B0B
:1050A8001B68002B3EF4FFA91B685B69002B3EF4CC
:1050B800FAA928469847FEF7F6B9A74B1B78012BA3
:1050C8003EF6F1A93246731C2B60A44F12F8023B3E
:1050D800BB70F31CC91A2A60012972782B6040F34F
:1050E80019842846FDF7FFF8012338801A46FEF791
:1050F800DCB9731C2B6096F80080B8F1110F3FF6ED
:1051080047ACB31C2B60964F737807F818302846C5
:10511800FDF7E9F840F6CA039842A8BF184640F2DE
:10512800EE23984207EB4807B8BF18460123A0F2C0
:10513800EE211A46192091FBF0F17970FEF7B5B906
:10514800731C2B6033780E2B3FF622ACB21C2A60FE
:10515800707803283FF61CAC8249062202FB03F252
:105168008B18F71C58712F60B0788854321D2A604C
:10517800F2785A70721D2A6032799A70B21D2A60CC
:105188007279DA70F21D2A60B2791A7101231A460F
:10519800FEF78BB9731C2B60734B32785A75FEF788
:1051A80082B9731C704F2B6033783B722846FDF729
:1051B8009AF8B8832846FDF796F838832846FDF70D
:1051C80092F82A687883531C2B601278FA746A68FC
:1051D800D31A032B00F35F832B68D11A052900F338
:1051E8004A83D21A002A7EF75EA95A1C2A601B78C5
:1051F80087F8213001231A46FEF757B9731C2B6034
:105208005A4832780270C91A00297EF74CA9B31C93
:105218002B607278003218BF0122012342701A46AF
:10522800FEF743B92846FDF75EF8514E3060284630
:10523800FDF759F870602846FDF755F80123B0606E
:105248001A46FEF732B94B4E002333602846FDF765
:1052580033F832680123024332601A46FEF725B953
:10526800731C2B603778132F3FF692ABB31C2B605F
:10527800707822F0BDFB00283FF48AAB3E4B0278E1
:1052880003F82720F21C2A6003EB8703B2785A70D0
:10529800321D2A60F2789A70721D2A603749327975
:1052A800DA70086827F01AFA01231A46FEF7FDB8E3
:1052B8003349102A13464FF0000228BF10230A6012
:1052C8004A608A60CA600A74002B3EF4ECA82A6817
:1052D8000139134401322A6012F8010C01F8010F58
:1052E8009342F7D1FEF7DFB8731C2B601F4B32785F
:1052F800204F1A7000233B602846FCF7DDFF2A6820
:105308003B6819491A4E0343501C3B6028601378C8
:105318000B722846FCF7E7FF30602846FCF7E3FFEE
:1053280070602846FCF7DFFFB0602846FCF7DBFF1B
:105338002846FCF7D8FFFEF7B6B8124B06F108026C
:1053480001362E6016F8011C03F8011FB242F7D18E
:10535800FEF7A9B8E04E002075370020546B0020F6
:105368009C850020802D0020A04E002020350020A4
:10537800B8440020F0690020243500208C39002032
:10538800783900209F4E00203346721C2A60C44A98
:1053980013F8021B91702B607378537001231A461F
:1053A800FEF783B83346721C2A60BE4F13F8022BEF
:1053B8003A712B6073787B712846FCF794FF2B6851
:1053C80038805A1C2A601B78BB712846FCF78BFF73
:1053D8002B6878805A1C2A601B78FB7101231A46B7
:1053E800FEF763B823685A1C226019702988204682
:1053F800FCF7CEFF2368EA78591C21601A702368ED
:105408002A79591C21601A702368AA79591C2160CD
:105418001A7023686A79591C21601A70FEF7EABC71
:10542800DFF8C4A200254FF008090135C5F12002B4
:1054380009FA02F2A5F120032AFA05F6164329FA19
:1054480003F31E43252D06F001024FF000030BD095
:105458001343EAD0E8B227F03BF90028E5D0294603
:1054680006A8FDF763FAE0E78F4B1B78DA0700F12F
:10547800A98000258D4E2F4602E00135252D0DD03F
:1054880029463046FDF761FA0028F6D0294606A8D5
:10549800FDF75BFA00285FD10137EEE7844B854DB5
:1054A800B3F850102046FCF773FF834B1988204649
:1054B80089B2FCF76DFF814B1A68530103F0200194
:1054C800C2F340030B43C2F3800143EA4103C2F332
:1054D800C00143EA8103C2F3401143EAC10102F06B
:1054E800100211432046FCF753FF04A9042220466A
:1054F800FCF709FF23682978714A581C2060197045
:1055080011886429A8BF64212046FCF741FFB8F13F
:10551800960F5CD000212046FCF73AFF2168B7F1CE
:10552800190348BFA7F11203A3F3C4034A1C22605E
:1055380020461A460B7005A9FCF7E5FE2368614A68
:10554800581C10212060197011882046FCF709FFAB
:1055580001231A46FDF7A9BF394604A8FDF7E6F965
:105568009AE7F4EEC87AF1EE10FA80F206814FF469
:105578007A71FEF753BD236898F80210524A581CF6
:105588002060197023681278591C21601A70FEF780
:105598005CBA0827FEF7D5BC4C4A92E82200FEF711
:1055A800F1B895F824204A4B002A40F0B8803046DC
:1055B800FEF7A6B921680123CA1822601A460870A6
:1055C800FDF773BF069B43F00103069351E7236879
:1055D8000322591C21601A7023686A78591C2160BB
:1055E8001A709BE70427FEF7ACBC2846FCF77BFE45
:1055F800384EFEF747BFF4EEC87AF1EE10FA3EF5E2
:105608002AAD9FED357AF4EEC77AFDEEE77AF1EE32
:1056180010FA17EE901A00F2F4806FF4F97330392B
:1056280003FB01F140F2E73391FBF3F101F2DB51A7
:1056380089B2FEF7F3BCB31C2B60284B72781A7042
:10564800F21C2A60B2785A70321D2A60F2789A7079
:1056580001231A46FDF729BFB31C2B607678022E6A
:105668003FF696A92846FCF73EFE1D4A02EB460285
:105678004FF0FF33A2F85C001A46FDF716BF5A1C1C
:1056880019462A60174811F8022B027029605B78C6
:105698004370042A2AD9FF2A7EF48CA8FEF703BF98
:1056A800EC690020B42E00200A860020AC6A002095
:1056B8005400002090390020A82E0020B46B002050
:1056C800AC2E0020B86B0020C4690020003A0020EE
:1056D800CC6D0020C069002000E0824449360020DB
:1056E800D86A00203024002090E33FF49E490978CE
:1056F800994205D8022A7EF45DA8FF2B7EF45AA8A9
:1057080022680123D11821601370B9F1000F3DF40C
:10571800CAAE964AC9F800201A46FDF7C6BE59789F
:10572800022968D003290CBF04203046FEF7E8B8E8
:1057380009EBC60A28468AF80210FCF7D4FD2B6844
:1057480029F836001A46591C296012F8021B8AF8F3
:1057580003102A605A788AF80420DA1C2A609A789A
:105768008AF806201E1D2E600137DB788AF805307E
:10577800B8457FF4FDA8FDF796BEFDEEE77A40F246
:10578800E73317EE901A303903FB01F140F2CF737B
:1057980091FBF3F101F2E93189B2FEF73FBC744B9A
:1057A80000301F4418BF0120012387F84A001A4619
:1057B800FDF77BBEB31C2B606E4B72781A70F31C1E
:1057C8002B606B4FB37887F85B30331D2B60F37811
:1057D80087F85A302846FCF786FDA7F85600284671
:1057E800FCF781FD2846FCF77EFD0123A7F8580049
:1057F8001A46FDF75ABE042A34BF02200320FEF7DA
:105808007FB840F2F313A1F5836103FB01F140F285
:10581800E73391FBF3F101F2DD5189B2FEF7FEBBEC
:105828004246FEF785BE137803F0FD03FFF774BA0E
:10583800514B524A524853491A60012302600A6088
:105848001A46FDF732BE2846FCF74DFDA8F80A00B7
:105858002846FCF748FDA8F80C0028463E68FCF7E7
:1058680042FD708428463E68FCF73DFD2B686A6857
:10587800B084FFF71BBB5A1C2A601B78FB722846B2
:10588800FCF71AFD2B68F8605A1C2A601B783B74D9
:105898002B686A68A5E42846FCF725FDB8842846E5
:1058A800FCF721FD2B686A68F884D11A03297FF771
:1058B80094AC1A46591C296012F8021BB9772A6061
:1058C8005B7887F820302846FCF70DFD2B686A685E
:1058D800788482E42C4B1020C3F800805F6007F0C6
:1058E800F5FC2A4A137843F001031370002E3DF4A7
:1058F800DAAD274A012316601A46FDF7D6BD00F037
:105908007F00032828BF002009F078FA01231A46EF
:10591800FDF7CBBD1F4BB0781988012311FB02F1AD
:105928001A4691FBF0F13980FDF7BFBD17F002F977
:1059380001231A46FDF7B9BD2846FCF7D4FCA8F8A0
:105948000E002846FCF7CFFC2B686A68A8F8100000
:10595800FFF7B0BA5A1C2A601B78003318BF01231E
:1059680088F80730FFF7EABA7D860020255D000831
:10597800D86A0020C048002044450020C30600081B
:105988009845002000460020003A0020406B002087
:10599800642500201468002038B50B4C23688BB1AF
:1059A8005A68821A002A054604DA0CE05A68AA1ACC
:1059B800002A07DB9A68226018461A68904723680D
:1059C800002BF3D138BD38BD6034002001231021ED
:1059D8001122417042710370037170472DE9F04143
:1059E8000B78057BDB43DFB200F1130200F11D03E6
:1059F80002F8015F9342FBD1DFF890E000F1270144
:105A0800002203F8012F9942FBD114210524002616
:105A180047FA04F303F00103002B1E4414BF4FF0B0
:105A280019084FF00A0814F0010FF6B214BFAC467B
:105A38004FF0000C0023CA1810FA82F201334345D4
:105A480082F814C0F7D15A1E92B20132013C8B1869
:105A5800621C9BB201D01946DAE716F0010F14BF99
:105A680019240A240022991810FA81F10132A2425D
:105A78000D75F8D113449BB25A1C0344002192B20D
:105A88001975AEF800200261BDE8F08134240020C9
:105A98002DE9F04FDFF890A0BAF802300B3383B04D
:105AA8001FFA83F901F1060B4FF001084FF0000CC3
:105AB800002711F801EB3E464C460122A4F10B03E6
:105AC8009BB2019105E001339BB2017B29759C4291
