:020000040800F2
:1000000000000110F15A04081DD10308DD31010878
:10001000F55B0408F55B0408F55B040800000000CC
:1000200000000000000000000000000065D7030889
:1000300061D70308000000005DD70308754B010875
:10004000F55B0408F55B0408F55B0408F55B040840
:10005000F55B0408F55B0408E5A6020811A8020890
:10006000D5A7020899A702085DA70208FDA5000808
:10007000EDA50008DDA50008CDA50008BDA5000878
:10008000A9A5000895A50008F55B0408F55B040820
:10009000F55B0408F55B0408F55B040821A702087A
:1000A000D941010849420108F55B04085942010899
:1000B00039420108294201081942010839BD0008E6
:1000C0003FBD00082DBD000833BD0008F55B0408E6
:1000D000F55B0408D19C0208319C0208414D0108DF
:1000E000A9A60208F55B040821E10308F55B0408F2
:1000F000E9410108F55B0408F941010881A5000800
:10010000F55B0408F55B040809420108F55B040887
:10011000A14C0108014C0108DD050308C1050308D5
:100120006DA5000859A5000845A5000831A50008DF
:100130001DA50008F55B0408F55B0408F55B0408E1
:10014000F55B0408F55B0408F55B040821D103089E
:1001500009A50008F5A40008DFA40008F55B040861
:1001600021BD000827BD0008F55B0408F55B040805
:10017000F55B0408F55B0408F55B0408F55B04080F
:08018000F55B0408F55B0408BF
:0801880088560400010000008C
:1001900016000800A4290020BC290020000000004F
:1001A0007C0600081D000100AC3000203431002026
:1001B000000000008406000827000400CC30002066
:1001C00038310020000000008606000801200800E9
:1001D0004437002070370020000000008A06000825
:1001E0001A0008002837002078370020000000009F
:1001F0009206000801010400C0370020F44F0020DF
:100200000000000000000000080209001E4F00204E
:10021000F84F002000000000859A020806020C003A
:10022000944F00200450002000000000199C020898
:1002300007020200B84F002010500020000000000C
:100240009A060008FF010100DC4F00201450002036
:10025000000000009C06000802000C00A04F0020D7
:10026000185000200000000000000000F701060008
:10027000184F002024500020000000009E060008B7
:100280002C001000485600203856002000000000C6
:10029000815902082B0024007C560020585600206B
:1002A000000000005159020829005000705500203C
:1002B000A0560020000000000000000003123300E0
:1002C000DB590020A859002000000000A406000807
:1002D00025005A00F45800204E590020000000006C
:1002E00000000000F6110C00E8580020DC58002047
:1002F00000000000D806000815007000FC57002020
:100300006C58002000000000000000002A0060007F
:100310003C5700209C57002000000000FDE601082B
:1003200000020500685A0020F85D0020000000006F
:10033000000000001E000400705A0020005E002033
:1003400000000000E406000822000C00105D002000
:10035000045E002000000000E80600080E20EA000D
:10036000905E00202C6000200000000069E701087A
:1003700013000400C05F002018610020000000008E
:10038000F4060008020103007B5E00201C610020CF
:10039000000000007D1202080A020A002C670020FB
:1003A0003C67002000000000F806000803010A0076
:1003B000A4670020B06700200000000002070008CA
:1003C0000400800004890020388A0020000000001A
:1003D00000000000F9010400746B0020B88A0020BE
:1003E00000000000759A0208FD0124004C6B0020FB
:1003F000BC8A002000000000059A020806001600D2
:10040000BC670020E08A00200000000089E70108A6
:100410000B201000608E0020F88E002000000000ED
:100420000C0700081F000E008C8C0020088F002095
:10043000000000001C07000805020100748C002069
:10044000188F0020000000002A0700081400020096
:10045000AC92002054930020000000002C070008FC
:1004600010000300B8950020C49500200000000093
:100470002E07000828001000A8950020C89500202D
:100480000000000045670308230010009895002035
:10049000D8950020000000005D67030819000500E2
:1004A00090950020E8950020000000003207000829
:1004B000F81101008C950020F0950020000000004C
:1004C000380700080001040088950020F4950020FA
:1004D000000000003A070008FA01020060980020BE
:1004E0009898002000000000B12E010802020300CD
:1004F000489800209C9800200000000000000000A8
:100500000C02010038980020A09800200000000094
:100510003E070008FE0109001C980020A498002056
:1005200000000000912E0108FB01010044A90020F9
:1005300008AA002000000000892E0108FC01090023
:1005400010A800200CAA002000000000552E010871
:100550000A101200E4A7002018AA002000000000E2
:100560004007000834001000349F00202CAA00200F
:100570000000000025E7010812200C00249F002045
:100580003CAA0020000000005207000818102C00B0
:10059000A49E002048AA0020000000002567020851
:1005A0000D004400D09E002074AA0020000000002E
:1005B000C11202080902010064BD0020BCBD002078
:1005C000000000005E0700080C00240004BD0020AD
:1005D000C0BD002000000000551202080102050005
:1005E000F8BC0020E4BD002000000000E5E20308A4
:1005F0001B00F400F4BD002098CC00200000000097
:1006000039B002080E020200D4BF00208CCD0020B9
:1006100000000000600700082F00110082CC0020BD
:1006200090CD0020000000006207000803000100D8
:1006300058CF002060CF0020000000000000000024
:100640000510060084D0002058D2002000000000D1
:1006500074070008F5216C0018D0002060D200203B
:1006600000000000F9F9030826000E00DCD200208B
:0C067000CCD2002000000000BD2C0408CB
:10067C00C409000019012828000020030000E80329
:10068C006400040A00017E05EA05B4053200013C51
:10069C0000003D0100000000000000000000000010
:1006AC00000000000000000000000000000000003E
:1006BC00000000000000000000000000000000002E
:1006CC00000000000000000000000100000000001D
:1006DC00000000000000000000000100C800141E13
:1006EC00010064002C0128004804040000004A01A9
:1006FC00B400D6010000040101006C1600000000DB
:10070C002B21231E64010100000001000A012900B5
:10071C0000000000000001000000000500000000C7
:10072C000300000105000000280100000400B300D4
:10073C000000010000300100005A00000000900190
:10074C002C01C80064000000000100054D4B46342C
:10075C00000013000000000000000000000000007A
:0E076C0000000000000000002000020100005C
:10077A000100000050010000070000000200000014
:10078A000000000000000000010203040607080937
:10079A000101000024AD0408B4DD040800000000D3
:1007AA000000000034AD04083CAD0408000000005D
:1007BA000120000040AD040848AD04080000000014
:1007CA00014000004CAD0408F4C204080000000017
:1007DA000120000058AD040864AD040800000000C0
:1007EA000400000068AD040890F00408000000004E
:1007FA000400000074AD04082CDC040800000000AA
:10080A000100000002010000685E0C00FF00000009
:10081A000000803F0000803F000000000000000050
:10082A00000000000000803F0000803F0000000040
:10083A0000000000000000000000803F00000000EF
:10084A00000000000000000000000000000000009E
:10085A00000000000000000000000000000000008E
:10086A000000803F000000000000000000000000BF
:10087A00010000000C7904080508040000000000CB
:10088A00F4980408A0990408E098040800000000FD
:10089A003879040805080A0000000000F4980408E2
:1008AA00A09904080098040800000000FFFFFFFF59
:1008BA000101D601295302080000000000000000CF
:1008CA000101010059CD020800000000C802002001
:1008DA00E0E604080000000000000000000000003C
:1008EA0000000000B4DD0408000000000000000061
:1008FA004C030020040000008CE604080D000000F0
:10090A003DD50208141B002000000000B4E00408D2
:10091A000D00000065D50208081B00200000000039
:10092A00B4E104080800000000000000FC1A0020DE
:10093A000400000020E104080D00000001CE0208B6
:10094A00F01A002000000000C4E1040803000000BF
:10095A00F9440408E41A002000000000F0E6040844
:10096A0003000000F9440408D81A0020000000001F
:10097A001CDE040801000000000000000000000066
:10098A0000000000000000000E000000000000004F
:10099A000000000000000000E0E60408000000007B
:1009AA00000000000000000000000000B4DD0408A0
:1009BA0000000000000000004C03002004000000BA
:1009CA0038E604080300000051D30208CC1A0020BC
:1009DA000800000020E104080D00000001CE020812
:1009EA00F01A002000000000C4E10408030000001F
:1009FA00F9440408E41A002000000000F0E60408A4
:100A0A0003000000F9440408D81A0020000000007E
:100A1A001CDE0408010000000000000000000000C5
:100A2A0000000000000000000E00000000000000AE
:100A3A000000000000000000F8E6040800000000C2
:100A4A00000000000000000000000000B4DD0408FF
:100A5A0000000000000000004C0300200400000019
:100A6A0040E6040803000000F9440408201B0020A3
:100A7A00000000001CDE0408010000000000000065
:100A8A000000000000000000000000000E0000004E
:100A9A00000000000000000000000000207000209C
:100AAA00702D7200FA000000010000000100000031
:100ABA000000000000000000881600202D202D2DC7
:100ACA00202D2D2D2D202D2D2D00000000000000A1
:100ADA0000000000000000000000000004DE04081E
:100AEA000CDE040814DE0408000000000000000008
:100AFA000000000000000000E5DD0408040000001A
:100B0A00CBD2020800000000000000001CDE04082E
:100B1A0001000000000000000000000000000000CA
:100B2A00000000000E0000000000000000000000AD
:100B3A0000000000B68900200100C409000000007E
:100B4A00B48900200100C40900000000B289002015
:100B5A000100C40900000000B08900200100C40996
:100B6A0000000000AC8900200100C4090000000058
:100B7A00AE8900200100C40900000000AA890020F3
:100B8A000100C40900000000A88900200100C4096E
:100B9A0000000000265E00200100C80001000000DD
:100BAA00245E00203200307532000000235E0020EF
:100BBA00055A05001E5E002000FF0100225E00208B
:100BCA00010000006C030020205E002002000000EB
:100BDA001CAA04081D5E002000FF0100215E0020FF
:100BEA00010000006C0300201F5E002002000000CC
:100BFA001CAA040800000000000000007403002082
:100C0A007A6700209CFF2C010000000050010020A0
:100C1A000A00000000980408105E0020E0150C1776
:100C2A00000000005201002008000000A0990408FA
:100C3A005101002005000000F4980408125E00200B
:100C4A000200000018980408B05F00200100FF7F2E
:100C5A0001000000AF5F0020020000002498040891
:100C6A00845E00200300000034980408835E00209C
:100C7A000300000034980408825F00200000F40199
:100C8A0001000000805F00200000F4010100000064
:100C9A007E5F00200000F401010000007C5F00205C
:100CAA000000F401010000007A5F002000FF01004B
:100CBA009A5F0020E803D0070A000000985F00202E
:100CCA00006401000A000000945F00200064010033
:100CDA00935F002000640100995F00200064010016
:100CEA000A000000925F0020006401000A00000070
:100CFA00975F0020006401000A000000965F002050
:100D0A00006401000A000000955F002000640100F1
:100D1A000A000000915F002000FF01000A000000A5
:100D2A00905F002000FF01000A0000008C5E002096
:100D3A000000F401010000008A5E00200000F401B6
:100D4A0001000000885E00200000F401010000009C
:100D5A00865E00200000F401010000008C5F002084
:100D6A001400E803010000008A5F0020E8033075E0
:100D7A0001000000895F002000C80100885F002090
:100D8A0000C80100875F002000C80100865F0020BC
:100D9A00006401000A000000855F002000FF0100D6
:100DAA000A000000A55F002000C80100A45F00201F
:100DBA0000C80100A35F002000C80100A25F002054
:100DCA0000C80100A15F002000C80100A05F002048
:100DDA0000C801009F5F002000C801009E5F00203C
:100DEA0000C801009D5F002000C8010048DE040819
:100DFA0000000000000000000000000000000000E9
:100E0A0058DE040809000000000000001804002051
:100E1A000400000060DE0408090000000000000071
:100E2A000C0400200400000004E404080900000087
:100E3A00000000000004002004000000C8AE0408FE
:100E4A000900000000000000F40300200400000074
:100E5A0068DE04080900000000000000E803002022
:100E6A000400000070DE0408090000000000000011
:100E7A00DC0300200400000078DE040809000000FA
:100E8A0000000000D00300200400000080DE0408F7
:100E9A000900000000000000C40300200400000054
:100EAA001CDE040801000000000000000000000031
:100EBA0000000000000000000E000000000000001A
:100ECA00000000000000000094DF04080000000099
:100EDA0000000000000000000000000070D20408BA
:100EEA0007000000000000003C0400200000000091
:100EFA00A4DF0408080000000000000030040020FD
:100F0A0000000000B0DF0408080000000000000034
:100F1A0024040020000000001CDE04080100000078
:100F2A0000000000000000000000000000000000B7
:100F3A000E00000000000000000000000000000099
:100F4A00B8DF0408000000000000000000000000F4
:100F5A0000000000C8DF04080D00000000000000C7
:100F6A007804002000000000D0DF04080D00000013
:100F7A00000000006C04002000000000D8DF040814
:100F8A0007000000000000006404002000000000C8
:100F9A00E0DF04080D0000000000000058040020F3
:100FAA0000000000E8DF04080D0000000000000057
:100FBA004C04002000000000F0DF040807000000D5
:100FCA000000000044040020000000001CDE0408A9
:100FDA000100000000000000000000000000000006
:100FEA00000000000E0000000000000000000000E9
:100FFA0000000000F8DF0408000000000000000004
:10100A00000000000000000070D204080C0000007C
:10101A0000000000285E0020000000000CE0040828
:10102A000C000000000000002A5E00200000000002
:10103A001CE004080C00000000000000605E0020B4
:10104A00000000002CE004080C0000000000000072
:10105A00545E00200000000040E004080C0000007C
:10106A00000000002C5E0020000000004CE0040894
:10107A000C000000000000002E5E002000000000AE
:10108A0054E004080C00000000000000305E00205C
:10109A000000000068E004080C00000000000000E6
:1010AA00325E00200000000070E004080C0000001E
:1010BA0000000000345E00200000000078E0040810
:1010CA000C00000000000000725E0020000000001A
:1010DA0090E004080C00000000000000365E0020CA
:1010EA00000000009CE004080C0000000000000062
:1010FA00385E002000000000A4E004080C00000094
:10110A00000000003A5E002000000000B0E0040881
:10111A000C000000000000003C5E002000000000FF
:10112A00BCE004080C000000000000003E5E002045
:10113A0000000000C8E004080C00000000000000E5
:10114A00405E002000000000D4E004080C0000000B
:10115A0000000000425E002000000000E0E00408F9
:10116A000C00000000000000445E002000000000A7
:10117A00ECE004080C00000000000000585E0020AB
:10118A0000000000F4E004080C0000000000000069
:10119A00565E002000000000FCE004080C0000007D
:1011AA0000000000645E00200000000008E104085E
:1011BA000C00000000000000665E00200000000035
:1011CA0014E104080C000000000000006C5E00201E
:1011DA00000000002CDF04080C00000000000000E2
:1011EA00465E00200000000020E104080C00000018
:1011FA00000000004E5E00200000000028E1040804
:10120A000C00000000000000485E00200000000002
:10121A0034E104080C000000000000004A5E0020CF
:10122A000000000040E104080C000000000000007B
:10123A004C5E00200000000048E104080C00000099
:10124A0000000000505E00200000000090D2040858
:10125A000C000000000000005A5E002000000000A0
:10126A0054E104080C00000000000000525E002057
:10127A000000000060E104080C000000000000000B
:10128A00625E0020000000006CE104080C0000000F
:10129A00000000005C5E00200000000074E1040809
:1012AA000C000000000000005E5E0020000000004C
:1012BA007CE104080C00000000000000685E0020C9
:1012CA000000000084E104080C0000000000000097
:1012DA006A5E0020000000001CDE04080100000015
:1012EA0000000000000000000000000000000000F4
:1012FA000E000000000000000000000000000000D6
:10130A008CE104080000000000000000000000005A
:10131A00000000009CE10408050000000000000035
:10132A00825E0020000000001CDE040801000000AC
:10133A0000000000000000000000000000000000A3
:10134A000E00000000000000000000000000000085
:10135A00A4E10408000000000000000000000000F2
:10136A0000000000B4DD04080000000000000000D6
:10137A002C1B002004000000B0E104080D0000004E
:10138A002DD30208CC040020000000008CE60408DB
:10139A000D00000011CD0208C0040020000000006A
:1013AA00B4E004080D000000F5CC0208B4040020E3
:1013BA0000000000B4E1040808000000000000007A
:1013CA00A80400200400000020E104080D00000029
:1013DA0041CC02089C04002000000000BCE1040883
:1013EA000900000000000000900400200400000032
:1013FA00C4E1040803000000F9440408840400203E
:10140A00000000001CDE04080100000000000000CB
:10141A000000000000000000000000000E000000B4
:10142A00000000000000000000000000C8E10408FD
:10143A0000000000000000000000000000000000A2
:10144A00D8E104080D00000000000000E4040020B8
:10145A0000000000E0E104080A00000000000000AB
:10146A00C45F002000000000ECE104080A0000004C
:10147A0000000000CC5F002000000000F4E1040836
:10148A000A00000000000000D45F002000000000F5
:10149A00FCE104080800000000000000D804002055
:1014AA000000000004E204080400000009D8020851
:1014BA0000000000000000001CDE0408010000001B
:1014CA000000000000000000000000000000000012
:1014DA000E000000000000000000000000000000F4
:1014EA0010E20408000000000000000000000000F4
:1014FA000000000024E204080D00000000000000C3
:10150A00FC0400200000000034E20408040000008B
:10151A00E1D5020800000000000000003CE20408D7
:10152A000D00000000000000F00400200000000090
:10153A0050E2040804000000BDD5020800000000C3
:10154A00000000001CDE040801000000000000008A
:10155A000000000000000000000000000E00000073
:10156A0000000000000000000000000058E204082B
:10157A000000000000000000000000000000000061
:10158A006CE2040807000000000000003805002093
:10159A000000000078E204080800000000000000D3
:1015AA002C0500200000000084E204080800000066
:1015BA0000000000200500200000000090E204085E
:1015CA0008000000000000001405002000000000D0
:1015DA009CE2040808000000000000000805002042
:1015EA00000000001CDE04080100000000000000EA
:1015FA000000000000000000000000000E000000D3
:10160A00000000000000000000000000A8E204083A
:10161A0000000000000000002F030020000000006E
:10162A00F4AD04080B00000000000000B005002023
:10163A0000000000B4E204080B00000000000000F3
:10164A00A405002000000000C0E204080B0000000E
:10165A00000000009805002000000000CCE2040809
:10166A000B000000000000008C05002000000000B4
:10167A00D8E204080B0000000000000080050020EA
:10168A0000000000FCAD04080B0000000000000090
:10169A007405002000000000E4E204080B000000CA
:1016AA00000000006805002000000000F0E20408C5
:1016BA000700000000000000600500200000000094
:1016CA00F8E20408070000000000000058050020A6
:1016DA000000000004E304080B0000000000000002
:1016EA004C0500200000000010E304080800000078
:1016FA000000000040050020000000001CDE040875
:10170A0001000000000000000000000000000000CE
:10171A00000000000E0000000000000000000000B1
:10172A00000000001CE304080000000000000000A4
:10173A00000000000000000030E304080800000078
:10174A0000000000E0050020000000003CE304085F
:10175A000800000000000000D4050020000000007E
:10176A0048E304080800000000000000C805002043
:10177A000000000054E30408080000000000000014
:10178A00BC050020000000001CDE04080100000067
:10179A00000000000000000000000000000000003F
:1017AA000E00000000000000000000000000000021
:1017BA005CE3040800000000000000002C03002085
:1017CA00000000006CE304080B00000000000000A9
:1017DA00280600200000000078E304080B0000003F
:1017EA00000000001C0600200000000084E304083A
:1017FA00070000000000000014060020000000009E
:10180A0090E3040807000000000000000C06002016
:10181A00000000009CE3040807000000000000002C
:10182A000406002000000000A8E3040808000000E5
:10183A0000000000F805002000000000B0E30408E2
:10184A000800000000000000EC0500200000000075
:10185A001CDE040801000000000000000000000077
:10186A0000000000000000000E0000000000000060
:10187A000000000000000000B8E3040800000000B7
:10188A00000000002C03002000000000C4E304084C
:10189A00070000000000000074060020000000009D
:1018AA00CCE3040807000000000000006C060020DA
:1018BA0000000000D4E30408070000000000000054
:1018CA00640600200000000090AE04080700000033
:1018DA00000000005C0600200000000098AE04082A
:1018EA00070000000000000054060020000000006D
:1018FA00A0AE040807000000000000004C0600200B
:10190A0000000000DCE304080700000000000000FB
:10191A004406002000000000E4E304080700000079
:10192A00000000003C06002000000000ECE3040870
:10193A00070000000000000034060020000000003C
:10194A001CDE040801000000000000000000000086
:10195A0000000000000000000E000000000000006F
:10196A00000000000000000000000000D5CF0208BF
:10197A007C060020805E00201B00000044980408BA
:10198A007F5E00200A3201007E5E002001FA01001B
:10199A007A5E002000C80100785E0020E803D007C4
:1019AA00010000004D4154454B46343035000000DB
:1019BA001C5E0020000301001B5E002000030100E2
:1019CA00F9CE0208D5CE0208580700209DCE02089B
:1019DA005DCE0208D007002035CF02081DCF0208CD
:1019EA0084080020EBCF02088DD50208900B002056
:1019FA007DCC020800000000E00B0020E5D70208B9
:101A0A005DD20208BC0C002011D0020800000000C0
:101A1A00700D0020B5D0020885D00208FC0D002008
:101A2A0041D1020889D102089C0E00208E5F002055
:101A3A000103010051D0020825D00208B40F00208A
:101A4A00E5D0020805D6020840100020B9D10208E4
:101A5A0061D6020808110020845F002001030100FA
:101A6A00F4E3040800000000000000000000000089
:101A7A000000000000E40408080000000000000064
:101A8A00281200200000000008E4040807000000F3
:101A9A0000000000201200200000000018E40408E2
:101AAA0007000000000000001812002000000000DB
:101ABA0024E40408070000000000000010120020BF
:101ACA000000000030E404080D00000000000000DF
:101ADA0004120020000000003CE404080300000097
:101AEA00F9440408F8110020000000001CDE040874
:101AFA0001000000000000000000000000000000DB
:101B0A00000000000E0000000000000000000000BD
:101B1A000000000044E40408000000000000000087
:101B2A00000000000000000054E404080A0000005D
:101B3A0000000000C0AC0408000000005CE40408D7
:101B4A000A0000000000000004AD040800000000C4
:101B5A0064E404080A00000000000000A65F0020F8
:101B6A00000000006CE404080A0000000000000005
:101B7A0034120020000000001CDE040801000000EE
:101B8A00000000000000000000000000000000004B
:101B9A000E0000000000000000000000000000002D
:101BAA0074E40408000000000000000000000000C7
:101BBA000000000080E4040803000000F94404085F
:101BCA0068120020000000008CE4040803000000F2
:101BDA00F94404085C1200200000000094E40408A0
:101BEA0003000000F944040850120020000000001D
:101BFA009CE4040805000000000000001A5E0020B2
:101C0A0000000000A4E4040807000000000000002F
:101C1A004812002000000000B0E404080700000099
:101C2A000000000040120020000000001CDE040832
:101C3A000100000000000000000000000000000099
:101C4A00000000000E00000000000000000000007C
:101C5A0000000000BCE404080000000000000000CE
:101C6A000000000000000000D0E4040803000000A7
:101C7A00F94404088C12002000000000DCE4040887
:101C8A0003000000F9440408540100200000000089
:101C9A00E4E4040803000000F94404088012002068
:101CAA0000000000ECE4040803000000F944040802
:101CBA0074120020000000001CDE0408010000006D
:101CCA00000000000000000000000000000000000A
:101CDA000E000000000000000000000000000000EC
:101CEA00F8E4040800000000000000000000000002
:101CFA000000000004E5040807000000ADD6020851
:101D0A00E81200200000000044E10408030000007B
:101D1A00F9440408DC1200200000000010E5040861
:101D2A0003000000F9440408D0120020000000005B
:101D3A0018E5040803000000F9440408C41200204E
:101D4A000000000020E504080700000091D6020800
:101D5A00BC1200200000000024AE040803000000AA
:101D6A00F9440408B0120020000000002CE5040821
:101D7A0003000000F9440408A41200200000000037
:101D8A0038E5040803000000F9440408981200200A
:101D9A00000000001CDE0408010000000000000032
:101DAA000000000000000000000000000E0000001B
:101DBA0000000000000000000000000091CF0208AF
:101DCA004DCF0208F012002029D2020800000000BC
:101DDA00A413002041CE020825CE020830140020A8
:101DEA000000000000000000E414002001D20208F4
:101DFA00C9D602087015002044E504080000000056
:101E0A0000000000000000000000000050E5040887
:101E1A0003000000F94404087C16002000000000BA
:101E2A0058E5040803000000F9440408701600206D
:101E3A000000000088D3040803000000F9440408E5
:101E4A00641600200000000064E504080300000096
:101E5A00F9440408581600200000000070E5040840
:101E6A0003000000F94404084C160020000000009A
:101E7A0078E50408020000007DE002080000000086
:101E8A000000000080E50408020000007DE002086E
:101E9A0001000000000000008CE5040802000000B8
:101EAA007DE00208020000000000000000000000BF
:101EBA000E0000000000000000000000000000000A
:101ECA00165E002088136F1701000000185E0020BC
:101EDA0088136F170000000098E50408000000004E
:101EEA00000000000000000000000000A8E504084F
:101EFA0008000000000000005C1700200400000039
:101F0A00B4E5040808000000000000005017002093
:101F1A0000000000C4E104080400000091D3020894
:101F2A0000000000000000001CDE040801000000A0
:101F3A000000000000000000000000000000000097
:101F4A000E00000000000000000000000000000079
:101F5A00145E002088136F17010000006C8C0020AB
:101F6A0088136F1700000000B9CD020800000000B6
:101F7A0068170020BC5F002001000000B498040824
:101F8A006E8C002001000000C0980408648C0020B8
:101F9A0002000000C8980408FE8900200000000022
:101FAA0000000000FC890020000000000000000082
:101FBA00FA8900200000000000000000F8890020D3
:101FCA000000000000000000F68900200000000068
:101FDA0000000000F489002000000000000000005A
:101FEA00901D00200000000000000000135E002089
:101FFA0002000000D4980408F0E50408000000007C
:10200A00000000000000000000000000A8E504082D
:10201A000800000000000000EC1700200400000087
:10202A00B4E504080800000000000000E0170020E2
:10203A0000000000C4E10408040000008DCD02087D
:10204A0000000000000000001CDE0408010000007F
:10205A000000000000000000000000000000000076
:10206A000E00000000000000000000000000000058
:10207A0000E6040800000000000000000000000064
:10208A000000000010E604080D000000E1D4020878
:10209A001C180020040000001CE604080D000000C3
:1020AA00DDCD0208101800200400000028E604080C
:1020BA000D000000A5D4020804180020000000004A
:1020CA0034E604080300000071D30208F817002060
:1020DA000800000040E6040803000000F944040870
:1020EA00201B0020000000001CDE04080100000084
:1020FA0000000000000000000000000000000000D6
:10210A000E000000000000000000000000000000B7
:10211A0014DE0408000000000000000000000000B7
:10212A0000000000E5DD040804000000ADD3020849
:10213A0000000000000000001CDE0408010000008E
:10214A000000000000000000000000000000000085
:10215A000E00000000000000000000000000000067
:10216A0094E60408000000000000000000000000DF
:10217A00000000004CD504080D000000000000001B
:10218A007C18002004000000A4E6040808000000EF
:10219A00000000007018002004000000B0E60408E7
:1021AA00080000000000000064180020040000007D
:1021BA00B8E60408080000000000000058180020D3
:1021CA0004000000C0E60408080000000000000047
:1021DA004C18002004000000C8E6040808000000AB
:1021EA00000000004018002004000000D0E60408A7
:1021FA00080000000000000034180020040000005D
:10220A00D8E6040808000000000000002818002092
:10221A00040000001CDE04080100000000000000A9
:10222A000000000000000000000000000E00000096
:10223A00000000000000000000000000A5CD020818
:10224A0000000000881800200000000000000000C4
:10225A00001900200000000000000000A019002062
:10226A006A8C002004000000E0980408688C0020B2
:10227A00E0150C1700000000678C00200800000021
:10228A00A0990408668C002005000000F498040850
:10229A000000000000000000F01900202D202D2D64
:1022AA00202D2D2D2D202D2D2D2D0000000000007C
:1022BA000000000000000000000000000000000014
:1022CA000102030401020304060708090060024030
:1022DA001060024000000000000B00000000200017
:1022EA000000000000000000006002402860024078
:1022FA0000000000060C00000000200000000000A2
:10230A00000000000060024040600240000000003F
:10231A00100D000000002000000000000000000076
:10232A00006002405860024000000000160E0000E3
:10233A0000002000000000000000000000600240D1
:10234A007060024000000000200F00000000200022
:10235A0000000000000000000060024088600240A7
:10236A00000000002610000000002000000000000D
:10237A000000000000600240A0600240000000006F
:10238A0030110000000020000000000000000000E2
:10239A0000600240B860024000000000362F0000D2
:1023AA00000020000000000000000000006402405D
:1023BA0010640240000000000038000000004000E5
:1023CA00000000000000000000640240286402408F
:1023DA000000000006390000000040000000000074
:1023EA000000000000640240406402400000000057
:1023FA00103A000000004000000000000000000049
:10240A00006402405864024000000000163B0000CD
:10241A0000004000000000000000000000640240CC
:10242A007064024000000000203C000000004000F0
:10243A0000000000000000000064024088640240BE
:10244A0000000000264400000000400000000000D8
:10245A000000000000640240A06402400000000086
:10246A0030450000000040000000000000000000AD
:10247A0000640240B86402400000000036460000D2
:10248A000000400000000000000000000000803F43
:10249A0009024300020100C03209040000010202DD
:1024AA000100052400100105240100010424020290
:1024BA000524060001070582030800FF090401003C
:1024CA00020A000000070501024000000705810218
:1024DA0040000000FF00000000FFFF0000000000B5
:1024EA00AA550501000001AA550B010000AA5507CB
:1024FA00010000AA550902000000000001000000C6
:10250A00C012AA5503009F0000010101010000004A
:10251A0008000000000000010000000000000000A8
:10252A0000000000E13A0308993A0308394E03080B
:10253A000000000095360308ED3903086D3A0308D8
:10254A00553903080000000000000000893603081E
:10255A00DDCD0308D9CD0308D5CD0308C9CD0308BD
:10256A00C5CD0308D1CD0308CDCD0308EDCD0308B1
:10257A00E1CD030889CF03089DCF030875CF03086F
:10258A0061CF03084DCF03080100000004030904CA
:10259A0012010002020200408304405700020102B5
:1025AA0003010000A5110308911203085D0C03083A
:1025BA00D9360308753B0308E936030805370308CB
:1025CA00C9360308B93603080000000000000000FD
:1025DA00E001080000000101FFFF0000FFFFFFFF0C
:1025EA0001000000BCD20408000000000000000046
:1025FA0091120208A08601000400000000000000F9
:10260A0000000000000000000000000000000000C0
:10261A00000000000000000044E10408DCCD0408CA
:10262A0000000000397B01087D0000000600000060
:10263A000000000000000000000000000000000090
:10264A00000000000000000000000000ACF00408D8
:10265A00000000000000000059390108E8030000EA
:10266A00030000000000000000000000000000005D
:10267A000000000000000000000000000000000050
:10268A00B4F004080000000000000000C9E80108D6
:10269A0010270000030000000000000000000000F6
:1026AA000000000000000000000000000000000020
:1026BA0000000000CCEC040800000000D957020812
:1026CA001D5A0108204E000005000000000000000D
:1026DA0000000000000000000000000000000000F0
:1026EA0000000000000000004CD4040800000000B4
:1026FA0000000000E14D0108102700000100000061
:10270A0000000000000000000000000000000000BF
:10271A00000000000000000000000000C0F00408F3
:10272A000000000000000000212E0108E80300005C
:10273A00050000000000000000000000000000008A
:10274A00000000000000000000000000000000007F
:10275A00CCF00408000000000000000089150208FF
:10276A00204E0000030000000000000000000000EE
:10277A00000000000000000000000000000000004F
:10278A0000000000DCF00408000000000000000067
:10279A0091130208204E0000030000000000000010
:1027AA00000000000000000000000000000000001F
:1027BA000000000000000000ECF004080000000027
:1027CA0000000000BD2E0108400D030003000000B8
:1027DA0000000000000000000000000000000000EF
:1027EA0000000000000000000000000080D3040880
:1027FA000000000000000000793F040810270000D4
:10280A0001000000000000000000000000000000BD
:10281A0000000000000000000000000000000000AE
:10282A00F8CD0408000000000000000089C4020876
:10283A001027000003000000000000000000000054
:10284A00000000000000000000000000000000007E
:10285A0000000000FCF00408000000000000000076
:10286A00A9580108A086010001000000000000002C
:10287A00000000000000000000000000000000004E
:10288A000000000000000000E8CD0408000000007D
:10289A0000000000C957010850C3000001000000F1
:1028AA00000000000000000000000000000000001E
:1028BA000000000000000000000000002CDF0408F7
:1028CA00000000000000000031530108A861000068
:1028DA0001000000000000000000000000000000ED
:1028EA0000000000000000000000000000000000DE
:1028FA0004F104080000000000000000D5EF0308FE
:10290A00A086010001000000000000000000000095
:10291A0000000000000000000000000000000000AD
:10292A000000000054D40408000000000000000069
:10293A003D010108A00F0000010000000000000096
:10294A00000000000000000000000000000000007D
:10295A00000000000000000010F104080000000060
:10296A000000000081FE030810270000010000009B
:10297A00000000000000000000000000000000004D
:10298A0000000000000000000000000088D30408D6
:10299A000000000000000000712F04081A41000026
:1029AA00010000000000000000000000000000001C
:1029BA00000000000000000000000000000000000D
:1029CA00B8D4040800000000000000008550030885
:1029DA0010270000010000000000000000000000B5
:1029EA0000000000000000000000000000000000DD
:1029FA00000000007CEE0408000000000000000057
:102A0A0055D802081A410000010000000000000029
:102A1A0000000000000000000000000000000000AC
:102A2A0000000000000000001CF104080000000083
:102A3A000000000081D00108400D030000000000E2
:102A4A00000000000000000000000000000000007C
:102A5A0000000000000000000000000024F104084B
:102A6A0000000000000000001DD00108400D030016
:102A7A00000000000000000000000000000000004C
:102A8A00000000000000000000000000000000003C
:102A9A002CF1040800000000000000008DC90208A3
:102AAA00A0860100030000000000000000000000F2
:102ABA00000000000000000000000000000000000C
:102ACA0000000000FFFFFFFF5C2300200000000061
:102ADA0000000000000000000000000000000000EC
:102AEA0000000000000000000000000000000000DC
:102AFA0000000000000000000000000000000000CC
:102B0A0000000000000000000000000000000000BB
:102B1A0000000000000000000000000000000000AB
:102B2A000000000000000000000000004300000058
:102B3A00000000000000000000000000000000008B
:102B4A000000000000000000000000004300000038
:102B5A00000000000000000000000000000000006B
:102B6A000000000000000000000000004300000018
:102B7A00000000000000000000000000000000004B
:102B8A0000000000000000000000000043000000F8
:102B9A00000000000000000000000000000000002B
:102BAA0000000000000000000000000043000000D8
:102BBA00000000000000000000000000000000000B
:102BCA0000000000000000000000000043000000B8
:102BDA0000000000000000000000000000000000EB
:102BEA000000000000000000000000004300000098
:102BFA0000000000000000000000000000000000CB
:102C0A00000000000000000000000000935E0408BD
:102C1A006F5E040800000000BFF20408F8DD040833
:102C2A0010B1040810B1040810B1040810B1040866
:102C3A0010B1040810B1040810B1040810B1040856
:102C4A0010B10408FFFFFFFFFFFFFFFFFFFFFFFFB9
:102C5A00FFFF000001004153434949000000000002
:102C6A00000000000000000000000000000000005A
:102C7A0000000000000041534349490000000000E1
:102C8A00000000000000000000000000000000003A
:0C2C9A000000000000000000010000002D
:108000000378407840EA032010FB01F04FF48071C0
:1080100090FBF1F000F30F0000B270472DE9F04F34
:10802000654B664EB3F80AC03468B3F8048087B075
:108030004FEA0C2A05901889B4EB0A0A4FF00002A7
:108040004FF0000565EB020BA0FB0A4500FB0B554A
:10805000E00940EA45604FEA084407198E46D8888F
:108060004FEAE51141EB0208A0FB0A45CDE9027891
:10807000B3F8028000FB0B55200A40EA05604FEA86
:10808000C83410EB04084FEA252141EB02099A8914
:10809000A2FB0A0102FB0B11C20D42EA412212F5BA
:1080A000FA604FEAE15343F10001B0F5FA6FCDE910
:1080B000000171F10001B4465EDA0524A2FB04015F
:1080C00004FB031100FB03F402FB0144DDE902673A
:1080D000A0FB020121444D104FEA3004361B4FEA49
:1080E000900444EA817467EB05078D10B8EB04082F
:1080F00069EB0509DDE9004531484FF0FF31844265
:1081000075EB0101CDE9026723DA40F6AC50121895
:108110004FF000014B4102FB03F1A2FB022303EBF2
:108120004103D900D000101A41EA527163EB0101FA
:10813000341847EB0105CDE902450B24A2FB0401ED
:1081400004FB031149104FEA3000B8EB000869EB5B
:1081500001090AFB0BF3DDE90001AAFB0AAB0BEBFB
:10816000430B4FEADA7242EA4B02801A4FEAEB7392
:1081700061EB0301CDE90001DCF80410A1FB082349
:1081800001FB0933540D5D1544EAC324DDE90223E4
:10819000A21A65EB03031D46D30B059A43EA454338
:1081A00002B11360BEF1000F02D0009BCEF8003088
:1081B00007B0BDE8F08F00BF0093002030250020FD
:1081C00024FAFFFF2DE9F74F6A4CDFF8ACE1238872
:1081D0000091DEF80810B4F90480C3EB21125B00B3
:1081E000C3EBE103B4F9021052435943131308FBE4
:1081F00003F84FEAA83808EBE12101EB8102B1F561
:10820000FA3802F180024FEAE1794FEA222349F17C
:10821000FF39B4F908200193A8FB08AB08FB09F368
:108220000BEB430BA161D31702FB09F108FB031110
:10823000A2FB08230B441F03160347EA1257B4F9A5
:108240000A2002FB0BF1D3170AFB03130546A2FB1E
:108250000A011944020A42EA016292194FEA2123F3
:10826000E6887B41003243F50043A2FB060106FB92
:1082700003114A10CB1752EA03016FD0B4F9106012
:10828000B4F90E00F71706FB0BF10AFB0711A6FB6A
:108290000AAB8B4400FB09F6C11708FB0161A0FB88
:1082A00008898944DEF80C104FEA4846C1F5801E63
:1082B0004FEA494747EAD8371AEB060AB4F90C8067
:1082C00076464BEB070BF71700264FEACE70F907FF
:1082D00016EB0A064FEAC80741EA5E0147EB0B07B7
:1082E00040F6354E861B61EB0707A6FB0E010EFB21
:1082F00007113DF029FAB4F916204E13470B47EA4F
:10830000C14702FB06FED31707FB03EEA2FB0723C0
:108310007344564307FB0366A2FB07233344560E00
:1083200046EAC3163218B4F914604FEA636747EBA4
:1083300001037143F71700FB0717A6FB000139443F
:10834000C60C46EA413692194FEAE147B4F9126089
:108350007B41100A40EA0360320112180DB1120A83
:108360002A60009B13B11A46019B136003B0BDE85D
:10837000F08F00BF14930020302500207047704715
:108380002DE9F041324E334F74893B8AB6F91420FF
:10839000B6F902E0B6F90E80B6F920C01B1B34898D
:1083A0005C43E313B6F912401A44E4020A2594FB35
:1083B000F2F41C44B6F90430F4616543A4F57A6420
:1083C00004FB04F204FB0EFE5C43B6F90C301213FE
:1083D00002FB08F85A4312144FEAEE2E02EB643403
:1083E0000EEBE828B6F900E0F3887E690234A410A9
:1083F00008EB8E0804F5004408FA0CF863434CF2CD
:10840000503208F10208DC0BA6EBA80642FA0CF386
:10841000734353BF5B00B3FBF4F35B00B3FBF4F3B4
:108420001A1202FB02F440F6DE3262430A4C1214C6
:108430005C4302EB2442083502F6CF622D1103EBB8
:10844000221300B1036001B10D60BDE8F08100BFEF
:10845000DC9200203025002043E3FFFF4FF48053DF
:1084600083827047012380F84530704701224821FC
:1084700022F008BB0122582122F004BB3122F42152
:1084800022F000BB044B93F820209201343202F01A
:10849000FC02F42122F0F6BADC9200202E22F42114
:1084A00022F0F0BA4FF40063838270474FF4006308
:1084B00083827047BFF34F8F0549064BCA6802F4A9
:1084C000E0621343CB60BFF34F8F00BFFDE700BFF7
:1084D00000ED00E00400FA0570B4037B04681F2B74
:1084E00008D9203B2021626801FA03F31A421CD10B
:1084F00070BC70472021226801FA03F31A42F7D0BA
:10850000426914495C2000FB021251685689CD680B
:108510000868296821F001012960828992B222EA63
:1085200006028281A36070BC7047426909495C20E1
:1085300000FB021251685689CD680868296821F04D
:1085400001012960828992B222EA06028281E360F7
:1085500070BC7047E46700202B4B1978002951D07C
:108560002A4B30B41C68988800226262A5899A80E0
:10857000284380B20129A08143D09C689889626217
:10858000A589284380B20229A0819A8139D01C692B
:10859000988A6262A589284380B20329A0819A82C1
:1085A0002FD09C69988B6262A589284380B20429E8
:1085B000A0819A8325D01C6A988C6262A589284381
:1085C00080B20529A0819A841BD09C6A988D626232
:1085D000A589284380B20629A0819A8511D01C6BF9
:1085E000988E6262A589284380B20729A0819A8665
:1085F00007D0986B998F42628489214389B2818127
:108600009A8730BC704700BFC46A0020C86A002047
:1086100010B4037B01681F2B09D9203B20224C6832
:1086200002FA03F31C4214D15DF8044B7047202278
:108630000C6802FA03F31C42F6D00C4A406800248E
:10864000147002685DF8044B22F0010202608B6036
:108650007047064A40680024147002685DF8044BB5
:1086600022F001020260CB60704700BF77BF00209C
:10867000F0B5C40022189200AE498B585B689D8A01
:10868000ADB2EEB2F7070A445CD4B70732D5BFF3F8
:108690005F8F167EF6B2012E00F0C780A64D1A8BB2
:1086A000BFF35F8F221801EB8202167E022E00F0CC
:1086B000D580221801EB8202167E032E00F08880FE
:1086C0009A8895F9186092B242F480629A802218D2
:1086D00001EB8202127E013296425BD1AA7E002615
:1086E0006E76002A40F09580204401EB8000002344
:1086F0004375F0BD77074ED416F0400600F0C980F0
:108700008D4D1E8A95F918E0176AF6B207F80E60CB
:108710005FFA8EFE0EF1010C4FFA8CFC177E85F885
:1087200018C00CF103029742664600F01C81221823
:1087300001EB8202127E9445C9D10EF1020676B297
:108740002E76C4E71E887C4D26F400663604360C6F
:108750001E801E88B6B246F480661E80967E002774
:108760002F76002E48D06E7E002E42D0221801EBCC
:1087700082020126127E6E76022A00F0B98022184B
:1087800001EB8202927D42F001021A82204401EB49
:108790008000037EF0BD684D967E0127AF76002EE7
:1087A00073D06E7E002E7BD1221801EB8202527EA6
:1087B000002A00F0A3801A882E7E92B2013642F47D
:1087C000007276B21A802E761A88D205FCD47EE723
:1087D000927E002A3FF474AF6A7E002A3FF470AFA5
:1087E0009A8895F9186022F480621204120C9A801B
:1087F0006DE7D27DFF2AB9D0221801EB8202967D67
:1088000006F0FE061E82D37DFF2BBFD0FF232B7602
:10881000BCE79A8822F4407212042044120C01EB47
:1088200080009A8000234375F0BD927E424D002A5D
:108830003FF435AF6A7E002A3FF431AF1A8822F444
:1088400080621204120C1A80BFF35F8F1A8B1A8891
:10885000AE7692B242F400721A8031E7927E002A1C
:108860003FF427AF6A7E002A3FF423AF1A8895F9B8
:10887000186022F480621204120C1A809A8822F482
:1088800080621204120C9A8021E76A7E002A8BD043
:1088900091E715F0800F284D3AD195F9186016E749
:1088A000167ED2F820E01F88022E95F9186045D96F
:1088B00027F480673F043F0C1F801F8AFFB20EF829
:1088C00006701F88D2F820E0BFB247F400771F80FF
:1088D000F2B21F8A561C76B2FFB20EF806709F885D
:1088E000961CBAB276B242F480622E769A806BE71A
:1088F0001A8892B242F400621A8040E71A8895F909
:10890000186092B242F4807201271A806F765BE79A
:1089100095F91870B7F1FF3F2CD0D669F65D1E822D
:1089200092F818E001377AB2964516462A767FF417
:10893000CEAEA3E7284F002030250020BFB247F479
:1089400000771F801F8AFFB20EF80670F6B21F8AEA
:10895000D2F820E0721C52B20336FFB276B20EF8A3
:1089600002702E7630E79A8822F480621204120C8C
:108970009A80DCE6D77D1F822E76957E1DB9127E09
:10898000002A7FF403AF9A8822F480621204120C4A
:108990009A80FBE6F0B5876983B0064617B13B685D
:1089A000BA885A837069DFF8A4E08389C3244FF43E
:1089B0007A734FF0060C6D464FF6FF710EF1010E03
:1089C00003E0013B9BB28B4220D002899207F8D58D
:1089D000A3B283814FF47A7302E0A3B28B4215D025
:1089E0000289D20703F1FF34F7D5828992B20DB123
:1089F0002A700135BCF1000F0BD00CF1FF3CFF24B5
:108A0000BEF1000FE1D09EF80040D7E721F094FFBF
:108A1000B76917B13B68BA881A839DF805009DF8BD
:108A200001509DF802109DF803409DF804209DF828
:108A3000063041EA052143EA002342EA04220120EC
:108A400031877287B38703B0F0BD00BFD0700408D0
:108A500037B506236A4604460D460C30032121F043
:108A60008DFF024690B1B4F91A106846FFF7C8FAB4
:108A70002880B4F91E100DF10200FFF7C1FAA8809A
:108A8000B4F91C1001A8FFF7BBFA6880104603B0C8
:108A900030BD2DE9F04F4FF4807385B0438383835D
:108AA000C38300F10C05044632200BF0C5FF1122F0
:108AB0000021284621F0E6FF60220121284621F00E
:108AC000E1FF64200BF0B8FF02A920460027FFF762
:108AD000BFFF0123B946B8463E460193012E14BF9D
:108AE000112212220021284621F0CCFF002E0CBFBB
:108AF0004FF0010B4FF0FF3B4FF00A0A0122022119
:108B0000284621F0BFFF14200BF096FF02A9204653
:108B1000FFF79EFFBDF90A20BDF90C00BDF9081052
:108B2000224B82420BFB0299A8BF02468A42A8BF91
:108B30000A469A4201FB0B880BFB007733DB0120CE
:108B400021F09EF9BAF1010AD8D10136022EC5D121
:108B5000174B93FBF8F893FBF9F97022A3F58423E4
:108B6000002193FBF7F7A4F81A80A4F81C90E78380
:108B7000284621F087FF20220121284621F082FF8C
:108B800000223146284621F07DFF64200BF054FF7F
:108B9000019B23B94FF480736383A383E383012094
:108BA00005B0BDE8F08F00230193CEE701F0FFFF91
:108BB00000D03B0007B5032301AA002121F0DEFE0F
:108BC0009DF805309DF804001B0243EA00439DF820
:108BD0000600184303B05DF804FB08B5FFF7EAFF91
:108BE000014B586008BD00BF3025002008B5FFF7D5
:108BF000E1FF014B186008BD3025002007B50623B2
:108C00006A46F72121F0BAFE9DF801309DF8001068
:108C10000B4A1B0143EA01339DF8021043EA11138A
:108C2000D3609DF804309DF803101B0143EA013323
:108C30009DF8051043EA1113936003B05DF804FB3F
:108C40003025002007B5032301AAF62121F096FE66
:108C50009DF805309DF804201B0243EA02439DF86D
:108C600006201343054AB2F92020C2F10802D3407E
:108C7000034A536103B05DF804FB00BFDC9200209F
:108C80003025002007B5022301AAF62121F076FE47
:108C90009DF804209DF8053043EA0223024A13821E
:108CA00003B05DF804FB00BF3025002070B582B032
:108CB0000446062310306A46432121F05FFEA8B126
:108CC0009DF804009DF800609DF801109DF8025089
:108CD0009DF803209DF8053041EA062143EA002370
:108CE00042EA052221876287A387012002B070BD76
:108CF00070B582B00446062308306A463B2121F055
:108D00003DFEA8B19DF804009DF800609DF801109B
:108D10009DF802509DF803209DF8053041EA062198
:108D200043EA002342EA0522E18222836383012091
:108D300002B070BDF8B5057B466903681F2D29D9BF
:108D4000A5F120045F682021A1400F422A4613D0DC
:108D50001022A240D960DA605A68E240D10703D5F8
:108D6000012202FA04F4DC600446304621F000F8E7
:108D7000227B23681F2A20D9A2F1200008215A68EB
:108D80008140114200D0D9600422596882400A42D1
:108D900021D1F8BD20211C68A9400C422A460CD0E4
:108DA0001022AA4099609A601A68EA40D207DBD57F
:108DB000012202FA05F59D60D6E708211868914066
:108DC000014200D099600421186801FA02F20242BF
:108DD00003D09A60F8BDDA60F8BDF8BD08B540F27E
:108DE000E93300E0A3B10289013B12F0020F9BB20C
:108DF000F8D089B2818140F2E93300E043B10289C1
:108E0000013B12F0010F9BB2F8D08089C0B208BDBF
:108E100021F092FDC0B208BD2DE9F843A24D2B68A8
:108E200013B11A6899885183A04A1278012A00F078
:108E3000B281C0F09B81022A40F064819C4E0822DE
:108E400032704FF4C3729B4F3A8013B11A689B88FB
:108E50005383994C4FF010084FF0010940F2E93369
:108E600002E0002B00F058812289013B12F0020F32
:108E70009BB2F6D01FFA88F3A38140F2E93302E0F7
:108E8000002B00F049812289013B12F0010F9BB2B7
:108E9000F6D0A38940F2E93302E0002B00F04081D4
:108EA0002289013B12F0020F9BB2F6D0A4F80C907D
:108EB00040F2E93302E0002B00F032812289013BCD
:108EC00012F0010F9BB2F6D0A38908F10108B8F1A6
:108ED000200FC3D12B681BB11A689B88138353835F
:108EE0003478754940F2E93302E0002B00F032811A
:108EF0000A89013B12F0020F9BB2F6D000238B814E
:108F000040F2E9336C4902E0002B00F023810A892A
:108F1000013B12F0010F9BB2F6D08B89664940F2FB
:108F2000E93302E0002B00F019810A89013B12F0BD
:108F3000020F9BB2F6D0A4B28C8140F2E9335E49B5
:108F400002E0002B00F00A810A89013B12F0010FB8
:108F50009BB2F6D08B89594B57491C7840F2E933C4
:108F600002E0002B00F0FE800A89013B12F0020FA4
:108F70009BB2F6D002238B8140F2E9334E4902E0E6
:108F8000002B00F0EF800A89013B12F0010F9BB229
:108F9000F6D08B89484940F2E93302E0002B00F01B
:108FA000C9800A89013B12F0020F9BB2F6D0A4B22D
:108FB0008C8140F2E933404902E0002B00F0BA8096
:108FC0000A89013B12F0010F9BB2F6D08B893C4B12
:108FD00039491C7840F2E93302E0002B00F0AE8002
:108FE0000A89013B12F0020F9BB2F6D003238B815A
:108FF00040F2E933304902E0002B00F09F800A89FB
:10900000013B12F0010F9BB2F6D08B892A4840F247
:10901000E93302E0002B00F095800289013B12F059
:10902000020F9BB2F6D0A4B22349848140F2E93307
:1090300002E0002B00F086800A89013B12F0010F4C
:109040009BB2F6D08B891F4B1B481C7840F2E9334A
:1090500044F0040401E0002B78D00289013B12F0B7
:10906000020F9BB2F7D004238381134940F2E93306
:1090700001E0002B6AD00A89013B12F0010F9BB27C
:10908000F7D08B890C4840F2E93301E0002B4DD03A
:109090000289013B12F0020F9BB2F7D0A4B206493D
:1090A000848140F2E93311E0309800204498002098
:1090B000621E0020601E0020003800404B980020F7
:1090C0004C98002094290020002B2FD00A89013BC6
:1090D00012F0010F9BB2F7D08B892B6813B11A687D
:1090E0009B881383344C3A88344800213DF081FF3B
:1090F0002378CBB1324B1B78002B52D00023237046
:10910000BDE8F8832F4E327812F0400F0CBF4FF4B9
:10911000C3724FF4F07296E6204621F00DFCB9E6DA
:10912000204621F009FCD0E6BDE8F883264821F06E
:1091300003FCD2E7244821F0FFFB48E7224821F056
:10914000FBFB63E7204821F0F7FB7CE71E4821F09A
:10915000F3FB97E71C4821F0EFFBDFE61A4821F00C
:10916000EBFBF8E6184821F0E7FB13E7A0211648CF
:10917000FFF734FE00211448FFF730FE00F006032D
:10918000022B03D000F00500012810D00D4E2B68F3
:109190000822327055E60B4E482232704FF4F072BE
:1091A00051E604F0EFFB00232370BDE8F883054E81
:1091B0002B6848223270F1E7000000205C25002077
:1091C000F7BC0020621E002000380040144B98427B
:1091D00024D003F58063984220D0028822F0400218
:1091E0001204120C0280028822F038031B041B0CAC
:1091F00059B141F48071002991FAA1F2B2FA82F1D9
:1092000008BF4FF0FF310139C9000B439BB2038007
:1092100003889BB243F04003038070474908DCE7B2
:10922000003800400C4B984213D0A3F5806398425D
:109230000FD003F5804398420BD003F5806398422A
:1092400007D003F58063984203D0044B18684008A8
:109250007047024B186870470004014004A00020CA
:10926000F0B5774B774A87B01968914200AF00F0AC
:10927000DB800023744A3B607B60136843F48033D7
:10928000136003E03B68B3F5A04F09D0136803F403
:1092900000337B603B6801333B607B68002BF1D07F
:1092A000694B1B6813F4003318BF01237B607B6894
:1092B000012B7BD0654D644B654AEA606549586F68
:1092C000654A0860AA605E6B644C654A654826F092
:1092D00080065E635E6F46F080765E67196B0C43B6
:1092E0001C63596B5963996B9963196C41F05B511D
:1092F00041F47B1141F41F6141F00F011964596C75
:1093000007F118040A4348F2FF715A6444F8101D2B
:10931000002621460123FB733E737E73BE7328F043
:10932000E5F921464FF6FF734F48BB6028F0DEF9A0
:109330004FF6FF7321464D48BB6028F0D7F9214610
:109340004B4828F0D3F921464A4828F0CFF9214666
:10935000494828F0CBF92146484828F0C7F921466A
:10936000474828F0C3F92146464828F0BFF920466F
:1093700028F00CF9444B454C1B68BA6844484549F1
:10938000A4FB03439B09A0FB0202013B920CB3F137
:10939000807F0A6007D2404AF0200721536085F899
:1093A0002300966011601C37BD46F0BD264B3B4C38
:1093B0001A6C3B4942F080521A6420688A684D68F2
:1093C000C96840F440402060986898609868120628
:1093D00040F40040986042EA8512986842F48002A6
:1093E000490842F00802013942EA014240F4A05023
:1093F00098605A601A6842F080721A601A68920186
:10940000FCD52849104A40F205700860996821F09F
:1094100003019960996841F002019960936803F033
:109420000C03082BFAD145E700221A6062B61E4BE6
:109430001B6883F308881D4B1B689847FEE700BF35
:10944000FCFF0120EFBEADDE0038024000ED00E081
:109450000005FA05706B002000000008FF9167000E
:10946000335F070000000240000402400008024091
:10947000000C02400010024000140240001802409C
:10948000001C02400020024004A00020D34D6210C6
:1094900083DE1B43BC97002010E000E0007000401A
:1094A00000000020003C02400000FF1F0400FF1FDE
:1094B00008B5054B1B6803B19847044B044A1A6072
:1094C00072B6FEF7F7FF00BF908F0020FCFF01206F
:1094D000EFBEADDE2DE9F04F90F8553085B0064671
:1094E000002B40F0A58002AB0093A34BDB7E002B4A
:1094F00000F0F9807069A14B984200F02884A04ADE
:1095000090420CBF30223822038823F040031B0412
:109510001B0C038003889BB223F038031A4302809C
:1095200003889BB243F040030380B36996F84E4032
:1095300013B11A689B88538340F2E93304E0013B7E
:109540009BB2002B00F0AD8402899707F7D51A2350
:10955000838140F2E93304E0013B9BB2002B00F031
:10956000A0840289D507F7D5838940F2E93304E066
:10957000013B9BB2002B00F0908402899107F7D544
:10958000A4B2848140F2E93304E0013B9BB2002B9A
:1095900000F083840289D207F7D58389B36913B1B8
:1095A0001A689B88138301200BF0ECF97369734AE6
:1095B000934200F0998472498B4214BF0821002124
:1095C0001A8822F040021204120C1A801A8892B2F1
:1095D00022F03802114319801988009A89B241F0AB
:1095E0004001198006F110000623432121F0C6F93D
:1095F000002800F0D9839DF80A509DF80B309DF8A3
:1096000008409DF809109DF80C009DF80D2043EAD4
:1096100005231BB241EA042142EA00227387318705
:10962000B2875BB2013300F0958305B0BDE8F08FDF
:109630001D09013D032D03F00F0300F24C84514A34
:1096400032F8150040FA03F2D70740F144840124B0
:1096500004FA03F3013B18403CF0C6F84A4B4B4A6E
:109660005B5D184412EBC00500F035840023202117
:10967000EB71A97152F83000454A00F13F4303F500
:109680007E039B0AD25C02F01F035209032A04FAEC
:1096900003F300F05D84042A00F05484022A00F0F1
:1096A0004B84AB88029302A900230091039328F016
:1096B0001DF83146374B41F80C3F284630F0C8FEC4
:1096C000AB88B3FA83F3C3F11F03012212FA03F349
:1096D0003FF40BAF30490A6813430B60264BDB7E27
:1096E000002B7FF407AF7069244B984200F0388458
:1096F000234A90420CBF30223822038823F04003D3
:109700001B041B0C038003889BB223F038031A430D
:10971000028003889BB243F040030380B36913B116
:109720001A689B88538340F2E93304E0013B9BB203
:10973000002B00F0E28302899407F7D56B23838125
:1097400040F2E93304E0013B9BB2002B00F0D583EB
:109750000289D107F7D5838940F2E93304E0013B60
:109760009BB2002B00F0C68302899207F7D58023B5
:10977000838140F2E93316E03025002000380040B4
:10978000003C00404CA6040848A60408F8950020B8
:10979000D8A4040865840008003C0140013B9BB24A
:1097A000002B00F0A7830289D707F7D58389B36917
:1097B00013B11A689B8813839623A54CA54DDFF837
:1097C0009CA2A548DFF898C201964FF010084FF40C
:1097D0007A779946DAF80430C3F30803002B40F097
:1097E0003F83EFF31183002B40F03A8323688168B5
:1097F00000BF22689342F9D12A6807FB02FEAEEB54
:10980000010EBEFBF2FE07FB03EE0126DAF8043080
:10981000C3F30803002B40F0CA82EFF31183002B3F
:1098200040F0C5822368816800BF22689342F9D165
:10983000D5F800B007FB0BF2521AB2FBFBF207FBA4
:109840000323A3EB0E03B3F57A7FDFD3B9F101094C
:10985000C0D1019EB36913B11A689B8853837069A4
:1098600040F2E93304E0013B9BB2002B00F01E8381
:1098700002899707F7D56823838140F2E93304E032
:10988000013B9BB2002B00F011830289D107F7D571
:10989000838940F2E93304E0013B9BB2002B00F0E6
:1098A000268302899207F7D50323838140F2E933A7
:1098B00004E0013B9BB2002B00F019830289D7071B
:1098C000F7D58389B36913B11A689B8813839623EC
:1098D000DFF888A16048DFF888C101964FF01008D2
:1098E0004FF47A779946DAF80430C3F30803002B73
:1098F00040F09982EFF31183002B40F094822368AB
:10990000816800BF22689342F9D12A6807FB02FEF2
:10991000AEEB010EBEFBF2FE07FB03EE0126DAF80A
:109920000430C3F30803002B40F05F82EFF3118390
:10993000002B40F05A822368816800BF226893425E
:10994000F9D1D5F800B007FB0BF2521AB2FBFBF2CB
:1099500007FB0323A3EB0E03B3F57A7FDFD3B9F143
:109960000109C0D1019EB36913B11A689B88538362
:10997000706940F2E93304E0013B9BB2002B00F038
:10998000998202899207F7D56B23838140F2E933EC
:1099900004E0013B9BB2002B00F08C820289D707C8
:1099A000F7D5838940F2E93304E0013B9BB2002BF9
:1099B00000F0848202899507F7D50323838140F262
:1099C000E93304E0013B9BB2002B00F0778202896F
:1099D000D407F7D58389B36913B11A689B881383B9
:1099E0000F200AF0CFFFB36913B11A689B88538325
:1099F0006A217069FFF7F2F9706940F2E93304E017
:109A0000013B9BB2002B00F05C8202899107F7D5E5
:109A10001023838140F2E93304E0013B9BB2002B29
:109A200000F04F820289D207F7D58389B36913B159
:109A30001A689B8813830F200AF0A4FFB36913B13F
:109A40001A689B885383706940F2E9330FE000BFC6
:109A5000B8970020BC97002010E000E000ED00E087
:109A6000B4970020013B9BB2002B00F04A82028990
:109A70009707F7D56C23838140F2E93304E0013B7B
:109A80009BB2002B00F03D820289D507F7D5838970
:109A900040F2E93304E0013B9BB2002B00F0358239
:109AA00002899407F7D50023838140F2E93304E06B
:109AB000013B9BB2002B00F028820289D107F7D529
:109AC0008389B36913B11A689B8813830F200AF046
:109AD00059FFB36996F8504013B11A689B885383B5
:109AE000706940F2E93304E0013B9BB2002B00F0C7
:109AF0000F8202899207F7D51923838140F2E93357
:109B000004E0013B9BB2002B00F002820289D707E0
:109B1000F7D5838940F2E93304E0013B9BB2002B87
:109B200000F0FA8102899507F7D5A4B2848140F24A
:109B3000E93304E0013B9BB2002B00F0ED81028988
:109B4000D407F7D58389B36913B11A689B88138347
:109B50000F200AF017FFB36913B11A689B8853836B
:109B6000706940F2E93304E0013B9BB2002B00F046
:109B7000D68102899107F7D51B23838140F2E9330F
:109B800004E0013B9BB2002B00F0C9810289D2079F
:109B9000F7D5838940F2E93304E0013B9BB2002B07
:109BA00000F0C18102899707F7D51823838140F21D
:109BB000E93304E0013B9BB2002B00F0B481028941
:109BC000D507F7D58389B36913B11A689B881383C6
:109BD0000F200AF0D7FEB36913B11A689B8853832C
:109BE0001C217069FFF7FAF8706940F2E93304E06C
:109BF000013B9BB2002B00F0998102899407F7D5B5
:109C00001023838140F2E93304E0013B9BB2002B37
:109C100000F08C810289D107F7D58389B36913B12C
:109C20001A689B8813830F200AF0ACFEB36913B146
:109C30001A689B88538337217069FFF7CFF87069E2
:109C400040F2E93304E0013B9BB2002B00F071814C
:109C500002899207F7D51023838140F2E93304E0AB
:109C6000013B9BB2002B00F064810289D707F7D536
:109C70008389B36913B11A689B8813830F200AF094
:109C800081FEB36913B11A689B885383706940F2EF
:109C9000E93304E0013B9BB2002B00F015810289FF
:109CA0009507F7D53823838140F2E93304E0013B7F
:109CB0009BB2002B00F008810289D407F7D5838975
:109CC00040F2E93304E0013B9BB2002B00F000813D
:109CD00002899107F7D50123838140F2E93304E03B
:109CE000013B9BB2002B00F0F3800289D207F7D52D
:109CF0008389B36913B11A689B8813830F200AF014
:109D000041FE7369984A934200F0288197498B423B
:109D100014BF082100211A8822F040021204120CFC
:109D20001A801A8892B222F03802114319801A88D8
:109D300092B242F040021A8001200AF023FE8C4ABF
:109D400070690123D376884B98427FF4D8AB3022D8
:109D5000FFF7DABB96F9383001337FF466AC0A2698
:109D6000322030F0B7F84FF4FA750AF0BFFD044620
:109D70000AF0BCFD001BB0F57A7FF9D3013DF4D1A8
:109D800007202FF009FF4FF47A750AF0AFFD044663
:109D90000AF0ACFD001BB0F57A7FF9D3013DF4D198
:109DA000013EDDD1FFF784FBB6F93A3039E4EFF339
:109DB000118188F31288D0F808B00368DB0344BF30
:109DC000CCF80060D0F808B02368DCF80020C9B2F5
:109DD00081F3118829681A4407FB01F3A3EB0B03F5
:109DE000B3FBF1F307FB02332BE5EFF3118188F3AB
:109DF0001288D0F808B00368DB0344BFCCF80060D9
:109E0000D0F808B02368DCF80020C9B281F31188CB
:109E100029681A4407FB01F3A3EB0B03B3FBF1F32F
:109E200007FB023396E5EFF3118288F3128881680D
:109E30000368DE0303D50123CCF800308168236872
:109E4000DCF80060D2B282F311882A6806EB030EB8
:109E500007FB02F35B1AB3FBF2F307FB0E3E5DE573
:109E6000EFF3118288F3128881680368DE0303D55B
:109E70000123CCF8003081682368DCF80060D2B29E
:109E800082F311882A6806EB030E07FB02F35B1AC4
:109E9000B3FBF2F307FB0E3EB7E420F04DFDFFF7F6
:109EA0007DBB20F049FD7069FFF75FBB20F044FDEA
:109EB0007069EEE420F040FD706973E520F03CFD30
:109EC00089E520F039FDB1E520F036FD7069F7E64F
:109ED00020F032FD0DE73146264B41F80C3F0020C3
:109EE00030F0B6FAFFF7FFBA0021FFF769BB20F0A8
:109EF00023FDE7E420F020FD59E420F01DFD70690A
:109F00002AE420F019FD7069C2E520F015FDD8E5BE
:109F100020F012FD7069FDE520F00EFD13E620F043
:109F20000BFD706936E620F007FD4CE620F004FDDD
:109F300074E620F001FD9CE60F4A516C0B4353641C
:109F4000FFF7AFBB0C4A116B0B431363FFF7A9BBC1
:109F5000094A116C0B431364FFF7A3BB0021DAE637
:109F60003022FFF7CABB00BF00380040003C004071
:109F700030250020658400080038024008B5034BF6
:109F80001B6803B1984772B6FEF794FA908F0020D1
:109F9000064A00235168814202F11C0204D00133B9
:109FA000102BF7D100207047D8B270475C1B0020FF
:109FB000074BC0EBC00030B403EB8000054C0569D3
:109FC000236B2B4323630176427630BC704700BF7E
:109FD0005C1B0020003802402DE9F04F614C54F822
:109FE000204083B0002C00F0B880256E002D00F0DA
:109FF000B68017465C4A9846064604F1660328690F
:10A00000226004F266226361A2614FF400736A6801
:10A01000A160E3602361A265A14668B1FFF7B8FFC4
:10A02000721CD2B20C21FFF7C3FFA36DA9682A6985
:10A0300062630433E1636365E86880B3FFF7A8FFF8
:10A04000721CD2B20B218246FFF7B2FF4748DFF8FD
:10A0500020E1EB7FDEF83010CAEBCA0A00EB8A0081
:10A060009B0902690A43CEF83020DFF808E1417B02
:10A07000446100228DF80530C0F808E0012301A8F2
:10A080008DF804108DF806208DF8073027F064FC59
:10A09000A36DA968EA68A26304332164236594F878
:10A0A000650020F07FF8824694F8640020F07AF88A
:10A0B0008346287F00284DD118F0080F36D1BA0703
:10A0C0000DD5BAF1000F0AD00B22731C8AF80620B6
:10A0D0008AF8073050466A7F222120F029F9FB07D1
:10A0E00015D4E36B7BB9AA7F8DF8042095F8202066
:10A0F0008DF8063001A8930901228DF805308DF8FE
:10A10000072027F029FC484603B0BDE8F08FBBF1DB
:10A11000000FE6D001360C238BF807608BF8063071
:10A1200058466A7F222120F003F9DAE70136F6B2B9
:10A13000BAF1000F04D00B238AF807608AF80630C2
:10A1400018F0100F504614BF022112216A7F20F030
:10A15000EFF8C6E72FF09EFCAEE7A146D3E7A9468D
:10A16000D1E700BF004F0020D87004085C1B00201E
:10A1700000380240358D000800B970472DE9F041E4
:10A1800094B0064630F03CFBB64DC36802682A60C6
:10A190000446002B00F03C81304620F003F8B24B1F
:10A1A000D86118B1292200238271C371227A2A2131
:10A1B00020F0BEF828680AF013FA2FF06BFCD5F8EF
:10A1C0000080B8F8003023F001031B041B0CA8F832
:10A1D00000304046FFF726F8A44B984200F21B815E
:10A1E0000026DFF8C0E2A24FB8F80030A14906F11E
:10A1F000010CB0FBFCF04FF0030CB0FBF1F081B2AE
:10A20000B1FBFCF1AEF80010490039809A4988454D
:10A210009BB200F00A8101F58061884500F005815C
:10A22000B8F1804F00F00181A1F58031884500F040
:10A23000FC8001F58061884500F0F78001F58061C0
:10A24000884500F0F2808D49884500F0048101F5D1
:10A250008061884500F0FF8023F44071864B89B20D
:10A260009845A8F80010C8F82C00A8F8286000F05D
:10A27000EE80834B984500F0EA800121A8F8141085
:10A28000E27960200023ADF800009007ADF80230BD
:10A29000ADF804300293ADF80C30ADF80E30ADF8E7
:10A2A0001030ADF8123040F1C48012F0010F0CBF35
:10A2B0001A4608220423ADF80E20ADF8043000231E
:10A2C0002868617902936A4609F04EFD60792B682F
:10A2D0000C2816D8DFE810F0FA001500150015005C
:10A2E0000D00150015001500F100150015001500F2
:10A2F000E8001A8B22F400621204120C42F400628D
:10A300001A83B3F844205F4E6FEA42426FEA52422A
:10A3100092B2A3F844201A8892B242F080021A80C6
:10A32000E279198C92074CBF04220122824092B23A
:10A3300089B221EA02011984198C89B20A431A846C
:10A340001A8892B242F001021A80207D002229214F
:10A35000FFF72EFE227D4C4B4C494D481C2707FB36
:10A3600002320B6B17693B430B63537B90600027F2
:10A37000576105A88DF8143001238DF815308DF83C
:10A3800017308DF8167027F0E7FAE068306027F094
:10A390004BFA3068036823F00103036027F044FAA6
:10A3A00005A827F003FA2A68637930680A973432DF
:10A3B0001A44069240F22A3209924FF480620B92BC
:10A3C000344B22690592079340224FF4805305A92C
:10A3D00008920C934FF480424FF440330D920F9348
:10A3E0000E9727F0F5F96379286831682A4C0C2B11
:10A3F0009CBF2A4A32F81330828988BF3B4692B20A
:10A40000134383810B68012243F010030B60227019
:10A4100014B0BDE8F08100F1B77303F5585320493B
:10A42000B3FBF1F3013B9EB2DBE623F070039BB27A
:10A4300009E712F0010F0CBF002202224FF48073D3
:10A44000ADF80210ADF80C20ADF8103037E700235E
:10A45000A8F8303011E7A8F80030C8F82C00A8F8A8
:10A4600028600AE72460002030250020FF6BDC0212
:10A470001A60002000350C00000001400010004070
:10A4800000040140206000205C1B002000380240D6
:10A4900011860008D8BF00201C600020E099040845
:10A4A000006CDC02186000209A8B22F40062120417
:10A4B000120C42F400629A8323E79A8B22F008027E
:10A4C0001204120C42F008029A831AE71A8B22F047
:10A4D00008021204120C42F008021A8311E7044821
:10A4E000D0F8AC3113B100F5D2701847704700BFF7
:10A4F0005C1B00200348D0F8903113B100F5C47004
:10A50000184770475C1B00200348D0F8743113B122
:10A5100000F5B670184770475C1B00200348D0F860
:10A52000583113B100F5A870184770475C1B002024
:10A530000348D0F83C3113B100F59A7018477047C2
:10A540005C1B00200348D0F8203113B100F58C705B
:10A55000184770475C1B00200348D0F804310BB14A
:10A56000FC301847704700BF5C1B00200348D0F840
:10A57000E8300BB1E0301847704700BF5C1B00208B
:10A580000348D0F8CC300BB1C4301847704700BF37
:10A590005C1B00200348D0F8B0300BB1A83018473E
:10A5A000704700BF5C1B00200348D0F894300BB10B
:10A5B0008C301847704700BF5C1B00200248836F37
:10A5C0000BB17030184770475C1B00200248C36D08
:10A5D0000BB15430184770475C1B00200248036CD5
:10A5E0000BB13830184770475C1B00200248436AA3
:10A5F0000BB11C30184770475C1B00200248836871
:10A6000003B11847704700BF5C1B0020F8B5848970
:10A610004FF6FF764FF47A7433B319B30F780131E4
:10A6200001E0B44218D00589013CAD07A4B2F8D5C9
:10A63000BCB284814FF47A7402E0BCB2B4420BD055
:10A640000589ED0704F1FF37F7D58589ADB20AB169
:10A6500015700132013BDFE720F06EF9003018BFC2
:10A660000120F8BDFF27DEE70120F8BDF8B50501A0
:10A67000684C694B625961199A4204EB050704BFA3
:10A6800001230B730646387A2FF004FA3B7A03F065
:10A690001F015B090122032B02FA01F26DD0042B8A
:10A6A00066D0022B5CD06319013618791FF07AFD51
:10A6B000F6B2074610B11223C67183716319587937
:10A6C0001FF070FD10B11323C6718371631998795F
:10A6D0001FF068FD10B11423C671837166190A2139
:10A6E000F27938461FF024FE70791FF05BFDF27995
:10A6F0000A211FF01DFEB0791FF054FDF2790A21E6
:10A700001FF016FE6359454A934247D0444A93428C
:10A7100050D0414A934259D0424A934262D0424A71
:10A7200093426BD0414A93422CD02C44227BE2B915
:10A7300001200222198801F4415141F445710A4374
:10A7400002431A809A8B22F400621204120C072131
:10A750009A8319821A8892B242F040021A80F8BD98
:10A76000334B596A0A435A629DE700200246E1E7EB
:10A770002F4B19690A431A6195E72D4B196A0A4351
:10A780001A6290E702F564424FF40010536A43F4F2
:10A790000013536226F03CFE6359C6E702F584328B
:10A7A0004FF48050536A43F48053536226F030FED6
:10A7B0006359BAE702F500324FF48040136A43F45C
:10A7C0008043136226F02CFE6359AEE702F5FE3299
:10A7D0004FF40040136A43F40043136226F020FE56
:10A7E0006359A2E702F582324FF40050536A43F4F2
:10A7F0000053536226F00CFE635996E702F5684257
:10A800004FF48010536A43F48013536226F000FE25
:10A8100063598AE764980020003C00400030014002
:10A820000038004000340140005001400054014015
:10A8300000380240431C00F014812DE9F04F4FEA2C
:10A84000C00808EB00039B00DFF8F4A25AF803B03D
:10A8500087B00AEB0304BBF1000F00F0FF80143354
:10A860000AEB03010022DBF804704AF803204A6077
:10A870008A60CA600346A56801900133D4F80C9041
:10A88000DBB2002D00F0EE801522EB71AA71B9F158
:10A89000000F00F00081162289F8062089F80730A1
:10A8A0009BF80E002FF0F6F8BB8823F440731B04CE
:10A8B0001B0CBB8028461FF0C5FE48461FF0C2FE99
:10A8C000112128461FF0B8FB112148461FF0B4FBA8
:10A8D0000826642404E00A203CB10AF053F8013C45
:10A8E00028461FF0D7FE0028F5D028461FF0A4FE0A
:10A8F0000A200AF047F828461FF0A4FE0A200AF0B2
:10A9000041F8013EECD148461FF096FE0A200AF0BD
:10A9100039F828461FF090FE0A200AF033F828463E
:10A920001FF090FE0A200AF02DF848461FF08AFE1C
:10A93000019B08EB03040AEB84042846637C002B8C
:10A940000CBF1221322104221FF0F2FC637C002B89
:10A950000CBF12213221484604221FF0E9FC704B43
:10A960009F4200F0B7806F4B9F4200F0BD806E4B5E
:10A970009F4200F0A580BB8801996C4A6C4C23F47F
:10A9800040731B041B0CBB803B8888440AEB880A7D
:10A990009BB243F001039AF810103B80BD8802A8D7
:10A9A000002918BF144626F0F1FD049A6148B2FB55
:10A9B000F4F325F03F05A0FB02122D04900C2D0CA2
:10A9C0000543BD805C4C39884FF4967202FB00F25F
:10A9D00084FB02409BB2D217002BC2EBA01221F0E5
:10A9E000010108BF01230904013243F40043090CAB
:10A9F00092B239803A84BB833B889BB243F0010317
:10AA00003B803B8823F4816323F002031B041B0C6F
:10AA100043F480634FF480423B803A813B8823F0CB
:10AA200080031B041B0C3B809BF810308DF8083012
:10AA30000024012302A88DF80B308DF809408DF811
:10AA40000A4026F089FF9BF80F308DF8083002A8E5
:10AA50008DF809408DF80A4026F0A4FF07B0BDE844
:10AA6000F08F7047B9F1000F48D0162289F80730EF
:10AA700089F806209BF80E002FF00CF8BB8823F411
:10AA800040731B041B0C2846BB801FF0DBFD4846AF
:10AA90001FF0D8FD18E79BF80E002EF0FBFFBB88D7
:10AAA00023F440731B041B0CBB8028461FF0CAFD17
:10AAB00048461FF0C7FD112128461FF0BDFA07E7E1
:10AAC0001E4A136A43F4000313624FF4000026F099
:10AAD000A7FC50E7194A136A43F4001313624FF4BA
:10AAE000001026F09DFC46E7144A136A43F48003E5
:10AAF00013624FF4800026F093FC3CE79BF80E00B5
:10AB00002EF0C8FFBB8823F440731B041B0C48467F
:10AB1000BB801FF097FD48461FF094FDD8E600BFAC
:10AB20000054004000580040005C0040009F24009A
:10AB3000804F120083DE1B43D34D62100038024069
:10AB4000284F0020F0B5C60033189B00254DEA5869
:10AB50005468A28A83B092B20192019A2B4412F4F3
:10AB6000706F1CBF01221A75019B13F4E06F07463A
:10AB70000CD1A38A3E4423F4706305EB86051B04C5
:10AB80001B0C0022A3826A7503B0F0BD238BA3883F
:10AB900023F480631B041B0CA380019B9B05E8D45A
:10ABA00023889805E5D42388D9050ED52388DA05AE
:10ABB000FCD423889BB243F40073238023889B0535
:10ABC000FCD43846FFF736FED3E723889BB243F424
:10ABD00000732380A38823F440731B041B0CA38001
:10ABE000C7E700BF284F0020F0B583B0441C8DF8A4
:10ABF000073001D0032802DD002003B0F0BDC700FC
:10AC0000244E3B1806EB83035D68002DF4D0490009
:10AC1000C9B2997501240021DA755C7699761C76A3
:10AC20005C751975A9880DF107028905DA611A6248
:10AC300014D42B88DA050CD44FF4805401E0013C85
:10AC40001ED02B889B05FAD42B889BB243F48073CB
:10AC50002B80AB889BB243F44073AB80074406EB78
:10AC600087024FF4805401E0013C09D0537D002B52
:10AC7000FAD106EB87073C7D84F0010003B0F0BDFC
:10AC8000054A138801339BB21380FFF7D3FD20469A
:10AC9000B3E700BF284F0020545100202DE9F04FAA
:10ACA00085B0019090F85500002840F05386019A35
:10ACB000137C012B00F08F86022B12D1936913B104
:10ACC0001A689B885383019C6B216069FEF786F8A4
:10ACD00080216069FEF782F8A36913B11A689B8826
:10ACE0001383B14CB14DDFF8CC92B148DFF8C8E224
:10ACF0004FF0640A4FF0100C4FF47A76D9F8043014
:10AD0000C3F30803002B40F09585EFF31183002B6C
:10AD100040F090852168826800BF23689942F9D18C
:10AD20002F6806FB07F39B1AB3FBF7F306FB013111
:10AD300001270091D9F80430C3F30803002B40F039
:10AD4000C383EFF31183002B40F0BE832368816837
:10AD500000BF22689342F9D1D5F800B006FB0BF290
:10AD6000521AB2FBFBF206FB0323009A9B1AB3F5BF
:10AD70007A7FDFD3BAF1010AC0D1019A137C012B8B
:10AD800000F03386022B12D1936913B11A689B88A5
:10AD90005383019E68217069FEF720F807217069CE
:10ADA000FEF71CF8B36913B11A689B881383DFF8A8
:10ADB00004927F4EDFF800C24FF0640A4FF0100893
:10ADC0004FF47A77D9F80430C3F30803002B40F02E
:10ADD0004E85EFF31183002B40F049852168B2685E
:10ADE00000BF23689942F9D1286807FB00F39B1A3A
:10ADF000B3FBF0F307FB013101200091D9F80430D7
:10AE0000C3F30803002B40F07C83EFF31183002B86
:10AE100040F077832368B16800BF22689342F9D17C
:10AE2000D5F800B007FB0BF2521AB2FBFBF207FB9E
